:020000040000FA
:10000000880D00206D0200008102000083020000C4
:10001000850200008502000085020000000000004B
:100020000000000000000000000000008502000049
:10003000850200000000000085020000850200002B
:100040008502000085020000850200008502000094
:100050008502000085020000850200008502000084
:100060008502000085020000850200008502000074
:100070008502000085020000850200008502000064
:100080008502000085020000850200008502000054
:100090008502000085020000850200008502000044
:1000A0008502000085020000850200008502000034
:1000B0008502000085020000850200008502000024
:1000C0008502000085020000850200008502000014
:1000D0008502000085020000850200008502000004
:1000E000850200008502000000000000850200007B
:1000F00085020000850200008502000085020000E4
:1001000085020000850200008502000085020000D3
:1001100000000000000000008502000085020000D1
:1001200085020000850200008502000085020000B3
:1001300085020000850200008502000085020000A3
:1001400000000000000000000000000000000000AF
:100150008502000085020000850200008502000083
:10016000000000000000000000000000000000008F
:10017000000000000000000000000000000000007F
:10018000000000000000000000000000000000006F
:10019000000000000000000000000000000000005F
:1001A000000000000000000000000000000000004F
:1001B0008502000085020000850200008502000023
:1001C0008502000085020000850200008502000013
:1001D0008502000085020000850200008502000003
:1001E000850200008502000085020000000000007A
:1001F000000000008502000085020000850200006A
:1002000085020000850200000000000000000000E0
:1002100085020000850200008502000085020000C2
:1002200085020000850200008502000085020000B2
:1002300085020000850200008502000085020000A2
:100240008502000085020000850200008502000092
:100250008502000085020000850200008502000082
:100260008502000085020000850200004EF68850DD
:10027000CEF20000016841F47001016000F004B8A2
:10028000FEE7FEE7FEE70000DFF80CD005F000FB1C
:100290000048004757260000880D0020EFF310802B
:1002A00072B67047EFF310807047EFF3108062B6BC
:1002B000704730BF704780F311887047EFF31180AB
:1002C000704700000138FDD17047000030B502468C
:1002D000F84B1824F8480068F84D2840F84DA8421B
:1002E00001D1F84B00BF002108E053F831009042E3
:1002F00003D103EBC100406830BD491CA142F4D3D7
:100300000020F9E702F001031BB1D0F800340B43E1
:1003100002E0D0F800348B43C0F8003402F002034E
:100320001BB1D0F820340B4302E0D0F820348B43CB
:10033000C0F82034704730B5024601208840C1B271
:10034000D2F80034D2F8204403EA010008B10120B9
:1003500000E0002004EA01050DB1022500E00025BF
:10036000284330BD02F001031BB1D0F808340B4321
:1003700002E0D0F808348B43C0F8083402F00203DE
:100380001BB1D0F804340B4302E0D0F804348B43A3
:10039000C0F8043402F004031BB1D0F80C340B4352
:1003A00002E0D0F80C348B43C0F80C3402F48033F4
:1003B00023B1D0F8383543F0010303E0D0F83835E5
:1003C00023F00103C0F838357047F0B5024601202C
:1003D0008840C1B2D2F80834D2F80444D2F80C6490
:1003E000D2F8385503EA010008B1012000E00020EE
:1003F00004EA01070FB1022700E00027384306EAAC
:1004000001070FB1042700E00027384305F001077A
:10041000384310B14FF48030F0BD0020FCE7F0B558
:1004200002F001051DB1D0F800550D4302E0D0F8EF
:1004300000558D43C0F8005502F002051DB1D0F8FB
:1004400004550D4302E0D0F804558D43C0F804551F
:1004500002F004051DB1D0F808550D4302E0D0F8B4
:1004600008558D43C0F8085502F008051DB1D0F8B5
:1004700018550D4302E0D0F818558D43C0F81855B3
:1004800002F010051DB1D0F83C550D4302E0D0F844
:100490003C558D43C0F83C55002416E00125A5408D
:1004A0000D4085B1D0F8C45F67000326BE40B54358
:1004B000C0F8C45FD0F8C45F6700C2F34116BE4005
:1004C0003543C0F8C45F651CECB2082CE6DB03F0D2
:1004D00001051DB1D0F80C550D4302E0D0F80C55C4
:1004E0008D43C0F80C5503F002051DB1D0F810552E
:1004F0000D4302E0D0F810558D43C0F8105503F0BD
:1005000004051DB1D0F814550D4302E0D0F8145580
:100510008D43C0F8145503F008051DB1D0F81C55E3
:100520000D4302E0D0F81C558D43C0F81C5503F470
:1005300000751DB1D0F844550D4302E0D0F8445584
:100540008D43C0F8445503F440751DB1D0F84055B3
:100550000D4302E0D0F840558D43C0F840551BB91B
:10056000D0F828550D4302E0D0F828558D43C0F847
:100570002855F0BDF0B514461D4601268E40F1B257
:10058000D0F800650E400EB1012600E0002632468C
:10059000D0F804650E400EB1022600E0002632437A
:1005A000D0F808650E400EB1042600E00026324364
:1005B000D0F818650E400EB1082600E00026324340
:1005C000D0F83C650E400EB1102600E00026324304
:1005D000D0F8C46F4F00FE4006F0030642EA461210
:1005E0002260D0F80C650E400EB1012600E0002616
:1005F0003346D0F810650E400EB1022600E000260A
:100600003343D0F814650E400EB1042600E00026F6
:100610003343D0F81C650E400EB1082600E00026DA
:100620003343D0F840650E404EB1D0F844650E40DB
:1006300016B14FF4007601E04FF4807633432B601F
:10064000F0BDD0F810240A43C0F810247047D0F849
:1006500010248A43C0F810247047024611B1D2F822
:1006600018047047D2F81404FBE7C0F81C14704754
:1006700070B504460D462046FFF728FE064629467B
:10068000304600F031FA304600F08AFA70BD70B59D
:1006900004462046FFF71AFE0546284600F0BCFA3D
:1006A000284600F03BFA70BD0246002000EB8100B6
:1006B000105870479465000000E00F400000FF7084
:1006C00000000A1054660000002303EB8103C250AF
:1006D000704730B504460D46002229462046FFF7F4
:1006E00011FE0023012229462046FFF798FE30BD67
:1006F00030B504460D46022229462046FFF702FE89
:100700000823042229462046FFF789FE30BD30B574
:1007100004460D46002229462046FFF7F3FD00233C
:10072000012229462046FFF77AFE30BD30B5044647
:100730000D46022229462046FFF7E4FD0823042245
:1007400029462046FFF76BFE30BD30B504460D4606
:10075000022229462046FFF7D5FD08230422294618
:100760002046FFF75CFE30BD30B504460D46022240
:1007700029462046FFF7C6FD0823042229462046C5
:10078000FFF74DFE30BD30B504460D460222294626
:100790002046FFF7B7FD0823012229462046FFF730
:1007A0003EFE30BD30B504460D46002229462046A7
:1007B000FFF7A8FD0823012229462046FFF72FFE58
:1007C00030BD30B504460D46082301222946204697
:1007D000FFF725FE012229462046FFF793FD30BD95
:1007E00030B504460D460923012229462046FFF76D
:1007F00016FE012229462046FFF784FD30BD30B5A4
:1008000004460D46022229462046FFF77BFD0923B8
:10081000012229462046FFF702FE30BD30B50446CE
:100820000D46022229462046FFF76CFD08230122CF
:1008300029462046FFF7F3FD30BD30B504460D468E
:10084000022229462046FFF75DFD0823042229469F
:100850002046FFF7E4FD30BD30B504460D460222C8
:1008600029462046FFF74EFD08230422294620464C
:10087000FFF7D5FD30BD30B504460D4600222946B0
:100880002046FFF73FFD0023012229462046FFF7BF
:10089000C6FD30BD30B504460D460222294620462D
:1008A000FFF730FD0823012229462046FFF7B7FD58
:1008B00030BD30B504460D46022229462046FFF7DA
:1008C00021FD0823012229462046FFF7A8FD30BD5F
:1008D00030B504460D46022229462046FFF712FD98
:1008E0000A23012229462046FFF799FD30BD30B585
:1008F00004460D46022229462046FFF703FD082341
:10090000012229462046FFF78AFD30BD30B5044656
:100910000D46022229462046FFF7F4FC0823012257
:1009200029462046FFF77BFD30BD30B504460D4615
:10093000022229462046FFF7E5FC0823012229462A
:100940002046FFF76CFD30BD30B504460D46002251
:1009500029462046FFF7D6FC0023012229462046DF
:10096000FFF75DFD30BD30B504460D460222294635
:100970002046FFF7C7FC0823012229462046FFF73F
:100980004EFD30BD30B504460D46002229462046B6
:10099000FFF7B8FC4FF40273012229462046FFF707
:1009A0003EFD30BD30B504460D46002229462046A6
:1009B000FFF7A8FC4FF48473012229462046FFF775
:1009C0002EFD30BD30B504460D4602222946204694
:1009D000FFF798FC0823012229462046FFF71FFD58
:1009E00030BD30B504460D46022229462046FFF7A9
:1009F00089FC0A23012229462046FFF710FD30BD5D
:100A000030B504460D46022229462046FFF77AFCFF
:100A10000823042229462046FFF701FD30BD30B5EA
:100A200004460D46022229462046FFF76BFC0823A8
:100A3000012229462046FFF7F2FC30BD014601F5B0
:100A4000A960704710B50146C1F307401B4BDB6E30
:100A500001248440234033B1012303EB4003184CAD
:100A600054F8230003E04300154C54F82300C1F36D
:100A70000722D0F82C350F249440A34301F00F0433
:100A800094402343C0F82C3510BDD0F834250A43D8
:100A9000C0F834257047D0F834258A43C0F834258F
:100AA0007047D0F830250A43C0F830257047D0F899
:100AB00030258A43C0F830257047000000E00F4021
:100AC0001467000000BFFEE710B5FFF7EEFB08B1AA
:100AD000012010BD0020FCE710B5FFF7DFFB08B1D7
:100AE000012010BD0020FCE730B50246B64C24685A
:100AF000B64DAC420ED0B44C2368002005E053F84C
:100B00002040B24D45F82040401C9B28F7D3AF4C05
:100B1000AD4D2C60AD4C44F8221030BDAC49AB4A11
:100B200042F820107047AB4951F82010AA4A1143EF
:100B3000A54A121D11607047A34A121D126802F4E3
:100B4000E061002006E0A34A52F820208A4200D14A
:100B500002E0401C0828F6D300BF704710B50A46D3
:100B600083089E4C54F8233019688307DC0EFF235A
:100B7000A34099438307DB0E02FA03F3194383086A
:100B8000964C54F82330196010BD01468808934AEA
:100B900052F8200000688A07D20ED040C0B27047D9
:100BA000042808D188491C31096841F48031864AFB
:100BB0001C3211602FE0052808D183491C310968D7
:100BC00041F40031804A1C32116024E0062808D12B
:100BD0007D491C31096841F480217B4A1C32116037
:100BE00019E00F2808D14FF0E021096941F0020116
:100BF0004FF0E02211610EE010280CD3A0F110019B
:100C000001F01F0201219140A0F110025209744B22
:100C100053F8222011607047042808D16A491C311A
:100C2000096821F48031684A1C3211602FE00528E0
:100C300008D165491C31096821F40031624A1C322F
:100C4000116024E0062808D15F491C31096821F4AD
:100C500080215D4A1C32116019E00F2808D14FF045
:100C6000E021096921F002014FF0E02211610EE05C
:100C700010280CD3A0F1100101F01F0201219140B6
:100C8000A0F110025209574B53F82220116070470F
:100C900010B501460020042905D14B4A1C321268C8
:100CA00002F4803028E0052905D1474A1C32126839
:100CB00002F4003020E0062905D1434A1C321268B4
:100CC00002F4802018E00F2905D14FF0E0221269CC
:100CD00002F0020010E010290ED3A1F11002520917
:100CE0003F4B53F822201268A1F1100303F01F04B8
:100CF0000123A34002EA030010BD022808D13249B3
:100D0000091F096841F000412F4A121F116024E0B9
:100D10000E2808D12C49091F096841F080512A4A40
:100D2000121F116019E00F2808D12749091F09680F
:100D300041F08061244A121F11600EE010280CD38C
:100D4000A0F1100101F01F0201219140A0F1100259
:100D50005209254B53F82220116070470E2808D104
:100D60001949091F096841F00061174A121F1160F3
:100D700019E00F2808D11449091F096841F00071D2
:100D8000114A121F11600EE010280CD3A0F11001BF
:100D900001F01F0201219140A0F110025209134BF2
:100DA00053F822201160704710B504462046FFF723
:100DB00082FA10BD10B5FFF781FA10BDA0F1100145
:100DC0000B4A11607047000008ED00E000080020A9
:100DD000C50A0000A46700000000FA05C46700000F
:100DE0006068000074680000886800009C6800006B
:100DF00000EF00E0024600210AE0F74850F8310019
:100E0000904204D3F44800EBC10040687047491C8D
:100E10000729F2D30020F9E7F0B50146DFF8BCC39B
:100E2000DCF860C1CCF38923DFF8B0C3DCF860C123
:100E3000CCF30905DFF8A4C3DCF864C1CCF3042CBF
:100E40000CF10106DFF894C3DCF864C10CF01F0C50
:100E50000CF10107B1FBF7F15A09A3EB421401FBB6
:100E600005F001FB02FC00EB5C1001FB04FC00EB55
:100E70009C20B0FBF6F0F0BDD8483C380068401C20
:100E800000027047D5480068D5490840D5498842D6
:100E900006D1D24880680004400900F50060704720
:100EA000CE484038006880B2401CC002F7E7CB480B
:100EB0000068CB490840CC49884209D1C74840382E
:100EC0000068C0F302400A30012101FA00F07047C7
:100ED0004FF48060FBE70146C1F30720C34A10448A
:100EE00000F0704040F00070C1F30722BF4B1A447D
:100EF000C2F3130240EA4210CAB240EA820000681C
:100F000008B1012070470020FCE70146C1F307202B
:100F1000B74A104400F0704040F00070C1F307225F
:100F2000B34B1A44C2F3130240EA4210CAB240EA79
:100F30008200006808B1012070470020FCE710B56E
:100F40000121C0F30722AB4B1A4402F0704242F079
:100F50000072C0F30723A74C2344C3F3130342EAF0
:100F60004312C3B242EA8302116010BD10B50021E2
:100F7000C0F307229F4B1A4402F0704242F0007205
:100F8000C0F307239B4C2344C3F3130342EA4312E9
:100F9000C3B242EA8302116010BD18B50121C0F34B
:100FA0000722954B1A4402F0704242F00072C0F3DF
:100FB0000723914C2344C3F3130342EA4312C3B201
:100FC00042EA830211600021009102E00099491C6D
:100FD000009100991029F9D30021C0F30722864B14
:100FE0001A4402F0704242F00072C0F30723824CB0
:100FF0002344C3F3130342EA4312C3B242EA830217
:10100000116018BD10B50121C0F307227B4B1A44B3
:1010100002F0704242F00072C0F30723774C234481
:10102000C3F3130342EA4312C3B242EA83021160DC
:1010300010BD10B50021C0F30722704B1A4402F016
:10104000704242F00072C0F307236C4C2344C3F398
:10105000130342EA4312C3B242EA8302116010BD95
:1010600010B50121C0F30722654B1A4402F070420B
:1010700042F00072C0F30723614C2344C3F313030F
:1010800042EA4312C3B242EA8302116010BD10B5B6
:101090000021C0F307225A4B1A4402F0704242F07A
:1010A0000072C0F30723564C2344C3F3130342EAF0
:1010B0004312C3B242EA8302116010BD10B5012190
:1010C000C0F307224F4B1A4402F0704242F0007204
:1010D000C0F307234B4C2344C3F3130342EA4312E8
:1010E000C3B242EA8302116010BD10B50021C0F303
:1010F0000722444B1A4402F0704242F00072C0F3DF
:101100000723404C2344C3F3130342EA4312C3B200
:1011100042EA8302116010BD30490968304A11402B
:10112000304A91420ED130B12C49096E41F0006134
:101130002A4A116618E02949096E21F00061274A00
:10114000116611E040B12549B031096841F0005104
:10115000224AC2F8B01007E02049B031096821F0F6
:1011600000511E4AC2F8B010704710B5044621461F
:101170002C20FFF7B9FC2C20FFF712FD10BD10B595
:101180002C20FFF749FD2C20FFF7C8FC10BD1349A8
:10119000496D0143114A516570471049496D8143BA
:1011A0000E4A516570470D4988657047014611B177
:1011B0000A48806D70470948006DFBE712490860D6
:1011C00070471148006870470F4908310860704740
:1011D0000D480830006870473C6A000000E00F408E
:1011E0000000FF700000051000000A1000E30F402F
:1011F00000EA0F4000E90F4000E50F4000E60F4015
:1012000000E70F4000E80F40B4E10F40FE490860DE
:101210007047FD49091D08607047FC48FC4908609B
:1012200000BFFEE710B5FFF744F810BD10B5F84851
:10123000001D006840F00400F549091D0860FFF733
:1012400038F8F348001D006820F00400F049091D3B
:10125000086010BDEF48C06D7047EE49C96D81430D
:10126000EC4AD1657047EB49C86770470146EA48C8
:10127000084050B101F00040E34A383A1060E648B7
:1012800081380840E34AC2F85001DF48383801602D
:1012900001F4007088B100BFDB483438006800F406
:1012A00040700028F8D0D8483438006800F4407006
:1012B000B0F5807F01D0002070470120FCE7D249C3
:1012C000503108607047D0485030006870472DE9B1
:1012D000FE4F05468A46CF480068D0490840D049AD
:1012E000884202D10020BDE8FE8FC5F3841605F0C8
:1012F0003800102805D1DFF82C93002700BF1526F1
:1013000033E005F03800302804D147F230594FF46B
:1013100000172AE005F03800382804D14FF40049BE
:101320004FF4800721E005F03800D8B91A2E01DC0F
:10133000092E01DA0020D6E7BB4850F826904FF47A
:10134000401747F04077B348C06F20F01C00019071
:10135000072E03DB019840F010000190AD49019881
:10136000C86702E04FF00009002705F4605000282C
:101370007ED105F0380028B105F03800102801D0E2
:101380000020B0E7C5F3026BA848FFF733FDA14981
:10139000C03108609F48D0F8B000A54900EA0104B8
:1013A00044F000449B48B0300460093E0BEBCB0096
:1013B000A04901EB001000EBC60040689549D1F848
:1013C000641188420DD10BEBCB009A4901EB001060
:1013D00050F8360040F400008B49283909688842EB
:1013E00002D00120009001E000200090009808B396
:1013F0008848B030006838438649C1F8B0000BEB2C
:10140000CB008C4901EB001000EBC60040687E4920
:10141000243908600BEBCB00864901EB001050F833
:10142000360079492839096801F4000108437649F2
:1014300028390860804850F82B005044401EB0FB0B
:10144000FAF84846FFF7E8FCB0FBF8FA5046FFF719
:10145000D1FC7049C03108606E48D0F8600100F4DA
:10146000000068B10098012812D16A48B03000E04D
:1014700034E0006840F080406649C1F8B00007E001
:1014800061482838006840F400006249C1F86001F2
:101490004FF40040029009E05B482038006800F0FB
:1014A000010000B105E00298401E02900298002859
:1014B000F2DC00BF029870B15648B0300468A8F161
:1014C0000100384340F08050044344F00044514848
:1014D000C0F8B0403CE04FF0000A39E05148FFF757
:1014E00089FC4C49C03108604A48D0F8600120F4BA
:1014F00000004849C1F860010846D0F8B0404F48A4
:10150000044044F000444348B0300460BAF1000F96
:1015100002D14FF000080AE0B9FBFAF8B8F1000F69
:1015200001D0A8F1010808F10100B9FBF0FA50461A
:10153000FFF760FC3749C03108603648D0F8B0404A
:1015400047EA8820044344F000443248B030046045
:101550005046C8E62DE9F04106462E48056E046F58
:1015600045F4006525F4800544F4006405660467CD
:1015700005F0010010B306F00100F8B966F00100B3
:1015800005402448056604F0004038B104F07000BE
:1015900030280AD004F07000702806D004F0004013
:1015A00040B905F03000302804D14FF48050FEF7E8
:1015B00089FE03E04FF40020FEF784FE25F4FE656B
:1015C00006F4FE6005431E4804401D49A13106EAA9
:1015D0000100044306F0080044EAC0040D48056613
:1015E00004671020FEF76EFE25F4005506F4005047
:1015F000054324F4005406F40050044340200549F8
:10160000886504F000401DE088E10F400400FA0501
:101610000CED00E000E00F40000100800000FF70D2
:10162000000005100024F400B068000040787D013F
:1016300000FC0FE01C690000746A0000FF0300EF6B
:101640008FFFFF7F18B108460467056602E0B548C2
:1016500005660467B4480540C14306EA0100054336
:1016600024F0FC5406F0FC50044306F0804040B1E6
:1016700045F4800524F48004AC4906EA01000443E3
:1016800001E024F0804406F4006080B94FF4004784
:1016900006E0A448006D00F0400000B102E07F1EAB
:1016A000002FF6D100BF25F4006524F400649D48A6
:1016B000056604671020FEF705FEBDE8F08170B5F1
:1016C0009848036E016F01F0004010B101F0700006
:1016D00001E003F03000202811D003DC38B11028DD
:1016E00015D10AE030280CD0702810D10CE09048B9
:1016F000C3F3841650F826200BE08E4A09E08E4A88
:1017000007E047F2305204E04FF4004201E00020CD
:1017100070BD00BF01F0004010B101F4006028B1BD
:1017200001F00040E0B903F40060C8B983480568DF
:101730007C48D0F8644104F01F00401CC4F3042628
:10174000761C10FB06F04000B2FBF0F2C5F3090076
:101750005043C5F38926564300EB962243F4800399
:1017600003F4800018B301F00040D8B101F08040CC
:1017700090B101F0004010B101F4006028B101F017
:10178000004048B903F4006030B95600C1F38650F8
:10179000401CB6FBF0F20AE0C1F3C550401CB2FB9E
:1017A000F0F204E0C3F3C350401CB2FBF0F2104669
:1017B000AEE762491C39086070472DE9F0410746E1
:1017C0000D46584800685E4908405E49884208D185
:1017D00025F0FC51781E41EAC05058491C39086078
:1017E0002FE07C1E05F0700030B1102813D0302897
:1017F00006D070280ED108E044F44014524E0CE09C
:1018000044F4001447F2305607E044F480044FF4E7
:10181000004602E000BF474E00BF00BF05F00200D7
:1018200008B144F0004405F0804008B144F0804421
:1018300042481C3804603046FFF7DCFA3949C1F8E9
:10184000C800BDE8F0813749096E21F4F011014369
:10185000344A116670473348006E00F4801008B9AE
:10186000002070472F48006E00F4F010F9E733496C
:101870006039096821F4706101432A4AC2F80011F5
:101880002E495039096821F470610143C2F81011E2
:1018900070472A486038006800F47060704721493A
:1018A000C96E00F00F0301229A4011431D4AD16610
:1018B00070471C49C96E00F00F0301229A40914302
:1018C000184AD16670471748006F20F480401549C8
:1018D000086770471348006F40F48040114908675B
:1018E00070471049886370470E48006E70470D4975
:1018F000096E01430B4A116670470A48406E7047F3
:101900000849496E8143074A516670474A1ED2B260
:1019100002430A4B183B1A6070470849283908608F
:101920007047000000E00F40FEFF3FF8000040401D
:10193000B06800000024F40000093D0060E10F40A1
:101940000000FF700000051040787D014FF0E0209E
:10195000006940F005004FF0E021086170474FF04A
:10196000E020006920F001004FF0E021086170479D
:1019700010B5044621460F20FFF7B6F84FF0E020DF
:10198000006940F002004FF0E021086110BD10B581
:101990004FF0E020006920F002004FF0E0210861E4
:1019A0000F20FFF7BBF810BD4FF0E020006940F0BA
:1019B00002004FF0E021086170474FF0E02000691D
:1019C00020F002004FF0E02108617047411E4FF007
:1019D000E022516170474FF0E0204069401C7047A1
:1019E0004FF0E02080697047F0B503460C46B74DD4
:1019F0000C26B7480068B74F3840B74FB84201D1FE
:101A0000B64D082600210DE055F83100984208D166
:101A100005EBC1004268B4F57F4F00D1521C10465F
:101A2000F0BD491CB142EFD30020F9E7C26840F293
:101A300001130B401A43C2607047C26840F20113A1
:101A40000B409A43C2607047C26840F201139A4348
:101A5000C2600A0E02609E4A12689E4B1A409E4B5C
:101A60009A4211D1CAB201F4702342EA131242F42D
:101A70000072426001F47002C1F3072343EA1222AC
:101A800042F40072826008E0CAB242F4007242601E
:101A9000C1F3072242F400728260704744F24003AF
:101AA000194012B1C3680B4301E0C3688B43C360A4
:101AB000704710B5864B1B68864C2340864CA3426A
:101AC0000AD140F201130B4012B1046F1C4301E034
:101AD000046F9C43046700BF42F22003194012B117
:101AE000C3680B4301E0C3688B43C36010BD10B5EE
:101AF00040F60C431940C3688B4302EA01042343B8
:101B0000C36010BD40F20223194012B1C3680B43F9
:101B100001E0C3688B43C3607047CBB24BB122B1C5
:101B2000436843F04003436003E0436823F040030D
:101B3000436001F47F434BB122B1836843F040031B
:101B4000836003E0836823F0400383607047C168CB
:101B500041F01001C1607047C16821F01001C160FF
:101B60007047C0F8C81F70470146D1F8C80F7047CA
:101B7000CBB203B1826301F47F4303B1C263704708
:101B80000246FF2901D1906B7047D06BFCE7CBB2C6
:101B900003B1026401F47F4303B14264704702461B
:101BA000FF2901D1106C7047506CFCE7CBB203B138
:101BB000826201F47F4303B1C26270470246FF298B
:101BC00001D1906A7047D06AFCE7C36282627047B5
:101BD00030B5034600BFDA6A9C6ADD6AAA42FAD1D0
:101BE000002001462043114330BD0246FF2901D1A8
:101BF000906C7047D06CFCE730B5034600BFDA6CE0
:101C00009C6CDD6CAA42FAD10020014620431143AE
:101C100030BDCBB203B1026301F47F4303B1426331
:101C200070470246FF2901D1106B7047506BFCE7EB
:101C300043630263704730B5034600BF5A6B1C6BA9
:101C40005D6BAA42FAD1002001462043114330BD0A
:101C50002DE9F04105460E46144631462846FFF769
:101C6000C3FE074621463846FEF73EFF3846FEF7DC
:101C700097FFBDE8F08170B504460D462946204621
:101C8000FFF7B2FE06463046FEF7C6FF3046FEF7C7
:101C900045FF70BD82690A438261704782698A4349
:101CA00082617047024609B1106A7047D069FCE74B
:101CB0004162704701617047016770470146086FD4
:101CC0007047C16670470146C86E70477C6A000065
:101CD00000E00F400000FF7000000A10DC6A000006
:101CE00030B50246C54B0824C5480068C54D28409C
:101CF000C54DA84201D1C54B00BF002108E053F8F3
:101D00003100904203D103EBC100406830BD491C53
:101D1000A142F4D30020F9E7C26A22F086020A4306
:101D2000C26270470146C86A00F08600704741EA07
:101D300002034363704710B5436B03F007040C6064
:101D400003F03804146010BDC16A41F01001C16293
:101D5000016B40F2013211430163704700BF81699A
:101D600001F008010029FAD1C16A21F01001C16215
:101D7000016B40F20132914301637047F0B50446B4
:101D80000E4615461F462046FFF7E8FFB6EB051F37
:101D900005D2206B40F0200020636D0803E0206B2B
:101DA00020F020002063F000B0FBF5F0401C430859
:101DB0009809606203F03F00A062E7620020A06122
:101DC0002046FFF7C1FFF0BDF0B5446A856A8E007A
:101DD000402707FB0457B6FBF7F61660066B06F0C4
:101DE000200616B1166876001660C66A06F0EE0682
:101DF0001E60F0BDC16A41F01001C1627047C16A46
:101E000021F01001C162704721B1026B42F006025D
:101E1000026303E0026B42F0020202637047016B4F
:101E200021F0060101637047C16A21F0E60141F02B
:101E30006E01C162026B42F0080202637047016BDF
:101E400021F0080101637047026B01F440631A43FB
:101E500002637047026B01F440639A430263704768
:101E60000146086B00F4406070470146886940F203
:101E7000071210407047026B22F440420A4302638B
:101E800070470146086B00F440407047026B22F037
:101E900010020A43026370470146086B00F010000D
:101EA000704701468869012222EA101070470146F6
:101EB0008869012222EA501070470146886900F0C3
:101EC000100008B9086870474FF0FF30FBE7014683
:101ED00000BF886900F010000028FAD10868704738
:101EE0000246906900F0200010B91160012070478F
:101EF0000020FCE700BF826902F02002002AFAD12C
:101F00000160704719B1C26A42F0010202E0C26A80
:101F100022F00102C262704701468869C0F3C00026
:101F2000704770B504460D462046FFF7D9FE0646B9
:101F300029463046FEF7D8FD3046FEF731FE70BD2B
:101F400070B504462046FFF7CBFE05462846FEF74F
:101F500063FE2846FEF7E2FD70BD826B0A43826392
:101F60007047826B8A4382637047024609B1106CE6
:101F70007047D06BFCE741647047826C0A4382640F
:101F80007047826C8A43826470470146486800F05B
:101F90000F007047002141607047C0F8C81F7047AC
:101FA0000146D1F8C80F7047D0F8A41041F40041A1
:101FB000C0F8A4107047D0F8A41021F40041C0F874
:101FC000A4107047C0F8A410C0F8A82070470A46B3
:101FD00000BF836903F08803802BFAD1C16A21F026
:101FE000040343F08203C362026000BF836903F00D
:101FF0008803802BFAD1C162704700001C6B00007F
:1020000000E00F400000FF7000000A105C6B000051
:1020100010B5BEA003F0BAFCCCA1D1A003F0B6FC71
:10202000D4A1D6A003F0B2FCD9A1DCA003F0AEFC91
:10203000DFA003F0ABFCE6A003F0A8FCE6A003F0F1
:10204000A5FCEBA003F0A2FCF1A003F09FFCAFA065
:1020500003F09CFC10BD10B5F84801F04DF80121CB
:10206000F748FFF725FE10BD10B5F648FEF7CAFF8A
:102070002221F348FFF7E8FCFFF721FBC821B0FB62
:10208000F1F42246FF21EE48FFF790FD2320FEF7F2
:1020900087FD0121EA48FFF7FDFDAFF24502FF2170
:1020A000E748FFF7D5FDFEF70FFDFF21E448FFF7F6
:1020B000BDFCE0212320FEF751FD10BD10B54FF00F
:1020C0008070406C8169E04888474FF08070406CB8
:1020D0008169DE4888474FF08070006A816E012078
:1020E00088474FF08070006A816E40F20140884757
:1020F0004FF08070006A0321426D4FF040209047FE
:10210000D34A4FF4E131002000F0CCFD0521D14845
:10211000FFF743FF10BD2DE9F04104460D4616467A
:10212000CC4F082C15D2DFE804F00406080A0C0E88
:102130001012C84F0FE0C84F0DE0C84F0BE0C84F5A
:1021400009E0C84F07E0C84F05E0C84F03E0C84F9B
:1021500001E0C04F00BF00BF04E015F8011B384686
:10216000FFF7C8FE301EA6F10106F6D1BDE8F081EA
:1021700070B504460D46E1B2B648FFF7BBFE2046F7
:1021800070BD70B50546B348FFF7A1FE0446204672
:1021900070BD10B5B0EE000AB64B83ED000A1B7897
:1021A0009BB990ED000AB34B83ED000A1B788B546A
:1021B000B04B5C78531CCC54AE4B9C78931CCC54E5
:1021C000AC4BDC78D31CCC5412E090ED000AA94B48
:1021D00083ED000ADB788B54A64B9C78531CCC54BF
:1021E000A44B5C78931CCC54A24B1C78D31CCC54CD
:1021F00010BD10B5435C9F4C23704B1CC35C6370D7
:102200008B1CC35CA370CB1CC35CE370234693EDB3
:10221000000A82ED000A10BD70B52DED080B0024F8
:102220000025A52094490855641C20200855641CED
:1022300022466846FFF7ADFF241D22468E4901A8BD
:10224000FFF7A7FF241D22468B4902A8FFF7A1FF35
:10225000241D2246884903A8FFF79BFF241D224620
:10226000854904A8FFF795FF241D2246824905A849
:10227000FFF78FFF201DC4B222467F4906A8FFF753
:1022800088FF201DC4B222467B4907A8FFF781FFC3
:10229000201DC4B2012005E07749095C2944CDB274
:1022A000411C88B2A042F7DB2046611CCCB27249C7
:1022B0000D545A222046611CCCB26F490A54224662
:1022C0000420FFF728FF08B070BD30B50446002594
:1022D0006A48007838B9A52C05D1012067490870F3
:1022E0006748047071E16548007801280CD1322CF0
:1022F0000ADA02206149087062480470604844703C
:1023000000206149087060E1C0E000002A2A2A2A02
:102310002A2A2A2A2A2A2A2A2A2A2A2A2A2A2A2A1D
:102320002A2A2A2A2A2A2A2A2A2A2A2A2A2A2A2A0D
:102330002A2A2A2A2A2A2A2A2A2A2A2A2A2A2A2AFD
:102340002A2A2A2A2A2A2A2A2A0A0D00CAD6BBFAA7
:10235000C0B6D1C0415050CAFDBEDDBDBBBBA5005B
:102360002A20C0FDB3CCC3FBB3C62020203A2025D1
:10237000730D0A0056312E30000000002A20C0FDE7
:10238000B3CCB0E6B1BE2020203A2025730D0A0060
:102390003230323231313235000000002A20B7A20B
:1023A000B2BCC8D5C6DA2020203A2025730D0A0019
:1023B0002A20B1EAD7BCBFE2B0E6B1BE203A205431
:1023C0004D3443313233474836505A54370D0A00A2
:1023D0002A200D0A000000002A2051512020202030
:1023E0003A2033313338333732313635200D0A0055
:1023F0002A20456D61696C203A20333133383337F8
:10240000323136354071712E636F6D200D0A000038
:102410002A20436F70797269676874207777772E06
:102420006E616D656C6573732E7465636820CEDEB6
:10243000C3FBB4B4D0C20D0A00000000C40A0020DF
:1024400000000340000400F0000800F0001800F055
:102450000024F40000C0004000D0004000E0004034
:1024600000F0004000000140001001400020014049
:102470000030014000000020D40A002005000020A8
:10248000060B00200700002006000020FE48007810
:1024900002281AD1FD480078002816DDFB48007894
:1024A000401EFA490870FA480078F9490978491C31
:1024B000F74A1170801CF7490C54F4480078002842
:1024C00002D10320F04908707FE0EF48007803282C
:1024D0000DD10420EC490870ED480078EC490978EA
:1024E000491CEB4A1170801CEA490C546DE0E64827
:1024F0000078042866D15A2C64D1E5480078E44974
:102500000978491CE24A1170801CE2490C540020F1
:10251000DD4908700025012005E0DE49095C2944F9
:10252000CDB2411C88B2DA4909788842F5DBD94836
:10253000D7490978405CA84247D1D74A0221D548FB
:10254000FFF757FED44A121D0621D248FFF751FE6D
:10255000D14A08320A21CF48FFF74BFECE4A0C324F
:102560000E21CC48FFF745FECB4A10321221C94854
:10257000FFF73FFEC84A14321621C648FFF739FE5E
:10258000C54A18321A21C348FFF733FEC24A1C322B
:102590001E21C048FFF72DFE002010E0BE4901EBD0
:1025A000800191ED000ABDEEC00A10EE101ABB4A80
:1025B00022F810100121BA4A1170411C88B2082873
:1025C000ECDB02E00020B049087030BD70B501219D
:1025D000B448FFF7CAFC05462946B248FFF7CBFCD2
:1025E00007E0B048FFF773FCC4B22046FFF76DFE6A
:1025F00000BFAC48FFF755FC0028F2D170BD70B5A4
:102600000446A948FEF7FEFCA848FEF7FBFCA848D4
:10261000FEF718FAA748FEF715FA3021A648FEF78C
:1026200084F9FFF74CF805466023224629469D4869
:10263000FFF7A4FB9B48FFF7E2FB10219948FFF747
:102640008CFCAFF277019748FFF76BFC60214C20C0
:10265000FEF784FA70BD2DED0E8B8AB04FF08071BD
:10266000896F086880474FF08071896F08698047DB
:102670004FF08070406CC16D9048884700F0F4FCCA
:10268000FFF71CFD4FF41650FFF7B9FFFFF7C0FC32
:1026900001F085FB02F012FEFFF7E6FCD9E206A886
:1026A00000F02AFD0021084601F0D3FA84A200219F
:1026B000084601F0EBFB0121002001F0CAFADDED34
:1026C000070AB0EE600A0121002001F0CFFB0221D1
:1026D000002001F0BEFA7FA20221002001F0D6FB0B
:1026E0000321002001F0B5FA7F48D0ED020AB0EED8
:1026F000600A0321002001F0B9FB0421002001F051
:10270000A8FA7AA20421002001F0C0FB6248D0EDB3
:10271000000AFDEEE00A10EE900A00B200EE900A08
:10272000F8EEE00AB0EE600A0421282001F09EFBDA
:102730005948D0ED010AFDEEE00A10EE900A00B211
:1027400000EE900AF8EEE00AB0EE600A0421502094
:1027500001F08CFB0521002001F07BFA65A2052128
:10276000002001F093FB4C48D0ED020AFDEEE00A98
:1027700010EE900A00B200EE900AF8EEE00AB0EE19
:10278000600A0521282001F071FB4348D0ED030ABF
:10279000FDEEE00A10EE900A00B200EE900AF8EEAC
:1027A000E00AB0EE600A0521502001F05FFB06212F
:1027B000002001F04EFA51A20621002001F066FB34
:1027C0003548D0ED040AFDEEE00A10EE900A00B2A2
:1027D00000EE900AF8EEE00AB0EE600A062128202A
:1027E00001F044FB2C48D0ED050AFDEEE00A10EEA6
:1027F000900A00B200EE900AF8EEE00AB0EE600A2D
:102800000621502001F032FB0721002001F021FABF
:102810003CA20721002001F039FB1F48D0ED060A39
:10282000FDEEE00A10EE900A00B200EE900AF8EE1B
:10283000E00AB0EE600A0721282001F017FB1648D5
:10284000D0ED070AFDEEE00A10EE900A00B200EEAD
:10285000900AF8EEE00AB0EE600A0721502001F07D
:1028600005FB2AA003F092F80B4890ED070ABDEE95
:10287000C00A10EE100A00B2074991ED060ABDEE3B
:10288000C00A10EE101A53E00500002007000020D7
:1028900006000020060B0020380B0020580B0020FB
:1028A0000400002000000140020800F0041800F0BD
:1028B000011002000114020000600040400500C148
:1028C00053797374656D202054696D653A20204DED
:1028D0005300000054696D653020506572696F6463
:1028E0003A20204D53000000C40A00206368312DB7
:1028F000323A00006368332D343A00006368352DA6
:10290000363A00006368372D383A000063683109B1
:102910006368320963683309636831340963683571
:10292000096368360963683709636838090000007D
:1029300009B2C84A92ED050ABDEEC00A10EE102A8F
:1029400012B2C44B93ED040ABDEEC00A10EE103A69
:102950001BB2CDE90132CDE90310BE4890ED030A68
:10296000BDEEC00A10EE100A00B20090B94890ED1A
:10297000020ABDEEC00A10EE100A03B2B54890ED8F
:10298000010ABDEEC00A10EE100A02B2B14890ED85
:10299000000ABDEEC00A10EE100A01B2AEA002F0AD
:1029A000F5FFB4480068401CB2490860084690ED45
:1029B000000AB8EE400ADFEDB00A20EE200A10EE61
:1029C000101A084602F069FE41EC1D0BB0EE4D0AEC
:1029D000F0EE6D0A03F068F8B0EE40CAF0EE60CA9F
:1029E0009FEDA60B53EC102B51EC1C0B02F067FD76
:1029F00041EC1B0B02F064FE08EE100A9D4890EDBE
:102A0000000AB8EE400ADFED9C0A20EE200A10EE24
:102A1000101A084602F041FE41EC1D0BB0EE4D0AC3
:102A2000F0EE6D0A03F040F8B0EE40CAF0EE60CA76
:102A30009FED920B53EC102B51EC1C0B02F03FFD61
:102A400041EC1B0B02F03CFE08EE900A894890ED29
:102A5000000AB8EE400ADFED880A20EE200A10EEE8
:102A6000101A084602F019FE41EC1D0BB0EE4D0A9B
:102A7000F0EE6D0A03F018F8B0EE40CAF0EE60CA4E
:102A80009FED800B53EC102B51EC1C0B02F017FD4B
:102A900041EC1B0B02F014FE09EE100A754890ED94
:102AA000000AB8EE400ADFED740A20EE200A10EEAC
:102AB000101A084602F0F1FD41EC1D0BB0EE4D0A74
:102AC000F0EE6D0A02F0F0FFB0EE40CAF0EE60CA20
:102AD0009FED6C0B53EC102B51EC1C0B02F0EFFC38
:102AE00041EC1B0B02F0ECFD09EE900A614890ED01
:102AF000000AB8EE400ADFED600A20EE200A10EE70
:102B0000101A084602F0C9FD41EC1D0BB0EE4D0A4B
:102B1000F0EE6D0A02F0C8FFB0EE40CAF0EE60CAF7
:102B20009FED5A0B53EC102B51EC1C0B02F0C7FC21
:102B300041EC1B0B02F0C4FD0AEE100A4D4890ED6B
:102B4000000AB8EE400ADFED4C0A20EE200A10EE33
:102B5000101A084602F0A1FD41EC1D0BB0EE4D0A23
:102B6000F0EE6D0A02F0A0FFB0EE40CAF0EE60CACF
:102B70009FED460B53EC102B51EC1C0B02F09FFC0D
:102B800041EC1B0B02F09CFD0AEE900A394890EDD7
:102B9000000AB8EE400ADFED380A20EE200A10EEF7
:102BA000101A084602F079FD41EC1D0BB0EE4D0AFB
:102BB000F0EE6D0A02F014FFB0EE40CAF0EE60CA0B
:102BC0009FED340B53EC102B51EC1C0B02F077FCF7
:102BD00041EC1B0B02F074FD0EEE100A254890ED3F
:102BE000000AB8EE400ADFED240A20EE200A10EEBB
:102BF000101A084602F051FD41EC1D0BB0EE4D0AD3
:102C0000F0EE6D0A02F050FFB0EE40CAF0EE60CA7E
:102C10009FED220B53EC102B51EC1C0B02F04FFCE0
:102C200041EC1B0B02F04CFD0EEE900AF0EE483A20
:102C3000B0EE683AF0EE492AB0EE692AF0EE4A1A90
:102C4000B0EE6A1AF0EE4E0AB0EE6E0AFFF7E4FA42
:102C500000BF24E5380B002025640925640925649C
:102C60000925640925640925640925640925640A80
:102C70000000000008000020CDCCCC3D000000008A
:102C80000000694000000000000034400000000027
:102C9000000049400000000000C052400000000059
:102CA000000059402DE9F04104460D461646E14A20
:102CB00052F824004FF08072526C1169884708B9AD
:102CC000BDE8F081DC4850F82400DC490860D94AAE
:102CD00052F824004FF08072526C916988474FF08F
:102CE0008070406960232A4631464769D3480068AE
:102CF000B8474FF080704069C169D0480068884784
:102D000000BFDDE770B505460E46002413E0285DE0
:102D10000A2807D14FF0807040690D210268C7482A
:102D200000689047295D4FF0807040690268C34891
:102D300000689047641CB442E9D3204670BD2DE979
:102D4000F04106460F4600257F1E32E04FF08070AE
:102D50004069816BB9480068884744B2082C06D1A5
:102D600025B10321B6A0FFF7CDFF6D1E21E00A2C8F
:102D700006D1B448007818B10020B249087018E0B4
:102D80000D2C03D00A2C01D01B2C05D10D2C02D107
:102D90000120AC4908700DE0BD4209D274556D1C8C
:102DA000E1B24FF0807040690268A4480068904723
:102DB00000BFCBE700BF002070550221A2A0FFF7A3
:102DC000A1FF2846BDE8F08110B54FF08070406942
:102DD000816B9A4800688847C0B210BD2DE9F34F57
:102DE00085B0064612E1002400E0641C305D252811
:102DF00002D0305D0028F8D121463046FFF782FF2F
:102E0000264430782528EDD1761C00254FF0200B84
:102E100000BF16F8011B382932D014DC33292AD020
:102E200008DC25296FD0302922D0312921D0322940
:102E30006AD11FE034291FD035291ED036291DD074
:102E40003729F5D11BE0692935D008DC392918D09C
:102E5000582972D0632922D06429E9D12AE0702947
:102E60006CD073293CD0752958D07829E0D163E023
:102E700000BF00BF00BF00BF00BF00BF00BF00BF5A
:102E800000BF16F8010C302801D105B9834605EBC7
:102E90008500450016F8010C30380544B9E706985E
:102EA000006804900698001D0690012104A8FFF711
:102EB00029FFAAE000BF0698006804900698001D4C
:102EC00006904FF000080498002805DA0498404264
:102ED00004904FF0010901E04FF000090A2739E0A2
:102EE000069850F804AB0690002400E0641C1AF821
:102EF00004000028FAD121465046FFF703FFA542FF
:102F00000BD92D1B05E076E07AE001214FA0FFF7F9
:102F1000F9FE281EA5F10105F7D176E006980068B4
:102F200004900698001D06904FF000080A274FF005
:102F300000090FE001E001E000BF00BF0698006853
:102F400004900698001D06904FF0000810274FF0DF
:102F5000000900BF012401E07C436D1E04FB07F063
:102F60000499884205D804FB07F0B0FBF7F0A042B3
:102F7000F2D0B9F1000F00D06D1EB9F1000F0AD0E8
:102F8000BBF1300F07D12D22404608F101080DF8A2
:102F900000204FF00009012D0BD9102D09D26D1E14
:102FA00005E0404608F101080DF800B06D1E002D47
:102FB000F7D1B9F1000F05D02D22404608F10108E4
:102FC0000DF8002010E00498B0FBF4F0B0FBF7F12E
:102FD00007FB11001E4909680A5C404608F1010818
:102FE0000DF80020B4FBF7F4002CECD14146684604
:102FF000FFF788FE09E0701E0121FFF783FE04E061
:10300000052114A0FFF77EFE00BF00BF3078002826
:103010007FF4E9AE07B0BDE8F08F0FB408B503A8A0
:10302000009000990298FFF7D9FE0020009001B0AF
:103030005DF814FBAC6B0000A06B00000C000020DE
:1030400008200800100000200D0A000020000000E9
:103050009C6B00004552524F5200000037480068F8
:10306000401C36490860704710B5FEF728FB34490C
:10307000B0FBF1F42046FEF7A9FC3248FEF778FCDD
:10308000FEF792FCFEF762FC10BD2C48006870470A
:1030900000B50146FFF7F9FF024600BFFFF7F5FF55
:1030A000801A8842FAD300BD00B503464FF47A7106
:1030B00003FB01F0FFF7ECFF00BD204800684FF470
:1030C0007A71B0FBF1F0704710B504462046FFF767
:1030D000EBFF10BD10B504462046FFF7F5FF10BD0D
:1030E00000B503461846FFF7D3FF00BD00B5034601
:1030F0001846FFF7CDFF00BD00B5014691ED010A6E
:1031000081ED000AFFF7C1FF00EE100AB8EE400A99
:10311000DFED0D0A80EE201A81ED011A91ED010A12
:10312000D1ED000A30EE600A81ED020A91ED020A4B
:10313000BCEEC00A10EE100A888100BD1400002009
:1031400040420F005D30000000007A4410B5F8489E
:10315000FDF758FF20214FF04020FDF732FB1021F2
:103160004FF04020FDF72DFB0220FFF7ADFF20229E
:1031700011464FF04020FDF7A7FA102211464FF0FC
:103180004020FDF7A1FA10BD10B510214FF04020EE
:10319000FDF717FB10BD10B510214FF04020FDF7D3
:1031A00001FB10BD10B5FFF7EFFF102211464FF0E5
:1031B0004020FDF789FA202211464FF04020FDF70C
:1031C00083FA002210214FF04020FDF77DFA002203
:1031D00020214FF04020FDF777FA10BD10B5FFF722
:1031E000D3FF002210214FF04020FDF76DFA20227E
:1031F00011464FF04020FDF767FA102211464FF0BC
:103200004020FDF761FA10BD10B50024FFF7C3FFA1
:10321000102211464FF04020FDF756FA20221146A9
:103220004FF04020FDF750FA07E0601CC4B2FA2CC2
:1032300003DDFFF7D3FF012010BD10214FF0402028
:10324000FDF732FA0028F0D1002220214FF0402073
:10325000FDF73AFA0020EFE710B5002220214FF0E9
:103260004020FDF731FAFFF78FFF002210214FF0C9
:103270004020FDF729FA202211464FF04020FDF7AB
:1032800023FA002220214FF04020FDF71DFA10BD47
:1032900010B5002220214FF04020FDF715FAFFF76E
:1032A00073FF102211464FF04020FDF70DFA202247
:1032B00011464FF04020FDF707FA002220214FF081
:1032C0004020FDF701FA10BD70B50446FFF75CFF22
:1032D000002220214FF04020FDF7F6F900251EE0E6
:1032E000E00930B1102211464FF04020FDF7ECF913
:1032F00005E0002210214FF04020FDF7E5F96006BF
:10330000040E202211464FF04020FDF7DDF9002287
:1033100020214FF04020FDF7D7F9681CC5B2082DD9
:10332000DEDBFFF771FF70BD10B50446FFF73AFF13
:103330007820FFF7C9FF4020FFF7C6FF2046FFF7C0
:10334000C3FFFFF74BFF10BD10B50446FFF72AFF80
:103350007820FFF7B9FF0020FFF7B6FF2046FFF700
:10336000B3FFFFF73BFF10BD70B504460D4605F1F6
:10337000B001C8B2FFF7E8FF102141EA1410FFF7CF
:10338000E3FF04F00F0141F00100FFF7DDFF70BD26
:1033900070B50646002415E004F1B001C8B2FFF78D
:1033A000D3FF0120FFF7D0FF1020FFF7CDFF00254E
:1033B00004E03046FFF7B8FF681CC5B2802DF8DB8B
:1033C000601CC4B2082CE7DB70BD70B5002415E0AA
:1033D00004F1B001C8B2FFF7B7FF0120FFF7B4FF57
:1033E0001020FFF7B1FF002504E00020FFF79CFF4D
:1033F000681CC5B2802DF8DB601CC4B2082CE7DB6A
:1034000070BD10B5AE20FFF79FFF0020FFF79CFFB7
:103410001020FFF799FF4020FFF796FF8120FFF76C
:1034200093FFCF20FFF790FFA020FFF78DFFC02074
:10343000FFF78AFFA620FFF787FFA820FFF784FF8A
:103440003F20FFF781FFD320FFF77EFF0020FFF72B
:103450007BFFD520FFF778FF8020FFF775FFD9208D
:10346000FFF772FFF120FFF76FFFDA20FFF76CFF25
:103470001220FFF769FFDB20FFF766FF4020FFF710
:1034800063FF2020FFF760FF0220FFF75DFF8D2024
:10349000FFF75AFF1420FFF757FFA420FFF754FF50
:1034A000A620FFF751FFAF20FFF74EFF0020FFF7E8
:1034B0006FFF00210846FFF757FF10BD70B50446A7
:1034C0000825042211464FF04020FDF7FDF80025A5
:1034D0001FE0002220214FF04020FDF7F5F804F016
:1034E000800030B1102211464FF04020FDF7ECF87B
:1034F00005E0002210214FF04020FDF7E5F82022E2
:1035000011464FF04020FDF7DFF86006040E681CFE
:10351000C5B2082DDDDB70BD70B50446082500225C
:1035200004214FF04020FDF7CFF8002522E00000F5
:10353000000800F0002220214FF04020FDF7C4F8E1
:1035400004F0800030B1102211464FF04020FDF70A
:10355000BBF805E0002210214FF04020FDF7B4F841
:10356000202211464FF04020FDF7AEF86006040E11
:10357000681CC5B2082DDDDB042211464FF0402047
:10358000FDF7A2F870BD70B504460D4605F1B00117
:10359000C8B2FFF7C1FF102141EA1410FFF7BCFFCA
:1035A00004F00F0141F00100FFF7B6FF70BD70B5E8
:1035B0000646002415E004F1B001C8B2FFF7ACFFE5
:1035C0000120FFF7A9FF1020FFF7A6FF002504E068
:1035D0003046FFF773FF681CC5B2802DF8DB601C16
:1035E000C4B2082CE7DB70BD70B5002415E004F10F
:1035F000B001C8B2FFF790FF0120FFF78DFF102048
:10360000FFF78AFF002504E00020FFF757FF681C42
:10361000C5B2802DF8DB601CC4B2082CE7DB70BD9E
:103620002DE9F0470446884615464FF0000900266C
:10363000002720E0E85D203800F0FF097E2C04DD43
:10364000002408F1010000F0FF0841462046FFF782
:103650009AFF002609E009EB4901FC4A02EB41010F
:10366000885DFFF72BFF701CC6B2062EF3DBA01D92
:10367000C4B2781CC7B2E85D0028DBD1BDE8F08792
:103680002DE9F04105460E461746A7F1200000F04F
:10369000FF087E2D02DD0025701CC6B2314628468B
:1036A000FFF771FF002409E008EB4801E74A02EB4D
:1036B0004101085DFFF702FF601CC4B2062CF3DB7A
:1036C000BDE8F0812DE9F0412DED028B84B0064676
:1036D0000F46B0EE408A0024E846B5EEC08AF1EE0F
:1036E00010FA0ED22D208DF800009DF800203946EA
:1036F0003046FFF7C5FFB01DC6B2B1EE480AB0EEC6
:10370000408ABDEEC80A10EE105A00EE105AB8EE0C
:10371000C00A78EE408ACE4885420CDB95FBF0F07B
:103720003030C0B20DF80400C94895FBF0F100FB41
:103730001155601CC4B2C74885420DDB95FBF0F003
:103740003030C0B20DF80400C24895FBF0F100FB28
:103750001155601CC4B208E0BE48854205DA24B1A8
:1037600030200DF80400601CC4B2BB4885420DDB5C
:1037700095FBF0F03030C0B20DF80400B64895FB70
:10378000F0F100FB1155601CC4B208E0B24885425C
:1037900005DA24B130200DF80400601CC4B2AF4833
:1037A00085420DDB95FBF0F03030C0B20DF804001F
:1037B000AA4895FBF0F100FB1155601CC4B208E06B
:1037C000A648854205DA24B130200DF80400601CBB
:1037D000C4B2A34885420DDB95FBF0F03030C0B297
:1037E0000DF804009E4895FBF0F100FB1155601C9C
:1037F000C4B208E09A48854205DA24B130200DF8B9
:103800000400601CC4B242F2107085420EDB95FBCE
:10381000F0F03030C0B20DF8040042F2107095FBA9
:10382000F0F100FB1155601CC4B209E042F21070C7
:10383000854205DA24B130200DF80400601CC4B2C2
:10384000B5F57A7F10DB4FF47A7095FBF0F03030ED
:10385000C0B20DF804004FF47A7095FBF0F100FB54
:103860001155601CC4B208E0B5F57A7F05DA24B1C1
:1038700030200DF80400601CC4B2642D0EDB6420FF
:1038800095FBF0F03030C0B20DF80400642095FBD9
:10389000F0F100FB1155601CC4B207E0642D05DA9D
:1038A00024B130200DF80400601CC4B20A2D0EDBD8
:1038B0000A2095FBF0F03030C0B20DF804000A2069
:1038C00095FBF0F100FB1155601CC4B207E00A2D16
:1038D00005DA24B130200DF80400601CC4B205F1F3
:1038E0003000C0B20DF804009FED5E0AF4EEC08A0D
:1038F000F1EE10FA33DB601CC4B22E200DF8040088
:10390000601CC4B29FED580A28EE800ABDEEC00AC2
:1039100010EE105A642095FBF0F03030C0B20DF874
:103920000400642095FBF0F100FB1155601CC4B24B
:10393000002D0BDD0A2095FBF0F03030C0B20DF801
:1039400004000A2095FBF0F100FB1155002D06DB69
:10395000601CC4B205F13000C0B20DF80400601C58
:10396000C4B200200DF80400424639463046FFF745
:1039700057FE04B0BDEC028BBDE8F0812DE9F047A5
:1039800006460F46904600250024A14631E018F86F
:1039900009002038C5B2782E02DD0026781CC7B297
:1039A00039463046FFF7EFFD002407E004EB051130
:1039B0002E4A505CFFF782FD601CC4B2082CF5DB78
:1039C000781CC1B23046FFF7DEFD002408E004EBAE
:1039D00005110831254A505CFFF770FD601CC4B228
:1039E000082CF4DB06F10800C6B209F1010000F072
:1039F000FF0918F809000028C9D1BDE8F0872DE9B2
:103A0000F04706460F46904600250024A146A8F13F
:103A10002000C5B2782E02DD0026781CC7B23946D8
:103A20003046FFF7B0FD002407E004EB05110F4A14
:103A3000505CFFF743FD601CC4B2082CF5DB781C1A
:103A4000C1B23046FFF79FFD00241AE0B86B0000BA
:103A500000CA9A3B00E1F5058096980040420F00AD
:103A6000A086010017B7D13800007A44E06D00004D
:103A700004EB05110831FA4A505CFFF71FFD601C8A
:103A8000C4B2082CF4DB06F10800C6B209F101004B
:103A900000F0FF09BDE8F0872DE9F0412DED028B24
:103AA00084B006460F46B0EE408A0024E846B5EEE4
:103AB000C08AF1EE10FA0ED22D208DF800009DF88C
:103AC000002039463046FFF79AFF701CC6B2B1EEAF
:103AD000480AB0EE408ABDEEC80A10EE105A00EE59
:103AE000105AB8EEC00A78EE408AB5F57A7F0FDB3F
:103AF0004FF47A7095FBF0F03030C0B20DF804004E
:103B00004FF47A7095FBF0F100FB1155601CC4B2C4
:103B1000642D0EDB642095FBF0F03030C0B20DF860
:103B20000400642095FBF0F100FB1155601CC4B249
:103B300007E0642D05DA24B130200DF80400601C84
:103B4000C4B20A2D0EDB0A2095FBF0F03030C0B273
:103B50000DF804000A2095FBF0F100FB1155601CE4
:103B6000C4B207E00A2D05DA24B130200DF80400B4
:103B7000601CC4B205F13000C0B20DF804001FEDA6
:103B8000470AF4EEC08AF1EE10FA33DB601CC4B2CF
:103B90002E200DF80400601CC4B21FED4D0A28EE63
:103BA000800ABDEEC00A10EE105A642095FBF0F0BA
:103BB0003030C0B20DF80400642095FBF0F100FB3A
:103BC0001155601CC4B2002D0BDD0A2095FBF0F0EE
:103BD0003030C0B20DF804000A2095FBF0F100FB74
:103BE0001155002D06DB601CC4B205F13000C0B2D7
:103BF0000DF80400601CC4B200200DF80400424619
:103C000039463046FFF7BAFE04B0BDEC028BBDE882
:103C1000F0812DE9F04180460D46164600247701DB
:103C200029464046FFF7AFFC00BF02E07F1C601C46
:103C3000C4B2102CFADB681CC1B24046FFF7A3FCEB
:103C4000002402E07F1C601CC4B2102CFADBBDE82B
:103C5000F08170B504460D4605F1B001C8B2FFF71A
:103C60005BFC0120FFF758FC1020FFF755FC2946AC
:103C70002046FFF788FC04E00020FFF71FFC601CD3
:103C8000C4B2802CF8DB70BD70B50026002411E0B2
:103C900021460020FFF777FC002507E03146761C1F
:103CA000704A505CFFF70AFC681CC5B2802DF5DB3A
:103CB000601CC4B2082CEBDB4FF4FA70FFF704FA77
:103CC000FFF792FC70BD10B5002208214FF0402094
:103CD000FCF7FAFC6420FFF7F7F9082211464FF0D1
:103CE0004020FCF7F1FCAE20FFF716FC0020FFF7A8
:103CF00013FC1020FFF710FC4020FFF70DFC812083
:103D0000FFF70AFCCF20FFF707FCA020FFF704FC19
:103D1000C020FFF701FCA620FFF7FEFBA820FFF75D
:103D2000FBFB3F20FFF7F8FBD320FFF7F5FB00205C
:103D3000FFF7F2FBD520FFF7EFFB8020FFF7ECFB4E
:103D4000D920FFF7E9FBF120FFF7E6FBDA20FFF7C8
:103D5000E3FB1220FFF7E0FBDB20FFF7DDFB402059
:103D6000FFF7DAFB2020FFF7D7FB0220FFF7D4FB99
:103D70008D20FFF7D1FB1420FFF7CEFBA420FFF727
:103D8000CBFBA620FFF7C8FBAF20FFF7C5FB002049
:103D9000FFF70DFC00210846FFF7F5FB10BD10B53D
:103DA0003148FDF72FF904214FF04020FCF709FDC1
:103DB00008214FF04020FCF704FD10214FF0402077
:103DC000FCF7FFFC20214FF04020FCF7FAFC02201A
:103DD000FFF77AF9002208214FF04020FCF774FC2D
:103DE0006420FFF771F9082211464FF04020FCF7DC
:103DF0006BFC022000F08AF8FFF746FFFFF7F4FBA8
:103E000010BD10B51848FDF7FDF804214FF0402013
:103E1000FCF7D7FC08214FF04020FCF7D2FC102122
:103E20004FF04020FCF7CDFC20214FF04020FCF764
:103E3000C8FC0A20FFF748F9002208214FF0402073
:103E4000FCF742FC6420FFF73FF9082211464FF0CF
:103E50004020FCF739FC022000F058F810BD0000AB
:103E6000E06D000040880000000800F070B52DED06
:103E7000028B04460D46B0EE408AB0EE480A294651
:103E80002046FFF71FFCBDEC028B70BD70B50446E9
:103E90000D461646324629462046FFF7C1FB70BD47
:103EA000F648B0F900007047F548B0F900007047D7
:103EB00000F00301F34A11701146097831B101296C
:103EC00010D0022903D0032918D10CE000BFEE491D
:103ED000B1F90010E94A1180EC49B1F90010E84A43
:103EE00011800BE000BFE949B1F90010E34A1180ED
:103EF000E549B1F90010E24A118000BF00BF7047E8
:103F000010B504462046FFF707FB10BD10B5044668
:103F1000DF480470DC48B0F90000D8490880DB486D
:103F2000B0F90000D64908800020DA490880DA4953
:103F300008800120D94908704FF6FF70D8490880E1
:103F4000D84908800120D84908700020D749087056
:103F50008020CD490880C94908804020CB4908808D
:103F6000C74908800020C7490870AE20FFF7C8FF86
:103F7000D520FFF7C5FF8020FFF7C2FFA820FFF77D
:103F8000BFFF3F20FFF7BCFFD320FFF7B9FF0020A2
:103F9000FFF7B6FF4020FFF7B3FF8D20FFF7B0FF1C
:103FA000012C03D11020FFF7ABFF02E01420FFF734
:103FB000A7FF2020FFF7A4FF0020FFF7A1FFA1200B
:103FC000FFF79EFFC820FFF79BFFDA20FFF798FF5F
:103FD0001220FFF795FF8120FFF792FF012C03D1FC
:103FE0009F20FFF78DFF02E0CF20FFF789FFD92048
:103FF000FFF786FF012C03D12220FFF781FF02E0AB
:10400000F120FFF77DFFDB20FFF77AFF4020FFF76D
:1040100077FFA420FFF774FFA620FFF771FFA02011
:10402000FFF76EFFC020FFF76BFFAF20FFF768FFC1
:1040300010BD70B50346002B09DBFFF731FF984236
:1040400005DD002903DBFFF72FFF884200DC70BD90
:104050008C480078012804D002280BD003281DD1F9
:1040600013E018460B46014687480088C01A401ED8
:1040700003B213E084480088C01A401E03B283488C
:104080000088401A401E01B208E018460B4601465F
:104090007E480088401A401E01B200BF00BFE2B156
:1040A000012A02D0022A47D12EE0CC1701EB54742A
:1040B000E41003EBC4147E4D2C5D01F007060125CE
:1040C000B5402C43E5B20846CC1701EB5474E4101C
:1040D00003EBC414764E35552EE0CC1701EB547427
:1040E000E41003EBC414724D2C5D01F007060125AA
:1040F000B540AC430846CD1701EB5575ED1003EB09
:10410000C5156B4E745517E0CC1701EB5474E410D1
:1041100003EBC414664D2C5D01F007060125B54084
:104120006C40E5B20846CC1701EB5474E41003EB85
:10413000C4145F4E355500BF00BF00BF87E710B500
:1041400004461CB1A720FFF7DBFE02E0A620FFF724
:10415000D7FE10BD70B505460C462620FFF7D0FEF1
:104160000020FFF7CDFE2846FFF7CAFE0020FFF72C
:10417000C7FE2046FFF7C4FE0020FFF7C1FEFF2068
:10418000FFF7BEFE2F20FFF7BBFE70BD70B50546E2
:104190000C462720FFF7B4FE0020FFF7B1FE2846AB
:1041A000FFF7AEFE0020FFF7ABFE2046FFF7A8FEAC
:1041B0000020FFF7A5FEFF20FFF7A2FE2F20FFF74C
:1041C0009FFE70BD70B505460C46A320FFF798FE14
:1041D0000020FFF795FE4020FFF792FE2920FFF711
:1041E0008FFE0020FFF78CFE2846FFF789FE002097
:1041F000FFF786FE2046FFF783FE0120FFF780FED3
:104200002F20FFF77DFE70BD70B505460C46A3203C
:10421000FFF776FE0020FFF773FE4020FFF770FEE9
:104220002A20FFF76DFE0020FFF76AFE2846FFF701
:1042300067FE0020FFF764FE2046FFF761FE0120C5
:10424000FFF75EFE2F20FFF75BFE70BD10B52E203E
:10425000FFF756FE10BD70B505460DB1002406E00F
:104260000B480078012801D19F2400E0CF24812051
:10427000FFF746FE2046FFF743FE70BD1A00002000
:104280001C000020270000201E000020200000202D
:10429000180000202200002024000020260000201A
:1042A0002A000020280000202C0000202D000020E3
:1042B0002F00002010B504462046FFF7FFF810BD80
:1042C00070B50026002411E021460020FFF75BF9BD
:1042D000002507E03146761CFE4A505CFFF7EEF8F9
:1042E000681CC5B2802DF5DB601CC4B2082CEBDB6A
:1042F00070BD10B52120FFF703FE0020FFF700FE80
:104300007F20FFF7FDFD2220FFF7FAFD0020FFF7D9
:10431000F7FD0720FFF7F4FDFFF7D2FF10BD10B542
:104320004FF48061EB4801F018F810BDF0B5044679
:104330001D46002904DBE84EB6F90060B14200DBFF
:10434000F0BD002C02DA161932B20024A618E34F91
:10435000B7F90070BE4203DDE04E3688361B32B23C
:10436000002A00DCECE7DB480E46CF1701EB57775D
:10437000FF1000EBC710204401F007070126BE40E4
:10438000F3B27DB1012D02D0022D23D117E003E05D
:1043900006781E4300F8016B161EA2F101073AB21F
:1043A000F6D117E0DE43F3B203E006781E4000F8D2
:1043B000016B161EA2F101073AB2F6D10AE003E042
:1043C00006785E4000F8016B161EA2F101073AB2B2
:1043D000F6D100BF00BF00BFB2E72DE9F0430746AA
:1043E0000C461546002F05DBDFF8F0C2BCF900C013
:1043F000674501DBBDE8F083002C04DA05EB040C13
:104400000FFA8CF5002404EB050CDFF8CC82B8F928
:104410000080C44507DDDFF8C0C2BCF800C0ACEBCB
:10442000040C0FFA8CF5002D00DCE3E7E6B2E9B2EC
:10443000A848B4464FEAE67806EB58784FEAE80811
:1044400000EBC810384406F0070282B3C2F1080836
:1044500008F0FF02DFF8888218F802C0914207DAFC
:10446000A2EB01094FF0FF0848FA09F808EA0C0C22
:104470005BB1012B02D0022B15D10DE090F800802A
:1044800048EA0C0880F800800DE090F8008028EAE7
:104490000C0880F8008006E090F8008088EA0C089C
:1044A00080F8008000BF00BF914201DAA2E705E07A
:1044B000A1EB020808F0FF01803000BF082923DBD0
:1044C000022B0ED100BF90F800C06FEA0C0C80F8F0
:1044D00000C08030A1F1080C0CF0FF010829F2DACD
:1044E00012E0012B02D14FF0FF0801E04FF000086D
:1044F000C44600BF80F800C08030A1F1080808F071
:10450000FF010829F6DA00BF11B301F00702DFF856
:10451000D48118F802C05BB1012B02D0022B15D157
:104520000DE090F8008048EA0C0880F800800DE06B
:1045300090F8008028EA0C0880F8008006E090F8E7
:10454000008088EA0C0880F8008000BF00BF00BF30
:1045500000BF4FE72DE9F04104460D4616461F46C1
:104560004FF000086048007830B1012805D00228DB
:104570000ED0032828D119E026E04FF0010820468C
:104580002C46054655480088001B401E04B21BE01F
:1045900052480088001B401E04B24F480088401B50
:1045A000401E05B2701E201A04B20DE04FF0010843
:1045B00020462C46054648480088401B401E05B250
:1045C000701E281A05B200BF00BFB8F1000F06D058
:1045D0003B46324629462046FFF7FFFE05E03B46B4
:1045E000324629462046FFF7A1FEBDE8F0812DE9BD
:1045F000F04104460D4616461F464FF000083A4863
:10460000007830B1012805D0022811D0032828D124
:104610001CE026E04FF0010820462C4605462F48B6
:104620000088001B401E04B2701E201A04B218E05D
:104630002A480088001B401E04B227480088401BFF
:10464000401E05B2701E281A05B20AE04FF001089C
:1046500020462C46054620480088401B401E05B2D7
:1046600000BF00BFB8F1000F06D03B4632462946D6
:104670002046FFF75BFE05E03B46324629462046D2
:10468000FFF7ABFEBDE8F0812DE9FF4F05460E4672
:104690009046C8F101000FFA80F94FF0010A4FEA85
:1046A000480040420FFA80FB0027444606EB080012
:1046B00001B22846039AFFF7BCFCA6EB080001B242
:1046C0002846039AFFF7B5FC05EB080108B231460E
:1046D000039A0BE02F000020200000201E00002085
:1046E0002F0400203704002027000020FFF7A1FC42
:1046F000A5EB080108B23146039AFFF79AFC4EE099
:10470000B9F1000F09DB601E04B20BF102000FFAD1
:1047100080FB09EB0B000FFA80F9781C07B20AF155
:1047200002000FFA80FA09EB0A000FFA80F9321939
:1047300011B2EA1910B2039AFFF77BFC321911B2D9
:10474000EA1B10B2039AFFF774FC321B11B2EA198C
:1047500010B2039AFFF76DFC321B11B2EA1B10B2C4
:10476000039AFFF766FCF21911B22A1910B2039AE4
:10477000FFF75FFCF21911B22A1B10B2039AFFF780
:1047800058FCF21B11B22A1910B2039AFFF751FC20
:10479000F21B11B22A1B10B2039AFFF74AFCA74280
:1047A000AEDBBDE8FF8F2DE9F84F06460F46914678
:1047B0009846C9F101000FFA80FA4FF0010B4FEA59
:1047C0004900404200B2009000244D465AE0BAF140
:1047D000000F09DB681E05B20098801C00B2009033
:1047E000009850440FFA80FA601C04B20BF10200EA
:1047F0000FFA80FB0AEB0B000FFA80FA08F00400B6
:1048000068B17A1911B2321910B20A9AFFF711FC85
:104810003A1911B2721910B20A9AFFF70AFC08F09D
:10482000020068B17A1B11B2321910B20A9AFFF76E
:1048300000FC3A1B11B2721910B20A9AFFF7F9FB89
:1048400008F0080068B13A1911B2721B10B20A9A46
:10485000FFF7EFFB7A1911B2321B10B20A9AFFF779
:10486000E8FB08F0010068B13A1B11B2721B10B2EC
:104870000A9AFFF7DEFB7A1B11B2321B10B20A9ABA
:10488000FFF7D7FBAC42A2DBBDE8F88F2DE9FC4F68
:1048900006460F4690469A46DDF82C90C8F1010076
:1048A0000FFA80FB012001904FEA4800404200B21D
:1048B00000900024454648E0BBF1000F09DB681E6C
:1048C00005B20098801C00B20090009858440FFA7E
:1048D00080FB601C04B20198801C00B2019001981A
:1048E00058440FFA80FB0AF00100A8B16B005B1C72
:1048F0004B441AB27B1B19B2331918B20C9BFFF749
:1049000076FE63005B1C4B441AB23B1B19B2731951
:1049100018B20C9BFFF76BFE0AF00200A8B16B0007
:104920005B1C4B441AB27B1B19B2331B18B20C9B95
:10493000FFF75DFE63005B1C4B441AB23B1B19B2D0
:10494000731B18B20C9BFFF752FEAC42B4DBBDE800
:10495000FC8FFCB507460D4614461E466000401C01
:1049600002B2281B01B233463846FFF740FE002052
:10497000032322462946CDE900063846FFF786FF85
:10498000FCBD2DE9F84F04460D4616461F46791B1F
:10499000002901DB0A4600E04A42301B002801DB07
:1049A000034600E043429A4201DD012200E000227A
:1049B0009346BBF1000F06D020462C4605463046F4
:1049C0003E46074600BFB44206DD20463446064652
:1049D00028463D46074600BF301B0FFA80F8781B7B
:1049E000002801DB014600E0414209B20091404647
:1049F00008EBD07149100FFA81F9BD4202DA4FF08D
:104A0000010A01E04FF0FF3A1EE0BBF1000F05D0B4
:104A1000214628460A9AFFF70CFB04E02946204667
:104A20000A9AFFF706FB0098A9EB00000FFA80F93D
:104A3000B9F1000F06DA05EB0A0005B209EB080030
:104A40000FFA80F9601C04B2B442DEDDBDE8F88FD5
:104A50002DE9F04105460E4617461C46DDF8188044
:104A600043463A4631462846FFF774FD3019401E4A
:104A700001B243463A462846FFF76CFD43462246BC
:104A800031462846FFF7B3FDE919491E08B24346EF
:104A900022463146FFF7ABFDBDE8F0812DE9F0433A
:104AA0000446884616461F46DDF81C90254607E05A
:104AB0004B463A4641462846FFF799FD681C05B229
:104AC000A019A842F4DCBDE8F08318B50446F74805
:104AD0000094B0F90030F648B0F9002000210846F3
:104AE000FFF7DCFF18BD2DE9F84305460E461746D3
:104AF0009846DDE90849022101FB14710AB229191F
:104B000008B24B463146FFF725FD022303FB147321
:104B10001AB206EB08035B1E19B22B1918B24B46EA
:104B2000FFF718FD022000FB148002B2301901B219
:104B30004B462846FFF75BFD022303FB14831AB2A2
:104B4000331919B2EB195B1E18B24B46FFF74FFD34
:104B5000321911B22A1910B201232246CDF8009061
:104B6000FFF721FE321911B2EA19121B521E10B2C0
:104B700002232246CDF80090FFF715FE06EB08024F
:104B8000121B521E11B2EA19121B521E10B204233C
:104B90002246CDF80090FFF706FE06EB0802121B36
:104BA000521E11B22A1910B208232246CDF80090E5
:104BB000FFF7F9FDBDE8F8832DE9FC4305460E46F5
:104BC00017469846DDE90949022101FB14710AB232
:104BD000291908B243463146CDF80090FFF75EFF31
:104BE000022000FB1480401E00B2321911B2EA19F3
:104BF000121B521ECDE9000910B201232246FFF715
:104C000045FE022000FB1480401E00B2321911B292
:104C10002A19CDE9000910B202232246FFF736FE19
:104C2000BDE8FC832DE9F84705460E461746984631
:104C3000DDE9099A0B9C43463A46314628460094E2
:104C4000FFF79FFE53464A46414638460094FFF719
:104C500098FE33462A46514648460094FFF791FE97
:104C6000BDE8F8872DE9F04F89B0804689461546A2
:104C70001C46DDF848B0A14506DD4846A14604467D
:104C80004046A846054600BF1398844206DD1398A7
:104C9000139404465846AB46054600BFA14506DDC1
:104CA0004846A14604464046A846054600BF13981C
:104CB00081451AD146463746B54201DA2E4602E012
:104CC000BD4200DD2F46B34501DA5E4602E0BB453A
:104CD00000DD5F46B81B401C02B249463046149BBB
:104CE000FFF738FC09B0BDE8F08FA5EB080000B273
:104CF0000790A4EB090000B20690ABEB080000B2ED
:104D000005901398A0EB090000B20490ABEB0500EE
:104D100000B203901398001B00B202900020019093
:104D200000901398844201D1089402E0601E00B202
:104D30000890CA4625E00699019890FBF1F040449E
:104D400006B20499009890FBF1F0404407B207992D
:104D50000198084401900599009808440090BE42CB
:104D600003DD30463E46074600BFB81B401C02B27A
:104D700051463046149BFFF7EDFB0AF101000FFA94
:104D800080FA08988245D6DDAAEB040003994843CF
:104D90000190AAEB090005994843009025E0DDE960
:104DA000010190FBF1F0284406B20499009890FBB1
:104DB000F1F0404407B20399019808440190059925
:104DC000009808440090BE4203DD30463E46074648
:104DD00000BFB81B401C02B251463046149BFFF77F
:104DE000B9FB0AF101000FFA80FA13988245D6DD6B
:104DF00000BF77E72DE9F04F0746884691461E46EB
:104E0000DDF824A0F01DC11700EB5171C9100FFA95
:104E100081FB00251CE0002416E0E11704EB517132
:104E2000C91005FB0B92515C04F0070380221A4164
:104E3000114039B108EB050211B23A1910B20A9AC1
:104E4000FFF7F7F8601C04B2B442E6DB681C05B259
:104E50005545E0DBBDE8F08F2DE9F84F06460F46DB
:104E600091469846DDE90AAB08F10700C11700EB4F
:104E70005171C91009B20091002528E0002422E0F8
:104E8000E11704EB5171CA10009905FB0191895C8F
:104E900004F0070380221A41114059B17A1911B266
:104EA000321910B25A46FFF7C4F80AE01C0000207D
:104EB0001A0000207A1911B2321910B20C9AFFF7B9
:104EC000B8F8601C04B24445DADB681C05B25545ED
:104ED000D4DBBDE8F88F2DE9F04F074688469146B0
:104EE0001E46DDF824A0F01DC11700EB5171C9105A
:104EF0000FFA81FB002521E000241BE0E21704EB00
:104F00005272D21005FB0B939A5CE31704EB5373B8
:104F1000DB10A4EBC30C012303FA0CF31A403AB1E3
:104F200008EB050211B23A1910B20A9AFFF781F89C
:104F3000601C04B2B442E1DB681C05B25545DBDB02
:104F4000BDE8F08F2DE9F84F06460F4691469A4688
:104F50000B9C9848B0F90000864210DA9648B0F9E8
:104F6000000087420BDA062000FB0460401E002888
:104F700005D4082000FB0470401E002801D5BDE8C0
:104F8000F88F8E48007830B9B9F1B00F03DB09F122
:104F9000010000F0FF0900254DE0052D02D14FF082
:104FA000000B05E009EB89008549084410F805B0BD
:104FB0004FF000083AE00BF00100B8B1012C08D125
:104FC00007EB080211B2721910B25246FFF731F81E
:104FD00026E008FB047211B205FB046210B22346FE
:104FE0002246CDF800A0FFF759FD19E00A98504578
:104FF00016D0012C08D107EB080211B2721910B2B9
:105000000A9AFFF716F80BE00A9808FB047211B22F
:1050100005FB0462009010B223462246FFF73EFDD6
:105020004FEA6B0B08F101004FFA80F8B8F1080F56
:10503000C1DB681C45B2062DAFDB00BF9FE71CB586
:1050400004460A2C0CD15F4800785F49098801EBBF
:10505000C00000B25C49088000205C4908803AE04A
:105060000D2C38D05748007859490988CDE90010EF
:105070005848038822465448B0F900105348B0F904
:105080000000FFF75FFF4F48007800EB40004F49FA
:10509000098801EB400000B24C4908804E48007876
:1050A000C8B14848007800EB40004249B1F900100F
:1050B000A1EB40004549B1F9001088420BDA4148A4
:1050C00000784149098801EBC00000B23E490880E0
:1050D00000203E49088001201CBD3C4A10803A4A0D
:1050E000118070473948B0F9000070473648B0F970
:1050F00000007047002801DD014600E00121314A2F
:105100001170704732490880324908807047314A2F
:1051100010802F4A1180704708B1012100E0002162
:105120002D4A117070472D480078704700F0030138
:105130002A4A11701146097831B1012910D002298B
:1051400003D0032918D10CE000BF2549B1F90010A4
:10515000184A11802349B1F90010174A11800BE059
:1051600000BF2049B1F90010124A11801C49B1F961
:105170000010114A118000BF00BF704708B1012123
:1051800000E000210D4A1170704710B5044603E09D
:105190002078FFF754FF641C20780028F8D110BD58
:1051A00010B504462046FFF7F0FF0A20FFF747FF3F
:1051B00010BD00001A0000201C0000202D0000205F
:1051C000208D000026000020240000202200002066
:1051D0002A000020280000202C00002027000020AA
:1051E0001E0000202000002010B508214448FBF7D5
:1051F0003CFA4448006844490860FDF746FF4149CD
:1052000008600846008840490988401A3F490880DC
:105210003F480078012841D108460088B0F5487F12
:1052200021DB0846008840F6980188421BDC39489B
:105230000078401C374908703448018835480078A8
:10524000401E354A22F8101032480078082834DB16
:105250003048007842003049304800F065F80020BE
:105260002B49087029E02948008840F6C41188427B
:1052700010DB2848007842002749284800F054F8FD
:105280000120234908700020224908700120244988
:10529000087012E000201E4908700EE01B480088CC
:1052A00040F6C411884208DB01201949087000202B
:1052B0001849087001201A49087010BD10B5194826
:1052C000FBF7A0FEAFF2DF010D48FBF7D1F9082193
:1052D0000B48FBF767FA0A23012208210848FBF76D
:1052E0009EF8002208210648FBF73CF808210448F4
:1052F000FBF7A7F900211220FBF730FC10BD0000DE
:105300000060004048040020440400204E040020B7
:105310004C0400204D040020780B0020680B002076
:1053200040040020020800F040EA01039B0703D07C
:1053300009E008C9121F08C0042AFAD203E011F8D4
:10534000013B00F8013B521EF9D27047D2B201E096
:1053500000F8012B491EFBD270470022F6E710B57A
:1053600013460A4604461946FFF7F0FF204610BDD3
:105370002DE9FE4F804681EA0300C00F0C460090E5
:1053800021F0004123F00045B8EB0200A94105D20D
:105390004046214690461C460B46024623F00040FC
:1053A000104347D0270DC7F30A00C3F30A510290F8
:1053B000401A019040286BDAC3F3130040F4801BBD
:1053C0000098924620B10023D2EB030A63EB0B0B4B
:1053D00001985946C0F14002504600F0A3F9064634
:1053E0000D4650465946019A00F0ABF910EB080003
:1053F0006141002487EA115284EAE7731A4340D0DE
:10540000009A62B3019A012A4FEA075215DC001B89
:1054100061EB02014FF0004202EA0752CDE900427F
:10542000001C41F5801132462B4600F0E2F903B032
:10543000BDE8F08F40462146F9E7001B61EB020111
:10544000001C41F5801300185B412018A2F50017DD
:1054500047EB030140EAD570B6196D4111E06D08C4
:105460004FEA360645EAC0754FEA0752001B61EB6A
:105470000201001C41F5801149084FEA3000001973
:10548000514132462B4603B0BDE8F04F00F0A2B9BF
:105490000098012240000023D0EB020263EBE0738E
:1054A000009821464FEAE074B8EB000061EB04017C
:1054B000E9E783F000435BE781F0004158E72DE91D
:1054C000FE4F81EA030404F0004421F000410094FF
:1054D0004FF0000B23F0004350EA01045ED052EA83
:1054E00003045BD0C3F30A54C1F30A552C44A4F25D
:1054F000F3340194A0FB0254C1F3130141F4801171
:10550000C3F3130343F4801301FB024400FB034E77
:10551000840A970A44EA815447EA8357A4FB076840
:1055200002958D0A05FB07854FEA932C04FB0C546A
:105530002705029D4FEA065847EA1637B5EB0805DE
:105540006EEB070C870E920E47EA811742EA831230
:10555000A7FB0201B6EB0B0164EB00042B0D43EA41
:105560000C335E1844EB1C50DA465146E7FB02014F
:10557000C5F313044FEA0B3343EA14534FEA0432E2
:10558000019C43EA0603A4F10C040294009CCDE9BB
:1055900000B400F02EF903B0BDE8F08F0020014602
:1055A000F9E72DE9F04D81EA030404F0004B21F006
:1055B000004514464FF0000A23F0004150EA05026E
:1055C00020D054EA01021DD0C5F30A570246C5F3A4
:1055D0001303C1F31300C1F30A5640F4801543F4DA
:1055E0008013A7EB0608101BD64608F2FD3873EBB4
:1055F000050002D308F1010801E092185B41B8F1FF
:10560000000F03DA00200146BDE8F08D00204FF4C2
:105610008011064684460EE0171B73EB050705D381
:10562000121B63EB050306434CEA010C49084FEAE1
:10563000300092185B4150EA0107EDD152EA0300B5
:1056400012D082EA040083EA0501084305D0101B4A
:10565000AB4106D20122002306E000224FF00043B6
:1056600002E06FF0010253101AEB06004CEB0851F8
:1056700010EB0A0041EB0B01BDE8F04D00F0AAB8B9
:105680000EB540F2334102910021CDE900110A46E6
:105690000B4600F0AEF803B000BD00F0004230F061
:1056A00000400AD0C10D01F56071C0F3160042EA56
:1056B0000151C2084007114370470020014670475E
:1056C00001F0004330B421F0004150EA010206D05D
:1056D0000A0DA2F56072C1F31301002A02DC30BC8E
:1056E00000207047440F44EAC104C100E01830BCF8
:1056F00000EBC25000F037B830B50B460146002031
:105700002022012409E021FA02F59D4205D303FA83
:1057100002F5491B04FA02F52844151EA2F1010204
:10572000F1DC30BD202A04DB203A00FA02F100202F
:1057300070479140C2F1200320FA03F319439040CF
:105740007047202A06DBCB17203A41FA02F043EAE1
:10575000E07306E041FA02F3D040C2F1200291402A
:105760000843194670470029A8BF7047401C4900EC
:1057700008BF20F00100704710B4B0FA80FC00FAB6
:105780000CF050EA010404BF10BC704749B1CCF1E1
:10579000200421FA04F411FA0CF118BF012121436D
:1057A0000843A3EB0C01CB1D4FEA00614FEA102028
:1057B00042BF002010BC704700EBC35010440029CA
:1057C000A4BF10BC7047401C490008BF20F0010076
:1057D00010BC704710B5141E73F1000408DA401CA9
:1057E00041F1000192185B411A4301D120F0010000
:1057F00010BD2DE9F04D92469B4611B1B1FA81F2F0
:1058000002E0B0FA80F220329046FFF78BFF0446A8
:105810000F4640EA0A0041EA0B0153465A46084344
:1058200013D0114653EA010019D0C8F14002504686
:1058300000F040F805460E46504659464246FFF7EE
:1058400071FF084305D0012004E020463946BDE839
:10585000F08D0020054346EAE0762C4337430A9852
:105860006305E40AA0EB08000022FD0A44EA47545D
:105870000A3002D500200146E9E701051019694107
:10588000DDE9084500196941BDE8F04DA2E70000D7
:10589000064C074D06E0E06840F0010394E807007D
:1058A00098471034AC42F6D3FAF7F2FC5493000058
:1058B00074930000202A04DB203A21FA02F0002130
:1058C000704721FA02F3D040C2F120029140084310
:1058D000194670470EB5C10F80EAE0700844CA0748
:1058E000002140F233438DE80E000A460B46FFF7D5
:1058F00080FF03B000BD70B5C1F30A5201F000454E
:105900000024C1F3130140F2FF3341F480119A42A5
:1059100001DA002070BD40F233439A42A2F23342D2
:1059200003DC5242FFF7C6FF00E090402C43F1D069
:10593000404270BD70B58C1810F8015B15F007037C
:1059400001D110F8013B2A1106D110F8012B03E018
:1059500010F8016B01F8016B5B1EF9D12B0705D420
:105960000023521E0DD401F8013BFAE710F8013B69
:10597000CB1A921C03E013F8015B01F8015B521E85
:10598000F9D5A142D8D3002070BD00000FB4054B5B
:1059900010B503A9044A029800F014FD10BC5DF88C
:1059A00014FB0000712100005004002003B4019892
:1059B0004100009850EAC12018BF04204A0D18BFCA
:1059C00040F0010040F2FF72B2EB515F08BF40F0BF
:1059D0000200012808BF052002B070470000000047
:1059E00010B52F499FED2C1B2DED020B84B00598AF
:1059F00020F000408842D8BF9DED040B2DDD2949E1
:105A0000884209D1049840B94FF0010000F0D4FC5D
:105A100000F0A2FC06B010BD05DB9DED040B00F00C
:105A20008FFC06B010BD68469DED040B00F0A0F899
:105A300010F0030004BF9DED021B9DED000B0CD088
:105A400001280ED09DED021B9DED000B022817D002
:105A5000012000F0DDFB06B010BD00F0A5FA06B095
:105A600010BD9DED021B9DED000B012000F0D0FB51
:105A700051EC100B81F0004106B041EC100B10BD51
:105A800000F092FA51EC100B81F0004106B041ECAD
:105A9000100B10BD0000000000000000000000001E
:105AA000FB21E93F0000F07F10B52F499FED2C1B33
:105AB0002DED020B84B0059820F000408842DCBF39
:105AC00000209DED040B32DD2849884209D104985D
:105AD00040B94FF0010000F06FFC00F03DFC06B053
