:020000040000FA
:10000000E00C00206D02000081020000830200006D
:10001000850200008502000085020000000000004B
:100020000000000000000000000000008502000049
:10003000850200000000000085020000850200002B
:100040008502000085020000850200008502000094
:100050008502000085020000850200008502000084
:100060008502000085020000850200008502000074
:100070008502000085020000850200008502000064
:100080008502000085020000850200008502000054
:100090008502000085020000850200008502000044
:1000A0008502000085020000850200008502000034
:1000B0008502000085020000850200008502000024
:1000C0008502000085020000850200008502000014
:1000D0008502000085020000850200008502000004
:1000E000850200008502000000000000850200007B
:1000F00085020000850200008502000085020000E4
:1001000085020000850200008502000085020000D3
:1001100000000000000000008502000085020000D1
:1001200085020000850200008502000085020000B3
:1001300085020000850200008502000085020000A3
:1001400000000000000000000000000000000000AF
:100150008502000085020000850200008502000083
:10016000000000000000000000000000000000008F
:10017000000000000000000000000000000000007F
:10018000000000000000000000000000000000006F
:10019000000000000000000000000000000000005F
:1001A000000000000000000000000000000000004F
:1001B0008502000085020000850200008502000023
:1001C0008502000085020000850200008502000013
:1001D0008502000085020000850200008502000003
:1001E000850200008502000085020000000000007A
:1001F000000000008502000085020000850200006A
:1002000085020000850200000000000000000000E0
:1002100085020000850200008502000085020000C2
:1002200085020000850200008502000085020000B2
:1002300085020000850200008502000085020000A2
:100240008502000085020000850200008502000092
:100250008502000085020000850200008502000082
:100260008502000085020000850200004EF68850DD
:10027000CEF20000016841F47001016000F004B8A2
:10028000FEE7FEE7FEE70000DFF80CD004F0EAFE30
:10029000004800476D220000E00C0020EFF31080C2
:1002A00072B67047EFF310807047EFF3108062B6BC
:1002B000704730BF704780F311887047EFF31180AB
:1002C000704700000138FDD17047000030B502468C
:1002D000F84B1824F8480068F84D2840F84DA8421B
:1002E00001D1F84B00BF002108E053F831009042E3
:1002F00003D103EBC100406830BD491CA142F4D3D7
:100300000020F9E702F001031BB1D0F800340B43E1
:1003100002E0D0F800348B43C0F8003402F002034E
:100320001BB1D0F820340B4302E0D0F820348B43CB
:10033000C0F82034704730B5024601208840C1B271
:10034000D2F80034D2F8204403EA010008B10120B9
:1003500000E0002004EA01050DB1022500E00025BF
:10036000284330BD02F001031BB1D0F808340B4321
:1003700002E0D0F808348B43C0F8083402F00203DE
:100380001BB1D0F804340B4302E0D0F804348B43A3
:10039000C0F8043402F004031BB1D0F80C340B4352
:1003A00002E0D0F80C348B43C0F80C3402F48033F4
:1003B00023B1D0F8383543F0010303E0D0F83835E5
:1003C00023F00103C0F838357047F0B5024601202C
:1003D0008840C1B2D2F80834D2F80444D2F80C6490
:1003E000D2F8385503EA010008B1012000E00020EE
:1003F00004EA01070FB1022700E00027384306EAAC
:1004000001070FB1042700E00027384305F001077A
:10041000384310B14FF48030F0BD0020FCE7F0B558
:1004200002F001051DB1D0F800550D4302E0D0F8EF
:1004300000558D43C0F8005502F002051DB1D0F8FB
:1004400004550D4302E0D0F804558D43C0F804551F
:1004500002F004051DB1D0F808550D4302E0D0F8B4
:1004600008558D43C0F8085502F008051DB1D0F8B5
:1004700018550D4302E0D0F818558D43C0F81855B3
:1004800002F010051DB1D0F83C550D4302E0D0F844
:100490003C558D43C0F83C55002416E00125A5408D
:1004A0000D4085B1D0F8C45F67000326BE40B54358
:1004B000C0F8C45FD0F8C45F6700C2F34116BE4005
:1004C0003543C0F8C45F651CECB2082CE6DB03F0D2
:1004D00001051DB1D0F80C550D4302E0D0F80C55C4
:1004E0008D43C0F80C5503F002051DB1D0F810552E
:1004F0000D4302E0D0F810558D43C0F8105503F0BD
:1005000004051DB1D0F814550D4302E0D0F8145580
:100510008D43C0F8145503F008051DB1D0F81C55E3
:100520000D4302E0D0F81C558D43C0F81C5503F470
:1005300000751DB1D0F844550D4302E0D0F8445584
:100540008D43C0F8445503F440751DB1D0F84055B3
:100550000D4302E0D0F840558D43C0F840551BB91B
:10056000D0F828550D4302E0D0F828558D43C0F847
:100570002855F0BDF0B514461D4601268E40F1B257
:10058000D0F800650E400EB1012600E0002632468C
:10059000D0F804650E400EB1022600E0002632437A
:1005A000D0F808650E400EB1042600E00026324364
:1005B000D0F818650E400EB1082600E00026324340
:1005C000D0F83C650E400EB1102600E00026324304
:1005D000D0F8C46F4F00FE4006F0030642EA461210
:1005E0002260D0F80C650E400EB1012600E0002616
:1005F0003346D0F810650E400EB1022600E000260A
:100600003343D0F814650E400EB1042600E00026F6
:100610003343D0F81C650E400EB1082600E00026DA
:100620003343D0F840650E404EB1D0F844650E40DB
:1006300016B14FF4007601E04FF4807633432B601F
:10064000F0BDD0F810240A43C0F810247047D0F849
:1006500010248A43C0F810247047024611B1D2F822
:1006600018047047D2F81404FBE7C0F81C14704754
:1006700070B504460D462046FFF728FE064629467B
:10068000304600F031FA304600F08AFA70BD70B59D
:1006900004462046FFF71AFE0546284600F0BCFA3D
:1006A000284600F03BFA70BD0246002000EB8100B6
:1006B00010587047F451000000E00F400000FF7038
:1006C00000000A10B4520000002303EB8103C25063
:1006D000704730B504460D46002229462046FFF7F4
:1006E00011FE0023012229462046FFF798FE30BD67
:1006F00030B504460D46022229462046FFF702FE89
:100700000823042229462046FFF789FE30BD30B574
:1007100004460D46002229462046FFF7F3FD00233C
:10072000012229462046FFF77AFE30BD30B5044647
:100730000D46022229462046FFF7E4FD0823042245
:1007400029462046FFF76BFE30BD30B504460D4606
:10075000022229462046FFF7D5FD08230422294618
:100760002046FFF75CFE30BD30B504460D46022240
:1007700029462046FFF7C6FD0823042229462046C5
:10078000FFF74DFE30BD30B504460D460222294626
:100790002046FFF7B7FD0823012229462046FFF730
:1007A0003EFE30BD30B504460D46002229462046A7
:1007B000FFF7A8FD0823012229462046FFF72FFE58
:1007C00030BD30B504460D46082301222946204697
:1007D000FFF725FE012229462046FFF793FD30BD95
:1007E00030B504460D460923012229462046FFF76D
:1007F00016FE012229462046FFF784FD30BD30B5A4
:1008000004460D46022229462046FFF77BFD0923B8
:10081000012229462046FFF702FE30BD30B50446CE
:100820000D46022229462046FFF76CFD08230122CF
:1008300029462046FFF7F3FD30BD30B504460D468E
:10084000022229462046FFF75DFD0823042229469F
:100850002046FFF7E4FD30BD30B504460D460222C8
:1008600029462046FFF74EFD08230422294620464C
:10087000FFF7D5FD30BD30B504460D4600222946B0
:100880002046FFF73FFD0023012229462046FFF7BF
:10089000C6FD30BD30B504460D460222294620462D
:1008A000FFF730FD0823012229462046FFF7B7FD58
:1008B00030BD30B504460D46022229462046FFF7DA
:1008C00021FD0823012229462046FFF7A8FD30BD5F
:1008D00030B504460D46022229462046FFF712FD98
:1008E0000A23012229462046FFF799FD30BD30B585
:1008F00004460D46022229462046FFF703FD082341
:10090000012229462046FFF78AFD30BD30B5044656
:100910000D46022229462046FFF7F4FC0823012257
:1009200029462046FFF77BFD30BD30B504460D4615
:10093000022229462046FFF7E5FC0823012229462A
:100940002046FFF76CFD30BD30B504460D46002251
:1009500029462046FFF7D6FC0023012229462046DF
:10096000FFF75DFD30BD30B504460D460222294635
:100970002046FFF7C7FC0823012229462046FFF73F
:100980004EFD30BD30B504460D46002229462046B6
:10099000FFF7B8FC4FF40273012229462046FFF707
:1009A0003EFD30BD30B504460D46002229462046A6
:1009B000FFF7A8FC4FF48473012229462046FFF775
:1009C0002EFD30BD30B504460D4602222946204694
:1009D000FFF798FC0823012229462046FFF71FFD58
:1009E00030BD30B504460D46022229462046FFF7A9
:1009F00089FC0A23012229462046FFF710FD30BD5D
:100A000030B504460D46022229462046FFF77AFCFF
:100A10000823042229462046FFF701FD30BD30B5EA
:100A200004460D46022229462046FFF76BFC0823A8
:100A3000012229462046FFF7F2FC30BD014601F5B0
:100A4000A960704710B50146C1F307401B4BDB6E30
:100A500001248440234033B1012303EB4003184CAD
:100A600054F8230003E04300154C54F82300C1F36D
:100A70000722D0F82C350F249440A34301F00F0433
:100A800094402343C0F82C3510BDD0F834250A43D8
:100A9000C0F834257047D0F834258A43C0F834258F
:100AA0007047D0F830250A43C0F830257047D0F899
:100AB00030258A43C0F830257047000000E00F4021
:100AC0007453000000BFFEE710B5FFF7EEFB08B15E
:100AD000012010BD0020FCE710B5FFF7DFFB08B1D7
:100AE000012010BD0020FCE730B50246B64C24685A
:100AF000B64DAC420ED0B44C2368002005E053F84C
:100B00002040B24D45F82040401C9B28F7D3AF4C05
:100B1000AD4D2C60AD4C44F8221030BDAC49AB4A11
:100B200042F820107047AB4951F82010AA4A1143EF
:100B3000A54A121D11607047A34A121D126802F4E3
:100B4000E061002006E0A34A52F820208A4200D14A
:100B500002E0401C0828F6D300BF704710B50A46D3
:100B600083089E4C54F8233019688307DC0EFF235A
:100B7000A34099438307DB0E02FA03F3194383086A
:100B8000964C54F82330196010BD01468808934AEA
:100B900052F8200000688A07D20ED040C0B27047D9
:100BA000042808D188491C31096841F48031864AFB
:100BB0001C3211602FE0052808D183491C310968D7
:100BC00041F40031804A1C32116024E0062808D12B
:100BD0007D491C31096841F480217B4A1C32116037
:100BE00019E00F2808D14FF0E021096941F0020116
:100BF0004FF0E02211610EE010280CD3A0F110019B
:100C000001F01F0201219140A0F110025209744B22
:100C100053F8222011607047042808D16A491C311A
:100C2000096821F48031684A1C3211602FE00528E0
:100C300008D165491C31096821F40031624A1C322F
:100C4000116024E0062808D15F491C31096821F4AD
:100C500080215D4A1C32116019E00F2808D14FF045
:100C6000E021096921F002014FF0E02211610EE05C
:100C700010280CD3A0F1100101F01F0201219140B6
:100C8000A0F110025209574B53F82220116070470F
:100C900010B501460020042905D14B4A1C321268C8
:100CA00002F4803028E0052905D1474A1C32126839
:100CB00002F4003020E0062905D1434A1C321268B4
:100CC00002F4802018E00F2905D14FF0E0221269CC
:100CD00002F0020010E010290ED3A1F11002520917
:100CE0003F4B53F822201268A1F1100303F01F04B8
:100CF0000123A34002EA030010BD022808D13249B3
:100D0000091F096841F000412F4A121F116024E0B9
:100D10000E2808D12C49091F096841F080512A4A40
:100D2000121F116019E00F2808D12749091F09680F
:100D300041F08061244A121F11600EE010280CD38C
:100D4000A0F1100101F01F0201219140A0F1100259
:100D50005209254B53F82220116070470E2808D104
:100D60001949091F096841F00061174A121F1160F3
:100D700019E00F2808D11449091F096841F00071D2
:100D8000114A121F11600EE010280CD3A0F11001BF
:100D900001F01F0201219140A0F110025209134BF2
:100DA00053F822201160704710B504462046FFF723
:100DB00082FA10BD10B5FFF781FA10BDA0F1100145
:100DC0000B4A11607047000008ED00E000080020A9
:100DD000C50A0000045400000000FA052454000075
:100DE000C0540000D4540000E8540000FC5400003B
:100DF00000EF00E0016841F0010101607047016807
:100E000021F0010101607047036823F01E030B43CA
:100E10000360C26070470146886870478160704710
:100E20000146486800F0020010B14FF0FF307047F3
:100E30000120FCE70146486800F0010070470168A6
:100E400041F0200101607047016821F0200101603C
:100E50007047036823F4E0730B430360531E036180
:100E600070470146C86970470146254A1268254BFC
:100E70001A40254B9A4206D1244A914201D11D20A5
:100E800010E036200EE01E4A12681E4B1A40204B1E
:100E90009A4206D11D4A914201D11D2002E0002054
:100EA00000E00020704770B504460D462046FFF76D
:100EB000DBFF064629463046FFF716FE3046FFF7B1
:100EC0006FFE70BD70B504462046FFF7CDFF0546A6
:100ED0002846FFF7A1FE2846FFF720FE70BD026AF4
:100EE0000A4302627047026A8A43026270470246FE
:100EF00009B1906A7047506AFCE781627047000050
:100F000000E00F400000FF700000051000C002402C
:100F100000000A10024600210AE0F74850F83100AC
:100F2000904204D3F44800EBC10040687047491C6C
:100F30000729F2D30020F9E7F0B50146DFF8BCC37A
:100F4000DCF860C1CCF38923DFF8B0C3DCF860C102
:100F5000CCF30905DFF8A4C3DCF864C1CCF3042C9E
:100F60000CF10106DFF894C3DCF864C10CF01F0C2F
:100F70000CF10107B1FBF7F15A09A3EB421401FB95
:100F800005F001FB02FC00EB5C1001FB04FC00EB34
:100F90009C20B0FBF6F0F0BDD8483C380068401CFF
:100FA00000027047D5480068D5490840D5498842B5
:100FB00006D1D24880680004400900F500607047FF
:100FC000CE484038006880B2401CC002F7E7CB48EA
:100FD0000068CB490840CC49884209D1C74840380D
:100FE0000068C0F302400A30012101FA00F07047A6
:100FF0004FF48060FBE70146C1F30720C34A104469
:1010000000F0704040F00070C1F30722BF4B1A445B
:10101000C2F3130240EA4210CAB240EA82000068FA
:1010200008B1012070470020FCE70146C1F307200A
:10103000B74A104400F0704040F00070C1F307223E
:10104000B34B1A44C2F3130240EA4210CAB240EA58
:101050008200006808B1012070470020FCE710B54D
:101060000121C0F30722AB4B1A4402F0704242F058
:101070000072C0F30723A74C2344C3F3130342EACF
:101080004312C3B242EA8302116010BD10B50021C1
:10109000C0F307229F4B1A4402F0704242F00072E4
:1010A000C0F307239B4C2344C3F3130342EA4312C8
:1010B000C3B242EA8302116010BD18B50121C0F32A
:1010C0000722954B1A4402F0704242F00072C0F3BE
:1010D0000723914C2344C3F3130342EA4312C3B2E0
:1010E00042EA830211600021009102E00099491C4C
:1010F000009100991029F9D30021C0F30722864BF3
:101100001A4402F0704242F00072C0F30723824C8E
:101110002344C3F3130342EA4312C3B242EA8302F5
:10112000116018BD10B50121C0F307227B4B1A4492
:1011300002F0704242F00072C0F30723774C234460
:10114000C3F3130342EA4312C3B242EA83021160BB
:1011500010BD10B50021C0F30722704B1A4402F0F5
:10116000704242F00072C0F307236C4C2344C3F377
:10117000130342EA4312C3B242EA8302116010BD74
:1011800010B50121C0F30722654B1A4402F07042EA
:1011900042F00072C0F30723614C2344C3F31303EE
:1011A00042EA4312C3B242EA8302116010BD10B595
:1011B0000021C0F307225A4B1A4402F0704242F059
:1011C0000072C0F30723564C2344C3F3130342EACF
:1011D0004312C3B242EA8302116010BD10B501216F
:1011E000C0F307224F4B1A4402F0704242F00072E3
:1011F000C0F307234B4C2344C3F3130342EA4312C7
:10120000C3B242EA8302116010BD10B50021C0F3E1
:101210000722444B1A4402F0704242F00072C0F3BD
:101220000723404C2344C3F3130342EA4312C3B2DF
:1012300042EA8302116010BD30490968304A11400A
:10124000304A91420ED130B12C49096E41F0006113
:101250002A4A116618E02949096E21F00061274ADF
:10126000116611E040B12549B031096841F00051E3
:10127000224AC2F8B01007E02049B031096821F0D5
:1012800000511E4AC2F8B010704710B504462146FE
:101290002C20FFF729FC2C20FFF782FC10BD10B595
:1012A0002C20FFF7B9FC2C20FFF738FC10BD1349A8
:1012B000496D0143114A516570471049496D814399
:1012C0000E4A516570470D4988657047014611B156
:1012D0000A48806D70470948006DFBE712490860B5
:1012E00070471148006870470F490831086070471F
:1012F0000D480830006870479C56000000E00F4021
:101300000000FF700000051000000A1000E30F400D
:1013100000EA0F4000E90F4000E50F4000E60F40F3
:1013200000E70F4000E80F40B4E10F40FE490860BD
:101330007047FD49091D08607047FC48FC4908607A
:1013400000BFFEE710B5FEF7B4FF10BD10B5F848BA
:10135000001D006840F00400F549091D0860FEF713
:10136000A8FFF348001D006820F00400F049091DA3
:10137000086010BDEF48C06D7047EE49C96D8143EC
:10138000EC4AD1657047EB49C86770470146EA48A7
:10139000084050B101F00040E34A383A1060E64896
:1013A00081380840E34AC2F85001DF48383801600C
:1013B00001F4007088B100BFDB483438006800F4E5
:1013C00040700028F8D0D8483438006800F44070E5
:1013D000B0F5807F01D0002070470120FCE7D249A2
:1013E000503108607047D0485030006870472DE990
:1013F000FE4F05468A46CF480068D0490840D0498C
:10140000884202D10020BDE8FE8FC5F3841605F0A6
:101410003800102805D1DFF82C93002700BF1526CF
:1014200033E005F03800302804D147F230594FF44A
:1014300000172AE005F03800382804D14FF400499D
:101440004FF4800721E005F03800D8B91A2E01DCEE
:10145000092E01DA0020D6E7BB4850F826904FF459
:10146000401747F04077B348C06F20F01C00019050
:10147000072E03DB019840F010000190AD49019860
:10148000C86702E04FF00009002705F4605000280B
:101490007ED105F0380028B105F03800102801D0C1
:1014A0000020B0E7C5F3026BA848FFF733FDA14960
:1014B000C03108609F48D0F8B000A54900EA010497
:1014C00044F000449B48B0300460093E0BEBCB0075
:1014D000A04901EB001000EBC60040689549D1F827
:1014E000641188420DD10BEBCB009A4901EB00103F
:1014F00050F8360040F400008B49283909688842CA
:1015000002D00120009001E000200090009808B374
:101510008848B030006838438649C1F8B0000BEB0A
:10152000CB008C4901EB001000EBC60040687E49FF
:10153000243908600BEBCB00864901EB001050F812
:10154000360079492839096801F4000108437649D1
:1015500028390860804850F82B005044401EB0FBEA
:10156000FAF84846FFF7E8FCB0FBF8FA5046FFF7F8
:10157000D1FC7049C03108606E48D0F8600100F4B9
:10158000000068B10098012812D16A48B03000E02C
:1015900034E0006840F080406649C1F8B00007E0E0
:1015A00061482838006840F400006249C1F86001D1
:1015B0004FF40040029009E05B482038006800F0DA
:1015C000010000B105E00298401E02900298002838
:1015D000F2DC00BF029870B15648B0300468A8F140
:1015E0000100384340F08050044344F00044514827
:1015F000C0F8B0403CE04FF0000A39E05148FFF736
:1016000089FC4C49C03108604A48D0F8600120F498
:1016100000004849C1F860010846D0F8B0404F4882
:10162000044044F000444348B0300460BAF1000F75
:1016300002D14FF000080AE0B9FBFAF8B8F1000F48
:1016400001D0A8F1010808F10100B9FBF0FA5046F9
:10165000FFF760FC3749C03108603648D0F8B04029
:1016600047EA8820044344F000443248B030046024
:101670005046C8E62DE9F04106462E48056E046F37
:1016800045F4006525F4800544F4006405660467AC
:1016900005F0010010B306F00100F8B966F0010092
:1016A00005402448056604F0004038B104F070009D
:1016B00030280AD004F07000702806D004F00040F2
:1016C00040B905F03000302804D14FF48050FEF7C7
:1016D000F9FD03E04FF40020FEF7F4FD25F4FE656C
:1016E00006F4FE6005431E4804401D49A13106EA88
:1016F0000100044306F0080044EAC0040D480566F2
:1017000004671020FEF7DEFD25F4005506F40050B6
:10171000054324F4005406F40050044340200549D6
:10172000886504F000401DE088E10F400400FA05E0
:101730000CED00E000E00F40000100800000FF70B1
:10174000000005100024F4001055000040787D01D1
:1017500000FC0FE07C550000D4560000FF0300EFB2
:101760008FFFFF7F18B108460467056602E0B548A1
:1017700005660467B4480540C14306EA0100054315
:1017800024F0FC5406F0FC50044306F0804040B1C5
:1017900045F4800524F48004AC4906EA01000443C2
:1017A00001E024F0804406F4006080B94FF4004763
:1017B00006E0A448006D00F0400000B102E07F1E8A
:1017C000002FF6D100BF25F4006524F400649D4885
:1017D000056604671020FEF775FDBDE8F08170B561
:1017E0009848036E016F01F0004010B101F07000E5
:1017F00001E003F03000202811D003DC38B11028BC
:1018000015D10AE030280CD0702810D10CE0904897
:10181000C3F3841650F826200BE08E4A09E08E4A66
:1018200007E047F2305204E04FF4004201E00020AC
:1018300070BD00BF01F0004010B101F4006028B19C
:1018400001F00040E0B903F40060C8B983480568BE
:101850007C48D0F8644104F01F00401CC4F3042607
:10186000761C10FB06F04000B2FBF0F2C5F3090055
:101870005043C5F38926564300EB962243F4800378
:1018800003F4800018B301F00040D8B101F08040AB
:1018900090B101F0004010B101F4006028B101F0F6
:1018A000004048B903F4006030B95600C1F38650D7
:1018B000401CB6FBF0F20AE0C1F3C550401CB2FB7D
:1018C000F0F204E0C3F3C350401CB2FBF0F2104648
:1018D000AEE762491C39086070472DE9F0410746C0
:1018E0000D46584800685E4908405E49884208D164
:1018F00025F0FC51781E41EAC05058491C39086057
:101900002FE07C1E05F0700030B1102813D0302875
:1019100006D070280ED108E044F44014524E0CE07A
:1019200044F4001447F2305607E044F480044FF4C6
:10193000004602E000BF474E00BF00BF05F00200B6
:1019400008B144F0004405F0804008B144F0804400
:1019500042481C3804603046FFF7DCFA3949C1F8C8
:10196000C800BDE8F0813749096E21F4F011014348
:10197000344A116670473348006E00F4801008B98D
:10198000002070472F48006E00F4F010F9E733494B
:101990006039096821F4706101432A4AC2F80011D4
:1019A0002E495039096821F470610143C2F81011C1
:1019B00070472A486038006800F470607047214919
:1019C000C96E00F00F0301229A4011431D4AD166EF
:1019D00070471C49C96E00F00F0301229A409143E1
:1019E000184AD16670471748006F20F480401549A7
:1019F000086770471348006F40F48040114908673A
:101A000070471049886370470E48006E70470D4953
:101A1000096E01430B4A116670470A48406E7047D1
:101A20000849496E8143074A516670474A1ED2B23F
:101A300002430A4B183B1A6070470849283908606E
:101A40007047000000E00F40FEFF3FF800004040FC
:101A5000105500000024F40000093D0060E10F4033
:101A60000000FF700000051040787D014FF0E0207D
:101A7000006940F005004FF0E021086170474FF029
:101A8000E020006920F001004FF0E021086170477C
:101A900010B5044621460F20FFF726F84FF0E0204E
:101AA000006940F002004FF0E021086110BD10B560
:101AB0004FF0E020006920F002004FF0E0210861C3
:101AC0000F20FFF72BF810BD4FF0E020006940F029
:101AD00002004FF0E021086170474FF0E0200069FC
:101AE00020F002004FF0E02108617047411E4FF0E6
:101AF000E022516170474FF0E0204069401C704780
:101B00004FF0E02080697047F0B503460C46B74DB2
:101B10000C26B7480068B74F3840B74FB84201D1DC
:101B2000B64D082600210DE055F83100984208D145
:101B300005EBC1004268B4F57F4F00D1521C10463E
:101B4000F0BD491CB142EFD30020F9E7C26840F272
:101B500001130B401A43C2607047C26840F2011380
:101B60000B409A43C2607047C26840F201139A4327
:101B7000C2600A0E02609E4A12689E4B1A409E4B3B
:101B80009A4211D1CAB201F4702342EA131242F40C
:101B90000072426001F47002C1F3072343EA12228B
:101BA00042F40072826008E0CAB242F400724260FD
:101BB000C1F3072242F400728260704744F240038E
:101BC000194012B1C3680B4301E0C3688B43C36083
:101BD000704710B5864B1B68864C2340864CA34249
:101BE0000AD140F201130B4012B1046F1C4301E013
:101BF000046F9C43046700BF42F22003194012B1F6
:101C0000C3680B4301E0C3688B43C36010BD10B5CC
:101C100040F60C431940C3688B4302EA0104234396
:101C2000C36010BD40F20223194012B1C3680B43D8
:101C300001E0C3688B43C3607047CBB24BB122B1A4
:101C4000436843F04003436003E0436823F04003EC
:101C5000436001F47F434BB122B1836843F04003FA
:101C6000836003E0836823F0400383607047C168AA
:101C700041F01001C1607047C16821F01001C160DE
:101C80007047C0F8C81F70470146D1F8C80F7047A9
:101C9000CBB203B1826301F47F4303B1C2637047E7
:101CA0000246FF2901D1906B7047D06BFCE7CBB2A5
:101CB00003B1026401F47F4303B1426470470246FA
:101CC000FF2901D1106C7047506CFCE7CBB203B117
:101CD000826201F47F4303B1C26270470246FF296A
:101CE00001D1906A7047D06AFCE7C3628262704794
:101CF00030B5034600BFDA6A9C6ADD6AAA42FAD1AF
:101D0000002001462043114330BD0246FF2901D186
:101D1000906C7047D06CFCE730B5034600BFDA6CBE
:101D20009C6CDD6CAA42FAD100200146204311438D
:101D300030BDCBB203B1026301F47F4303B1426310
:101D400070470246FF2901D1106B7047506BFCE7CA
:101D500043630263704730B5034600BF5A6B1C6B88
:101D60005D6BAA42FAD1002001462043114330BDE9
:101D70002DE9F04105460E46144631462846FFF748
:101D8000C3FE074621463846FEF7AEFE3846FEF74C
:101D900007FFBDE8F08170B504460D462946204690
:101DA000FFF7B2FE06463046FEF736FF3046FEF736
:101DB000B5FE70BD82690A438261704782698A43B9
:101DC00082617047024609B1106A7047D069FCE72A
:101DD0004162704701617047016770470146086FB3
:101DE0007047C16670470146C86E7047DC560000F8
:101DF00000E00F400000FF7000000A103C57000098
:101E000030B50246C54B0824C5480068C54D28407A
:101E1000C54DA84201D1C54B00BF002108E053F8D1
:101E20003100904203D103EBC100406830BD491C32
:101E3000A142F4D30020F9E7C26A22F086020A43E5
:101E4000C26270470146C86A00F08600704741EAE6
:101E500002034363704710B5436B03F007040C6043
:101E600003F03804146010BDC16A41F01001C16272
:101E7000016B40F2013211430163704700BF816979
:101E800001F008010029FAD1C16A21F01001C162F4
:101E9000016B40F20132914301637047F0B5044693
:101EA0000E4615461F462046FFF7E8FFB6EB051F16
:101EB00005D2206B40F0200020636D0803E0206B0A
:101EC00020F020002063F000B0FBF5F0401C430838
:101ED0009809606203F03F00A062E7620020A06101
:101EE0002046FFF7C1FFF0BDF0B5446A856A8E0059
:101EF000402707FB0457B6FBF7F61660066B06F0A3
:101F0000200616B1166876001660C66A06F0EE0660
:101F10001E60F0BDC16A41F01001C1627047C16A24
:101F200021F01001C162704721B1026B42F006023C
:101F3000026303E0026B42F0020202637047016B2E
:101F400021F0060101637047C16A21F0E60141F00A
:101F50006E01C162026B42F0080202637047016BBE
:101F600021F0080101637047026B01F440631A43DA
:101F700002637047026B01F440639A430263704747
:101F80000146086B00F4406070470146886940F2E2
:101F9000071210407047026B22F440420A4302636A
:101FA00070470146086B00F440407047026B22F016
:101FB00010020A43026370470146086B00F01000EC
:101FC000704701468869012222EA101070470146D5
:101FD0008869012222EA501070470146886900F0A2
:101FE000100008B9086870474FF0FF30FBE7014662
:101FF00000BF886900F010000028FAD10868704717
:102000000246906900F0200010B91160012070476D
:102010000020FCE700BF826902F02002002AFAD10A
:102020000160704719B1C26A42F0010202E0C26A5F
:1020300022F00102C262704701468869C0F3C00005
:10204000704770B504460D462046FFF7D9FE064698
:1020500029463046FEF748FD3046FEF7A1FD70BD2B
:1020600070B504462046FFF7CBFE05462846FEF72E
:10207000D3FD2846FEF752FD70BD826B0A43826392
:102080007047826B8A4382637047024609B1106CC5
:102090007047D06BFCE741647047826C0A438264EE
:1020A0007047826C8A43826470470146486800F03A
:1020B0000F007047002141607047C0F8C81F70478B
:1020C0000146D1F8C80F7047D0F8A41041F4004180
:1020D000C0F8A4107047D0F8A41021F40041C0F853
:1020E000A4107047C0F8A410C0F8A82070470A4692
:1020F00000BF836903F08803802BFAD1C16A21F005
:10210000040343F08203C362026000BF836903F0EB
:102110008803802BFAD1C162704700007C57000011
:1021200000E00F400000FF7000000A10BC570000E4
:1021300010B5B5A002F0D4FFC3A1CCA002F0D0FF2F
:10214000CFA1D1A002F0CCFFD4A1D7A002F0C8FF4C
:10215000DAA002F0C5FFE1A002F0C2FFE1A002F0A8
:10216000BFFFE6A002F0BCFFECA002F0B9FFA6A002
:1021700002F0B6FF10BD10B5F34800F04DFC02F0C0
:102180005BFDF24880ED000A02F08BFDF04880ED27
:10219000000A0121EF48FFF71BFE10BD10B5EE4805
:1021A000FEF7C0FF2221EB48FFF7DEFCFFF717FB2D
:1021B0003221B0FBF1F42246FF21E648FFF786FD0D
:1021C0002320FEF7EDFC0121E248FFF7F3FDAFF21B
:1021D0005902FF21DF48FFF7CBFDFEF775FCFF2119
:1021E000DC48FFF7B3FCE0212320FEF7B7FC10BD6D
:1021F00010B54FF08070406C8169D84888474FF027
:102200008070406C8169D64888474FF08070006AC2
:10221000816E012088474FF08070006A816E40F225
:10222000014088474FF08070006A0321426D4FF0F3
:1022300040209047CB4A4FF4E131002000F0C2F932
:102240000521C948FFF739FF10BD70B504460D469A
:10225000E1B2C548FFF7DEFE204670BD70B5054609
:10226000C148FFF7C4FE0446204670BD1FB54FF0BD
:102270008071896F086880474FF08071896F0869A5
:1022800080474FF08070406CC16DB8488847B348B4
:10229000401DFEF747FFB648B6490860081D0068B4
:1022A00040F00100091D08600020091F086002F0CD
:1022B00009FE00F069FBFFF79BFFFFF739FF01F014
:1022C000FEF9FFF76BFF9EE0684600F0A5FB0021DA
:1022D000084601F04EF9A8A20021084601F066FA6E
:1022E0000121002001F045F9DDED010AB0EE600AA0
:1022F0000121002001F04AFA0221002001F039F901
:10230000A2A20221002001F051FA0321002001F0D5
:1023100030F98D48D0ED020AB0EE600A03210020AA
:1023200001F034FA0421002001F023F99CA20421D9
:10233000002001F03BFA854890ED000A0421282096
:1023400001F024FA824890ED000A04215A2001F09D
:102350001DFA0521002001F00CF993A205210020AF
:1023600001F024FA9248D0ED020AB0EE600A05218D
:10237000282001F00BFA8E48D0ED030AB0EE600A77
:1023800005215A2001F002FA0621002001F0F1F89F
:1023900088A20621002001F009FA8548D0ED000A44
:1023A000F8EEE00AB0EE600A0621282001F0EEF90E
:1023B0007F48D0ED010AF8EEE00AB0EE600A06218F
:1023C0005A2001F0E3F90721002001F0D2F87BA2A6
:1023D0000721002001F0EAF97548D0ED0C0AF8EE6B
:1023E000E00AB0EE600A0721282001F0CFF970481A
:1023F000D0ED0D0AF8EEE00AB0EE600A07215A208F
:1024000001F0C4F900BF5FE72A2A2A2A2A2A2A2AC9
:102410002A2A2A2A2A2A2A2A2A2A2A2A2A2A2A2A1C
:102420002A2A2A2A2A2A2A2A2A2A2A2A2A2A2A2A0C
:102430002A2A2A2A2A2A2A2A2A2A2A2A2A2A2A2AFC
:102440002A2A2A2A2A0A0D00C0FBD3C3D5FDBDBB08
:10245000BDE2C2EBD7CAD4B4B6D4B1E0C2EBC6F782
:10246000CAFDBEDDB2C9BCAF000000002A20C0FD1D
:10247000B3CCC3FBB3C62020203A2025730D0A003D
:1024800056312E30000000002A20C0FDB3CCB0E64B
:10249000B1BE2020203A2025730D0A00323032329E
:1024A00031313235000000002A20B7A2B2BCC8D5B5
:1024B000C6DA2020203A2025730D0A002A20B1EA2E
:1024C000D7BCBFE2B0E6B1BE203A20544D34433110
:1024D0003233474836505A54370D0A002A200D0A25
:1024E000000000002A205151202020203A203331C2
:1024F0003338333732313635200D0A002A20456D06
:1025000061696C203A203331333833373231363514
:102510004071712E636F6D200D0A00002A20436FF9
:1025200070797269676874207777772E6E616D6550
:102530006C6573732E7465636820CEDEC3FBB4B420
:10254000D0C20D0A000000006C0A0020100000201C
:102550001400002000000340000400F0000800F018
:10256000001800F00024F40000C00040400500C145
:102570004B434F4C2055024053797374656D2020B6
:1025800054696D653A20204D5300000054696D6513
:102590003020506572696F643A20204D530000006E
:1025A000434D5053000000004C26525F4400000091
:1025B0007C0A00204C26525F4E0000004C26525FE1
:1025C000500000002DE9F04104460D461646E14A50
:1025D00052F824004FF08072526C1169884708B994
:1025E000BDE8F081DC4850F82400DC490860D94A95
:1025F00052F824004FF08072526C916988474FF076
:102600008070406960232A4631464769D348006894
:10261000B8474FF080704069C169D048006888476A
:1026200000BFDDE770B505460E46002413E0285DC7
:102630000A2807D14FF0807040690D210268C74811
:1026400000689047295D4FF0807040690268C34878
:1026500000689047641CB442E9D3204670BD2DE960
:10266000F04106460F4600257F1E32E04FF0807095
:102670004069816BB9480068884744B2082C06D18C
:1026800025B10321B6A0FFF7CDFF6D1E21E00A2C76
:1026900006D1B448007818B10020B249087018E09B
:1026A0000D2C03D00A2C01D01B2C05D10D2C02D1EE
:1026B0000120AC4908700DE0BD4209D274556D1C73
:1026C000E1B24FF0807040690268A448006890470A
:1026D00000BFCBE700BF002070550221A2A0FFF78A
:1026E000A1FF2846BDE8F08110B54FF08070406929
:1026F000816B9A4800688847C0B210BD2DE9F34F3E
:1027000085B0064612E1002400E0641C305D2528F7
:1027100002D0305D0028F8D121463046FFF782FF15
:10272000264430782528EDD1761C00254FF0200B6B
:1027300000BF16F8011B382932D014DC33292AD007
:1027400008DC25296FD0302922D0312921D0322927
:102750006AD11FE034291FD035291ED036291DD05B
:102760003729F5D11BE0692935D008DC392918D083
:10277000582972D0632922D06429E9D12AE070292E
:102780006CD073293CD0752958D07829E0D163E00A
:1027900000BF00BF00BF00BF00BF00BF00BF00BF41
:1027A00000BF16F8010C302801D105B9834605EBAE
:1027B0008500450016F8010C30380544B9E7069845
:1027C000006804900698001D0690012104A8FFF7F8
:1027D00029FFAAE000BF0698006804900698001D33
:1027E00006904FF000080498002805DA049840424B
:1027F00004904FF0010901E04FF000090A2739E089
:10280000069850F804AB0690002400E0641C1AF807
:1028100004000028FAD121465046FFF703FFA542E5
:102820000BD92D1B05E076E07AE001214FA0FFF7E0
:10283000F9FE281EA5F10105F7D176E0069800689B
:1028400004900698001D06904FF000080A274FF0EC
:1028500000090FE001E001E000BF00BF069800683A
:1028600004900698001D06904FF0000810274FF0C6
:10287000000900BF012401E07C436D1E04FB07F04A
:102880000499884205D804FB07F0B0FBF7F0A0429A
:10289000F2D0B9F1000F00D06D1EB9F1000F0AD0CF
:1028A000BBF1300F07D12D22404608F101080DF889
:1028B00000204FF00009012D0BD9102D09D26D1EFB
:1028C00005E0404608F101080DF800B06D1E002D2E
:1028D000F7D1B9F1000F05D02D22404608F10108CB
:1028E0000DF8002010E00498B0FBF4F0B0FBF7F115
:1028F00007FB11001E4909680A5C404608F10108FF
:102900000DF80020B4FBF7F4002CECD141466846EA
:10291000FFF788FE09E0701E0121FFF783FE04E047
:10292000052114A0FFF77EFE00BF00BF307800280D
:102930007FF4E9AE07B0BDE8F08F0FB408B503A887
:10294000009000990298FFF7D9FE0020009001B096
:102950005DF814FB0C58000000580000180000201F
:10296000082008001C0000200D0A000020000000C4
:10297000FC5700004552524F520000003748006893
:10298000401C36490860704710B5FEF728FF3449EF
:10299000B0FBF1F42046FFF7A9F83248FFF778F8CA
:1029A000FFF792F8FFF762F810BD2C4800687047F7
:1029B00000B50146FFF7F9FF024600BFFFF7F5FF3C
:1029C000801A8842FAD300BD00B503464FF47A71ED
:1029D00003FB01F0FFF7ECFF00BD204800684FF457
:1029E0007A71B0FBF1F0704710B504462046FFF74E
:1029F000EBFF10BD10B504462046FFF7F5FF10BDF4
:102A000000B503461846FFF7D3FF00BD00B50346E7
:102A10001846FFF7CDFF00BD00B5014691ED010A54
:102A200081ED000AFFF7C1FF00EE100AB8EE400A80
:102A3000DFED0D0A80EE201A81ED011A91ED010AF9
:102A4000D1ED000A30EE600A81ED020A91ED020A32
:102A5000BCEEC00A10EE100A888100BD20000020E4
:102A600040420F007D29000000007A4410B5F8486C
:102A7000FEF758FB20214FF04020FDF7A2FE102169
:102A80004FF04020FDF79DFE0220FFF7ADFF202212
:102A900011464FF04020FDF717FE102211464FF06F
:102AA0004020FDF711FE10BD10B510214FF0402061
:102AB000FDF787FE10BD10B510214FF04020FDF747
:102AC00071FE10BD10B5FFF7EFFF102211464FF059
:102AD0004020FDF7F9FD202211464FF04020FDF780
:102AE000F3FD002210214FF04020FDF7EDFD002204
:102AF00020214FF04020FDF7E7FD10BD10B5FFF796
:102B0000D3FF002210214FF04020FDF7DDFD2022F1
:102B100011464FF04020FDF7D7FD102211464FF02F
:102B20004020FDF7D1FD10BD10B50024FFF7C3FF15
:102B3000102211464FF04020FDF7C6FD202211461D
:102B40004FF04020FDF7C0FD07E0601CC4B2FA2C36
:102B500003DDFFF7D3FF012010BD10214FF040200F
:102B6000FDF7A2FD0028F0D1002220214FF04020E7
:102B7000FDF7AAFD0020EFE710B5002220214FF05D
:102B80004020FDF7A1FDFFF78FFF002210214FF03D
:102B90004020FDF799FD202211464FF04020FDF71F
:102BA00093FD002220214FF04020FDF78DFD10BD48
:102BB00010B5002220214FF04020FDF785FDFFF7E2
:102BC00073FF102211464FF04020FDF77DFD2022BB
:102BD00011464FF04020FDF777FD002220214FF0F5
:102BE0004020FDF771FD10BD70B50446FFF75CFF96
:102BF000002220214FF04020FDF766FD00251EE059
:102C0000E00930B1102211464FF04020FDF75CFD85
:102C100005E0002210214FF04020FDF755FD600631
:102C2000040E202211464FF04020FDF74DFD0022FA
:102C300020214FF04020FDF747FD681CC5B2082D4C
:102C4000DEDBFFF771FF70BD10B50446FFF73AFFFA
:102C50007820FFF7C9FF4020FFF7C6FF2046FFF7A7
:102C6000C3FFFFF74BFF10BD10B50446FFF72AFF67
:102C70007820FFF7B9FF0020FFF7B6FF2046FFF7E7
:102C8000B3FFFFF73BFF10BD70B504460D4605F1DD
:102C9000B001C8B2FFF7E8FF102141EA1410FFF7B6
:102CA000E3FF04F00F0141F00100FFF7DDFF70BD0D
:102CB00070B50646002415E004F1B001C8B2FFF774
:102CC000D3FF0120FFF7D0FF1020FFF7CDFF002535
:102CD00004E03046FFF7B8FF681CC5B2802DF8DB72
:102CE000601CC4B2082CE7DB70BD70B5002415E091
:102CF00004F1B001C8B2FFF7B7FF0120FFF7B4FF3E
:102D00001020FFF7B1FF002504E00020FFF79CFF33
:102D1000681CC5B2802DF8DB601CC4B2082CE7DB50
:102D200070BD10B5AE20FFF79FFF0020FFF79CFF9E
:102D30001020FFF799FF4020FFF796FF8120FFF753
:102D400093FFCF20FFF790FFA020FFF78DFFC0205B
:102D5000FFF78AFFA620FFF787FFA820FFF784FF71
:102D60003F20FFF781FFD320FFF77EFF0020FFF712
:102D70007BFFD520FFF778FF8020FFF775FFD92074
:102D8000FFF772FFF120FFF76FFFDA20FFF76CFF0C
:102D90001220FFF769FFDB20FFF766FF4020FFF7F7
:102DA00063FF2020FFF760FF0220FFF75DFF8D200B
:102DB000FFF75AFF1420FFF757FFA420FFF754FF37
:102DC000A620FFF751FFAF20FFF74EFF0020FFF7CF
:102DD0006FFF00210846FFF757FF10BD70B504468E
:102DE0000825042211464FF04020FDF76DFC002518
:102DF0001FE0002220214FF04020FDF765FC04F089
:102E0000800030B1102211464FF04020FDF75CFCED
:102E100005E0002210214FF04020FDF755FC202254
:102E200011464FF04020FDF74FFC6006040E681C71
:102E3000C5B2082DDDDB70BD70B504460825002243
:102E400004214FF04020FDF73FFC002522E0000068
:102E5000000800F0002220214FF04020FDF734FC54
:102E600004F0800030B1102211464FF04020FDF7F1
:102E70002BFC05E0002210214FF04020FDF724FC40
:102E8000202211464FF04020FDF71EFC6006040E84
:102E9000681CC5B2082DDDDB042211464FF040202E
:102EA000FDF712FC70BD70B504460D4605F1B0018A
:102EB000C8B2FFF7C1FF102141EA1410FFF7BCFFB1
:102EC00004F00F0141F00100FFF7B6FF70BD70B5CF
:102ED0000646002415E004F1B001C8B2FFF7ACFFCC
:102EE0000120FFF7A9FF1020FFF7A6FF002504E04F
:102EF0003046FFF773FF681CC5B2802DF8DB601CFD
:102F0000C4B2082CE7DB70BD70B5002415E004F1F5
:102F1000B001C8B2FFF790FF0120FFF78DFF10202E
:102F2000FFF78AFF002504E00020FFF757FF681C29
:102F3000C5B2802DF8DB601CC4B2082CE7DB70BD85
:102F40002DE9F0470446884615464FF00009002653
:102F5000002720E0E85D203800F0FF097E2C04DD2A
:102F6000002408F1010000F0FF0841462046FFF769
:102F70009AFF002609E009EB4901FC4A02EB4101F6
:102F8000885DFFF72BFF701CC6B2062EF3DBA01D79
:102F9000C4B2781CC7B2E85D0028DBD1BDE8F08779
:102FA0002DE9F04105460E461746A7F1200000F036
:102FB000FF087E2D02DD0025701CC6B23146284672
:102FC000FFF771FF002409E008EB4801E74A02EB34
:102FD0004101085DFFF702FF601CC4B2062CF3DB61
:102FE000BDE8F0812DE9F0412DED028B84B006465D
:102FF0000F46B0EE408A0024E846B5EEC08AF1EEF6
:1030000010FA0ED22D208DF800009DF800203946D0
:103010003046FFF7C5FFB01DC6B2B1EE480AB0EEAC
:10302000408ABDEEC80A10EE105A00EE105AB8EEF3
:10303000C00A78EE408ACE4885420CDB95FBF0F062
:103040003030C0B20DF80400C94895FBF0F100FB28
:103050001155601CC4B2C74885420DDB95FBF0F0EA
:103060003030C0B20DF80400C24895FBF0F100FB0F
:103070001155601CC4B208E0BE48854205DA24B18F
:1030800030200DF80400601CC4B2BB4885420DDB43
:1030900095FBF0F03030C0B20DF80400B64895FB57
:1030A000F0F100FB1155601CC4B208E0B248854243
:1030B00005DA24B130200DF80400601CC4B2AF481A
:1030C00085420DDB95FBF0F03030C0B20DF8040006
:1030D000AA4895FBF0F100FB1155601CC4B208E052
:1030E000A648854205DA24B130200DF80400601CA2
:1030F000C4B2A34885420DDB95FBF0F03030C0B27E
:103100000DF804009E4895FBF0F100FB1155601C82
:10311000C4B208E09A48854205DA24B130200DF89F
:103120000400601CC4B242F2107085420EDB95FBB5
:10313000F0F03030C0B20DF8040042F2107095FB90
:10314000F0F100FB1155601CC4B209E042F21070AE
:10315000854205DA24B130200DF80400601CC4B2A9
:10316000B5F57A7F10DB4FF47A7095FBF0F03030D4
:10317000C0B20DF804004FF47A7095FBF0F100FB3B
:103180001155601CC4B208E0B5F57A7F05DA24B1A8
:1031900030200DF80400601CC4B2642D0EDB6420E6
:1031A00095FBF0F03030C0B20DF80400642095FBC0
:1031B000F0F100FB1155601CC4B207E0642D05DA84
:1031C00024B130200DF80400601CC4B20A2D0EDBBF
:1031D0000A2095FBF0F03030C0B20DF804000A2050
:1031E00095FBF0F100FB1155601CC4B207E00A2DFD
:1031F00005DA24B130200DF80400601CC4B205F1DA
:103200003000C0B20DF804009FED5E0AF4EEC08AF3
:10321000F1EE10FA33DB601CC4B22E200DF804006E
:10322000601CC4B29FED580A28EE800ABDEEC00AA9
:1032300010EE105A642095FBF0F03030C0B20DF85B
:103240000400642095FBF0F100FB1155601CC4B232
:10325000002D0BDD0A2095FBF0F03030C0B20DF8E8
:1032600004000A2095FBF0F100FB1155002D06DB50
:10327000601CC4B205F13000C0B20DF80400601C3F
:10328000C4B200200DF80400424639463046FFF72C
:1032900057FE04B0BDEC028BBDE8F0812DE9F0478C
:1032A00006460F46904600250024A14631E018F856
:1032B00009002038C5B2782E02DD0026781CC7B27E
:1032C00039463046FFF7EFFD002407E004EB051117
:1032D0002E4A505CFFF782FD601CC4B2082CF5DB5F
:1032E000781CC1B23046FFF7DEFD002408E004EB95
:1032F00005110831254A505CFFF770FD601CC4B20F
:10330000082CF4DB06F10800C6B209F1010000F058
:10331000FF0918F809000028C9D1BDE8F0872DE998
:10332000F04706460F46904600250024A146A8F126
:103330002000C5B2782E02DD0026781CC7B23946BF
:103340003046FFF7B0FD002407E004EB05110F4AFB
:10335000505CFFF743FD601CC4B2082CF5DB781C01
:10336000C1B23046FFF79FFD00241AE01858000054
:1033700000CA9A3B00E1F5058096980040420F0094
:10338000A086010017B7D13800007A44405A0000E7
:1033900004EB05110831FA4A505CFFF71FFD601C71
:1033A000C4B2082CF4DB06F10800C6B209F1010032
:1033B00000F0FF09BDE8F0872DE9F0412DED028B0B
:1033C00084B006460F46B0EE408A0024E846B5EECB
:1033D000C08AF1EE10FA0ED22D208DF800009DF873
:1033E000002039463046FFF79AFF701CC6B2B1EE96
:1033F000480AB0EE408ABDEEC80A10EE105A00EE40
:10340000105AB8EEC00A78EE408AB5F57A7F0FDB25
:103410004FF47A7095FBF0F03030C0B20DF8040034
:103420004FF47A7095FBF0F100FB1155601CC4B2AB
:10343000642D0EDB642095FBF0F03030C0B20DF847
:103440000400642095FBF0F100FB1155601CC4B230
:1034500007E0642D05DA24B130200DF80400601C6B
:10346000C4B20A2D0EDB0A2095FBF0F03030C0B25A
:103470000DF804000A2095FBF0F100FB1155601CCB
:10348000C4B207E00A2D05DA24B130200DF804009B
:10349000601CC4B205F13000C0B20DF804001FED8D
:1034A000470AF4EEC08AF1EE10FA33DB601CC4B2B6
:1034B0002E200DF80400601CC4B21FED4D0A28EE4A
:1034C000800ABDEEC00A10EE105A642095FBF0F0A1
:1034D0003030C0B20DF80400642095FBF0F100FB21
:1034E0001155601CC4B2002D0BDD0A2095FBF0F0D5
:1034F0003030C0B20DF804000A2095FBF0F100FB5B
:103500001155002D06DB601CC4B205F13000C0B2BD
:103510000DF80400601CC4B200200DF804004246FF
:1035200039463046FFF7BAFE04B0BDEC028BBDE869
:10353000F0812DE9F04180460D46164600247701C2
:1035400029464046FFF7AFFC00BF02E07F1C601C2D
:10355000C4B2102CFADB681CC1B24046FFF7A3FCD2
:10356000002402E07F1C601CC4B2102CFADBBDE812
:10357000F08170B504460D4605F1B001C8B2FFF701
:103580005BFC0120FFF758FC1020FFF755FC294693
:103590002046FFF788FC04E00020FFF71FFC601CBA
:1035A000C4B2802CF8DB70BD70B50026002411E099
:1035B00021460020FFF777FC002507E03146761C06
:1035C000704A505CFFF70AFC681CC5B2802DF5DB21
:1035D000601CC4B2082CEBDB4FF4FA70FFF704FA5E
:1035E000FFF792FC70BD10B5002208214FF040207B
:1035F000FDF76AF86420FFF7F7F9082211464FF04B
:103600004020FDF761F8AE20FFF716FC0020FFF721
:1036100013FC1020FFF710FC4020FFF70DFC812069
:10362000FFF70AFCCF20FFF707FCA020FFF704FC00
:10363000C020FFF701FCA620FFF7FEFBA820FFF744
:10364000FBFB3F20FFF7F8FBD320FFF7F5FB002043
:10365000FFF7F2FBD520FFF7EFFB8020FFF7ECFB35
:10366000D920FFF7E9FBF120FFF7E6FBDA20FFF7AF
:10367000E3FB1220FFF7E0FBDB20FFF7DDFB402040
:10368000FFF7DAFB2020FFF7D7FB0220FFF7D4FB80
:103690008D20FFF7D1FB1420FFF7CEFBA420FFF70E
:1036A000CBFBA620FFF7C8FBAF20FFF7C5FB002030
:1036B000FFF70DFC00210846FFF7F5FB10BD10B524
:1036C0003148FDF72FFD04214FF04020FDF779F838
:1036D00008214FF04020FDF774F810214FF04020F2
:1036E000FDF76FF820214FF04020FDF76AF8022027
:1036F000FFF77AF9002208214FF04020FCF7E4FFA1
:103700006420FFF771F9082211464FF04020FCF7C2
:10371000DBFF022000F08AF8FFF746FFFFF7F4FB1B
:1037200010BD10B51848FDF7FDFC04214FF04020F6
:10373000FDF747F808214FF04020FDF742F810212F
:103740004FF04020FDF73DF820214FF04020FDF7DD
:1037500038F80A20FFF748F9002208214FF04020EE
:10376000FCF7B2FF6420FFF73FF9082211464FF043
:103770004020FCF7A9FF022000F058F810BD00001F
:10378000405A0000A0740000000800F070B52DED54
:10379000028B04460D46B0EE408AB0EE480A294638
:1037A0002046FFF71FFCBDEC028B70BD70B50446D0
:1037B0000D461646324629462046FFF7C1FB70BD2E
:1037C000F648B0F900007047F548B0F900007047BE
:1037D00000F00301F34A11701146097831B1012953
:1037E00010D0022903D0032918D10CE000BFEE4904
:1037F000B1F90010E94A1180EC49B1F90010E84A2A
:1038000011800BE000BFE949B1F90010E34A1180D3
:10381000E549B1F90010E24A118000BF00BF7047CE
:1038200010B504462046FFF707FB10BD10B504464F
:10383000DF480470DC48B0F90000D8490880DB4854
:10384000B0F90000D64908800020DA490880DA493A
:1038500008800120D94908704FF6FF70D8490880C8
:10386000D84908800120D84908700020D74908703D
:103870008020CD490880C94908804020CB49088074
:10388000C74908800020C7490870AE20FFF7C8FF6D
:10389000D520FFF7C5FF8020FFF7C2FFA820FFF764
:1038A000BFFF3F20FFF7BCFFD320FFF7B9FF002089
:1038B000FFF7B6FF4020FFF7B3FF8D20FFF7B0FF03
:1038C000012C03D11020FFF7ABFF02E01420FFF71B
:1038D000A7FF2020FFF7A4FF0020FFF7A1FFA120F2
:1038E000FFF79EFFC820FFF79BFFDA20FFF798FF46
:1038F0001220FFF795FF8120FFF792FF012C03D1E3
:103900009F20FFF78DFF02E0CF20FFF789FFD9202E
:10391000FFF786FF012C03D12220FFF781FF02E091
:10392000F120FFF77DFFDB20FFF77AFF4020FFF754
:1039300077FFA420FFF774FFA620FFF771FFA020F8
:10394000FFF76EFFC020FFF76BFFAF20FFF768FFA8
:1039500010BD70B50346002B09DBFFF731FF98421D
:1039600005DD002903DBFFF72FFF884200DC70BD77
:103970008C480078012804D002280BD003281DD1E0
:1039800013E018460B46014687480088C01A401EBF
:1039900003B213E084480088C01A401E03B2834873
:1039A0000088401A401E01B208E018460B46014646
:1039B0007E480088401A401E01B200BF00BFE2B13D
:1039C000012A02D0022A47D12EE0CC1701EB547411
:1039D000E41003EBC4147E4D2C5D01F007060125B5
:1039E000B5402C43E5B20846CC1701EB5474E41003
:1039F00003EBC414764E35552EE0CC1701EB54740E
:103A0000E41003EBC414724D2C5D01F00706012590
:103A1000B540AC430846CD1701EB5575ED1003EBEF
:103A2000C5156B4E745517E0CC1701EB5474E410B8
:103A300003EBC414664D2C5D01F007060125B5406B
:103A40006C40E5B20846CC1701EB5474E41003EB6C
:103A5000C4145F4E355500BF00BF00BF87E710B5E7
:103A600004461CB1A720FFF7DBFE02E0A620FFF70B
:103A7000D7FE10BD70B505460C462620FFF7D0FED8
:103A80000020FFF7CDFE2846FFF7CAFE0020FFF713
:103A9000C7FE2046FFF7C4FE0020FFF7C1FEFF204F
:103AA000FFF7BEFE2F20FFF7BBFE70BD70B50546C9
:103AB0000C462720FFF7B4FE0020FFF7B1FE284692
:103AC000FFF7AEFE0020FFF7ABFE2046FFF7A8FE93
:103AD0000020FFF7A5FEFF20FFF7A2FE2F20FFF733
:103AE0009FFE70BD70B505460C46A320FFF798FEFB
:103AF0000020FFF795FE4020FFF792FE2920FFF7F8
:103B00008FFE0020FFF78CFE2846FFF789FE00207D
:103B1000FFF786FE2046FFF783FE0120FFF780FEB9
:103B20002F20FFF77DFE70BD70B505460C46A32023
:103B3000FFF776FE0020FFF773FE4020FFF770FED0
:103B40002A20FFF76DFE0020FFF76AFE2846FFF7E8
:103B500067FE0020FFF764FE2046FFF761FE0120AC
:103B6000FFF75EFE2F20FFF75BFE70BD10B52E2025
:103B7000FFF756FE10BD70B505460DB1002406E0F6
:103B80000B480078012801D19F2400E0CF24812038
:103B9000FFF746FE2046FFF743FE70BD26000020DB
:103BA00028000020330000202A0000202C000020E4
:103BB000240000202E0000203000002032000020D1
:103BC000360000203400002038000020390000209A
:103BD0003B00002010B504462046FFF7FFF810BD5B
:103BE00070B50026002411E021460020FFF75BF9A4
:103BF000002507E03146761CFE4A505CFFF7EEF8E0
:103C0000681CC5B2802DF5DB601CC4B2082CEBDB50
:103C100070BD10B52120FFF703FE0020FFF700FE66
:103C20007F20FFF7FDFD2220FFF7FAFD0020FFF7C0
:103C3000F7FD0720FFF7F4FDFFF7D2FF10BD10B529
:103C40004FF48061EB4801F002FA10BDF0B5044674
:103C50001D46002904DBE84EB6F90060B14200DBE6
:103C6000F0BD002C02DA161932B20024A618E34F78
:103C7000B7F90070BE4203DDE04E3688361B32B223
:103C8000002A00DCECE7DB480E46CF1701EB577744
:103C9000FF1000EBC710204401F007070126BE40CB
:103CA000F3B27DB1012D02D0022D23D117E003E044
:103CB00006781E4300F8016B161EA2F101073AB206
:103CC000F6D117E0DE43F3B203E006781E4000F8B9
:103CD000016B161EA2F101073AB2F6D10AE003E029
:103CE00006785E4000F8016B161EA2F101073AB299
:103CF000F6D100BF00BF00BFB2E72DE9F043074691
:103D00000C461546002F05DBDFF8F0C2BCF900C0F9
:103D1000674501DBBDE8F083002C04DA05EB040CF9
:103D20000FFA8CF5002404EB050CDFF8CC82B8F90F
:103D30000080C44507DDDFF8C0C2BCF800C0ACEBB2
:103D4000040C0FFA8CF5002D00DCE3E7E6B2E9B2D3
:103D5000A848B4464FEAE67806EB58784FEAE808F8
:103D600000EBC810384406F0070282B3C2F108081D
:103D700008F0FF02DFF8888218F802C0914207DAE3
:103D8000A2EB01094FF0FF0848FA09F808EA0C0C09
:103D90005BB1012B02D0022B15D10DE090F8008011
:103DA00048EA0C0880F800800DE090F8008028EACE
:103DB0000C0880F8008006E090F8008088EA0C0883
:103DC00080F8008000BF00BF914201DAA2E705E061
:103DD000A1EB020808F0FF01803000BF082923DBB7
:103DE000022B0ED100BF90F800C06FEA0C0C80F8D7
:103DF00000C08030A1F1080C0CF0FF010829F2DAB4
:103E000012E0012B02D14FF0FF0801E04FF0000853
:103E1000C44600BF80F800C08030A1F1080808F057
:103E2000FF010829F6DA00BF11B301F00702DFF83D
:103E3000D48118F802C05BB1012B02D0022B15D13E
:103E40000DE090F8008048EA0C0880F800800DE052
:103E500090F8008028EA0C0880F8008006E090F8CE
:103E6000008088EA0C0880F8008000BF00BF00BF17
:103E700000BF4FE72DE9F04104460D4616461F46A8
:103E80004FF000086048007830B1012805D00228C2
:103E90000ED0032828D119E026E04FF00108204673
:103EA0002C46054655480088001B401E04B21BE006
:103EB00052480088001B401E04B24F480088401B37
:103EC000401E05B2701E201A04B20DE04FF001082A
:103ED00020462C46054648480088401B401E05B237
:103EE000701E281A05B200BF00BFB8F1000F06D03F
:103EF0003B46324629462046FFF7FFFE05E03B469B
:103F0000324629462046FFF7A1FEBDE8F0812DE9A3
:103F1000F04104460D4616461F464FF000083A4849
:103F2000007830B1012805D0022811D0032828D10B
:103F30001CE026E04FF0010820462C4605462F489D
:103F40000088001B401E04B2701E201A04B218E044
:103F50002A480088001B401E04B227480088401BE6
:103F6000401E05B2701E281A05B20AE04FF0010883
:103F700020462C46054620480088401B401E05B2BE
:103F800000BF00BFB8F1000F06D03B4632462946BD
:103F90002046FFF75BFE05E03B46324629462046B9
:103FA000FFF7ABFEBDE8F0812DE9FF4F05460E4659
:103FB0009046C8F101000FFA80F94FF0010A4FEA6C
:103FC000480040420FFA80FB0027444606EB0800F9
:103FD00001B22846039AFFF7BCFCA6EB080001B229
:103FE0002846039AFFF7B5FC05EB080108B23146F5
:103FF000039A0BE03B0000202C0000202A00002048
:104000003B0400204304002033000020FFF7A1FC04
:10401000A5EB080108B23146039AFFF79AFC4EE07F
:10402000B9F1000F09DB601E04B20BF102000FFAB8
:1040300080FB09EB0B000FFA80F9781C07B20AF13C
:1040400002000FFA80FA09EB0A000FFA80F9321920
:1040500011B2EA1910B2039AFFF77BFC321911B2C0
:10406000EA1B10B2039AFFF774FC321B11B2EA1973
:1040700010B2039AFFF76DFC321B11B2EA1B10B2AB
:10408000039AFFF766FCF21911B22A1910B2039ACB
:10409000FFF75FFCF21911B22A1B10B2039AFFF767
:1040A00058FCF21B11B22A1910B2039AFFF751FC07
:1040B000F21B11B22A1B10B2039AFFF74AFCA74267
:1040C000AEDBBDE8FF8F2DE9F84F06460F4691465F
:1040D0009846C9F101000FFA80FA4FF0010B4FEA40
:1040E0004900404200B2009000244D465AE0BAF127
:1040F000000F09DB681E05B20098801C00B200901A
:10410000009850440FFA80FA601C04B20BF10200D0
:104110000FFA80FB0AEB0B000FFA80FA08F004009C
:1041200068B17A1911B2321910B20A9AFFF711FC6C
:104130003A1911B2721910B20A9AFFF70AFC08F084
:10414000020068B17A1B11B2321910B20A9AFFF755
:1041500000FC3A1B11B2721910B20A9AFFF7F9FB70
:1041600008F0080068B13A1911B2721B10B20A9A2D
:10417000FFF7EFFB7A1911B2321B10B20A9AFFF760
:10418000E8FB08F0010068B13A1B11B2721B10B2D3
:104190000A9AFFF7DEFB7A1B11B2321B10B20A9AA1
:1041A000FFF7D7FBAC42A2DBBDE8F88F2DE9FC4F4F
:1041B00006460F4690469A46DDF82C90C8F101005D
:1041C0000FFA80FB012001904FEA4800404200B204
:1041D00000900024454648E0BBF1000F09DB681E53
:1041E00005B20098801C00B20090009858440FFA65
:1041F00080FB601C04B20198801C00B20190019801
:1042000058440FFA80FB0AF00100A8B16B005B1C58
:104210004B441AB27B1B19B2331918B20C9BFFF72F
:1042200076FE63005B1C4B441AB23B1B19B2731938
:1042300018B20C9BFFF76BFE0AF00200A8B16B00EE
:104240005B1C4B441AB27B1B19B2331B18B20C9B7C
:10425000FFF75DFE63005B1C4B441AB23B1B19B2B7
:10426000731B18B20C9BFFF752FEAC42B4DBBDE8E7
:10427000FC8FFCB507460D4614461E466000401CE8
:1042800002B2281B01B233463846FFF740FE002039
:10429000032322462946CDE900063846FFF786FF6C
:1042A000FCBD2DE9F84F04460D4616461F46791B06
:1042B000002901DB0A4600E04A42301B002801DBEE
:1042C000034600E043429A4201DD012200E0002261
:1042D0009346BBF1000F06D020462C4605463046DB
:1042E0003E46074600BFB44206DD20463446064639
:1042F00028463D46074600BF301B0FFA80F8781B62
:10430000002801DB014600E0414209B2009140462D
:1043100008EBD07149100FFA81F9BD4202DA4FF073
:10432000010A01E04FF0FF3A1EE0BBF1000F05D09B
:10433000214628460A9AFFF70CFB04E0294620464E
:104340000A9AFFF706FB0098A9EB00000FFA80F924
:10435000B9F1000F06DA05EB0A0005B209EB080017
:104360000FFA80F9601C04B2B442DEDDBDE8F88FBC
:104370002DE9F04105460E4617461C46DDF818802B
:1043800043463A4631462846FFF774FD3019401E31
:1043900001B243463A462846FFF76CFD43462246A3
:1043A00031462846FFF7B3FDE919491E08B24346D6
:1043B00022463146FFF7ABFDBDE8F0812DE9F04321
:1043C0000446884616461F46DDF81C90254607E041
:1043D0004B463A4641462846FFF799FD681C05B210
:1043E000A019A842F4DCBDE8F08318B50446F748EC
:1043F0000094B0F90030F648B0F9002000210846DA
:10440000FFF7DCFF18BD2DE9F84305460E461746B9
:104410009846DDE90849022101FB14710AB2291905
:1044200008B24B463146FFF725FD022303FB147308
:104430001AB206EB08035B1E19B22B1918B24B46D1
:10444000FFF718FD022000FB148002B2301901B200
:104450004B462846FFF75BFD022303FB14831AB289
:10446000331919B2EB195B1E18B24B46FFF74FFD1B
:10447000321911B22A1910B201232246CDF8009048
:10448000FFF721FE321911B2EA19121B521E10B2A7
:1044900002232246CDF80090FFF715FE06EB080236
:1044A000121B521E11B2EA19121B521E10B2042323
:1044B0002246CDF80090FFF706FE06EB0802121B1D
:1044C000521E11B22A1910B208232246CDF80090CC
:1044D000FFF7F9FDBDE8F8832DE9FC4305460E46DC
:1044E00017469846DDE90949022101FB14710AB219
:1044F000291908B243463146CDF80090FFF75EFF18
:10450000022000FB1480401E00B2321911B2EA19D9
:10451000121B521ECDE9000910B201232246FFF7FB
:1045200045FE022000FB1480401E00B2321911B279
:104530002A19CDE9000910B202232246FFF736FE00
:10454000BDE8FC832DE9F84705460E461746984618
:10455000DDE9099A0B9C43463A46314628460094C9
:10456000FFF79FFE53464A46414638460094FFF700
:1045700098FE33462A46514648460094FFF791FE7E
:10458000BDE8F8872DE9F04F89B080468946154689
:104590001C46DDF848B0A14506DD4846A146044664
:1045A0004046A846054600BF1398844206DD13988E
:1045B000139404465846AB46054600BFA14506DDA8
:1045C0004846A14604464046A846054600BF139803
:1045D00081451AD146463746B54201DA2E4602E0F9
:1045E000BD4200DD2F46B34501DA5E4602E0BB4521
:1045F00000DD5F46B81B401C02B249463046149BA2
:10460000FFF738FC09B0BDE8F08FA5EB080000B259
:104610000790A4EB090000B20690ABEB080000B2D3
:1046200005901398A0EB090000B20490ABEB0500D5
:1046300000B203901398001B00B20290002001907A
:1046400000901398844201D1089402E0601E00B2E9
:104650000890CA4625E00699019890FBF1F0404485
:1046600006B20499009890FBF1F0404407B2079914
:104670000198084401900599009808440090BE42B2
:1046800003DD30463E46074600BFB81B401C02B261
:1046900051463046149BFFF7EDFB0AF101000FFA7B
:1046A00080FA08988245D6DDAAEB040003994843B6
:1046B0000190AAEB090005994843009025E0DDE947
:1046C000010190FBF1F0284406B20499009890FB98
:1046D000F1F0404407B2039901980844019005990C
:1046E000009808440090BE4203DD30463E4607462F
:1046F00000BFB81B401C02B251463046149BFFF766
:10470000B9FB0AF101000FFA80FA13988245D6DD51
:1047100000BF77E72DE9F04F0746884691461E46D1
:10472000DDF824A0F01DC11700EB5171C9100FFA7C
:1047300081FB00251CE0002416E0E11704EB517119
:10474000C91005FB0B92515C04F0070380221A414B
:10475000114039B108EB050211B23A1910B20A9AA8
:10476000FFF7F7F8601C04B2B442E6DB681C05B240
:104770005545E0DBBDE8F08F2DE9F84F06460F46C2
:1047800091469846DDE90AAB08F10700C11700EB36
:104790005171C91009B20091002528E0002422E0DF
:1047A000E11704EB5171CA10009905FB0191895C76
:1047B00004F0070380221A41114059B17A1911B24D
:1047C000321910B25A46FFF7C4F80AE02800002058
:1047D000260000207A1911B2321910B20C9AFFF794
:1047E000B8F8601C04B24445DADB681C05B25545D4
:1047F000D4DBBDE8F88F2DE9F04F07468846914697
:104800001E46DDF824A0F01DC11700EB5171C91040
:104810000FFA81FB002521E000241BE0E21704EBE6
:104820005272D21005FB0B939A5CE31704EB53739F
:10483000DB10A4EBC30C012303FA0CF31A403AB1CA
:1048400008EB050211B23A1910B20A9AFFF781F883
:10485000601C04B2B442E1DB681C05B25545DBDBE9
:10486000BDE8F08F2DE9F84F06460F4691469A466F
:104870000B9C9848B0F90000864210DA9648B0F9CF
:10488000000087420BDA062000FB0460401E00286F
:1048900005D4082000FB0470401E002801D5BDE8A7
:1048A000F88F8E48007830B9B9F1B00F03DB09F109
:1048B000010000F0FF0900254DE0052D02D14FF069
:1048C000000B05E009EB89008549084410F805B0A4
:1048D0004FF000083AE00BF00100B8B1012C08D10C
:1048E00007EB080211B2721910B25246FFF731F805
:1048F00026E008FB047211B205FB046210B22346E5
:104900002246CDF800A0FFF759FD19E00A9850455E
:1049100016D0012C08D107EB080211B2721910B29F
:104920000A9AFFF716F80BE00A9808FB047211B216
:1049300005FB0462009010B223462246FFF73EFDBD
:104940004FEA6B0B08F101004FFA80F8B8F1080F3D
:10495000C1DB681C45B2062DAFDB00BF9FE71CB56D
:1049600004460A2C0CD15F4800785F49098801EBA6
:10497000C00000B25C49088000205C4908803AE031
:104980000D2C38D05748007859490988CDE90010D6
:104990005848038822465448B0F900105348B0F9EB
:1049A0000000FFF75FFF4F48007800EB40004F49E1
:1049B000098801EB400000B24C4908804E4800785D
:1049C000C8B14848007800EB40004249B1F90010F6
:1049D000A1EB40004549B1F9001088420BDA41488B
:1049E00000784149098801EBC00000B23E490880C7
:1049F00000203E49088001201CBD3C4A10803A4AF4
:104A0000118070473948B0F9000070473648B0F956
:104A100000007047002801DD014600E00121314A15
:104A20001170704732490880324908807047314A16
:104A300010802F4A1180704708B1012100E0002149
:104A40002D4A117070472D480078704700F003011F
:104A50002A4A11701146097831B1012910D0022972
:104A600003D0032918D10CE000BF2549B1F900108B
:104A7000184A11802349B1F90010174A11800BE040
:104A800000BF2049B1F90010124A11801C49B1F948
:104A90000010114A118000BF00BF704708B101210A
:104AA00000E000210D4A1170704710B5044603E084
:104AB0002078FFF754FF641C20780028F8D110BD3F
:104AC00010B504462046FFF7F0FF0A20FFF747FF26
:104AD00010BD000026000020280000203900002022
:104AE0008079000032000020300000202E000020DD
:104AF0003600002034000020380000203300002061
:104B00002A0000202C00002010B5FE48FDF784FF8D
:104B10000221FD48FCF7F1F9FA48808900EE100AFD
:104B2000B8EE400AF94880ED0B0AF748FCF799F90E
:104B3000F6494860F648407880B9F348FCF770F9C8
:104B4000012805D1B7EE000AF04880ED030A15E010
:104B5000BFEE000AED4880ED030A0FE0EA48FCF7DB
:104B60005FF9012805D1BFEE000AE84880ED030A8D
:104B700004E0B7EE000AE54880ED030AE34890ED53
:104B80000D0AB8EEC00AD0ED010AF8EEE00A90ED89
:104B9000031A00EE810ABDEEC00A80ED0D0A10BDB9
:104BA00010B5DC48FDF738FF0221DB48FCF7A5F91A
:104BB000D848808900EE100AB8EE400AD34880ED4C
:104BC0000A0AD548FCF74DF9D0490860D04800786A
:104BD00080B9D148FCF724F9012805D1BFEE000ABD
:104BE000CA4880ED020A15E0B7EE000AC74880ED1A
:104BF000020A0FE0C848FCF713F9012805D1B7EE07
:104C0000000AC24880ED020A04E0BFEE000ABF4875
:104C100080ED020ABD4890ED0C0AB8EEC00AD0ED56
:104C2000000AF8EEE00A90ED021A00EE810ABDEEED
:104C3000C00A80ED0C0A10BDB44890ED000AB8EE31
:104C4000C00AD0ED020A60EE200AB148008900EEE9
:104C5000100AB8EE400A80EE801A9FEDB00A21EEED
:104C6000000AAA48D0ED0A0A9FEDAD1A60EE810A4B
:104C700080EE201A80ED041AD0ED040A9FEDA71AE9
:104C800080EE810AA248D0ED010A9FEDA61A60EEDF
:104C9000810A20EE200A9D4880ED080A90ED080A5E
:104CA00070479A4890ED010AB8EEC00AD0ED030AA9
:104CB00060EE200A9648008900EE100AB8EE400A1D
:104CC00080EE801A9FED950A21EE000A8F48D0ED04
:104CD0000B0A9FED931A60EE810A80EE201A80ED98
:104CE000051AD0ED050A9FED8D1A80EE810A8848DD
:104CF000D0ED010A9FED8B1A60EE810A20EE200AAA
:104D0000824880ED090A90ED090A704700207F492A
:104D100008634863704710B501218348FBF79DFC89
:104D2000044604F00100002863D001217E48FBF70F
:104D30009CFC01217D48FBF7B7FC08B1012001E094
:104D40004FF0FF3000EE100AB8EEC00A6F4880ED59
:104D5000030A6F48407808BB6C4890ED030AF7EEF1
:104D6000000AB4EE600AF1EE10FA04D1C06B401CE8
:104D70006649C86304E06548C06B401E6349C86368
:104D8000624890ED0D0AB8EEC00AD0ED030A30EE8D
:104D9000200ABDEEC00A80ED0D0A20E05B4890EDD0
:104DA000030AF7EE000AB4EE600AF1EE10FA04D13D
:104DB000C06B401E5549C86304E05448C06B401C9A
:104DC0005249C863514890ED0D0AB8EEC00AD0EDC3
:104DD000030A30EE600ABDEEC00A80ED0D0A4B48B2
:104DE00090F84100012804D10020484981F8410091
:104DF000C86304F00200022863D102214A48FBF78D
:104E000034FC02214948FBF74FFC10B14FF0FF3052
:104E100000E0012000EE100AB8EEC00A3B4880ED29
:104E2000020A3B48007808BB384890ED020AF7EECA
:104E3000000AB4EE600AF1EE10FA04D1806B401C57
:104E40003249886304E03148806B401E2F498863F3
:104E50002E4890ED0C0AB8EEC00AD0ED020A30EEF2
:104E6000200ABDEEC00A80ED0C0A20E0274890ED34
:104E7000020AF7EE000AB4EE600AF1EE10FA04D16D
:104E8000806B401E2149886304E02048806B401CF1
:104E90001E4988631D4890ED0C0AB8EEC00AD0ED9B
:104EA000020A30EE600ABDEEC00A80ED0C0A174817
:104EB00090F84000012804D10020144981F84000F6
:104EC000886310BD10B51A48FCF72CF91948FCF797
:104ED00029F900BF1748FCF7A8F80028FAD04FF0CE
:104EE0000610FBF7AFFD1448FBF7ACFD01210F489E
:104EF000FBF7EEFC02210D48FBF7EAFC0A23022235
:104F000001211BE0D00A002000C002407C0A0020E2
:104F100000000020C00A002000D0024000007042C3
:104F20006F12833AC3F5C84000500240006002404F
:104F3000060800F0014400F0060406003848FBF7BC
:104F40006EFA0A23022211463548FBF768FA00225E
:104F500008213448FBF758FFFCF741FC3221B0FB35
:104F6000F1F4224600212F48FBF773FF2D48FBF791
:104F700066FF2C48FBF73EFFAFF2DB312948FBF719
:104F800092FF02212748FBF7AAFF3620FBF708FE15
:104F90002548FCF7C7F82548FCF7C4F800BF2348AC
:104FA000FCF743F80028FAD02148FBF74BFD2148D5
:104FB000FBF748FD01212048FBF78AFC02211E482F
:104FC000FBF786FC0A23022201211B48FBF727FA84
:104FD0000A23022211461848FBF721FA0022082171
:104FE0001648FBF711FFFCF7FAFB3221B0FBF1F496
:104FF000224600211148FBF72CFF1048FBF71FFF4A
:105000000E48FBF7F7FEAFF2FF410C48FBF74BFFF2
:1050100002210A48FBF763FF1D20FBF7C1FD10BD0D
:105020000060024000D00240050800F0004400F09B
:1050300006000500060405000050024000C00240C2
:10504000D2B201E000F8012B491EFBD270470022CA
:10505000F6E710B513460A4604461946FFF7F0FF77
:10506000204610BD064C074D06E0E06840F0010305
:1050700094E8070098471034AC42F6D3FBF708F9E0
:10508000907E0000B07E000070B58C1810F8015BB7
:1050900015F0070301D110F8013B2A1106D110F8D1
:1050A000012B03E010F8016B01F8016B5B1EF9D1D5
:1050B0002B0705D40023521E0DD401F8013BFAE75B
:1050C00010F8013BCB1A921C03E013F8015B01F8C6
:1050D000015B521EF9D5A142D8D3002070BD00005B
:1050E0000FB4054B10B503A9044A029800F017F855
:1050F00010BC5DF814FB00004B2200004C040020A3
:1051000002E008C8121F08C1002AFAD17047704790
:10511000002001E001C1121F002AFBD170472DE9D8
:10512000F84F9946924688460546002706E025280E
:105130000AD051464A4690476D1C7F1C28780028AB
:10514000F5D13846BDE8F88F002315F8011F184641
:105150002E2915D115F8011F04232A290DD06FF02F
:105160002F022978A1F13004092C09D800EB800026
:1051700002EB400008446D1CF3E758F8040B6D1C6B
:105180002A78002ADDD0632A07D0732A0FD0104670
:1051900051464A4690477F1C2AE018F8042B8DF8A8
:1051A000002000218DF801106E46012103E058F81F
:1051B000046B4FF0FF315A074FF0000401D409E0AF
:1051C000641C84420BDA8C42FADB325D002AF7D190
:1051D00005E0641C8C42FCDB305D0028F9D12744DB
:1051E00004E016F8010B51464A469047641EF8D277
:1051F0006D1CA3E700400040100000000080054047
:105200001000000000500040110000000090054018
:1052100011000000006000401200000000A00540E6
:1052200012000000007000401300000000B00540B4
:1052300013000000004002401400000000C00540C0
:1052400014000000005002402E00000000D0054075
:105250002E000000006002402F00000000E005402A
:105260002F000000007002403000000000F00540F8
:105270003000000000D0034046000000000006405F
:1052800046000000001006404700000000200640D5
:1052900048000000003006407F000000004006404B
:1052A00080000000005006408400000000600640BE
:1052B0008C0000000040004010000000008005400D
:1052C0001000000000500040110000000090054058
:1052D00011000000006000401200000000A0054026
:1052E00012000000007000401300000000B00540F4
:1052F00013000000004002401400000000C0054000
:1053000014000000005002402E00000000D00540B4
:105310002E000000006002402F00000000E0054069
:105320002F000000007002403000000000F0054037
:105330003000000000D003404300000000000640A1
:10534000430000000010064044000000002006401A
:1053500045000000003006405800000000400640B4
:1053600059000000005006405C000000006006404C
:1053700064000000004000400080054000500040F4
:10538000009005400060004000A005400070004013
:1053900000B005400040024000C0054000500240FF
:1053A00000D005400060024000E00540007002406F
:1053B00000F0054000D00340000006400010064009
:1053C0000010064000200640002006400030064045
:1053D00000300640004006400040064000500640B5
:1053E0000050064000600640006006400070064025
:1053F0000070064000800640008006400090064095
:1054000000900640000700000006000000050000B4
:105410000004000000030000000200000001000082
:10542000000000000000000018ED00E01CED00E0AE
:1054300020ED00E000E400E004E400E008E400E027
:105440000CE400E010E400E014E400E018E400E004
:105450001CE400E020E400E024E400E028E400E0B4
:105460002CE400E030E400E034E400E038E400E064
:105470003CE400E040E400E044E400E048E400E014
:105480004CE400E050E400E054E400E058E400E0C4
:105490005CE400E060E400E064E400E068E400E074
:1054A0006CE400E070E400E074E400E078E400E024
:1054B0007CE400E080E400E084E400E088E400E0D4
:1054C00000E100E004E100E008E100E00CE100E0C0
:1054D00010E100E080E100E084E100E088E100E02C
:1054E0008CE100E090E100E000E200E004E200E096
:1054F00008E200E00CE200E010E200E080E200E000
:1055000084E200E088E200E08CE200E090E200E06B
:1055100040420F0000201C0080841E0000802500F7
:10552000999E36000040380000093D0000803E0092
:1055300000004B00404B4C0000204E00808D5B0073
:1055400000C05D000080700000127A0000007D0045
:1055500080969800001BB7000080BB00C0E8CE001A
:10556000647ADA000024F4000000FA0080A8120136
:10557000002D310100366E0140787D0140000000B1
:10558000000000003E00080000000000A000000035
:105590000200000034540100000000002B700600DF
:1055A00000000000280000000000000027000100AB
:1055B000000000002000000000000000500000007B
:1055C000020000001AAC000000000000179409005F
:1055D0000000000016980500000000001400000004
:1055E000000000001380080000000000A000000080
:1055F000080000001000000000000000280000006B
:1056000002000000400000000400000060000000F4
:10561000000000005D000C000000000050000000D1
:10562000000000004E0002000000000041AC01003C
:10563000000000003C000000000000003A8009006B
:105640000000000030000000000000002800000002
:105650000000000027000100000000002360060099
:105660000000000021600800000000001E00000093
:10567000000000001DC004000000000050000000F9
:1056800002000000180000000000000014000000EC
:105690000000000060000000040000000024F4008E
:1056A0003000300080C3C9017100710080F0FA023F
:1056B000B200B20000879303D300D30000B4C40447
:1056C0001401140100E1F50555015501000E2707ED
:1056D0009601960100D0121300389C1C0000034074
:1056E00023000000001003402500000000200340BC
:1056F000270000000030034033000000004003405A
:1057000056000000005003406C00000000600340A1
:105710006E000000007003407000000000C00440F4
:105720007200000000D004407400000000E004405B
:105730007600000000F00440780000000000034004
:10574000230000000010034025000000002003405B
:1057500027000000003003403300000000400340F9
:105760004F000000005003405100000000000E40B8
:105770007200000000100E407400000000C00040E5
:105780001500000000D000401600000000E00040BE
:105790003100000000F000404B000000000001401C
:1057A0004C000000001001404D00000000200140AE
:1057B0004E000000003001404F00000000C00040DB
:1057C0001500000000D000401600000000E000407E
:1057D0003100000000F000404800000000000140DF
:1057E00049000000001001404A0000000020014074
:1057F0004B000000003001404C0000007C7E0000A7
:1058000000C0004000D0004000E00040001800F060
:10581000011800F0021800F0000000000000000075
:10582000002F000000000700070000147F147F1401
:1058300000242A7F2A120062640813230036495587
:10584000225000000503000000001C22410000005F
:1058500041221C000014083E08140008083E0808F5
:10586000000000A060000008080808080000606050
:105870000000002010080402003E5149453E00008F
:10588000427F4000004261514946002141454B3171
:10589000001814127F10002745454539003C4A493D
:1058A00049300001710905030036494949360006AF
:1058B0004949291E00003636000000005636000017
:1058C0000008142241000014141414140000412292
:1058D000140800020151090600324959513E007C6A
:1058E0001211127C007F49494936003E4141412254
:1058F000007F4141221C007F49494941007F09093D
:105900000901003E4149497A007F0808087F0000EC
:10591000417F4100002040413F01007F08142241A7
:10592000007F40404040007F020C027F007F04085F
:10593000107F003E4141413E007F09090906003EBB
:105940004151215E007F09192946004649494931E4
:105950000001017F0101003F4040403F001F204007
:10596000201F003F4038403F0063140814630007C5
:105970000870080700615149454300007F4141001C
:1059800000552A552A55000041417F0000040201BC
:10599000020400404040404000000102040000209A
:1059A00054545478007F48444438003844444420D8
:1059B00000384444487F00385454541800087E0985
:1059C00001020018A4A4A47C007F0804047800004D
:1059D000447D4000004080847D00007F102844000A
:1059E0000000417F4000007C04180478007C08041B
:1059F000047800384444443800FC24242418001857
:105A0000242418FC007C0804040800485454542042
:105A100000043F444020003C4040207C001C2040CB
:105A2000201C003C4030403C004428102844001C0E
:105A3000A0A0A07C004464544C4414141414141406
:105A40000000000000000000000000000000000056
:105A5000000000F8000000000000003330000000EB
:105A600000100C06100C06000000000000000000F2
:105A700040C07840C0784000043F04043F04040064
:105A8000007088FC08300000001820FF211E000074
:105A9000F008F000E018000000211C031E211E0089
:105AA00000F00888700000001E212324192721100F
:105AB00010160E00000000000000000000000000B2
:105AC000000000E018040200000000071820400059
:105AD00000020418E0000000004020180700000049
