:020000040000FA
:10000000B00E00206D02000081020000830200009B
:10001000850200008502000085020000000000004B
:100020000000000000000000000000008502000049
:10003000850200000000000085020000850200002B
:100040008502000085020000850200008502000094
:100050008502000085020000850200008502000084
:100060008502000085020000850200008502000074
:100070008502000085020000850200008502000064
:100080008502000085020000850200008502000054
:100090008502000085020000850200008502000044
:1000A0008502000085020000850200008502000034
:1000B0008502000085020000850200008502000024
:1000C0008502000085020000850200008502000014
:1000D0008502000085020000850200008502000004
:1000E000850200008502000000000000850200007B
:1000F00085020000850200008502000085020000E4
:1001000085020000850200008502000085020000D3
:1001100000000000000000008502000085020000D1
:1001200085020000850200008502000085020000B3
:1001300085020000850200008502000085020000A3
:1001400000000000000000000000000000000000AF
:100150008502000085020000850200008502000083
:10016000000000000000000000000000000000008F
:10017000000000000000000000000000000000007F
:10018000000000000000000000000000000000006F
:10019000000000000000000000000000000000005F
:1001A000000000000000000000000000000000004F
:1001B0008502000085020000850200008502000023
:1001C0008502000085020000850200008502000013
:1001D0008502000085020000850200008502000003
:1001E000850200008502000085020000000000007A
:1001F000000000008502000085020000850200006A
:1002000085020000850200000000000000000000E0
:1002100085020000850200008502000085020000C2
:1002200085020000850200008502000085020000B2
:1002300085020000850200008502000085020000A2
:100240008502000085020000850200008502000092
:100250008502000085020000850200008502000082
:100260008502000085020000850200004EF68850DD
:10027000CEF20000016841F47001016000F004B8A2
:10028000FEE7FEE7FEE70000DFF80CD008F00CF90F
:10029000004800478D5C0000B00E0020EFF3108096
:1002A00072B67047EFF310807047EFF3108062B6BC
:1002B000704730BF704780F311887047EFF31180AB
:1002C000704700000138FDD17047000030B502468C
:1002D000F84B1824F8480068F84D2840F84DA8421B
:1002E00001D1F84B00BF002108E053F831009042E3
:1002F00003D103EBC100406830BD491CA142F4D3D7
:100300000020F9E702F001031BB1D0F800340B43E1
:1003100002E0D0F800348B43C0F8003402F002034E
:100320001BB1D0F820340B4302E0D0F820348B43CB
:10033000C0F82034704730B5024601208840C1B271
:10034000D2F80034D2F8204403EA010008B10120B9
:1003500000E0002004EA01050DB1022500E00025BF
:10036000284330BD02F001031BB1D0F808340B4321
:1003700002E0D0F808348B43C0F8083402F00203DE
:100380001BB1D0F804340B4302E0D0F804348B43A3
:10039000C0F8043402F004031BB1D0F80C340B4352
:1003A00002E0D0F80C348B43C0F80C3402F48033F4
:1003B00023B1D0F8383543F0010303E0D0F83835E5
:1003C00023F00103C0F838357047F0B5024601202C
:1003D0008840C1B2D2F80834D2F80444D2F80C6490
:1003E000D2F8385503EA010008B1012000E00020EE
:1003F00004EA01070FB1022700E00027384306EAAC
:1004000001070FB1042700E00027384305F001077A
:10041000384310B14FF48030F0BD0020FCE7F0B558
:1004200002F001051DB1D0F800550D4302E0D0F8EF
:1004300000558D43C0F8005502F002051DB1D0F8FB
:1004400004550D4302E0D0F804558D43C0F804551F
:1004500002F004051DB1D0F808550D4302E0D0F8B4
:1004600008558D43C0F8085502F008051DB1D0F8B5
:1004700018550D4302E0D0F818558D43C0F81855B3
:1004800002F010051DB1D0F83C550D4302E0D0F844
:100490003C558D43C0F83C55002416E00125A5408D
:1004A0000D4085B1D0F8C45F67000326BE40B54358
:1004B000C0F8C45FD0F8C45F6700C2F34116BE4005
:1004C0003543C0F8C45F651CECB2082CE6DB03F0D2
:1004D00001051DB1D0F80C550D4302E0D0F80C55C4
:1004E0008D43C0F80C5503F002051DB1D0F810552E
:1004F0000D4302E0D0F810558D43C0F8105503F0BD
:1005000004051DB1D0F814550D4302E0D0F8145580
:100510008D43C0F8145503F008051DB1D0F81C55E3
:100520000D4302E0D0F81C558D43C0F81C5503F470
:1005300000751DB1D0F844550D4302E0D0F8445584
:100540008D43C0F8445503F440751DB1D0F84055B3
:100550000D4302E0D0F840558D43C0F840551BB91B
:10056000D0F828550D4302E0D0F828558D43C0F847
:100570002855F0BDF0B514461D4601268E40F1B257
:10058000D0F800650E400EB1012600E0002632468C
:10059000D0F804650E400EB1022600E0002632437A
:1005A000D0F808650E400EB1042600E00026324364
:1005B000D0F818650E400EB1082600E00026324340
:1005C000D0F83C650E400EB1102600E00026324304
:1005D000D0F8C46F4F00FE4006F0030642EA461210
:1005E0002260D0F80C650E400EB1012600E0002616
:1005F0003346D0F810650E400EB1022600E000260A
:100600003343D0F814650E400EB1042600E00026F6
:100610003343D0F81C650E400EB1082600E00026DA
:100620003343D0F840650E404EB1D0F844650E40DB
:1006300016B14FF4007601E04FF4807633432B601F
:10064000F0BDD0F810240A43C0F810247047D0F849
:1006500010248A43C0F810247047024611B1D2F822
:1006600018047047D2F81404FBE7C0F81C14704754
:1006700070B504460D462046FFF728FE064629467B
:10068000304600F031FA304600F08AFA70BD70B59D
:1006900004462046FFF71AFE0546284600F0BCFA3D
:1006A000284600F03BFA70BD0246002000EB8100B6
:1006B000105870470896000000E00F400000FF70DF
:1006C00000000A10C8960000002303EB8103C2500B
:1006D000704730B504460D46002229462046FFF7F4
:1006E00011FE0023012229462046FFF798FE30BD67
:1006F00030B504460D46022229462046FFF702FE89
:100700000823042229462046FFF789FE30BD30B574
:1007100004460D46002229462046FFF7F3FD00233C
:10072000012229462046FFF77AFE30BD30B5044647
:100730000D46022229462046FFF7E4FD0823042245
:1007400029462046FFF76BFE30BD30B504460D4606
:10075000022229462046FFF7D5FD08230422294618
:100760002046FFF75CFE30BD30B504460D46022240
:1007700029462046FFF7C6FD0823042229462046C5
:10078000FFF74DFE30BD30B504460D460222294626
:100790002046FFF7B7FD0823012229462046FFF730
:1007A0003EFE30BD30B504460D46002229462046A7
:1007B000FFF7A8FD0823012229462046FFF72FFE58
:1007C00030BD30B504460D46082301222946204697
:1007D000FFF725FE012229462046FFF793FD30BD95
:1007E00030B504460D460923012229462046FFF76D
:1007F00016FE012229462046FFF784FD30BD30B5A4
:1008000004460D46022229462046FFF77BFD0923B8
:10081000012229462046FFF702FE30BD30B50446CE
:100820000D46022229462046FFF76CFD08230122CF
:1008300029462046FFF7F3FD30BD30B504460D468E
:10084000022229462046FFF75DFD0823042229469F
:100850002046FFF7E4FD30BD30B504460D460222C8
:1008600029462046FFF74EFD08230422294620464C
:10087000FFF7D5FD30BD30B504460D4600222946B0
:100880002046FFF73FFD0023012229462046FFF7BF
:10089000C6FD30BD30B504460D460222294620462D
:1008A000FFF730FD0823012229462046FFF7B7FD58
:1008B00030BD30B504460D46022229462046FFF7DA
:1008C00021FD0823012229462046FFF7A8FD30BD5F
:1008D00030B504460D46022229462046FFF712FD98
:1008E0000A23012229462046FFF799FD30BD30B585
:1008F00004460D46022229462046FFF703FD082341
:10090000012229462046FFF78AFD30BD30B5044656
:100910000D46022229462046FFF7F4FC0823012257
:1009200029462046FFF77BFD30BD30B504460D4615
:10093000022229462046FFF7E5FC0823012229462A
:100940002046FFF76CFD30BD30B504460D46002251
:1009500029462046FFF7D6FC0023012229462046DF
:10096000FFF75DFD30BD30B504460D460222294635
:100970002046FFF7C7FC0823012229462046FFF73F
:100980004EFD30BD30B504460D46002229462046B6
:10099000FFF7B8FC4FF40273012229462046FFF707
:1009A0003EFD30BD30B504460D46002229462046A6
:1009B000FFF7A8FC4FF48473012229462046FFF775
:1009C0002EFD30BD30B504460D4602222946204694
:1009D000FFF798FC0823012229462046FFF71FFD58
:1009E00030BD30B504460D46022229462046FFF7A9
:1009F00089FC0A23012229462046FFF710FD30BD5D
:100A000030B504460D46022229462046FFF77AFCFF
:100A10000823042229462046FFF701FD30BD30B5EA
:100A200004460D46022229462046FFF76BFC0823A8
:100A3000012229462046FFF7F2FC30BD014601F5B0
:100A4000A960704710B50146C1F307401B4BDB6E30
:100A500001248440234033B1012303EB4003184CAD
:100A600054F8230003E04300154C54F82300C1F36D
:100A70000722D0F82C350F249440A34301F00F0433
:100A800094402343C0F82C3510BDD0F834250A43D8
:100A9000C0F834257047D0F834258A43C0F834258F
:100AA0007047D0F830250A43C0F830257047D0F899
:100AB00030258A43C0F830257047000000E00F4021
:100AC0008897000000BFFEE710B5FFF7EEFB08B106
:100AD000012010BD0020FCE710B5FFF7DFFB08B1D7
:100AE000012010BD0020FCE730B50246B64C24685A
:100AF000B64DAC420ED0B44C2368002005E053F84C
:100B00002040B24D45F82040401C9B28F7D3AF4C05
:100B1000AD4D2C60AD4C44F8221030BDAC49AB4A11
:100B200042F820107047AB4951F82010AA4A1143EF
:100B3000A54A121D11607047A34A121D126802F4E3
:100B4000E061002006E0A34A52F820208A4200D14A
:100B500002E0401C0828F6D300BF704710B50A46D3
:100B600083089E4C54F8233019688307DC0EFF235A
:100B7000A34099438307DB0E02FA03F3194383086A
:100B8000964C54F82330196010BD01468808934AEA
:100B900052F8200000688A07D20ED040C0B27047D9
:100BA000042808D188491C31096841F48031864AFB
:100BB0001C3211602FE0052808D183491C310968D7
:100BC00041F40031804A1C32116024E0062808D12B
:100BD0007D491C31096841F480217B4A1C32116037
:100BE00019E00F2808D14FF0E021096941F0020116
:100BF0004FF0E02211610EE010280CD3A0F110019B
:100C000001F01F0201219140A0F110025209744B22
:100C100053F8222011607047042808D16A491C311A
:100C2000096821F48031684A1C3211602FE00528E0
:100C300008D165491C31096821F40031624A1C322F
:100C4000116024E0062808D15F491C31096821F4AD
:100C500080215D4A1C32116019E00F2808D14FF045
:100C6000E021096921F002014FF0E02211610EE05C
:100C700010280CD3A0F1100101F01F0201219140B6
:100C8000A0F110025209574B53F82220116070470F
:100C900010B501460020042905D14B4A1C321268C8
:100CA00002F4803028E0052905D1474A1C32126839
:100CB00002F4003020E0062905D1434A1C321268B4
:100CC00002F4802018E00F2905D14FF0E0221269CC
:100CD00002F0020010E010290ED3A1F11002520917
:100CE0003F4B53F822201268A1F1100303F01F04B8
:100CF0000123A34002EA030010BD022808D13249B3
:100D0000091F096841F000412F4A121F116024E0B9
:100D10000E2808D12C49091F096841F080512A4A40
:100D2000121F116019E00F2808D12749091F09680F
:100D300041F08061244A121F11600EE010280CD38C
:100D4000A0F1100101F01F0201219140A0F1100259
:100D50005209254B53F82220116070470E2808D104
:100D60001949091F096841F00061174A121F1160F3
:100D700019E00F2808D11449091F096841F00071D2
:100D8000114A121F11600EE010280CD3A0F11001BF
:100D900001F01F0201219140A0F110025209134BF2
:100DA00053F822201160704710B504462046FFF723
:100DB00082FA10BD10B5FFF781FA10BDA0F1100145
:100DC0000B4A11607047000008ED00E000040020AD
:100DD000C50A0000189800000000FA0538980000C5
:100DE000D4980000E8980000FC98000010990000DA
:100DF00000EF00E010B501440B68F94C23401343A9
:100E00000B6002F0020323B1B0230B621B014B62A3
:100E100004E08C230B6240F60C034B6210BD0144CE
:100E20000B6803F0020313B153080B6101E0531E7A
:100E30000B61704702461144086800F0020010B1CF
:100E40000869400070470869401CFBE7425842F0BF
:100E5000010242507047425822F00102425070474E
:100E600030B5044621F03F052819056805F0020554
:100E700005B1520803699B1A01F001050DB1C36168
:100E800000E0836130BD30B503460A4622F03F05DD
:100E9000E9180C6902F001050DB1C86900E0886924
:100EA000201A0D6805F0020505B1400030BD10B5EF
:100EB0000144CA620B638C6A44F001048C6210BD69
:100EC0004218926A22F0010243189A627047016048
:100ED000704741607047012A03D183680B438360E8
:100EE00002E083688B4383607047012A03D1C368A3
:100EF0000B43C36002E0C3688B43C3607047012AA1
:100F000003D1436A0B43436202E0436A8B4343626B
:100F10007047012A03D103690B43036102E00369AF
:100F20008B430361704710B502465018AD4C031B4C
:100F3000A04246D009DCAC4B184468B140281FD011
:100F4000802828D0C02868D130E0402B44D0802BA6
:100F50004DD0C02B61D155E0A4480068A44B184087
:100F6000A44B984201D11A2010BDA0480068A04BA4
:100F70001840A14B984201D11A20F5E70020F3E771
:100F80009A4800689A4B18409B4B984201D11B200D
:100F9000EAE70020E8E795480068954B1840964B33
:100FA000984201D11C20DFE70020DDE78F48006870
:100FB0008F4B1840904B984201D13B20D4E7002042
:100FC000D2E78A4800688A4B18408A4B984201D180
:100FD0009620C9E70020C7E784480068844B184082
:100FE000844B984201D19720BEE70020BCE77F48A0
:100FF00000687F4B18407F4B984201D19820B3E79F
:101000000020B1E779480068794B1840794B984245
:1010100001D19920A8E70020A6E70020A4E72DE948
:10102000F04105460E46144631462846FFF77BFF41
:10103000074621463846FFF757FD3846FFF7B0FD13
:10104000BDE8F08170B504460D4629462046FFF7FD
:101050006AFF06463046FFF7DFFD3046FFF75EFDCC
:1010600070BD014661480068614A1040614A904283
:1010700006D16248814201D1192070479A20FCE7CD
:101080005A4800685A4A10405B4A904206D15B4871
:10109000814201D11920F0E70020EEE70020ECE7C3
:1010A00070B504460D462046FFF7DBFF064629468D
:1010B0003046FFF719FD3046FFF772FD70BD70B581
:1010C00004462046FFF7CDFF05462846FFF7A4FD5E
:1010D0002846FFF723FD70BD10B543185B68134326
:1010E0004418636010BD10B543185B6893434418FF
:1010F000636010BD03461944012A01D1C8687047D6
:101100008868FCE74318DA60704742690A43426125
:10111000704742698A43426170474FF48031C16130
:1011200070470246012901D1D06970479069FCE7F8
:10113000C161704730B54418E263A1F1400400F585
:10114000006545F8143030BD10B512B9441863631A
:1011500001E04418A36310BD034612B95818406B50
:1011600070475818806BFBE710B503463AB9A1F1F8
:10117000400003F5006404EB4000406810BDA1F19D
:10118000400003F5006404EB40008068F6E730B5EA
:101190003AB9A1F1400400F5006505EB4404636031
:1011A00006E0A1F1400400F5006505EB4404A360EE
:1011B00030BDD0F8C82F40F207139A430A43C0F855
:1011C000C82F70470146D1F8C80F00F4807008B9E5
:1011D00000207047D1F8C80F40F207121040F8E71E
:1011E0000100F8FF40900240C07FFDBF00E00F40CB
:1011F0000000FF700000051000000A10008002408F
:101200002DE9F0410346002001240026002514E0CA
:1012100004EA010CBCF1000F0DD04FEA400C02FAB9
:101220000CFC4CEA06064FEA40084FF0030C0CFA9F
:1012300008FC4CEA05056400401C0828E8D3D3F8F4
:1012400028C02CEA050747EA060CC3F828C0BDE809
:10125000F0810000024600210AE0F74850F8310012
:10126000904204D3F44800EBC10040687047491C29
:101270000729F2D30020F9E7F0B50146DFF8BCC337
:10128000DCF860C1CCF38923DFF8B0C3DCF860C1BF
:10129000CCF30905DFF8A4C3DCF864C1CCF3042C5B
:1012A0000CF10106DFF894C3DCF864C10CF01F0CEC
:1012B0000CF10107B1FBF7F15A09A3EB421401FB52
:1012C00005F001FB02FC00EB5C1001FB04FC00EBF1
:1012D0009C20B0FBF6F0F0BDD8483C380068401CBC
:1012E00000027047D5480068D5490840D549884272
:1012F00006D1D24880680004400900F500607047BC
:10130000CE484038006880B2401CC002F7E7CB48A6
:101310000068CB490840CC49884209D1C7484038C9
:101320000068C0F302400A30012101FA00F0704762
:101330004FF48060FBE70146C1F30720C34A104425
:1013400000F0704040F00070C1F30722BF4B1A4418
:10135000C2F3130240EA4210CAB240EA82000068B7
:1013600008B1012070470020FCE70146C1F30720C7
:10137000B74A104400F0704040F00070C1F30722FB
:10138000B34B1A44C2F3130240EA4210CAB240EA15
:101390008200006808B1012070470020FCE710B50A
:1013A0000121C0F30722AB4B1A4402F0704242F015
:1013B0000072C0F30723A74C2344C3F3130342EA8C
:1013C0004312C3B242EA8302116010BD10B500217E
:1013D000C0F307229F4B1A4402F0704242F00072A1
:1013E000C0F307239B4C2344C3F3130342EA431285
:1013F000C3B242EA8302116010BD18B50121C0F3E7
:101400000722954B1A4402F0704242F00072C0F37A
:101410000723914C2344C3F3130342EA4312C3B29C
:1014200042EA830211600021009102E00099491C08
:10143000009100991029F9D30021C0F30722864BAF
:101440001A4402F0704242F00072C0F30723824C4B
:101450002344C3F3130342EA4312C3B242EA8302B2
:10146000116018BD10B50121C0F307227B4B1A444F
:1014700002F0704242F00072C0F30723774C23441D
:10148000C3F3130342EA4312C3B242EA8302116078
:1014900010BD10B50021C0F30722704B1A4402F0B2
:1014A000704242F00072C0F307236C4C2344C3F334
:1014B000130342EA4312C3B242EA8302116010BD31
:1014C00010B50121C0F30722654B1A4402F07042A7
:1014D00042F00072C0F30723614C2344C3F31303AB
:1014E00042EA4312C3B242EA8302116010BD10B552
:1014F0000021C0F307225A4B1A4402F0704242F016
:101500000072C0F30723564C2344C3F3130342EA8B
:101510004312C3B242EA8302116010BD10B501212B
:10152000C0F307224F4B1A4402F0704242F000729F
:10153000C0F307234B4C2344C3F3130342EA431283
:10154000C3B242EA8302116010BD10B50021C0F39E
:101550000722444B1A4402F0704242F00072C0F37A
:101560000723404C2344C3F3130342EA4312C3B29C
:1015700042EA8302116010BD30490968304A1140C7
:10158000304A91420ED130B12C49096E41F00061D0
:101590002A4A116618E02949096E21F00061274A9C
:1015A000116611E040B12549B031096841F00051A0
:1015B000224AC2F8B01007E02049B031096821F092
:1015C00000511E4AC2F8B010704710B504462146BB
:1015D0002C20FFF789FA2C20FFF7E2FA10BD10B596
:1015E0002C20FFF719FB2C20FFF798FA10BD1349A8
:1015F000496D0143114A516570471049496D814356
:101600000E4A516570470D4988657047014611B112
:101610000A48806D70470948006DFBE71249086071
:1016200070471148006870470F49083108607047DB
:101630000D48083000687047B09A000000E00F4085
:101640000000FF700000051000000A1000E30F40CA
:1016500000EA0F4000E90F4000E50F4000E60F40B0
:1016600000E70F4000E80F40B4E10F40FE4908607A
:101670007047FD49091D08607047FC48FC49086037
:1016800000BFFEE710B5FEF714FE10BD10B5F84818
:10169000001D006840F00400F549091D0860FEF7D0
:1016A00008FEF348001D006820F00400F049091D01
:1016B000086010BDEF48C06D7047EE49C96D8143A9
:1016C000EC4AD1657047EB49C86770470146EA4864
:1016D000084050B101F00040E34A383A1060E64853
:1016E00081380840E34AC2F85001DF4838380160C9
:1016F00001F4007088B100BFDB483438006800F4A2
:1017000040700028F8D0D8483438006800F44070A1
:10171000B0F5807F01D0002070470120FCE7D2495E
:10172000503108607047D0485030006870472DE94C
:10173000FE4F05468A46CF480068D0490840D04948
:10174000884202D10020BDE8FE8FC5F3841605F063
:101750003800102805D1DFF82C93002700BF15268C
:1017600033E005F03800302804D147F230594FF407
:1017700000172AE005F03800382804D14FF400495A
:101780004FF4800721E005F03800D8B91A2E01DCAB
:10179000092E01DA0020D6E7BB4850F826904FF416
:1017A000401747F04077B348C06F20F01C0001900D
:1017B000072E03DB019840F010000190AD4901981D
:1017C000C86702E04FF00009002705F460500028C8
:1017D0007ED105F0380028B105F03800102801D07E
:1017E0000020B0E7C5F3026BA848FFF733FDA1491D
:1017F000C03108609F48D0F8B000A54900EA010454
:1018000044F000449B48B0300460093E0BEBCB0031
:10181000A04901EB001000EBC60040689549D1F8E3
:10182000641188420DD10BEBCB009A4901EB0010FB
:1018300050F8360040F400008B4928390968884286
:1018400002D00120009001E000200090009808B331
:101850008848B030006838438649C1F8B0000BEBC7
:10186000CB008C4901EB001000EBC60040687E49BC
:10187000243908600BEBCB00864901EB001050F8CF
:10188000360079492839096801F40001084376498E
:1018900028390860804850F82B005044401EB0FBA7
:1018A000FAF84846FFF7E8FCB0FBF8FA5046FFF7B5
:1018B000D1FC7049C03108606E48D0F8600100F476
:1018C000000068B10098012812D16A48B03000E0E9
:1018D00034E0006840F080406649C1F8B00007E09D
:1018E00061482838006840F400006249C1F860018E
:1018F0004FF40040029009E05B482038006800F097
:10190000010000B105E00298401E029002980028F4
:10191000F2DC00BF029870B15648B0300468A8F1FC
:101920000100384340F08050044344F000445148E3
:10193000C0F8B0403CE04FF0000A39E05148FFF7F2
:1019400089FC4C49C03108604A48D0F8600120F455
:1019500000004849C1F860010846D0F8B0404F483F
:10196000044044F000444348B0300460BAF1000F32
:1019700002D14FF000080AE0B9FBFAF8B8F1000F05
:1019800001D0A8F1010808F10100B9FBF0FA5046B6
:10199000FFF760FC3749C03108603648D0F8B040E6
:1019A00047EA8820044344F000443248B0300460E1
:1019B0005046C8E62DE9F04106462E48056E046FF4
:1019C00045F4006525F4800544F400640566046769
:1019D00005F0010010B306F00100F8B966F001004F
:1019E00005402448056604F0004038B104F070005A
:1019F00030280AD004F07000702806D004F00040AF
:101A000040B905F03000302804D14FF48050FEF783
:101A100059FC03E04FF40020FEF754FC25F4FE656A
:101A200006F4FE6005431E4804401D49A13106EA44
:101A30000100044306F0080044EAC0040D480566AE
:101A400004671020FEF73EFC25F4005506F4005014
:101A5000054324F4005406F4005004434020054993
:101A6000886504F000401DE088E10F400400FA059D
:101A70000CED00E000E00F40000100800000FF706E
:101A8000000005100024F4002499000040787D0136
:101A900000FC0FE090990000E89A0000FF0300EFBF
:101AA0008FFFFF7F18B108460467056602E0B5485E
:101AB00005660467B4480540C14306EA01000543D2
:101AC00024F0FC5406F0FC50044306F0804040B182
:101AD00045F4800524F48004AC4906EA010004437F
:101AE00001E024F0804406F4006080B94FF4004720
:101AF00006E0A448006D00F0400000B102E07F1E47
:101B0000002FF6D100BF25F4006524F400649D4841
:101B1000056604671020FEF7D5FBBDE8F08170B5BF
:101B20009848036E016F01F0004010B101F07000A1
:101B300001E003F03000202811D003DC38B1102878
:101B400015D10AE030280CD0702810D10CE0904854
:101B5000C3F3841650F826200BE08E4A09E08E4A23
:101B600007E047F2305204E04FF4004201E0002069
:101B700070BD00BF01F0004010B101F4006028B159
:101B800001F00040E0B903F40060C8B9834805687B
:101B90007C48D0F8644104F01F00401CC4F30426C4
:101BA000761C10FB06F04000B2FBF0F2C5F3090012
:101BB0005043C5F38926564300EB962243F4800335
:101BC00003F4800018B301F00040D8B101F0804068
:101BD00090B101F0004010B101F4006028B101F0B3
:101BE000004048B903F4006030B95600C1F3865094
:101BF000401CB6FBF0F20AE0C1F3C550401CB2FB3A
:101C0000F0F204E0C3F3C350401CB2FBF0F2104604
:101C1000AEE762491C39086070472DE9F04107467C
:101C20000D46584800685E4908405E49884208D120
:101C300025F0FC51781E41EAC05058491C39086013
:101C40002FE07C1E05F0700030B1102813D0302832
:101C500006D070280ED108E044F44014524E0CE037
:101C600044F4001447F2305607E044F480044FF483
:101C7000004602E000BF474E00BF00BF05F0020073
:101C800008B144F0004405F0804008B144F08044BD
:101C900042481C3804603046FFF7DCFA3949C1F885
:101CA000C800BDE8F0813749096E21F4F011014305
:101CB000344A116670473348006E00F4801008B94A
:101CC000002070472F48006E00F4F010F9E7334908
:101CD0006039096821F4706101432A4AC2F8001191
:101CE0002E495039096821F470610143C2F810117E
:101CF00070472A486038006800F4706070472149D6
:101D0000C96E00F00F0301229A4011431D4AD166AB
:101D100070471C49C96E00F00F0301229A4091439D
:101D2000184AD16670471748006F20F48040154963
:101D3000086770471348006F40F4804011490867F6
:101D400070471049886370470E48006E70470D4910
:101D5000096E01430B4A116670470A48406E70478E
:101D60000849496E8143074A516670474A1ED2B2FC
:101D700002430A4B183B1A6070470849283908602B
:101D80007047000000E00F40FEFF3FF800004040B9
:101D9000249900000024F40000093D0060E10F4098
:101DA0000000FF700000051040787D014FF0E0203A
:101DB000006940F005004FF0E021086170474FF0E6
:101DC000E020006920F001004FF0E0210861704739
:101DD00010B5044621460F20FEF786FE4FF0E020A6
:101DE000006940F002004FF0E021086110BD10B51D
:101DF0004FF0E020006920F002004FF0E021086180
:101E00000F20FEF78BFE10BD4FF0E020006940F080
:101E100002004FF0E021086170474FF0E0200069B8
:101E200020F002004FF0E02108617047411E4FF0A2
:101E3000E022516170474FF0E0204069401C70473C
:101E40004FF0E02080697047F0B503460C46B74D6F
:101E50000C26B7480068B74F3840B74FB84201D199
:101E6000B64D082600210DE055F83100984208D102
:101E700005EBC1004268B4F57F4F00D1521C1046FB
:101E8000F0BD491CB142EFD30020F9E7C26840F22F
:101E900001130B401A43C2607047C26840F201133D
:101EA0000B409A43C2607047C26840F201139A43E4
:101EB000C2600A0E02609E4A12689E4B1A409E4BF8
:101EC0009A4211D1CAB201F4702342EA131242F4C9
:101ED0000072426001F47002C1F3072343EA122248
:101EE00042F40072826008E0CAB242F400724260BA
:101EF000C1F3072242F400728260704744F240034B
:101F0000194012B1C3680B4301E0C3688B43C3603F
:101F1000704710B5864B1B68864C2340864CA34205
:101F20000AD140F201130B4012B1046F1C4301E0CF
:101F3000046F9C43046700BF42F22003194012B1B2
:101F4000C3680B4301E0C3688B43C36010BD10B589
:101F500040F60C431940C3688B4302EA0104234353
:101F6000C36010BD40F20223194012B1C3680B4395
:101F700001E0C3688B43C3607047CBB24BB122B161
:101F8000436843F04003436003E0436823F04003A9
:101F9000436001F47F434BB122B1836843F04003B7
:101FA000836003E0836823F0400383607047C16867
:101FB00041F01001C1607047C16821F01001C1609B
:101FC0007047C0F8C81F70470146D1F8C80F704766
:101FD000CBB203B1826301F47F4303B1C2637047A4
:101FE0000246FF2901D1906B7047D06BFCE7CBB262
:101FF00003B1026401F47F4303B1426470470246B7
:10200000FF2901D1106C7047506CFCE7CBB203B1D3
:10201000826201F47F4303B1C26270470246FF2926
:1020200001D1906A7047D06AFCE7C3628262704750
:1020300030B5034600BFDA6A9C6ADD6AAA42FAD16B
:10204000002001462043114330BD0246FF2901D143
:10205000906C7047D06CFCE730B5034600BFDA6C7B
:102060009C6CDD6CAA42FAD100200146204311434A
:1020700030BDCBB203B1026301F47F4303B14263CD
:1020800070470246FF2901D1106B7047506BFCE787
:1020900043630263704730B5034600BF5A6B1C6B45
:1020A0005D6BAA42FAD1002001462043114330BDA6
:1020B0002DE9F04105460E46144631462846FFF705
:1020C000C3FE074621463846FEF70EFD3846FEF7AA
:1020D00067FDBDE8F08170B504460D4629462046EF
:1020E000FFF7B2FE06463046FEF796FD3046FEF795
:1020F00015FD70BD82690A438261704782698A4317
:1021000082617047024609B1106A7047D069FCE7E6
:102110004162704701617047016770470146086F6F
:102120007047C16670470146C86E7047F09A00005C
:1021300000E00F400000FF7000000A10509B0000FC
:1021400030B50246C54B0824C5480068C54D284037
:10215000C54DA84201D1C54B00BF002108E053F88E
:102160003100904203D103EBC100406830BD491CEF
:10217000A142F4D30020F9E7C26A22F086020A43A2
:10218000C26270470146C86A00F08600704741EAA3
:1021900002034363704710B5436B03F007040C6000
:1021A00003F03804146010BDC16A41F01001C1622F
:1021B000016B40F2013211430163704700BF816936
:1021C00001F008010029FAD1C16A21F01001C162B1
:1021D000016B40F20132914301637047F0B5044650
:1021E0000E4615461F462046FFF7E8FFB6EB051FD3
:1021F00005D2206B40F0200020636D0803E0206BC7
:1022000020F020002063F000B0FBF5F0401C4308F4
:102210009809606203F03F00A062E7620020A061BD
:102220002046FFF7C1FFF0BDF0B5446A856A8E0015
:10223000402707FB0457B6FBF7F61660066B06F05F
:10224000200616B1166876001660C66A06F0EE061D
:102250001E60F0BDC16A41F01001C1627047C16AE1
:1022600021F01001C162704721B1026B42F00602F9
:10227000026303E0026B42F0020202637047016BEB
:1022800021F0060101637047C16A21F0E60141F0C7
:102290006E01C162026B42F0080202637047016B7B
:1022A00021F0080101637047026B01F440631A4397
:1022B00002637047026B01F440639A430263704704
:1022C0000146086B00F4406070470146886940F29F
:1022D000071210407047026B22F440420A43026327
:1022E00070470146086B00F440407047026B22F0D3
:1022F00010020A43026370470146086B00F01000A9
:10230000704701468869012222EA10107047014691
:102310008869012222EA501070470146886900F05E
:10232000100008B9086870474FF0FF30FBE701461E
:1023300000BF886900F010000028FAD108687047D3
:102340000246906900F0200010B91160012070472A
:102350000020FCE700BF826902F02002002AFAD1C7
:102360000160704719B1C26A42F0010202E0C26A1C
:1023700022F00102C262704701468869C0F3C000C2
:10238000704770B504460D462046FFF7D9FE064655
:1023900029463046FEF7A8FB3046FEF701FC70BD2B
:1023A00070B504462046FFF7CBFE05462846FEF7EB
:1023B00033FC2846FEF7B2FB70BD826B0A43826392
:1023C0007047826B8A4382637047024609B1106C82
:1023D0007047D06BFCE741647047826C0A438264AB
:1023E0007047826C8A43826470470146486800F0F7
:1023F0000F007047002141607047C0F8C81F704748
:102400000146D1F8C80F7047D0F8A41041F400413C
:10241000C0F8A4107047D0F8A41021F40041C0F80F
:10242000A4107047C0F8A410C0F8A82070470A464E
:1024300000BF836903F08803802BFAD1C16A21F0C1
:10244000040343F08203C362026000BF836903F0A8
:102450008803802BFAD1C16270470000909B000076
:1024600000E00F400000FF7000000A10D09B000049
:1024700010B50448FEF7F6FF80210348FEF7A1F9E6
:1024800010BD0000050800F00050024010B50446E1
:10249000012C06D1102211464FF04020FEF714F90E
:1024A00005E0002210214FF04020FEF70DF910BD8D
:1024B00010B50446012C06D1202211464FF04020D1
:1024C000FEF702F905E0002220214FF04020FEF740
:1024D000FBF810BD70B5002406E0002500E06D1C7F
:1024E000B5F57A7FFBD3641CB4F57A7FF5D3FE484B
:1024F000FEF7B8FF10214FF04020FEF762F92021CF
:102500004FF04020FEF75DF90120FFF7BFFF0120EB
:10251000FFF7CEFF70BD10B50120FFF7C9FF012006
:10252000FFF7B4FF0020FFF7C3FF0020FFF7AEFF67
:1025300010BD10B50020FFF7BBFF0120FFF7A6FF7D
:102540000120FFF7B5FF10BD70B50546002411E06E
:1025500080212141294009B1012100E000210846E4
:10256000FFF7A6FF0120FFF791FF0020FFF78EFF86
:10257000601CC4B2082CEBDB0120FFF787FF0020B2
:10258000FFF784FF70BD10B50446FFF7C4FF782045
:10259000FFF7DAFF0020FFF7D7FF2046FFF7D4FF51
:1025A000FFF7C7FF10BD70B505460E46FFF7B3FF36
:1025B0007820FFF7C9FF4020FFF7C6FF002404E0A2
:1025C000285DFFF7C1FF601CC4B2B442F8DBFFF71F
:1025D000B0FF70BD70B505460C4645F0B000FFF782
:1025E000D2FF102141EA1410FFF7CDFF04F00F00D5
:1025F000FFF7C9FF70BD10B500240BE00021204695
:10260000FFF7E8FFB94901EBC4108021FFF7CBFFCA
:10261000601CC4B2082CF1DB10BD00200CE00021CE
:1026200006E00022B14B03EBC0135A544A1CD1B24E
:102630008029F6DB421CD0B20828F0DB704710B5C9
:10264000FFF748FFAE20FFF79EFFD520FFF79BFF67
:102650008020FFF798FFA820FFF795FF3F20FFF7A6
:1026600092FFD320FFF78FFF0020FFF78CFF402061
:10267000FFF789FFA120FFF786FFC820FFF783FF40
:10268000DA20FFF780FF1220FFF77DFF8120FFF7A0
:102690007AFFCF20FFF777FFD920FFF774FFF120F3
:1026A000FFF771FFDB20FFF76EFF3020FFF76BFFB6
:1026B000A420FFF768FFA620FFF765FF8D20FFF736
:1026C00062FF1420FFF75FFFAF20FFF75CFFFFF70B
:1026D000A4FFFFF790FF10BD10B50246012000E0F7
:1026E00050430B1EA1F10101FAD110BD2DE9F043B9
:1026F00005460C461F46079E4FF0000C00216B1E3E
:1027000034E032F91100B04201DD012000E0002088
:1027100032F91380B04502DD4FF0010801E04FF0BF
:10272000000840451FD034F9130034F91180A0EBA4
:10273000080032F91180A6EB080800FB08F032F916
:10274000138032F91190A8EB090890FBF8F034F9E6
:1027500011804044B84206DDBCF1000F01D10120D8
:1027600000E0002084460B46481C01B2A942C8DBA9
:102770000CF0FF00BDE8F0832DE9F0412DED0A8B50
:1027800080460F4614461D46404605F06FFC41EC5E
:102790001B0B384605F06AFC41EC1C0BB0EE4B1AE3
:1027A000F0EE6B1AB0EE4C0AF0EE6C0A06F044F84C
:1027B000B0EE40AAF0EE60AA9FED4D0B53EC102B4B
:1027C00051EC1A0B05F0E3FB41EC180B9FED4A0BA3
:1027D00053EC102B05F069FB41EC190B05F064FC80
:1027E00006B2AC4208DAA6420CDBAE420ADC01209B
:1027F000BDEC0A8BBDE8F081A64201DAAE4201DCF5
:102800000120F5E70020F3E72DE9F04706460D46E5
:10281000174698462846E91705EB5171C9100FFA7B
:1028200081F905EB0801481EC11700EB5171C91071
:10283000491C0FFA81FA002D07DAA9F101000FFAFD
:1028400080F9AAF101000FFA80FA4C4614E0002E3C
:1028500010DB7F2E0EDC002C0CDB072C0ADCF1B227
:10286000E0B2FFF7B7FE214901EBC41188193946E0
:10287000FFF799FE601C04B25445E8DBBDE8F08721
:102880002DE9F04304460D4616461F46284646E00D
:1028900022463FE0002A3BDB7F2A39DC002837DB79
:1028A0003F2835DC4FEAE07C00EB5C7C4FEAEC0C27
:1028B000DFF8388008EBCC1C1CF802C003464FEA56
:1028C000E07800EB58784FEAE808A0EBC8094FF031
:1028D000010808FA09F82CEA080C01464FEAE078EA
:1028E00000EB58780CE00000000800F06C060020B7
:1028F0001F85EB51B81E09400000000000806640B3
:102900004FEAE808DFF8249409EBC81808F802C079
:10291000511C0AB2A1199142BCDC411C08B2E91950
:102920008142B5DCBDE8F083002011E000210BE01E
:10293000FE4A02EBC012525C82F0FF02FB4B03EB3B
:10294000C0135A544A1CD1B28029F1DB421CD0B2C8
:102950000828EBDB70472DE9F04304460D46164688
:102960001F46284638E0224631E0002A2DDB7F2A28
:102970002BDC002829DB3F2827DC4FEAE07C00EB3A
:102980005C7C4FEAEC0CDFF8A48308EBCC1C1CF851
:1029900002C003464FEAE07800EB58784FEAE808B7
:1029A000A0EBC8094FF0010808FA09F88CEA080CF6
:1029B00001464FEAE07800EB58784FEAE808DFF884
:1029C0006C9309EBC81808F802C0511C0AB2A1198F
:1029D0009142CADC411C08B2E9198142C3DCBDE85E
:1029E000F0832DE9FF4F80460E469146DDF834B066
:1029F000002500244A4631464046039BFFF740FF2E
:102A000000BF5EE0002558E008EB0500002852DB1F
:102A100008EB05007F284EDC3046F11706EB5171BC
:102A2000C9100FB2F11706EB5171C910A6EBC10A1C
:102A3000002E05DA781E07B20AF108000FFA80FAB4
:102A40003819002817DB3819072814DC3819B7495A
:102A500001EBC01008EB0501405C04FB09511BF8B9
:102A6000011001FA0AF108433919B04A02EBC11109
:102A700008EB050288543819401C00281BDB381964
:102A8000401C072817DC3819401CA84901EBC0106E
:102A900008EB0501405C04FB09511BF80110CAF169
:102AA0000802114108433919491CA04A02EBC1111F
:102AB00008EB05028854681CC5B24D45A4DB601CB8
:102AC000C4B20399481EC11700EB5171012202EBF9
:102AD000E101A14296DCBDE8FF8FF8B506460F463E
:102AE00014461D46082D0CD1A4F12000904901EB9D
:102AF000001010230822394600903046FFF771FF7E
:102B00000FE0062D0DD1A4F1200000EB4000894913
:102B100001EB400008230622394600903046FFF7BB
:102B200060FFF8BD2DE9F0410646884615461F4670
:102B3000002409E02A5D04FB076108B23B464146D8
:102B4000FFF7CBFF601CC4B2285D0028F2D1BDE8BE
:102B5000F0812DE9F0470646894617461D46DDF807
:102B60002080002417E0281B411E0A20FFF7B4FD37
:102B7000B7FBF0F00A21B0FBF1F201FB120000F10B
:102B8000300A04FB086108B2434652464946FFF743
:102B9000A4FF601CC4B2AC42E5DBBDE8F0872DE9C0
:102BA000F04F80468A4615461E46DDF82490002DDB
:102BB00007DB4B462B2251464046FFF78EFF2F4640
:102BC00006E04B462D2251464046FFF786FF6F42F6
:102BD000002418E0301B411E0A20FFF77DFDB7FBE3
:102BE000F0F00A21B0FBF1F201FB120000F1300B12
:102BF000611C01FB098108B24B465A465146FFF75A
:102C00006CFF601CC4B2B442E4DBBDE8F08F2DE978
:102C1000F04706468A4691461F46DDF8208000248C
:102C200021E0381B411E1020FFF756FDB9FBF0F0E4
:102C300000F00F050A2D0ADA05F13001CAB204FBD3
:102C4000086108B243465146FFF747FF09E005F126
:102C50003701CAB204FB086108B243465146FFF788
:102C60003CFF601CC4B2BC42DBDBBDE8F0872DE951
:102C7000F0470646894617461D46DDF820800024A9
:102C800014E0281B411E0220FFF726FDB7FBF0F0E1
:102C900000F0010000F1300A04FB086108B243466D
:102CA00052464946FFF719FF601CC4B2AC42E8DB4C
:102CB000BDE8F0872DE9F04F2DED088B81B005467A
:102CC0008B46B0EE408AF0EE608A16469A46129C19
:102CD0009FED190B53EC102B51EC180B05F048FA33
:102CE00006D823462B2259462846FFF7F6FE0BE06E
:102CF00023462D2259462846FFF7EFFE51EC180BCC
:102D000081F0004141EC180B51EC180B05F0EBF988
:102D10008046404605F0BBF941EC190B53EC182BEB
:102D200005F0C0F841EC180B514609E06C06002094
:102D3000109C000000A20000000000000000000045
:102D40000A20FFF7C9FC0746384605F0A0F941EC18
:102D50001B0B53EC182B05F0A8F841EC1A0BB0EE46
:102D60004A0AF0EE6A0A05F05FFEB0EE409AF0EE15
:102D7000609A51EC190B05F0B6F98146B9FBF7F0F2
:102D80008044291908B23346424659460094FFF759
:102D9000E0FE711C01FB045108B223462E22594665
:102DA000FFF79BFEB11C01FB045108B253464A4693
:102DB00059460094FFF7CDFE01B0BDEC088BBDE88D
:102DC000F08F2DE9FC4780468946164600270020F3
:102DD000019000253AE0705D01A9C855781CC7B282
:102DE000022F31DB002700240CE0C4EBC40101EB0F
:102DF0008101FE4A881801A904F0A2FF00B90CE085
:102E0000601CC4B2C4EBC40101EB8101F74A88180D
:102E1000F7A104F095FF0028E7D100BFC4EBC40080
:102E200000EB8000F1490844C01C05F1010A0AEBDF
:102E3000DA714910491E08EB0111009008B2102305
:102E40001A464946FFF7CDFD681CC5B2705D0028E3
:102E5000C1D1BDE8FC870FB470B5C2B005460E46BF
:102E600014464AA8019002A8019A499905F04CFB22
:102E700000200190234602AA31462846FFF752FE61
:102E800042B070BC5DF814FB70B50346002B20DB2C
:102E90007F2B1EDC00291CDB3F291ADCCC1701EB41
:102EA0005474E410D34D05EBC414E45C0A46CD170A
:102EB00001EB5575ED10A1EBC5060125B5402C437E
:102EC0000846CD1701EB5575ED10CA4E06EBC5153A
:102ED000EC5470BD70B50246002A19DB7F2A17DC5E
:102EE000002915DB3F2913DCCC1701EB5474E410E7
:102EF000C04D05EBC414A45CCD1701EB5575ED1066
:102F0000A1EBC5060125B5402C400CB1012070BDD8
:102F10000020FCE72DE9FF4F86B0069E079CDDF8F8
:102F20002080DDF824900020019000904C450FD1C6
:102F3000464502DDB2464646D046354605E02146C6
:102F40002846FFF7A1FF681C05B24545F7DD99E06B
:102F500046450FD14C4502DDA2464C46D146274698
:102F600005E039463046FFF78FFF781C07B24F4522
:102F7000F7DD87E0464505DDB2464646D046A24627
:102F80004C46D1464C4507DD604204B2C9F1000011
:102F90000FFA80F901200190A9EB0400A8EB0601CB
:102FA000884207DDB24626465446C246C846D14648
:102FB00001200090A8EB060000B20590A9EB0400E8
:102FC0000FFA80FB4FEA4B0000B203900598ABEB81
:102FD0000000400000B202900598C0EB4B0000B228
:102FE000049035462746019838B1009828B16842C8
:102FF00001B23846FFF748FF12E0019828B1784245
:1030000001B22846FFF740FF0AE0009820B12946A8
:103010003846FFF739FF03E039462846FFF734FF0B
:103020002EE0681C05B20498002805DADDE90310DB
:10303000084400B2049006E0781C07B20299049894
:10304000084400B20490019838B1009828B1684251
:1030500001B23846FFF718FF12E0019828B1784214
:1030600001B22846FFF710FF0AE0009820B1294678
:103070003846FFF709FF03E039462846FFF704FF0B
:103080004545CEDB0AB0BDE8F08F2DE9F047054697
:103090000E4617469846DDF820A0BAF1000F24D15D
:1030A0002C460CE031462046FFF7EEFE06EB08000A
:1030B000401E01B22046FFF7E7FE601C04B2E8198B
:1030C000A042EFDC34460BE021462846FFF7DCFE49
:1030D000E919491E08B22146FFF7D6FE601C04B26A
:1030E00006EB0800A042EFDC14E02C460FE0B146EE
:1030F00007E049462046FFF7C7FE09F101000FFA35
:1031000080F906EB08004845F3DC601C04B2E819BE
:10311000A042ECDCBDE8F0872DE9FF4F87B01446F4
:103120001D46DDE91467DDF81C80DDF82090DDF830
:103130001C80CDF81880DDF82090CB46DDF81C808F
:10314000ADF80C80ADF80E40ADF81060DDF82090C1
:10315000ADF80490ADF80650ADF80870169890B927
:103160002B462246DDE90701FFF7D4FE3B463246F7
:10317000DDE90701FFF7CEFE3B46324629462046F1
:10318000FFF7C8FE40E0444500DAA046464500DAB5
:10319000B0464D4500DAA9464F4500DAB9460698D3
:1031A000844200DD06940698864200DD06965D4561
:1031B00000DDAB465F4500DDBB46C24621E0CDF8F1
:1031C000149010E00598534601AA03A9009003202B
:1031D000FFF78CFA18B150460599FFF755FE059890
:1031E000401C00B205900598584505E03AA400003F
:1031F000000000006C060020E4DD0AF101000FFA77
:1032000080FA06988245DADD0BB0BDE8F08F2DE933
:10321000F04F07460E4691469A46C9F1010B00252C
:103220004C46321911B27A1910B2FFF72DFE321B3B
:1032300011B27A1B10B2FFF727FE721911B23A19B8
:1032400010B2FFF721FE721B11B23A1B10B2FFF74A
:103250001BFEBAF1000F0FD060420FFA80F809E0B0
:1032600006EB080001B23846FFF70EFE08F1010038
:103270000FFA80F8A045F3DB75E0681C05B2BBF1DE
:10328000000F05DA6800401C58440FFA80FB07E085
:10329000601E04B2281B4000401C58440FFA80FBFB
:1032A000321911B27A1910B2FFF7EEFD721911B28C
:1032B0003A1910B2FFF7E8FD321B11B27A1B10B2B7
:1032C000FFF7E2FD721B11B23A1B10B2FFF7DCFDF3
:1032D000321B11B27A1910B2FFF7D6FD721B11B270
:1032E0003A1910B2FFF7D0FD321911B27A1B10B2A1
:1032F000FFF7CAFD721911B23A1B10B2FFF7C4FDF5
:10330000BAF1000F2FD060420FFA80F811E006EBFF
:10331000080211B27A1910B2FFF7B6FD06EB0802E7
:1033200011B27A1B10B2FFF7AFFD08F101000FFADE
:1033300080F8A045EBDB68420FFA80F811E006EB5D
:10334000080211B23A1B10B2FFF79EFD06EB08020D
:1033500011B23A1910B2FFF797FD08F101000FFA08
:1033600080F8A845EBDBA54287DBBDE8F08F2DE9AF
:10337000FF4F2DED108B87B007460E469B46DDF8BC
:1033800064A0D94600254C46C9F1000004F06EFE49
:1033900041EC1E0B9FEDFA0B53EC102B04F0DEFCFE
:1033A00041EC1C0B0AFB0AF004F060FE41EC1D0B23
:1033B00053EC1C2B04F079FD41EC1A0B09FB09F0CE
:1033C00004F054FE41EC1B0B53EC1A2B04F0C6FC2A
:1033D00041EC190B04F0E4FE08EE900A2498A8B121
:1033E00060420FFA80F80FE006EB080001B23846A1
:1033F000FFF74AFD06EB080001B23846FFF744FD2F
:1034000008F101000FFA80F8A045EDDB321911B286
:103410007A1910B2FFF738FD321B11B27A1B10B2C5
:10342000FFF732FD321911B27A1B10B2FFF72CFDF3
:10343000321B11B27A1910B2FFF726FD5CE0F5EEEF
:10344000C08AF1EE10FA0DD809FB09F06900C91C19
:10345000484300EE100AB8EEC00A30EE280AF0EE3B
:10346000408A15E009FB09F06900C91C48430AFBC2
:103470000AF16200C2F1020201FB020000EE100A32
:10348000B8EEC00A30EE280AF0EE408A601E04B2A0
:10349000681C05B22498B8B160420FFA80F811E0B8
:1034A00006EB080211B27A1910B2FFF7EDFC06EB39
:1034B000080211B27A1B10B2FFF7E6FC08F1010016
:1034C0000FFA80F8A045EBDB321911B27A1910B26D
:1034D000FFF7DAFC321B11B27A1B10B2FFF7D4FCF3
:1034E000321911B27A1B10B2FFF7CEFC321B11B2A7
:1034F0007A1910B2FFF7C8FC204604F0B7FD41EC82
:103500001D0B9FED9F0B53EC102B04F0C8FC41ECFE
:103510001B0B0AFB0AF004F0A9FD41EC1C0B53EC59
:103520001B2B04F0C2FC41EC190B09FB09F16A1CCE
:1035300001FB02F004F09AFD41EC1A0B53EC192B3D
:1035400004F0FEFDFFF47BAF0AFB0AF101FB09F179
:1035500001FB09F004F08AFD41EC1A0B0AFB0AF1A9
:10356000621E514301FB02F004F080FD41EC1B0B95
:10357000284604F07BFD41EC1D0B9FED810B53ECC5
:10358000102B04F0EBFBCDE90001284604F06EFDA2
:1035900041EC1F0B9FED7A0B53EC102B04F0DEFB7C
:1035A00041EC1D0B09FB09F004F060FD41EC1E0B22
:1035B00053EC1D2B04F079FC41EC1C0B9DED000B32
:1035C00053EC102B04F071FC53EC1B2BCDE90201E2
:1035D0009DED020B51EC100B04F0C0FB53EC1A2BC9
:1035E000CDE904019DED040B51EC100B04F057FCE8
:1035F00041EC190B04F0D4FD08EE100A5DE0B5EEC5
:10360000C08AF1EE10FA16D809FB09F06900891C8E
:1036100041430AFB0AF06200C2F1030200FB021000
:1036200000EE100AB8EEC00A30EE080AB0EE408A8A
:10363000681C05B20DE00AFB0AF06100C1F103014C
:10364000484300EE100AB8EEC00A30EE080AB0EEA9
:10365000408A601E04B22498B8B160420FFA80F824
:1036600011E006EB080211B27A1910B2FFF70CFC58
:1036700006EB080211B27A1B10B2FFF705FC08F145
:1036800001000FFA80F8A045EBDB321911B27A196C
:1036900010B2FFF7F9FB321B11B27A1B10B2FFF721
:1036A000F3FB321911B27A1B10B2FFF7EDFB321B9C
:1036B00011B27A1910B2FFF7E7FB002C9FDC07B0BC
:1036C000BDEC108BBDE8FF8F2DE9F05F07460E467D
:1036D00091469B46C9F1010A00254C465A462146AF
:1036E00028460A9BFFF748F828B1321911B27A1917
:1036F00010B2FFF7C9FB5A46604201B2684200B2FD
:103700000A9BFFF739F828B1321B11B27A1B10B2AD
:10371000FFF7BAFB5A46294620460A9BFFF72CF8CA
:1037200028B1721911B23A1910B2FFF7ADFB5A461F
:10373000684201B2604200B20A9BFFF71DF828B14F
:10374000721B11B23A1B10B2FFF79EFB0B98B0B17F
:1037500060420FFA80F810E05A46414600200A9B6A
:10376000FFF70AF828B106EB080001B23846FFF768
:103770008BFB08F101000FFA80F8A045ECDBD7E0E5
:10378000000000000000E03F681C05B2BAF1000F25
:1037900005DA6800401C50440FFA80FA07E0601E0A
:1037A00004B2281B4000401C50440FFA80FA5A46CD
:1037B000214628460A9BFEF7DFFF28B1321911B2D5
:1037C0007A1910B2FFF760FB5A46294620460A9B39
:1037D000FEF7D2FF28B1721911B23A1910B2FFF7F1
:1037E00053FB5A46604201B2684200B20A9BFEF7A0
:1037F000C3FF28B1321B11B27A1B10B2FFF744FB92
:103800005A46684201B2604200B20A9BFEF7B4FF1A
:1038100028B1721B11B23A1B10B2FFF735FB5A46A2
:10382000604201B228460A9BFEF7A6FF28B1321B70
:1038300011B27A1910B2FFF727FB5A46684201B25B
:1038400020460A9BFEF798FF28B1721B11B23A1965
:1038500010B2FFF719FB5A462146684200B20A9B94
:10386000FEF78AFF28B1321911B27A1B10B2FFF7A6
:103870000BFB5A462946604200B20A9BFEF77CFFCA
:1038800028B1721911B23A1B10B2FFF7FDFA0B986A
:1038900000284DD060420FFA80F820E05A46414699
:1038A00028460A9BFEF768FF30B106EB080211B20A
:1038B0007A1910B2FFF7E8FA5A464146684200B258
:1038C0000A9BFEF759FF30B106EB080211B27A1BD2
:1038D00010B2FFF7D9FA08F101000FFA80F8A045FD
:1038E000DCDB68420FFA80F820E05A46414660422D
:1038F00000B20A9BFEF740FF30B106EB080211B29E
:103900003A1B10B2FFF7C0FA5A46414620460A9BBE
:10391000FEF732FF30B106EB080211B23A1910B2CD
:10392000FFF7B2FA08F101000FFA80F8A845DCDBD6
:10393000A542FFF629AFBDE8F09F000070B5044630
:103940000D46E1B2F948FEF705FD204670BD70B5A1
:103950000546F648FEF7EBFC0446204670BD70B500
:1039600004460D4624B92946F148FEF7F3FC31E040
:10397000012C04D12946EF48FEF7ECFC2AE0022C8A
:1039800004D12946EC48FEF7E5FC23E0032C04D1E2
:103990002946E648FEF7DEFC1CE0042C04D129464B
:1039A000E648FEF7D7FC15E0052C04D12946E4488B
:1039B000FEF7D0FC0EE0062C04D12946E148FEF7C4
:1039C000C9FC07E0072C04D12946DF48FEF7C2FCFA
:1039D00000E070BD00BFFCE72DE9F04107460D4651
:1039E0001646002405E0295D3846FFF7B8FF601C45
:1039F00084B2B442F7DBBDE8F08170B506460C46F0
:103A0000002505E0615D3046FFF7A9FF681CC5B2DF
:103A1000605D0028F6D170BD10B50246012000E0BF
:103A200050430B1EA1F10101FAD110BD2DE9F04167
:103A300007460E461446002513E0601B411E0A206F
:103A4000FFF7EAFFB6FBF0F00A21B0FBF1F201FB51
:103A5000120000F1300841463846FFF780FF681C2D
:103A6000C5B2A542E9DBBDE8F08170B50121B048DF
:103A7000FEF7ABFC05464FF0807040692946026DA9
:103A8000AB4890474FF080704069C16AA8488847AA
:103A900000B970BD06E04FF080704069416BA448EA
:103AA0008847C4B24FF080704069C16AA048884717
:103AB0000028F0D100BFECE770B54FF08070406C8B
:103AC0008169A24888474FF08070406C8169A048A6
:103AD00088474FF08070006A816E012088474FF060
:103AE0008070006A0121426D4FF0402090474FF0F6
:103AF0008070006A816E40F2014088474FF080700C
:103B0000006A0221426D4FF040209047FEF707F80F
:103B100005464FF08070406960234FF4E13229463A
:103B200044698348A0474FF080704069416E8048E7
:103B300088474FF0807040691021426C7C48904764
:103B40004FF08070806C0021826915209047AFF2A1
:103B5000E5017748FEF715FC4FF08070806C016836
:103B6000152088474FF08071896C4868804770BD88
:103B700070B54FF08070406C81697448401C884774
:103B80004FF08070406C81697148401C88474FF04D
:103B90008070006A816E4FF0011088474FF080708E
:103BA000006A0121426D6B4890474FF08070006AB7
:103BB000816E694888474FF08070006A0221426D2B
:103BC00064489047FDF7ABFF05464FF080704069B1
:103BD00060234FF4E132294644695648A0474FF02C
:103BE00080704069416E534888474FF0807040694B
:103BF0001021426C4F4890474FF08070806C10212C
:103C000082691620904755494A48FEF7BAFB4FF0A3
:103C10008070806C0168162088474FF08071896C35
:103C20004868804770BD70B501214348FEF7CDFB61
:103C300005464FF0807040692946026D3E48904726
:103C40004FF080704069C16A3B48884700B970BD39
:103C500006E04FF080704069416B37488847C4B236
:103C60004FF080704069C16A334888470028F0D11E
:103C700000BFECE770B54FF08070406C816933484D
:103C8000C01C88474FF08070406C81693048801CB0
:103C900088474FF08070006A816E314888474FF046
:103CA0008070006A4021426D2E4890474FF080702E
:103CB000006A816E2C4888474FF08070006A80212E
:103CC000426D28489047FDF72AFF05464FF0807067
:103CD000406960234FF4E132294644691648A04701
:103CE0004FF080704069416E134888474FF08070F4
:103CF00040691021426C104890474FF08070806CF2
:103D00000021826931209047AFF2E5010A48FEF7B1
:103D100038FB4FF08070806C0168312088474FF08D
:103D20008071896C4868804770BD000000F00040D9
:103D300000C0004000D0004000E000400000014012
:103D4000001001400020014000300140000800F058
:103D5000001800F00050004001040100575B000013
:103D60000118030000700040011C030070B54FF003
:103D70008070406C8169F74888474FF08070406CD4
:103D80008169F54888474FF08070006A816EF3487A
:103D900088474FF08070006A4021426DF04890479C
:103DA0004FF08070006A816EEE4888474FF0807057
:103DB000006A8021426DEA489047FDF7B0FE054653
:103DC0004FF08070406960234FF4613229464469A6
:103DD000E548A0474FF080704069416EE24888474F
:103DE0004FF0807040691021426CDF4890474FF0DF
:103DF0008070806C002182694B209047DB49DA4853
:103E0000FEF7BFFA4FF08070806C01684B20884746
:103E10004FF08071896C4868804770BD70B5012192
:103E2000D348FEF7D2FA05464FF080704069294624
:103E3000026DCF4890474FF080704069C16ACC480E
:103E4000884700B970BD06E04FF080704069416B53
:103E5000C7488847C4B24FF080704069C16AC448FF
:103E600088470028F0D100BFECE770B54FF08070B4
:103E7000406C8169B74888474FF08070406C816919
:103E8000B548401C88474FF08070006A816EB94881
:103E900088474FF08070006A1021426DB04890470B
:103EA0004FF08070006A816EB34888474FF0807091
:103EB000006A2021426DAA489047FDF730FE054672
:103EC0004FF08070406960234FF4E1322946446925
:103ED000A748A0474FF080704069416EA4488847CA
:103EE0004FF0807040691021426CA14890474FF01C
:103EF0008070806C002182694C209047AFF2E30112
:103F00009B48FEF73EFA4FF08070806C01684C20B1
:103F100088474FF08071896C4868804770BD70B5E4
:103F200001219648FEF751FA05464FF0807040692E
:103F30002946026D914890474FF080704069C16AF0
:103F40008E48884700B970BD06E04FF08070406928
:103F5000416B8A488847C4B24FF080704069C16A9B
:103F6000864888470028F0D100BFECE770B54FF0D5
:103F70008070406C81697748801C88474FF0807062
:103F8000406C81697448801C88474FF08070006ADB
:103F9000816E7B4888474FF08070006A1021426D27
:103FA000784890474FF08070006A816E7648884765
:103FB0004FF08070006A2021426D72489047FDF7F3
:103FC000AEFD05464FF08070406960234FF4E1324A
:103FD000294644696948A0474FF080704069416EA6
:103FE000664888474FF0807040691021426C6348F2
:103FF00090474FF08070806C002182694D2090477F
:10400000AFF2E5015D48FEF7BCF94FF08070806CBF
:1040100001684D2088474FF08071896C486880475F
:1040200070BD70B501215948FEF7CFF905464FF034
:10403000807040692946026D544890474FF0807067
:104040004069C16A5148884700B970BD06E04FF029
:1040500080704069416B4D488847C4B24FF0807012
:104060004069C16A494888470028F0D100BFECE7A1
:1040700070B54FF08070406C81693648401C8847AD
:104080004FF08070406C81693348C01C88474FF006
:104090008070006A816E3E4888474FF08070006AE9
:1040A0001021426D3B4890474FF08070006A816E4E
:1040B000394888474FF08070006A2021426D3548AA
:1040C0009047FDF72CFD05464FF080704069602356
:1040D0004FF4E132294644692C48A0474FF08070E4
:1040E0004069416E294888474FF08070406910212F
:1040F000426C264890474FF08070806C00218269A6
:104100004E209047AFF2E5012048FEF73AF94FF014
:104110008070806C01684E2088474FF08071896CF8
:104120004868804770BD70B501211C48FEF74DF905
:1041300005464FF0807040692946026D1748904748
:104140004FF080704069C16A1448884700B970BD5B
:104150002DE00000020800F0031800F00118020032
:1041600000600040011C020000F00040575A0000AF
:104170000000014001100200011402000010014083
:10418000011004000040024001140400002001401E
:1041900001100300007000400114030000300140D2
:1041A0004FF080704069416BFE488847C4B24FF0C1
:1041B00080704069C16AFB4888470028F0D100BF81
:1041C000C5E770B54FF08070406C8169F64888474C
:1041D0004FF08070406C8169F44888474FF08070E0
:1041E000006A816EF24888474FF08070006A0121B2
:1041F000426DF04890474FF08070006A816EEE4843
:1042000088474FF08070006A0221426DE94890476C
:10421000FDF785FC05464FF08070406960234FF440
:10422000E13229464469DF48A0474FF08070406979
:10423000416EDC4888474FF0807040691021426C25
:10424000D84890474FF08070806C002182694F20E1
:104250009047AFF22D11D348FEF793F84FF08070DE
:10426000806C01684F2088474FF08071896C4868E6
:10427000804770BD70B50121D048FEF7A6F805460D
:104280002946CE48FEF7A7F8CC48FEF73AF800B921
:1042900070BD03E0C948FEF740F8C4B2C748FEF756
:1042A00030F80028F6D100BFF2E710B5BE48001F75
:1042B000FDF7D8F8BD48C01FFDF7D4F80120FCF782
:1042C000C1FB01214FF04020FCF72FFB40F20140E1
:1042D000FCF7B8FB02214FF04020FCF726FBFDF76E
:1042E0001EFC044660234FF4E1322146B348FDF73B
:1042F00075FFB248FDF7B3FF1021B048FEF75DF837
:1043000000211520FCF72AFCAFF29701AB48FEF71D
:1043100038F81520FCF744FCFCF7D6FB10BD70B54F
:104320000121A748FEF751F805462946A448FEF7A3
:1043300052F8A348FDF7E5FF00B970BD03E0A048BF
:10434000FDF7EBFFC4B29E48FDF7DBFF0028F6D176
:1043500000BFF2E710B59448C01EFDF783F89348FC
:10436000801FFDF77FF84FF00110FCF76BFB012178
:104370009448FCF7DAFA9448FCF764FB0221914870
:10438000FCF7D3FAFDF7CBFB044660234FF4E13290
:1043900021468B48FDF722FF8948FDF760FF102179
:1043A0008748FEF70AF800211620FCF7D7FBAFF28A
:1043B00091018348FDF7E5FF1620FCF7F1FBFCF7C0
:1043C00083FB10BD70B501218048FDF7FEFF054657
:1043D00029467E48FDF7FFFF7C48FDF792FF00B9B4
:1043E00070BD03E07948FDF798FFC4B27748FDF748
:1043F00088FF0028F6D100BFF2E710B56A48401EDA
:10440000FDF730F86948401FFDF72CF87048FCF7BD
:1044100019FB40216F48FCF788FA6F48FCF712FB44
:1044200080216C48FCF781FAFDF779FB0446602394
:104430004FF4E13221466548FDF7D0FE6348FDF7B1
:104440000EFF10216148FDF7B8FF00213120FCF775
:1044500085FBAFF28F015D48FDF793FF3120FCF73C
:104460009FFBFCF731FB10BD10B54F48801EFCF7D9
:10447000F9FF4E48001FFCF7F5FF5848FCF7E2FA39
:1044800040215748FCF751FA5648FCF7DBFA8021E7
:104490005348FCF74AFAFDF742FB044660234FF409
:1044A000165221465048FDF799FE4F48FDF7D7FEBA
:1044B00010214D48FDF781FF00214B20FCF74EFBFA
:1044C000AFF24F214848FDF75CFF4B20FCF768FB3B
:1044D000FCF7FAFA10BD10B53348801EFCF7C2FF96
:1044E0003248C01EFCF7BEFF4048FCF7ABFA102173
:1044F0003B48FCF71AFA3E48FCF7A4FA202138485A
:10450000FCF713FAFDF70BFB044660234FF4E1328E
:1045100021463848FDF762FE3648FDF7A0FE10211F
:104520003448FDF74AFF00214C20FCF717FBAFF29F
:10453000BB213048FDF725FF4C20FCF731FBFCF791
:10454000C3FA10BD10B51848FCF78CFF1748801E41
:10455000FCF788FF2848FCF775FA10211548FCF78E
:10456000E4F92648FCF76EFA20211248FCF7DDF941
:10457000FDF7D5FA044660234FF4E1322146204886
:10458000FDF72CFE1E48FDF76AFE10211C48FDF7C2
:1045900014FF00214D20FCF7E1FAAFF22731184853
:1045A00030E0000000300140040800F0071800F07F
:1045B00001000400004002400104040000C000406B
:1045C00000D00040005000400104010000E0004025
:1045D0000118030000700040011C030001180200D4
:1045E00000600040011C020000F0004001100200C9
:1045F0000114020000000140011004000114040035
:1046000000100140FDF7BDFE4D20FCF7C9FAFCF794
:104610005BFA10BD10B57948FCF724FF7848FCF729
:1046200021FF7848FCF70EFA10217748FCF77DF956
:104630007648FCF707FA20217348FCF776F9FDF776
:104640006EFA044660234FF4E13221467048FDF7CC
:10465000C5FD6F48FDF703FE10216D48FDF7ADFE67
:1046600000214E20FCF77AFAAFF2F7316848FDF7E7
:1046700088FE4E20FCF794FAFCF726FA10BD10B520
:104680005E48401CFCF7EEFE5D48401CFCF7EAFE6D
:104690006048FCF7D7F901215F48FCF746F95F480D
:1046A000FCF7D0F902215C48FCF73FF9FDF737FA37
:1046B000044660234FF4E13221465948FDF78EFD50
:1046C0005748FDF7CCFD10215548FDF776FE002137
:1046D0004F20FCF743FAAFF263415148FDF751FE1A
:1046E0004F20FCF75DFAFCF7EFF910BD70B5012122
:1046F0004C48FDF76AFE054629464A48FDF76BFE21
:104700004848FDF7FEFD00B970BD03E04548FDF7E0
:1047100004FEC4B24348FDF7F4FD0028F6D100BF03
:10472000F2E770B501214048FDF74FFE05462946E6
:104730003D48FDF750FE3C48FDF7E3FD00B970BD74
:1047400003E03948FDF7E9FDC4B23748FDF7D9FD6C
:104750000028F6D100BFF2E770B501213348FDF71C
:1047600034FE054629463148FDF735FE2F48FDF752
:10477000C8FD00B970BD03E02C48FDF7CEFDC4B202
:104780002A48FDF7BEFD0028F6D100BFF2E770B55C
:1047900001211F48FDF719FE054629461C48FDF773
:1047A0001AFE1B48FDF7ADFD00B970BD03E01848C7
:1047B000FDF7B3FDC4B21648FDF7A3FD0028F6D1FE
:1047C00000BFF2E770B501211548FDF7FEFD054673
:1047D00029461348FDF7FFFD1148FDF792FD00B98A
:1047E00070BD03E00E48FDF798FDC4B20C48FDF71C
:1047F00088FD0028F6D100BFF2E70000030800F0B2
:10480000061800F0011003000070004001140300BE
:1048100000200140010004000040024001040400A7
:104820000030014000F00040000001400010014055
:1048300010B54FF08070406C81692F4888474FF069
:104840008070C06B2221C2682C489047FDF767F941
:104850006421B0FBF1F44FF08070C06B2246FF2161
:10486000836B264898474FF08070806C0168232046
:1048700088474FF08070C06B0121C26C1F48904781
:104880001F4AFF211D48FDF713FC4FF08071896C12
:10489000486880474FF08070C06BFF21426817481E
:1048A00090474FF08070806CA02182692320904750
:1048B00010BD10B5044694ED010A84ED000A03F022
:1048C000DEF900EE100AB8EE400ADFED0E0A80EEC7
:1048D000201A84ED011A94ED010AD4ED000A30EE9D
:1048E000600A84ED020A94ED020ABCEEC00A10EEE2
:1048F000100AA08110BD0000000400F00000034079
:10490000E35D000000007A4410B50020FDF7CBF90C
:104910007F48FCF7A7FD7F48FCF7A4FD7D48401FBA
:10492000FCF7A0FD04217C48FBF7C3FF08217A486F
:10493000FBF7BFFF40214FF04020FBF7BAFF80217B
:104940004FF04020FBF7B5FF7448FCF77BF8744844
:10495000FCF778F841F60500FCF774F841F60540DD
:10496000FCF770F80222D1016E48FCF743FA0222EC
:1049700080216C48FCF73EFA4FF47A424FF4807184
:104980006848FCF74CFA4FF47A4280216548FCF7FE
:1049900046FA012240216348FCF79DFA012280215A
:1049A0006048FCF798FA012204215E48FCF793FA6C
:1049B000012208215B48FCF78EFA4FF480715948B8
:1049C000FCF744FA80215748FCF740FA10BD2DE966
:1049D000F04781460E461746C42E1ED008DC402EF6
:1049E0000FD0412E10D0822E11D0832E23D111E072
:1049F000C52E15D0B6F5837F15D0A6F20710D0B915
:104A000015E04024012516E04024022513E080240F
:104A1000042510E0802408250DE0C02410250AE0BC
:104A2000C024202507E04FF48074402503E04FF4B4
:104A30008074802500BF00BF4FF47A5007FB00F858
:104A4000424621464846FCF7EAF9012229464846F3
:104A5000FCF741FA21464846FCF7F8F9BDE8F08733
:104A60002DE9F0412DED028B07460E46B0EE408A4F
:104A7000C42E1ED008DC402E0FD0412E10D0822E26
:104A800011D0832E23D111E0C52E15D0B6F5837F2A
:104A900015D0A6F20710D0B915E04024012516E084
:104AA0004024022513E08024042510E080240825FA
:104AB0000DE0C02410250AE0C024202507E04FF4B3
:104AC0008074402503E04FF48074802500BF00BF50
:104AD00021463846FCF7AEF900EE100AB8EE400A5F
:104AE00020EE080ABCEEC00A10EE108A424631469B
:104AF0003846FCF7B5F9012229463846FCF7EBF9B0
:104B000021463846FCF7A2F9BDEC028BBDE8F081E6
:104B1000014000F0050800F00050024005080500C3
:104B2000050C05000090024010B501212C48FBF750
:104B300094FD044621462A48FBF797FD04F0400007
:104B4000402809D1322003F0BFF840212448FBF768
:104B5000ABFD322003F0B8F810BD10B52148FCF7CA
:104B600081FC002240211E48FBF7CCFB0A230122D6
:104B700040211B48FBF753FC002240211848FBF75B
:104B8000F1FBAFF25B011648FBF772FDE021132049
:104B9000FBF7E4FF40211248FBF753FD1320FBF71E
:104BA000FFFFFBF791FF10BD10B50E48801CFCF70E
:104BB00059FC002210210C48FBF7A4FB0A23012218
:104BC00010210948FBF72BFC002201210648FBF7C6
:104BD00099FB0A23012211460348FBF720FC10BD74
:104BE00000700040030800F00050024010B5FB4880
:104BF000FCF738FCF948801CFCF734FCF748801EB1
:104C0000FCF730FCF548401EFCF72CFC00BFF348D5
:104C1000FCF7ABFB0028FAD000BFF048801CFCF783
:104C2000A4FB0028F9D000BFEC48801EFCF79DFBD8
:104C30000028F9D000BFE948401EFCF796FB002889
:104C4000F9D01021E648FBF7BCFD2021E448FBF732
:104C5000B8FD0221E348FBF7B4FD0421E148FBF76E
:104C6000B0FD2021E048FBF7ACFD1021DE48FBF74A
:104C7000A8FD0121DD48FBF7A4FD0221DB48FBF77D
:104C8000A0FD10BD70B5DA48FCF7ECFBD848401C1D
:104C9000FCF7E8FB3221D748FDF706F93221D64868
:104CA000FDF702F9FCF73BFF6421B0FBF1F0441E75
:104CB00000232246CF48FDF7B8F9FCF730FF642106
:104CC000B0FBF1F0441E00232246CB48FDF7ADF9BE
:104CD0000121C848FDF70EFA0121C748FDF70AFA7D
:104CE000C64AFF21C348FDF7E3F9C54AFF21C24880
:104CF000FDF7DEF900217420FBF730FF002176205C
:104D0000FBF72CFF7420FBF74BFF7620FBF748FFE7
:104D1000FBF7DAFEFF21B748FDF7B8F8FF21B648E8
:104D2000FDF7B4F8B748FCF79DFBB648401CFCF70C
:104D300099FBAA48FCF796FBA848401CFCF792FB9D
:104D4000B148FBF77FFE4021A748FBF7DFFDAF48E6
:104D5000FBF778FE0121AE48FBF7D8FD0222402187
:104D6000A148FBF7CFFA02220121A948FBF7CAFAB2
:104D70000A23012240219C48FBF751FB0A23012210
:104D80001146A348FBF74BFBA249A348FDF78CF85B
:104D9000A049A248FDF788F80022FF219E48FDF7B0
:104DA000D6F80022FF219D48FDF7D1F8FBF78CFED5
:104DB00000213320FBF7D2FE00215620FBF7CEFE68
:104DC00004219548FDF796F904219448FDF792F9DE
:104DD0003320FBF7E5FEFF218F48FDF757F85620FB
:104DE000FBF7DEFEFF218D48FDF750F870BD10B5D2
:104DF0002DED028BF0EE408A9FED890AC8EE800A05
:104E0000B0EE608AB5EEC08AF1EE10FA21DB102216
:104E100011467348FBF758FC002220217048FBF72D
:104E200053FC002202216F48FBF74EFC042211467E
:104E30006C48FBF749FCB0EE480A4FF4837179489F
:104E4000FFF70EFEB0EE480A83217648FFF708FE12
:104E500020E0002210216248FBF736FC2022114698
:104E60005F48FBF731FC022211465E48FBF72CFC41
:104E7000002204215B48FBF727FCB1EE480A4FF4FF
:104E800083716848FFF7ECFDB1EE480A832165485D
:104E9000FFF7E6FDBDEC028B10BD10B52DED028BCA
:104EA000F0EE408A9FED5E0AC8EE800AB0EE608A9E
:104EB000B5EEC08AF1EE10FA21DB002210214A483B
:104EC000FBF702FC202211464748FBF7FDFB0022BE
:104ED00001214648FBF7F8FB022211464348FBF745
:104EE000F3FBB0EE480A40F207114E48FFF7B8FD59
:104EF000B0EE480A82214B48FFF7B2FD20E01022B5
:104F000011463948FBF7E0FB002220213648FBF729
:104F1000DBFB012211463548FBF7D6FB00220221BC
:104F20003248FBF7D1FBB1EE480A40F207113D4889
:104F3000FFF796FDB1EE480A82213A48FFF790FD4F
:104F4000BDEC028B10BD10B52DED028BB0EE408A8A
:104F5000F0EE608A344880ED008A3448C0ED008A63
:104F6000334890ED000A304800F042F9314880EDB6
:104F7000000A314890ED000A2C4800F039F92F481A
:104F800080ED000A2B4890ED000ADFED2D0AB4EE0B
:104F9000E00AF1EE10FA04DD9FED290A80ED000A27
:104FA0000DE0244890ED000ADFED260AB4EEE00A99
:104FB000F1EE10FA03D29FED230A80ED000A1F489C
:104FC00090ED000ADFED1E0AB4EEE00AF1EE10FAF1
:104FD0003ADD9FED1B0A80ED000A43E0050800F072
:104FE000007002400040024000500240007000404B
:104FF000035C00F000D0044000E004409B79000016
:10500000997A0000030400F0071805000700060065
:1050100000600240130000040030034000400340E1
:105020000000C842009002406C0A0020940A002050
:105030005400002000000020580000200400002040
:105040000000B4420000B4C2084890ED000A5FEDD1
:10505000030AB4EEE00AF1EE10FA03D21FED070ADC
:1050600080ED000ABDEC028B10BD000004000020A2
:105070008049087070478049087070477F49087000
:1050800070479FED7F0A7F4880ED010A9FED7C0A03
:1050900080ED080A9FED7A0A80ED070A9FED7A0AF3
:1050A00080ED060A9FED790A80ED050A9FED740AEE
:1050B00080ED020A9FED720A80ED040A9FED700AEE
:1050C00080ED000A9FED6E0A80ED030A9FED6C0AE9
:1050D00080ED090A9FED6A0A6D4880ED010A9FED97
:1050E000680A80ED080A9FED660A80ED070AB1EEB6
:1050F000000A80ED060A9FED670A80ED050A9FED24
:10510000600A80ED020A9FED5E0A80ED040A9FEDC1
:105110005C0A80ED000A9FED5A0A5A4880ED030AA6
:105120009FED570A5C4880ED010A9FED550A80ED1E
:10513000080A5248007800EE100AB8EE400A5648B5
:1051400080ED070A4C48007800EE100AB8EE400ADD
:10515000514880ED060ABAEE040A80ED050A9FED7B
:10516000480A80ED020A9FED460A80ED040A9FED91
:10517000440A80ED000A7047F0EE400AC0ED080ACC
:1051800090ED000A90ED081A30EE410A80ED010A18
:1051900090ED050A90ED011A20EE010A80ED080A53
:1051A00090ED080A7047F0EE400AC0ED080A90ED55
:1051B000000A90ED081A30EE410A80ED010A90EDE8
:1051C000040A90ED011A30EE010A80ED040A90ED18
:1051D000050A90ED011A20EE010A90ED061AD0EDB5
:1051E000041A01EE210A80ED080A90ED080A7047C2
:1051F000F0EE400AC0ED080A90ED000A90ED081AA2
:1052000030EE410A80ED010A90ED040A90ED011A9A
:1052100030EE010A80ED040A90ED050A90ED011AC6
:1052200020EE010A90ED061AD0ED041A01EE210AD3
:1052300090ED031AD0ED011A31EE211AD0ED021AC9
:10524000B0EE002A02EE611AD0ED071A01EE810AD3
:1052500090ED091A30EE010A80ED090A90ED020A7C
:1052600080ED030A90ED010A80ED020A90ED090A33
:1052700070470000140000201500002016000020D8
:10528000000000006C0A002000007042000048424C
:10529000940A00200000D842BC0A002010B516482D
:1052A000FCF7E0F81448401DFCF7DCF81248801DBC
:1052B000FCF7D8F8002280211048FBF723F80022E1
:1052C0000C210F48FBF71EF800228C210D48FBF73C
:1052D00019F80C23022219460948FBF7A0F80C2301
:1052E00002228C210748FBF79AF80C230222802126
:1052F0000248FBF794F810BD010800F0007002406E
:10530000005000400060024085B000204AE000EB01
:105310008001F74A32F82110F1B3F6490988491C97
:10532000F44A1180BDF8001000EB8002F04B33F816
:105330002220114409B2ADF80010BDF8021000EBB4
:10534000800203EB82025288114489B2ADF8021048
:1053500000EB800203EB8202019952681144019133
:105360009DF8081000EB800203EB8202127A1144D0
:10537000C9B28DF8081000EB800203EB820203999A
:10538000D26811440391BDF8101000EB800203EBCA
:105390008202128A114400E002E009B2ADF8101056
:1053A000411CC8B20C28B2DBD249098800293AD086
:1053B000BDF90010CF4A128891FBF2F1CE4A11805C
:1053C000BDF80210CB4A128891FBF2F1CB4A118052
:1053D000C84A12880199B1FBF2F1C94A11609DF8DF
:1053E0000810C44A128891FBF2F1C64A1170C14AF2
:1053F00012880399B1FBF2F1C34A1160BDF9101094
:10540000BC4A128891FBF2F1C04A11800021ADF82C
:105410000010ADF8021001918DF808100391ADF85D
:105420001010B44A118005B0704710B50446B84852
:10543000007804280BDAAA2C05D1B5480078401C66
:10544000B3490870CAE00020B1490870C6E0B0480E
:1054500000780A286FDAAE48007803286BDDAC4884
:105460000078001F062867D2DFE800F003156D7F83
:10547000919E54B9A6480078401CA5490870A548DB
:1054800000782044A3490870A0E00020A0490870DB
:10549000A049087000BF022C0DD102209E4908705F
:1054A0009B480078401C9A4908709A48007820442C
:1054B000984908708AE00D2C0DD10D20964908708E
:1054C00093480078401C9249087092480078204424
:1054D000904908707AE00F2C0DD10F208E4908708A
:1054E0008B480078401C8A4908708A48007820441C
:1054F000884908706AE0102C0DD110208649087088
:1055000083480078401C8249087082480078204413
:10551000804908705AE0142C0FD114207E4908707D
:105520007B480078401C7A4908707A48007820440B
:10553000784908704AE04AE047E000207449087062
:105540007449087000BF54B971480078401C704914
:1055500008707048007820446E49087036E00020DA
:105560006B4908706B49087000BF54B968480078EF
:10557000401C6749087067480078204465490870F6
:1055800024E00020624908706249087000BF634847
:1055900004705F480078401C5D4908705D480078E1
:1055A00020445C49087011E05C48007800EB04205E
:1055B0005A49087056480078401C554908705548AB
:1055C000007820445349087000E000BF06E05048CE
:1055D00000780A2802D10020514908704E4800780E
:1055E00002287DD14E4800780028FAD1484800783A
:1055F000092875DD46480078BE2872DA44480078EC
:105600000A380F2190FBF1F201FB120045490870A6
:10561000084600780F286AD2DFE800F0081A3649F9
:10562000889BB8D5F9F7F6F5F4F3F2003E48007818
:1056300000EB80002E4921F82040364800782044B5
:105640003449087032480078401C3149087092E1B2
:105650003548007800EB8000254931F8200000EB48
:10566000042000B23049097801EB8101204A22F878
:1056700021002848007820442649087024480078F2
:10568000401C2349087076E12748007800EB800031
:10569000174901EB800044801E48007820441D49D2
:1056A00008701B480078401C1949087063E11E48C7
:1056B000007800EB80000E4901EB8000408800EB91
:1056C00004201949097801EB8101094A02EB8101A3
:1056D00048801048007820440E4908700C4801E0CA
:1056E000B8E149E10078401C0949087043E141E113
:1056F000AC0B002034000020B0000020B2000020DD
:10570000B8000020AE000020BC000020B400002043
:105710002400002025000020270000202800002071
:10572000300000203100002026000020E4480078EE
:1057300000EB8000E34901EB80004460E248007820
:105740002044E1490870E1480078401CDF490870B6
:1057500011E1DB48007800EB8000DA4901EB8000C2
:10576000406800EB0420D649097801EB8101D54A55
:1057700002EB81014860D44800782044D249087087
:10578000D2480078401CD1490870F4E0CC48007839
:1057900000EB8000CB4901EB8000406800EB044047
:1057A000C749097801EB8101C64A02EB81014860D3
:1057B000C54800782044C4490870C4480078401C9B
:1057C000C2490870D7E0BE48007800EB8000BD49B0
:1057D00001EB8000406800EB0460B949097801EBF7
:1057E0008101B84A02EB81014860B7480078204443
:1057F000B5490870B5480078401CB4490870BAE053
:1058000095E081E063E045E027E013E0FFE7AC4886
:10581000007800EB8000AB4901EB80000472AA48DD
:1058200000782044A8490870A8480078401CA7497F
:105830000870A0E0A248007800EB8000A14901EBCD
:105840008000C460A048007820449F4908709F48A9
:105850000078401C9D4908708DE09948007800EB65
:105860008000984901EB8000C06800EB0420944957
:10587000097801EB8101934A02EB8101C8609248EB
:10588000007820449049087090480078401C8F4967
:10589000087070E08A48007800EB8000894901EBCD
:1058A0008000C06800EB04408549097801EB810164
:1058B000844A02EB8101C860834800782044824911
:1058C000087082480078401C8049087053E07C488A
:1058D000007800EB80007B4901EB8000C06800EBA2
:1058E00004607749097801EB8101764A02EB810176
:1058F000C860754800782044734908707348007880
:10590000401C7249087036E06D48007800EB80005A
:105910006C4901EB800004826B48007820446A499E
:1059200008706A480078401C6849087023E06448A1
:10593000007800EB8000634901EB8000008A00EBF7
:10594000042000B25E49097801EB81015D4A02EB57
:10595000810108825C48007820445B4908705B48FC
:105960000078401C5949087055480078401C54493B
:10597000087000E000BF00BF54480078BE280CD17A
:105980005348046051480078401C504908704E4804
:10599000007820444C4908705CE04C480078BF28EF
:1059A00010D14B48006800EB042049490860474883
:1059B0000078401C4549087043480078204442491B
:1059C000087047E041480078C02810D1404800687E
:1059D00000EB04403E4908603C480078401C3B49CD
:1059E00008703948007820443749087032E0374859
:1059F0000078C12810D13648006800EB04603449B3
:105A0000086032480078401C304908702E48007801
:105A100020442D4908701DE02C480078C22819D177
:105A200029480078844206D1FFF76EFC2948008897
:105A3000401C284908802348008827490880002006
:105A4000214908702149087001202449087000206C
:105A50001B49087010BD70B501212148FCF7B5FC49
:105A600005464FF0807040692946026D1C489047FA
:105A700009E04FF080704069416B19488847C4B213
:105A80002046FFF7D2FC4FF080704069C16A14488D
:105A900088470028EDD170BD10B504462146114855
:105AA00002F03CF908B1012010BD0020FCE710B560
:105AB000C8210C4802F027F900200B49088010BDCE
:105AC00026000020AC0B0020250000202400002030
:105AD0002C000020AC000020B0000020300000208E
