:020000040000FA
:10000000301000206D020000810200008302000019
:10001000850200008502000085020000000000004B
:100020000000000000000000000000008502000049
:10003000850200000000000085020000850200002B
:100040008502000085020000850200008502000094
:100050008502000085020000850200008502000084
:100060008502000085020000850200008502000074
:100070008502000085020000850200008502000064
:100080008502000085020000850200008502000054
:100090008502000085020000850200008502000044
:1000A0008502000085020000850200008502000034
:1000B0008502000085020000850200008502000024
:1000C0008502000085020000850200008502000014
:1000D0008502000085020000850200008502000004
:1000E000850200008502000000000000850200007B
:1000F00085020000850200008502000085020000E4
:1001000085020000850200008502000085020000D3
:1001100000000000000000008502000085020000D1
:1001200085020000850200008502000085020000B3
:1001300085020000850200008502000085020000A3
:1001400000000000000000000000000000000000AF
:100150008502000085020000850200008502000083
:10016000000000000000000000000000000000008F
:10017000000000000000000000000000000000007F
:10018000000000000000000000000000000000006F
:10019000000000000000000000000000000000005F
:1001A000000000000000000000000000000000004F
:1001B0008502000085020000850200008502000023
:1001C0008502000085020000850200008502000013
:1001D0008502000085020000850200008502000003
:1001E000850200008502000085020000000000007A
:1001F000000000008502000085020000850200006A
:1002000085020000850200000000000000000000E0
:1002100085020000850200008502000085020000C2
:1002200085020000850200008502000085020000B2
:1002300085020000850200008502000085020000A2
:100240008502000085020000850200008502000092
:100250008502000085020000850200008502000082
:100260008502000085020000850200004EF68850DD
:10027000CEF20000016841F47001016000F004B8A2
:10028000FEE7FEE7FEE70000DFF80CD007F0A0FC79
:1002900000480047255E000030100020EFF310807A
:1002A00072B67047EFF310807047EFF3108062B6BC
:1002B000704730BF704780F311887047EFF31180AB
:1002C000704700000138FDD17047000070B504464A
:1002D000E10901208840C5430A20FFF7F3FF03200E
:1002E000D14908600A20FFF7EDFFD048C0F8C0529E
:1002F0000A20FFF7E7FF0020CB4908600A20FFF73C
:10030000E1FF70BD10B50A20FFF7DCFF0320C649EE
:1003100008600A20FFF7D6FF0020C449C1F8C002D8
:100320000A20FFF7CFFF0020BF4908600A20FFF72F
:10033000C9FF10BD00BFBE48806900F00100002861
:10034000F9D1704710B50220FFF7BCFFFFF7F2FFAD
:10035000B748C46904F00C0080B1B64801F00BFA4C
:100360000220FFF7AFFFFFF7E5FFB148C46904F0D3
:100370000C0008B1022010BD0120FCE70020FAE7C4
:10038000AB4800680004800B7047A9480068C0F3C0
:100390000A40704710B58B09A54C6360C1F3830315
:1003A000A36092080DE0A24B5B690360001D521E22
:1003B0003AB19F4B9B6823B99D4B5B685B1C9C4C7F
:1003C0006360002AEFD110BD2DE9F04107460E46CB
:1003D000144600BF9648856905F001000028F9D150
:1003E000B00993494860C6F383008860A40835E0EB
:1003F00091480068914908409149884206D18E4849
:10040000006880B210B93046FFF760FF884938684D
:10041000486100BF8648856905F001000028F9D1D0
:1004200005F4887078B1844800688449084084499C
:10043000884205D18048006880B208B9FFF762FFA2
:100440002846BDE8F0813F1D641E3CB178488068B5
:1004500020B977484068401C75494860002CC7D1D6
:1004600075480068754908407549884205D1724849
:10047000006880B208B9FFF745FF6D488069E0E782
:1004800070B505460C466C4800686C4908406C49DC
:10049000884206D16848006880B210B92046FFF74C
:1004A00015FFA00962494860C4F3830088600846CC
:1004B0004561806970BD10B55F4800685F490840BC
:1004C0005F49884205D15C48006880B208B9FFF7EF
:1004D00019FF5C48564980310860FFF72BFF5548EB
:1004E00001F049F90220FFF7EDFEFFF723FF504826
:1004F000806910BD01464E484160006B704702465E
:100500004B484260016300BF4948806900F0010028
:100510000028F9D146488069704710B50346444821
:100520004360434C34340BE008682060091D241DEF
:10053000521E00BF3E48806900F001000028F9D13A
:10054000002AF1D13A48806910BD0146384841601F
:100550004FF0FF30364A10621046006A704710B5FF
:100560000346334843604FF0FF30314C2062501E49
:1005700001EB800104E051F804092D4C2062521E69
:10058000002AF8D12A48006A10BD01218140284A7A
:10059000116570472649096C41F00101244A116434
:1005A0002149FC39096941F004011F4AFC3A1161F3
:1005B00070471D49FC39096921F004011A4AFC3AC7
:1005C00011611B49096C21F00101194A116470473E
:1005D000014649B11448FC38406900F0040008B1F4
:1005E000042070470020FCE71148806900F00100FA
:1005F00008B10020F5E70420F3E710B50446042015
:100600000949FC3948610C4800680C4908400C490C
:10061000884205D10848006880B208B9FFF772FE29
:1006200010BD034880697047FCD00F4000E00A40CD
:1006300000F00A40005800F000E00F400000FF709A
:100640000000051001007BE330B50246F84B18248A
:10065000F8480068F84D2840F84DA84201D1F84B01
:1006600000BF002108E053F83100904203D103EBB2
:10067000C100406830BD491CA142F4D30020F9E715
:1006800002F001031BB1D0F800340B4302E0D0F8B4
:1006900000348B43C0F8003402F002031BB1D0F8E1
:1006A00020340B4302E0D0F820348B43C0F82034D0
:1006B000704730B5024601208840C1B2D2F80034FC
:1006C000D2F8204403EA010008B1012000E0002034
:1006D00004EA01050DB1022500E00025284330BDE4
:1006E00002F001031BB1D0F808340B4302E0D0F84C
:1006F00008348B43C0F8083402F002031BB1D0F871
:1007000004340B4302E0D0F804348B43C0F80434C3
:1007100002F004031BB1D0F80C340B4302E0D0F814
:100720000C348B43C0F80C3402F4803323B1D0F87E
:10073000383543F0010303E0D0F8383523F00103E6
:10074000C0F838357047F0B5024601208840C1B284
:10075000D2F80834D2F80444D2F80C64D2F83855F0
:1007600003EA010008B1012000E0002004EA0107CB
:100770000FB1022700E00027384306EA01070FB156
:10078000042700E00027384305F00107384310B183
:100790004FF48030F0BD0020FCE7F0B502F0010519
:1007A0001DB1D0F800550D4302E0D0F800558D433F
:1007B000C0F8005502F002051DB1D0F804550D43F4
:1007C00002E0D0F804558D43C0F8045502F004054A
:1007D0001DB1D0F808550D4302E0D0F808558D43FF
:1007E000C0F8085502F008051DB1D0F818550D43A2
:1007F00002E0D0F818558D43C0F8185502F01005E6
:100800001DB1D0F83C550D4302E0D0F83C558D4366
:10081000C0F83C55002416E00125A5400D4085B1E7
:10082000D0F8C45F67000326BE40B543C0F8C45F7C
:10083000D0F8C45F6700C2F34116BE403543C0F82C
:10084000C45F651CECB2082CE6DB03F001051DB1AA
:10085000D0F80C550D4302E0D0F80C558D43C0F88C
:100860000C5503F002051DB1D0F810550D4302E000
:10087000D0F810558D43C0F8105503F004051DB194
:10088000D0F814550D4302E0D0F814558D43C0F84C
:10089000145503F008051DB1D0F81C550D4302E0B6
:1008A000D0F81C558D43C0F81C5503F400751DB1DC
:1008B000D0F844550D4302E0D0F844558D43C0F8BC
:1008C000445503F440751DB1D0F840550D4302E086
:1008D000D0F840558D43C0F840551BB9D0F8285585
:1008E0000D4302E0D0F828558D43C0F82855F0BDDF
:1008F000F0B514461D4601268E40F1B2D0F80065D1
:100900000E400EB1012600E000263246D0F8046504
:100910000E400EB1022600E000263243D0F80865F2
:100920000E400EB1042600E000263243D0F81865D0
:100930000E400EB1082600E000263243D0F83C6598
:100940000E400EB1102600E000263243D0F8C46FEE
:100950004F00FE4006F0030642EA46122260D0F83D
:100960000C650E400EB1012600E000263346D0F89B
:1009700010650E400EB1022600E000263343D0F889
:1009800014650E400EB1042600E000263343D0F873
:100990001C650E400EB1082600E000263343D0F857
:1009A00040650E404EB1D0F844650E4016B14FF48C
:1009B000007601E04FF4807633432B60F0BDD0F831
:1009C00010240A43C0F810247047D0F810248A433A
:1009D000C0F810247047024611B1D2F818047047CD
:1009E000D2F81404FBE7C0F81C14704770B5044635
:1009F0000D462046FFF728FE06462946304600F001
:100A000031FA304600F08AFA70BD70B504462046CF
:100A1000FFF71AFE0546284600F0BCFA284600F00B
:100A20003BFA70BD0246002000EB81001058704771
:100A3000508D000000E00F400000FF7000000A1021
:100A4000108E0000002303EB8103C250704730B5C5
:100A500004460D46002229462046FFF711FE0023DA
:100A6000012229462046FFF798FE30BD30B50446E6
:100A70000D46022229462046FFF702FE08230422E3
:100A800029462046FFF789FE30BD30B504460D46A5
:100A9000002229462046FFF7F3FD002301222946C4
:100AA0002046FFF77AFE30BD30B504460D460222DF
:100AB00029462046FFF7E4FD082304222946204664
:100AC000FFF76BFE30BD30B504460D4602222946C5
:100AD0002046FFF7D5FD0823042229462046FFF7CC
:100AE0005CFE30BD30B504460D4602222946204644
:100AF000FFF7C6FD0823042229462046FFF74DFED6
:100B000030BD30B504460D46022229462046FFF787
:100B1000B7FD0823012229462046FFF73EFE30BDDF
:100B200030B504460D46002229462046FFF7A8FDB1
:100B30000823012229462046FFF72FFE30BD30B59D
:100B400004460D460823012229462046FFF725FECC
:100B5000012229462046FFF793FD30BD30B50446FB
:100B60000D460923012229462046FFF716FE0122E1
:100B700029462046FFF784FD30BD30B504460D46BA
:100B8000022229462046FFF77BFD09230122294640
:100B90002046FFF702FE30BD30B504460D46022266
:100BA00029462046FFF76CFD0823012229462046EE
:100BB000FFF7F3FD30BD30B504460D46022229464D
:100BC0002046FFF75DFD0823042229462046FFF753
:100BD000E4FD30BD30B504460D46022229462046CC
:100BE000FFF74EFD0823042229462046FFF7D5FDD6
:100BF00030BD30B504460D46002229462046FFF799
:100C00003FFD0023012229462046FFF7C6FD30BDE7
:100C100030B504460D46022229462046FFF730FD36
:100C20000823012229462046FFF7B7FD30BD30B525
:100C300004460D46022229462046FFF721FD0823DF
:100C4000012229462046FFF7A8FD30BD30B50446F5
:100C50000D46022229462046FFF712FD0A230122F3
:100C600029462046FFF799FD30BD30B504460D46B4
:100C7000022229462046FFF703FD082301222946C8
:100C80002046FFF78AFD30BD30B504460D460222EE
:100C900029462046FFF7F4FC082301222946204676
:100CA000FFF77BFD30BD30B504460D4602222946D4
:100CB0002046FFF7E5FC0823012229462046FFF7DE
:100CC0006CFD30BD30B504460D4600222946204655
:100CD000FFF7D6FC0023012229462046FFF75DFDE1
:100CE00030BD30B504460D46022229462046FFF7A6
:100CF000C7FC0823012229462046FFF74EFD30BDE0
:100D000030B504460D46002229462046FFF7B8FCC0
:100D10004FF40273012229462046FFF73EFD30BD05
:100D200030B504460D46002229462046FFF7A8FCB0
:100D30004FF48473012229462046FFF72EFD30BD73
:100D400030B504460D46022229462046FFF798FC9E
:100D50000823012229462046FFF71FFD30BD30B58C
:100D600004460D46022229462046FFF789FC0A2345
:100D7000012229462046FFF710FD30BD30B504465C
:100D80000D46022229462046FFF77AFC082304225A
:100D900029462046FFF701FD30BD30B504460D461B
:100DA000022229462046FFF76BFC08230122294630
:100DB0002046FFF7F2FC30BD014601F5A9607047FF
:100DC00010B50146C1F307401B4BDB6E0124844084
:100DD000234033B1012303EB4003184C54F82300A4
:100DE00003E04300154C54F82300C1F30722D0F868
:100DF0002C350F249440A34301F00F049440234367
:100E0000C0F82C3510BDD0F834250A43C0F834257D
:100E10007047D0F834258A43C0F834257047D0F89D
:100E200030250A43C0F830257047D0F830258A4372
:100E3000C0F830257047000000E00F40D08E000061
:100E400000BFFEE710B5FFF730FA08B1012010BD72
:100E50000020FCE710B5FFF721FA08B1012010BD12
:100E60000020FCE730B50246B64C2468B64DAC42D3
:100E70000ED0B44C2368002005E053F82040B24D5A
:100E800045F82040401C9B28F7D3AF4CAD4D2C605B
:100E9000AD4C44F8221030BDAC49AB4A42F82010AA
:100EA0007047AB4951F82010AA4A1143A54A121DB8
:100EB00011607047A34A121D126802F4E06100201D
:100EC00006E0A34A52F820208A4200D102E0401CEA
:100ED0000828F6D300BF704710B50A4683089E4C19
:100EE00054F8233019688307DC0EFF23A34099438D
:100EF0008307DB0E02FA03F319438308964C54F878
:100F00002330196010BD01468808934A52F820002A
:100F100000688A07D20ED040C0B27047042808D1BA
:100F200088491C31096841F48031864A1C321160BD
:100F30002FE0052808D183491C31096841F40031AC
:100F4000804A1C32116024E0062808D17D491C31FA
:100F5000096841F480217B4A1C32116019E00F2896
:100F600008D14FF0E021096941F002014FF0E02281
:100F700011610EE010280CD3A0F1100101F01F0246
:100F800001219140A0F110025209744B53F8222024
:100F900011607047042808D16A491C31096821F49E
:100FA0008031684A1C3211602FE0052808D165495C
:100FB0001C31096821F40031624A1C32116024E0BE
:100FC000062808D15F491C31096821F480215D4A57
:100FD0001C32116019E00F2808D14FF0E021096997
:100FE00021F002014FF0E02211610EE010280CD335
:100FF000A0F1100101F01F0201219140A0F11002A7
:101000005209574B53F822201160704710B5014622
:101010000020042905D14B4A1C32126802F48030AA
:1010200028E0052905D1474A1C32126802F4003035
:1010300020E0062905D1434A1C32126802F48020C0
:1010400018E00F2905D14FF0E022126902F00200EA
:1010500010E010290ED3A1F1100252093F4B53F8B2
:1010600022201268A1F1100303F01F040123A34002
:1010700002EA030010BD022808D13249091F09689D
:1010800041F000412F4A121F116024E00E2808D1C0
:101090002C49091F096841F080512A4A121F11602A
:1010A00019E00F2808D12749091F096841F080611C
:1010B000244A121F11600EE010280CD3A0F1100179
:1010C00001F01F0201219140A0F110025209254BAD
:1010D00053F82220116070470E2808D11949091FC2
:1010E000096841F00061174A121F116019E00F28CA
:1010F00008D11449091F096841F00071114A121FF3
:1011000011600EE010280CD3A0F1100101F01F02B5
:1011100001219140A0F110025209134B53F82220F3
:101120001160704710B504462046FFF7C4F810BDA3
:1011300010B5FFF7C3F810BDA0F110010B4A116004
:101140007047000008ED00E000040020410E0000A0
:10115000608F00000000FA05808F00001C900000E6
:1011600030900000449000005890000000EF00E034
:1011700010B501440B68F94C234013430B6002F097
:10118000020323B1B0230B621B014B6204E08C23EA
:101190000B6240F60C034B6210BD01440B6803F078
:1011A000020313B153080B6101E0531E0B6170473A
:1011B00002461144086800F0020010B108694000BE
:1011C00070470869401CFBE7425842F00102425058
:1011D0007047425822F001024250704730B5044631
:1011E00021F03F052819056805F0020505B15208F0
:1011F00003699B1A01F001050DB1C36100E0836131
:1012000030BD30B503460A4622F03F05E9180C69A7
:1012100002F001050DB1C86900E08869201A0D6867
:1012200005F0020505B1400030BD10B50144CA62A9
:101230000B638C6A44F001048C6210BD4218926A00
:1012400022F0010243189A627047016070474160C2
:101250007047012A03D183680B43836002E08368EF
:101260008B4383607047012A03D1C3680B43C3607B
:1012700002E0C3688B43C3607047012A03D1436A0D
:101280000B43436202E0436A8B4343627047012A87
:1012900003D103690B43036102E003698B430361DC
:1012A000704710B502465018AD4C031BA04246D003
:1012B00009DCAC4B184468B140281FD0802828D0E6
:1012C000C02868D130E0402B44D0802B4DD0C02BBB
:1012D00061D155E0A4480068A44B1840A44B984243
:1012E00001D11A2010BDA0480068A04B1840A14BA6
:1012F000984201D11A20F5E70020F3E79A480068E8
:101300009A4B18409B4B984201D11B20EAE70020E2
:10131000E8E795480068954B1840964B984201D1F4
:101320001C20DFE70020DDE78F4800688F4B184066
:10133000904B984201D13B20D4E70020D2E78A4865
:1013400000688A4B18408A4B984201D19620C9E721
:101350000020C7E784480068844B1840844B9842BB
:1013600001D19720BEE70020BCE77F4800687F4B93
:1013700018407F4B984201D19820B3E70020B1E795
:1013800079480068794B1840794B984201D19920EF
:10139000A8E70020A6E70020A4E72DE9F0410546D4
:1013A0000E46144631462846FFF77BFF0746214686
:1013B0003846FFF757FD3846FFF7B0FDBDE8F0812E
:1013C00070B504460D4629462046FFF76AFF0646DB
:1013D0003046FFF7DFFD3046FFF75EFD70BD01468A
:1013E00061480068614A1040614A904206D16248F3
:1013F000814201D1192070479A20FCE75A480068C1
:101400005A4A10405B4A904206D15B48814201D162
:101410001920F0E70020EEE70020ECE770B5044665
:101420000D462046FFF7DBFF064629463046FFF70C
:1014300019FD3046FFF772FD70BD70B504462046B9
:10144000FFF7CDFF05462846FFF7A4FD2846FFF726
:1014500023FD70BD10B543185B68134344186360E7
:1014600010BD10B543185B6893434418636010BD0A
:1014700003461944012A01D1C86870478868FCE70F
:101480004318DA60704742690A4342617047426913
:101490008A43426170474FF48031C1617047024610
:1014A000012901D1D06970479069FCE7C16170479B
:1014B00030B54418E263A1F1400400F5006545F839
:1014C000143030BD10B512B94418636301E04418FC
:1014D000A36310BD034612B95818406B70475818E3
:1014E000806BFBE710B503463AB9A1F1400003F564
:1014F000006404EB4000406810BDA1F1400003F51A
:10150000006404EB40008068F6E730B53AB9A1F119
:10151000400400F5006505EB4404636006E0A1F1BA
:10152000400400F5006505EB4404A36030BDD0F82D
:10153000C82F40F207139A430A43C0F8C82F7047D8
:101540000146D1F8C80F00F4807008B90020704738
:10155000D1F8C80F40F207121040F8E70100F8FF79
:1015600040900240C07FFDBF00E00F400000FF70D0
:101570000000051000000A10008002402DE9F04133
:101580000346002001240026002514E004EA010C93
:10159000BCF1000F0DD04FEA400C02FA0CFC4CEAF3
:1015A00006064FEA40084FF0030C0CFA08FC4CEA20
:1015B00005056400401C0828E8D3D3F828C02CEAAD
:1015C000050747EA060CC3F828C0BDE8F081000013
:1015D000024600210AE0F74850F83100904204D357
:1015E000F44800EBC10040687047491C0729F2D35A
:1015F0000020F9E7F0B50146DFF8BCC3DCF860C1B4
:10160000CCF38923DFF8B0C3DCF860C1CCF3090563
:10161000DFF8A4C3DCF864C1CCF3042C0CF10106A0
:10162000DFF894C3DCF864C10CF01F0C0CF1010767
:10163000B1FBF7F15A09A3EB421401FB05F001FBE2
:1016400002FC00EB5C1001FB04FC00EB9C20B0FBF7
:10165000F6F0F0BDD8483C380068401C00027047E6
:10166000D5480068D5490840D549884206D1D248B6
:1016700080680004400900F500607047CE4840389B
:10168000006880B2401CC002F7E7CB480068CB4935
:101690000840CC49884209D1C74840380068C0F3A7
:1016A00002400A30012101FA00F070474FF48060D7
:1016B000FBE70146C1F30720C34A104400F0704025
:1016C00040F00070C1F30722BF4B1A44C2F313026B
:1016D00040EA4210CAB240EA8200006808B1012024
:1016E00070470020FCE70146C1F30720B74A1044C9
:1016F00000F0704040F00070C1F30722B34B1A4471
:10170000C2F3130240EA4210CAB240EA8200006803
:1017100008B1012070470020FCE710B50121C0F39B
:101720000722AB4B1A4402F0704242F00072C0F341
:101730000723A74C2344C3F3130342EA4312C3B263
:1017400042EA8302116010BD10B50021C0F30722E8
:101750009F4B1A4402F0704242F00072C0F307231C
:101760009B4C2344C3F3130342EA4312C3B242EA3D
:101770008302116010BD18B50121C0F30722954BFB
:101780001A4402F0704242F00072C0F30723914CF9
:101790002344C3F3130342EA4312C3B242EA83026F
:1017A00011600021009102E00099491C009100990C
:1017B0001029F9D30021C0F30722864B1A4402F006
:1017C000704242F00072C0F30723824C2344C3F3FB
:1017D000130342EA4312C3B242EA8302116018BD06
:1017E00010B50121C0F307227B4B1A4402F070426E
:1017F00042F00072C0F30723774C2344C3F3130372
:1018000042EA4312C3B242EA8302116010BD10B52E
:101810000021C0F30722704B1A4402F0704242F0DC
:101820000072C0F307236C4C2344C3F3130342EA52
:101830004312C3B242EA8302116010BD10B5012108
:10184000C0F30722654B1A4402F0704242F0007266
:10185000C0F30723614C2344C3F3130342EA43124A
:10186000C3B242EA8302116010BD10B50021C0F37B
:1018700007225A4B1A4402F0704242F00072C0F341
:101880000723564C2344C3F3130342EA4312C3B263
:1018900042EA8302116010BD10B50121C0F3072296
:1018A0004F4B1A4402F0704242F00072C0F307231B
:1018B0004B4C2344C3F3130342EA4312C3B242EA3C
:1018C0008302116010BD10B50021C0F30722444B04
:1018D0001A4402F0704242F00072C0F30723404CF9
:1018E0002344C3F3130342EA4312C3B242EA83021E
:1018F000116010BD30490968304A1140304A9142A8
:101900000ED130B12C49096E41F000612A4A1166AE
:1019100018E02949096E21F00061274A116611E09B
:1019200040B12549B031096841F00051224AC2F85E
:10193000B01007E02049B031096821F000511E4A7B
:10194000C2F8B010704710B5044621462C20FFF7AE
:1019500089FA2C20FFF7E2FA10BD10B52C20FFF712
:1019600019FB2C20FFF798FA10BD1349496D01436C
:10197000114A516570471049496D81430E4A5165BE
:1019800070470D4988657047014611B10A48806D5E
:1019900070470948006DFBE712490860704711481D
:1019A000006870470F490831086070470D480830DB
:1019B00000687047F891000000E00F400000FF70E1
:1019C0000000051000000A1000E30F4000EA0F407D
:1019D00000E90F4000E50F4000E60F4000E70F4030
:1019E00000E80F40B4E10F40FE4908607047FD4930
:1019F000091D08607047FC48FC49086000BFFEE70D
:101A000010B5FEF756FC10BD10B5F848001D006873
:101A100040F00400F549091D0860FEF74AFCF34850
:101A2000001D006820F00400F049091D086010BD89
:101A3000EF48C06D7047EE49C96D8143EC4AD165EE
:101A40007047EB49C86770470146EA48084050B103
:101A500001F00040E34A383A1060E6488138084017
:101A6000E34AC2F85001DF483838016001F40070E1
:101A700088B100BFDB483438006800F440700028AB
:101A8000F8D0D8483438006800F44070B0F5807F52
:101A900001D0002070470120FCE7D2495031086096
:101AA0007047D0485030006870472DE9FE4F05461A
:101AB0008A46CF480068D0490840D049884202D1C0
:101AC0000020BDE8FE8FC5F3841605F0380010280D
:101AD00005D1DFF82C93002700BF152633E005F071
:101AE0003800302804D147F230594FF400172AE06B
:101AF00005F03800382804D14FF400494FF480072E
:101B000021E005F03800D8B91A2E01DC092E01DADF
:101B10000020D6E7BB4850F826904FF4401747F016
:101B20004077B348C06F20F01C000190072E03DB04
:101B3000019840F010000190AD490198C86702E09B
:101B40004FF00009002705F4605000287ED105F011
:101B5000380028B105F03800102801D00020B0E787
:101B6000C5F3026BA848FFF733FDA149C0310860F7
:101B70009F48D0F8B000A54900EA010444F00044B1
:101B80009B48B0300460093E0BEBCB00A04901EB51
:101B9000001000EBC60040689549D1F864118842F6
:101BA0000DD10BEBCB009A4901EB001050F8360039
:101BB00040F400008B4928390968884202D001208E
:101BC000009001E000200090009808B38848B030F1
:101BD000006838438649C1F8B0000BEBCB008C4954
:101BE00001EB001000EBC60040687E492439086014
:101BF0000BEBCB00864901EB001050F83600794919
:101C00002839096801F40001084376492839086039
:101C1000804850F82B005044401EB0FBFAF848466C
:101C2000FFF7E8FCB0FBF8FA5046FFF7D1FC70492B
:101C3000C03108606E48D0F8600100F4000068B15F
:101C40000098012812D16A48B03000E034E0006802
:101C500040F080406649C1F8B00007E0614828388C
:101C6000006840F400006249C1F860014FF4004090
:101C7000029009E05B482038006800F0010000B1E4
:101C800005E00298401E029002980028F2DC00BF96
:101C9000029870B15648B0300468A8F1010038438A
:101CA00040F08050044344F000445148C0F8B04034
:101CB0003CE04FF0000A39E05148FFF789FC4C49FD
:101CC000C03108604A48D0F8600120F4000048495B
:101CD000C1F860010846D0F8B0404F48044044F0D5
:101CE00000444348B0300460BAF1000F02D14FF015
:101CF00000080AE0B9FBFAF8B8F1000F01D0A8F12A
:101D0000010808F10100B9FBF0FA5046FFF760FC4A
:101D10003749C03108603648D0F8B04047EA8820DB
:101D2000044344F000443248B03004605046C8E6F2
:101D30002DE9F04106462E48056E046F45F4006516
:101D400025F4800544F400640566046705F001008D
:101D500010B306F00100F8B966F001000540244810
:101D6000056604F0004038B104F0700030280AD055
:101D700004F07000702806D004F0004040B905F06F
:101D80003000302804D14FF48050FEF79BFA03E076
:101D90004FF40020FEF796FA25F4FE6506F4FE6087
:101DA00005431E4804401D49A13106EA01000443D1
:101DB00006F0080044EAC0040D48056604671020D8
:101DC000FEF780FA25F4005506F40050054324F48C
:101DD000005406F40050044340200549886504F08F
:101DE00000401DE088E10F400400FA050CED00E022
:101DF00000E00F40000100800000FF7000000510AF
:101E00000024F4006C90000040787D0100FC0FE09D
:101E1000D890000030920000FF0300EF8FFFFF7F9B
:101E200018B108460467056602E0B5480566046710
:101E3000B4480540C14306EA0100054324F0FC54C0
:101E400006F0FC50044306F0804040B145F48005A4
:101E500024F48004AC4906EA0100044301E024F0C4
:101E6000804406F4006080B94FF4004706E0A448BF
:101E7000006D00F0400000B102E07F1E002FF6D19F
:101E800000BF25F4006524F400649D4805660467DE
:101E90001020FEF717FABDE8F08170B59848036E80
:101EA000016F01F0004010B101F0700001E003F09B
:101EB0003000202811D003DC38B1102815D10AE0F9
:101EC00030280CD0702810D10CE09048C3F3841651
:101ED00050F826200BE08E4A09E08E4A07E047F2D0
:101EE000305204E04FF4004201E0002070BD00BF1A
:101EF00001F0004010B101F4006028B101F0004091
:101F0000E0B903F40060C8B9834805687C48D0F89C
:101F1000644104F01F00401CC4F30426761C10FB2F
:101F200006F04000B2FBF0F2C5F309005043C5F3E0
:101F30008926564300EB962243F4800303F4800085
:101F400018B301F00040D8B101F0804090B101F029
:101F5000004010B101F4006028B101F0004048B920
:101F600003F4006030B95600C1F38650401CB6FB44
:101F7000F0F20AE0C1F3C550401CB2FBF0F204E0FD
:101F8000C3F3C350401CB2FBF0F21046AEE7624907
:101F90001C39086070472DE9F04107460D46584846
:101FA00000685E4908405E49884208D125F0FC512E
:101FB000781E41EAC05058491C3908602FE07C1E49
:101FC00005F0700030B1102813D0302806D07028EA
:101FD0000ED108E044F44014524E0CE044F40014D6
:101FE00047F2305607E044F480044FF4004602E024
:101FF00000BF474E00BF00BF05F0020008B144F02B
:10200000004405F0804008B144F0804442481C3848
:1020100004603046FFF7DCFA3949C1F8C800BDE872
:10202000F0813749096E21F4F0110143344A1166F9
:1020300070473348006E00F4801008B900207047E4
:102040002F48006E00F4F010F9E733496039096851
:1020500021F4706101432A4AC2F800112E49503917
:10206000096821F470610143C2F8101170472A48D1
:102070006038006800F4706070472149C96E00F054
:102080000F0301229A4011431D4AD16670471C4933
:10209000C96E00F00F0301229A409143184AD1669D
:1020A00070471748006F20F4804015490867704753
:1020B0001348006F40F48040114908677047104989
:1020C000886370470E48006E70470D49096E0143E2
:1020D0000B4A116670470A48406E70470849496EBE
:1020E0008143074A516670474A1ED2B202430A4BE7
:1020F000183B1A607047084928390860704700008B
:1021000000E00F40FEFF3FF8000040406C900000F0
:102110000024F40000093D0060E10F400000FF7062
:102120000000051040787D014FF0E020006940F08C
:1021300005004FF0E021086170474FF0E020006992
:1021400020F001004FF0E0210861704710B504460F
:1021500021460F20FEF786FE4FF0E020006940F098
:1021600002004FF0E021086110BD10B54FF0E020F3
:10217000006920F002004FF0E02108610F20FEF717
:102180008BFE10BD4FF0E020006940F002004FF0E0
:10219000E021086170474FF0E020006920F0020064
:1021A0004FF0E02108617047411E4FF0E02251617D
:1021B00070474FF0E0204069401C70474FF0E0202E
:1021C00080697047F0B503460C46B74D0C26B748FA
:1021D0000068B74F3840B74FB84201D1B64D082616
:1021E00000210DE055F83100984208D105EBC100FF
:1021F0004268B4F57F4F00D1521C1046F0BD491C17
:10220000B142EFD30020F9E7C26840F201130B405E
:102210001A43C2607047C26840F201130B409A43F0
:10222000C2607047C26840F201139A43C2600A0E4E
:1022300002609E4A12689E4B1A409E4B9A4211D1F0
:10224000CAB201F4702342EA131242F400724260EF
:1022500001F47002C1F3072343EA122242F4007230
:10226000826008E0CAB242F400724260C1F3072201
:1022700042F400728260704744F24003194012B188
:10228000C3680B4301E0C3688B43C360704710B55C
:10229000864B1B68864C2340864CA3420AD140F2F1
:1022A00001130B4012B1046F1C4301E0046F9C4307
:1022B000046700BF42F22003194012B1C3680B4308
:1022C00001E0C3688B43C36010BD10B540F60C43FA
:1022D0001940C3688B4302EA01042343C36010BD65
:1022E00040F20223194012B1C3680B4301E0C368F6
:1022F0008B43C3607047CBB24BB122B1436843F00C
:102300004003436003E0436823F04003436001F46B
:102310007F434BB122B1836843F04003836003E005
:10232000836823F0400383607047C16841F0100167
:10233000C1607047C16821F01001C1607047C0F8EA
:10234000C81F70470146D1F8C80F7047CBB203B120
:10235000826301F47F4303B1C26370470246FF29E1
:1023600001D1906B7047D06BFCE7CBB203B1026434
:1023700001F47F4303B1426470470246FF2901D153
:10238000106C7047506CFCE7CBB203B1826201F471
:102390007F4303B1C26270470246FF2901D1906AB0
:1023A0007047D06AFCE7C3628262704730B503466B
:1023B00000BFDA6A9C6ADD6AAA42FAD100200146AF
:1023C0002043114330BD0246FF2901D1906C704774
:1023D000D06CFCE730B5034600BFDA6C9C6CDD6C5A
:1023E000AA42FAD1002001462043114330BDCBB2AE
:1023F00003B1026301F47F4303B1426370470246B5
:10240000FF2901D1106B7047506BFCE743630263F7
:10241000704730B5034600BF5A6B1C6B5D6BAA4218
:10242000FAD1002001462043114330BD2DE9F0418F
:1024300005460E46144631462846FFF7C3FE0746BA
:1024400021463846FEF70EFD3846FEF767FDBDE82B
:10245000F08170B504460D4629462046FFF7B2FECE
:1024600006463046FEF796FD3046FEF715FD70BD78
:1024700082690A438261704782698A438261704738
:10248000024609B1106A7047D069FCE741627047A3
:1024900001617047016770470146086F7047C16668
:1024A00070470146C86E70473892000000E00F4048
:1024B0000000FF7000000A109892000030B502463C
:1024C000C54B0824C5480068C54D2840C54DA842E5
:1024D00001D1C54B00BF002108E053F83100904204
:1024E00003D103EBC100406830BD491CA142F4D3C5
:1024F0000020F9E7C26A22F086020A43C2627047EE
:102500000146C86A00F08600704741EA020343634F
:10251000704710B5436B03F007040C6003F03804F8
:10252000146010BDC16A41F01001C162016B40F23C
:10253000013211430163704700BF816901F0080156
:102540000029FAD1C16A21F01001C162016B40F289
:102550000132914301637047F0B504460E461546BB
:102560001F462046FFF7E8FFB6EB051F05D2206B9C
:1025700040F0200020636D0803E0206B20F0200075
:102580002063F000B0FBF5F0401C4308980960623E
:1025900003F03F00A062E7620020A0612046FFF741
:1025A000C1FFF0BDF0B5446A856A8E00402707FB85
:1025B0000457B6FBF7F61660066B06F0200616B158
:1025C000166876001660C66A06F0EE061E60F0BD5C
:1025D000C16A41F01001C1627047C16A21F0100167
:1025E000C162704721B1026B42F00602026303E050
:1025F000026B42F0020202637047016B21F0060198
:1026000001637047C16A21F0E60141F06E01C162C9
:10261000026B42F0080202637047016B21F008016F
:1026200001637047026B01F440631A430263704711
:10263000026B01F440639A43026370470146086BE2
:1026400000F4406070470146886940F2071210406C
:102650007047026B22F440420A430263704701460E
:10266000086B00F440407047026B22F010020A43EE
:10267000026370470146086B00F010007047014686
:102680008869012222EA10107047014688690122F8
:1026900022EA501070470146886900F0100008B91E
:1026A000086870474FF0FF30FBE7014600BF8869BC
:1026B00000F010000028FAD10868704702469069BF
:1026C00000F0200010B91160012070470020FCE7E5
:1026D00000BF826902F02002002AFAD1016070472F
:1026E00019B1C26A42F0010202E0C26A22F001029C
:1026F000C262704701468869C0F3C000704770B578
:1027000004460D462046FFF7D9FE064629463046C8
:10271000FEF7A8FB3046FEF701FC70BD70B504461D
:102720002046FFF7CBFE05462846FEF733FC284639
:10273000FEF7B2FB70BD826B0A4382637047826B07
:102740008A4382637047024609B1106C7047D06BB0
:10275000FCE741647047826C0A4382647047826C74
:102760008A43826470470146486800F00F00704752
:10277000002141607047C0F8C81F70470146D1F87A
:10278000C80F7047D0F8A41041F40041C0F8A4105D
:102790007047D0F8A41021F40041C0F8A41070478D
:1027A000C0F8A410C0F8A82070470A4600BF83698B
:1027B00003F08803802BFAD1C16A21F0040343F0AF
:1027C0008203C362026000BF836903F08803802B29
:1027D000FAD1C16270470000D892000000E00F40BB
:1027E0000000FF7000000A101893000010B5364872
:1027F000FEF7F6FF80213548FEF7A1F910BD10B5B0
:102800003148FEF7EDFF3048401FFEF7E9FF00BFFB
:102810002D48FEF768FF0028FAD000BF2A48401F65
:10282000FEF761FF0028F9D0C0212848FEF787F99C
:10283000002280212548FEF705F940214FF0402075
:10284000FEF77DF9002240214FF04020FEF7FAF814
:10285000002240211D48FEF7F5F810BD10B51A48BA
:10286000401CFEF7BDFF00BF1748401CFEF73BFFB2
:102870000028F9D002211648FEF761F9022211461C
:102880001348FEF7DFF810BD10B50F48001DFEF726
:10289000A7FF0D48C01CFEF7A3FF00220F210D4823
:1028A000FDF7EEFE002204210B48FDF7E9FE0A23A6
:1028B00001220F210748FDF770FF0A23012204219E
:1028C0000548FDF76AFF10BD050800F00050024002
:1028D000006002400010064000D0034010B50446DE
:1028E000012C06D1102211464FF04020FEF7AAF825
:1028F00005E0002210214FF04020FEF7A3F810BDA4
:1029000010B50446012C06D1202211464FF040207C
:10291000FEF798F805E0002220214FF04020FEF756
:1029200091F810BD70B5002406E0002500E06D1C94
:10293000B5F57A7FFBD3641CB4F57A7FF5D3FE48F6
:10294000FEF74EFF10214FF04020FEF7F8F820214F
:102950004FF04020FEF7F3F80120FFF7BFFF012002
:10296000FFF7CEFF70BD10B50120FFF7C9FF0120B2
:10297000FFF7B4FF0020FFF7C3FF0020FFF7AEFF13
:1029800010BD10B50020FFF7BBFF0120FFF7A6FF29
:102990000120FFF7B5FF10BD70B50546002411E01A
:1029A00080212141294009B1012100E00021084690
:1029B000FFF7A6FF0120FFF791FF0020FFF78EFF32
:1029C000601CC4B2082CEBDB0120FFF787FF00205E
:1029D000FFF784FF70BD10B50446FFF7C4FF7820F1
:1029E000FFF7DAFF0020FFF7D7FF2046FFF7D4FFFD
:1029F000FFF7C7FF10BD70B505460E46FFF7B3FFE2
:102A00007820FFF7C9FF4020FFF7C6FF002404E04D
:102A1000285DFFF7C1FF601CC4B2B442F8DBFFF7CA
:102A2000B0FF70BD70B505460C4645F0B000FFF72D
:102A3000D2FF102141EA1410FFF7CDFF04F00F0080
:102A4000FFF7C9FF70BD10B500240BE00021204640
:102A5000FFF7E8FFB94901EBC4108021FFF7CBFF76
:102A6000601CC4B2082CF1DB10BD00200CE000217A
:102A700006E00022B14B03EBC0135A544A1CD1B2FA
:102A80008029F6DB421CD0B20828F0DB704710B575
:102A9000FFF748FFAE20FFF79EFFD520FFF79BFF13
:102AA0008020FFF798FFA820FFF795FF3F20FFF752
:102AB00092FFD320FFF78FFF0020FFF78CFF40200D
:102AC000FFF789FFA120FFF786FFC820FFF783FFEC
:102AD000DA20FFF780FF1220FFF77DFF8120FFF74C
:102AE0007AFFCF20FFF777FFD920FFF774FFF1209F
:102AF000FFF771FFDB20FFF76EFF3020FFF76BFF62
:102B0000A420FFF768FFA620FFF765FF8D20FFF7E1
:102B100062FF1420FFF75FFFAF20FFF75CFFFFF7B6
:102B2000A4FFFFF790FF10BD10B50246012000E0A2
:102B300050430B1EA1F10101FAD110BD2DE9F04364
:102B400005460C461F46079E4FF0000C00216B1EE9
:102B500034E032F91100B04201DD012000E0002034
:102B600032F91380B04502DD4FF0010801E04FF06B
:102B7000000840451FD034F9130034F91180A0EB50
:102B8000080032F91180A6EB080800FB08F032F9C2
:102B9000138032F91190A8EB090890FBF8F034F992
:102BA00011804044B84206DDBCF1000F01D1012084
:102BB00000E0002084460B46481C01B2A942C8DB55
:102BC0000CF0FF00BDE8F0832DE9F0412DED0A8BFC
:102BD00080460F4614461D46404604F0DBFD41EC9E
:102BE0001B0B384604F0D6FD41EC1C0BB0EE4B1A23
:102BF000F0EE6B1AB0EE4C0AF0EE6C0A05F0C0F97C
:102C0000B0EE40AAF0EE60AA9FED4D0B53EC102BF6
:102C100051EC1A0B04F04FFD41EC180B9FED4A0BE1
:102C200053EC102B04F0D5FC41EC190B04F0D0FD53
:102C300006B2AC4208DAA6420CDBAE420ADC012046
:102C4000BDEC0A8BBDE8F081A64201DAAE4201DCA0
:102C50000120F5E70020F3E72DE9F04706460D4691
:102C6000174698462846E91705EB5171C9100FFA27
:102C700081F905EB0801481EC11700EB5171C9101D
:102C8000491C0FFA81FA002D07DAA9F101000FFAA9
:102C900080F9AAF101000FFA80FA4C4614E0002EE8
:102CA00010DB7F2E0EDC002C0CDB072C0ADCF1B2D3
:102CB000E0B2FFF7B7FE214901EBC411881939468C
:102CC000FFF799FE601C04B25445E8DBBDE8F087CD
:102CD0002DE9F04304460D4616461F46284646E0B9
:102CE00022463FE0002A3BDB7F2A39DC002837DB25
:102CF0003F2835DC4FEAE07C00EB5C7C4FEAEC0CD3
:102D0000DFF8388008EBCC1C1CF802C003464FEA01
:102D1000E07800EB58784FEAE808A0EBC8094FF0DC
:102D2000010808FA09F82CEA080C01464FEAE07895
:102D300000EB58780CE00000000800F06C06002062
:102D40001F85EB51B81E094000000000008066405E
:102D50004FEAE808DFF8249409EBC81808F802C025
:102D6000511C0AB2A1199142BCDC411C08B2E919FC
:102D70008142B5DCBDE8F083002011E000210BE0CA
:102D8000FE4A02EBC012525C82F0FF02FB4B03EBE7
:102D9000C0135A544A1CD1B28029F1DB421CD0B274
:102DA0000828EBDB70472DE9F04304460D46164634
:102DB0001F46284638E0224631E0002A2DDB7F2AD4
:102DC0002BDC002829DB3F2827DC4FEAE07C00EBE6
:102DD0005C7C4FEAEC0CDFF8A48308EBCC1C1CF8FD
:102DE00002C003464FEAE07800EB58784FEAE80863
:102DF000A0EBC8094FF0010808FA09F88CEA080CA2
:102E000001464FEAE07800EB58784FEAE808DFF82F
:102E10006C9309EBC81808F802C0511C0AB2A1193A
:102E20009142CADC411C08B2E9198142C3DCBDE809
:102E3000F0832DE9FF4F80460E469146DDF834B011
:102E4000002500244A4631464046039BFFF740FFD9
:102E500000BF5EE0002558E008EB0500002852DBCB
:102E600008EB05007F284EDC3046F11706EB517168
:102E7000C9100FB2F11706EB5171C910A6EBC10AC8
:102E8000002E05DA781E07B20AF108000FFA80FA60
:102E90003819002817DB3819072814DC3819B74906
:102EA00001EBC01008EB0501405C04FB09511BF865
:102EB000011001FA0AF108433919B04A02EBC111B5
:102EC00008EB050288543819401C00281BDB381910
:102ED000401C072817DC3819401CA84901EBC0101A
:102EE00008EB0501405C04FB09511BF80110CAF115
:102EF0000802114108433919491CA04A02EBC111CB
:102F000008EB05028854681CC5B24D45A4DB601C63
:102F1000C4B20399481EC11700EB5171012202EBA4
:102F2000E101A14296DCBDE8FF8FF8B506460F46E9
:102F300014461D46082D0CD1A4F12000904901EB48
:102F4000001010230822394600903046FFF771FF29
:102F50000FE0062D0DD1A4F1200000EB40008949BF
:102F600001EB400008230622394600903046FFF767
:102F700060FFF8BD2DE9F0410646884615461F461C
:102F8000002409E02A5D04FB076108B23B46414684
:102F9000FFF7CBFF601CC4B2285D0028F2D1BDE86A
:102FA000F0812DE9F0470646894617461D46DDF8B3
:102FB0002080002417E0281B411E0A20FFF7B4FDE3
:102FC000B7FBF0F00A21B0FBF1F201FB120000F1B7
:102FD000300A04FB086108B2434652464946FFF7EF
:102FE000A4FF601CC4B2AC42E5DBBDE8F0872DE96C
:102FF000F04F80468A4615461E46DDF82490002D87
:1030000007DB4B462B2251464046FFF78EFF2F46EB
:1030100006E04B462D2251464046FFF786FF6F42A1
:10302000002418E0301B411E0A20FFF77DFDB7FB8E
:10303000F0F00A21B0FBF1F201FB120000F1300BBD
:10304000611C01FB098108B24B465A465146FFF705
:103050006CFF601CC4B2B442E4DBBDE8F08F2DE924
:10306000F04706468A4691461F46DDF82080002438
:1030700021E0381B411E1020FFF756FDB9FBF0F090
:1030800000F00F050A2D0ADA05F13001CAB204FB7F
:10309000086108B243465146FFF747FF09E005F1D2
:1030A0003701CAB204FB086108B243465146FFF734
:1030B0003CFF601CC4B2BC42DBDBBDE8F0872DE9FD
:1030C000F0470646894617461D46DDF82080002455
:1030D00014E0281B411E0220FFF726FDB7FBF0F08D
:1030E00000F0010000F1300A04FB086108B2434619
:1030F00052464946FFF719FF601CC4B2AC42E8DBF8
:10310000BDE8F0872DE9F04F2DED088B81B0054625
:103110008B46B0EE408AF0EE608A16469A46129CC4
:103120009FED190B53EC102B51EC180B04F0B4FB72
:1031300006D823462B2259462846FFF7F6FE0BE019
:1031400023462D2259462846FFF7EFFE51EC180B77
:1031500081F0004141EC180B51EC180B04F057FBC7
:103160008046404604F027FB41EC190B53EC182B2A
:1031700004F02CFA41EC180B514609E06C060020D3
:103180005893000048990000000000000000000073
:103190000A20FFF7C9FC0746384604F00CFB41EC57
:1031A0001B0B53EC182B04F014FA41EC1A0BB0EE85
:1031B0004A0AF0EE6A0A04F0DBFFB0EE409AF0EE45
:1031C000609A51EC190B04F022FB8146B9FBF7F031
:1031D0008044291908B23346424659460094FFF705
:1031E000E0FE711C01FB045108B223462E22594611
:1031F000FFF79BFEB11C01FB045108B253464A463F
:1032000059460094FFF7CDFE01B0BDEC088BBDE838
:10321000F08F2DE9FC47804689461646002700209E
:10322000019000253AE0705D01A9C855781CC7B22D
:10323000022F31DB002700240CE0C4EBC40101EBBA
:103240008101FE4A881801A904F00EF900B90CE0CA
:10325000601CC4B2C4EBC40101EB8101F74A8818B9
:10326000F7A104F001F90028E7D100BFC4EBC400C6
:1032700000EB8000F1490844C01C05F1010A0AEB8B
:10328000DA714910491E08EB0111009008B21023B1
:103290001A464946FFF7CDFD681CC5B2705D00288F
:1032A000C1D1BDE8FC870FB470B5C2B005460E466B
:1032B00014464AA8019002A8019A499904F0C8FC52
:1032C00000200190234602AA31462846FFF752FE0D
:1032D00042B070BC5DF814FB70B50346002B20DBD8
:1032E0007F2B1EDC00291CDB3F291ADCCC1701EBED
:1032F0005474E410D34D05EBC414E45C0A46CD17B6
:1033000001EB5575ED10A1EBC5060125B5402C4329
:103310000846CD1701EB5575ED10CA4E06EBC515E5
:10332000EC5470BD70B50246002A19DB7F2A17DC09
:10333000002915DB3F2913DCCC1701EB5474E41092
:10334000C04D05EBC414A45CCD1701EB5575ED1011
:10335000A1EBC5060125B5402C400CB1012070BD84
:103360000020FCE72DE9FF4F86B0069E079CDDF8A4
:103370002080DDF824900020019000904C450FD172
:10338000464502DDB2464646D046354605E0214672
:103390002846FFF7A1FF681C05B24545F7DD99E017
:1033A00046450FD14C4502DDA2464C46D146274644
:1033B00005E039463046FFF78FFF781C07B24F45CE
:1033C000F7DD87E0464505DDB2464646D046A246D3
:1033D0004C46D1464C4507DD604204B2C9F10000BD
:1033E0000FFA80F901200190A9EB0400A8EB060177
:1033F000884207DDB24626465446C246C846D146F4
:1034000001200090A8EB060000B20590A9EB040093
:103410000FFA80FB4FEA4B0000B203900598ABEB2C
:103420000000400000B202900598C0EB4B0000B2D3
:10343000049035462746019838B1009828B1684273
:1034400001B23846FFF748FF12E0019828B17842F0
:1034500001B22846FFF740FF0AE0009820B1294654
:103460003846FFF739FF03E039462846FFF734FFB7
:103470002EE0681C05B20498002805DADDE9031087
:10348000084400B2049006E0781C07B20299049840
:10349000084400B20490019838B1009828B16842FD
:1034A00001B23846FFF718FF12E0019828B17842C0
:1034B00001B22846FFF710FF0AE0009820B1294624
:1034C0003846FFF709FF03E039462846FFF704FFB7
:1034D0004545CEDB0AB0BDE8F08F2DE9F047054643
:1034E0000E4617469846DDF820A0BAF1000F24D109
:1034F0002C460CE031462046FFF7EEFE06EB0800B6
:10350000401E01B22046FFF7E7FE601C04B2E81936
:10351000A042EFDC34460BE021462846FFF7DCFEF4
:10352000E919491E08B22146FFF7D6FE601C04B215
:1035300006EB0800A042EFDC14E02C460FE0B14699
:1035400007E049462046FFF7C7FE09F101000FFAE0
:1035500080F906EB08004845F3DC601C04B2E8196A
:10356000A042ECDCBDE8F0872DE9FF4F87B01446A0
:103570001D46DDE91467DDF81C80DDF82090DDF8DC
:103580001C80CDF81880DDF82090CB46DDF81C803B
:10359000ADF80C80ADF80E40ADF81060DDF820906D
:1035A000ADF80490ADF80650ADF80870169890B9D3
:1035B0002B462246DDE90701FFF7D4FE3B463246A3
:1035C000DDE90701FFF7CEFE3B463246294620469D
:1035D000FFF7C8FE40E0444500DAA046464500DA61
:1035E000B0464D4500DAA9464F4500DAB94606987F
:1035F000844200DD06940698864200DD06965D450D
:1036000000DDAB465F4500DDBB46C24621E0CDF89C
:10361000149010E00598534601AA03A900900320D6
:10362000FFF78CFA18B150460599FFF755FE05983B
:10363000401C00B205900598584505E0829B0000AB
:10364000000000006C060020E4DD0AF101000FFA22
:1036500080FA06988245DADD0BB0BDE8F08F2DE9DF
:10366000F04F07460E4691469A46C9F1010B0025D8
:103670004C46321911B27A1910B2FFF72DFE321BE7
:1036800011B27A1B10B2FFF727FE721911B23A1964
:1036900010B2FFF721FE721B11B23A1B10B2FFF7F6
:1036A0001BFEBAF1000F0FD060420FFA80F809E05C
:1036B00006EB080001B23846FFF70EFE08F10100E4
:1036C0000FFA80F8A045F3DB75E0681C05B2BBF18A
:1036D000000F05DA6800401C58440FFA80FB07E031
:1036E000601E04B2281B4000401C58440FFA80FBA7
:1036F000321911B27A1910B2FFF7EEFD721911B238
:103700003A1910B2FFF7E8FD321B11B27A1B10B262
:10371000FFF7E2FD721B11B23A1B10B2FFF7DCFD9E
:10372000321B11B27A1910B2FFF7D6FD721B11B21B
:103730003A1910B2FFF7D0FD321911B27A1B10B24C
:10374000FFF7CAFD721911B23A1B10B2FFF7C4FDA0
:10375000BAF1000F2FD060420FFA80F811E006EBAB
:10376000080211B27A1910B2FFF7B6FD06EB080293
:1037700011B27A1B10B2FFF7AFFD08F101000FFA8A
:1037800080F8A045EBDB68420FFA80F811E006EB09
:10379000080211B23A1B10B2FFF79EFD06EB0802B9
:1037A00011B23A1910B2FFF797FD08F101000FFAB4
:1037B00080F8A845EBDBA54287DBBDE8F08F2DE95B
:1037C000FF4F2DED108B87B007460E469B46DDF868
:1037D00064A0D94600254C46C9F1000003F0DAFF89
:1037E00041EC1E0B9FEDFA0B53EC102B03F04AFE3D
:1037F00041EC1C0B0AFB0AF003F0CCFF41EC1D0B63
:1038000053EC1C2B03F0E5FE41EC1A0B09FB09F00D
:1038100003F0C0FF41EC1B0B53EC1A2B03F032FEFC
:1038200041EC190B04F050F808EE900A2498A8B166
:1038300060420FFA80F80FE006EB080001B238464C
:10384000FFF74AFD06EB080001B23846FFF744FDDA
:1038500008F101000FFA80F8A045EDDB321911B232
:103860007A1910B2FFF738FD321B11B27A1B10B271
:10387000FFF732FD321911B27A1B10B2FFF72CFD9F
:10388000321B11B27A1910B2FFF726FD5CE0F5EE9B
:10389000C08AF1EE10FA0DD809FB09F06900C91CC5
:1038A000484300EE100AB8EEC00A30EE280AF0EEE7
:1038B000408A15E009FB09F06900C91C48430AFB6E
:1038C0000AF16200C2F1020201FB020000EE100ADE
:1038D000B8EEC00A30EE280AF0EE408A601E04B24C
:1038E000681C05B22498B8B160420FFA80F811E064
:1038F00006EB080211B27A1910B2FFF7EDFC06EBE5
:10390000080211B27A1B10B2FFF7E6FC08F10100C1
:103910000FFA80F8A045EBDB321911B27A1910B218
:10392000FFF7DAFC321B11B27A1B10B2FFF7D4FC9E
:10393000321911B27A1B10B2FFF7CEFC321B11B252
:103940007A1910B2FFF7C8FC204603F023FF41ECC0
:103950001D0B9FED9F0B53EC102B03F034FE41EC3D
:103960001B0B0AFB0AF003F015FF41EC1C0B53EC98
:103970001B2B03F02EFE41EC190B09FB09F16A1C0D
:1039800001FB02F003F006FF41EC1A0B53EC192B7C
:1039900003F06AFFFFF47BAF0AFB0AF101FB09F1B8
:1039A00001FB09F003F0F6FE41EC1A0B0AFB0AF1E9
:1039B000621E514301FB02F003F0ECFE41EC1B0BD5
:1039C000284603F0E7FE41EC1D0B9FED810B53EC05
:1039D000102B03F057FDCDE90001284603F0DAFE75
:1039E00041EC1F0B9FED7A0B53EC102B03F04AFDBB
:1039F00041EC1D0B09FB09F003F0CCFE41EC1E0B62
:103A000053EC1D2B03F0E5FD41EC1C0B9DED000B71
:103A100053EC102B03F0DDFD53EC1B2BCDE9020121
:103A20009DED020B51EC100B03F02CFD53EC1A2B07
:103A3000CDE904019DED040B51EC100B03F0C3FD27
:103A400041EC190B03F040FF08EE100A5DE0B5EE03
:103A5000C08AF1EE10FA16D809FB09F06900891C3A
:103A600041430AFB0AF06200C2F1030200FB0210AC
:103A700000EE100AB8EEC00A30EE080AB0EE408A36
:103A8000681C05B20DE00AFB0AF06100C1F10301F8
:103A9000484300EE100AB8EEC00A30EE080AB0EE55
:103AA000408A601E04B22498B8B160420FFA80F8D0
:103AB00011E006EB080211B27A1910B2FFF70CFC04
:103AC00006EB080211B27A1B10B2FFF705FC08F1F1
:103AD00001000FFA80F8A045EBDB321911B27A1918
:103AE00010B2FFF7F9FB321B11B27A1B10B2FFF7CD
:103AF000F3FB321911B27A1B10B2FFF7EDFB321B48
:103B000011B27A1910B2FFF7E7FB002C9FDC07B067
:103B1000BDEC108BBDE8FF8F2DE9F05F07460E4628
:103B200091469B46C9F1010A00254C465A4621465A
:103B300028460A9BFFF748F828B1321911B27A19C2
:103B400010B2FFF7C9FB5A46604201B2684200B2A8
:103B50000A9BFFF739F828B1321B11B27A1B10B259
:103B6000FFF7BAFB5A46294620460A9BFFF72CF876
:103B700028B1721911B23A1910B2FFF7ADFB5A46CB
:103B8000684201B2604200B20A9BFFF71DF828B1FB
:103B9000721B11B23A1B10B2FFF79EFB0B98B0B12B
:103BA00060420FFA80F810E05A46414600200A9B16
:103BB000FFF70AF828B106EB080001B23846FFF714
:103BC0008BFB08F101000FFA80F8A045ECDBD7E091
:103BD000000000000000E03F681C05B2BAF1000FD1
:103BE00005DA6800401C50440FFA80FA07E0601EB6
:103BF00004B2281B4000401C50440FFA80FA5A4679
:103C0000214628460A9BFEF7DFFF28B1321911B280
:103C10007A1910B2FFF760FB5A46294620460A9BE4
:103C2000FEF7D2FF28B1721911B23A1910B2FFF79C
:103C300053FB5A46604201B2684200B20A9BFEF74B
:103C4000C3FF28B1321B11B27A1B10B2FFF744FB3D
:103C50005A46684201B2604200B20A9BFEF7B4FFC6
:103C600028B1721B11B23A1B10B2FFF735FB5A464E
:103C7000604201B228460A9BFEF7A6FF28B1321B1C
:103C800011B27A1910B2FFF727FB5A46684201B207
:103C900020460A9BFEF798FF28B1721B11B23A1911
:103CA00010B2FFF719FB5A462146684200B20A9B40
:103CB000FEF78AFF28B1321911B27A1B10B2FFF752
:103CC0000BFB5A462946604200B20A9BFEF77CFF76
:103CD00028B1721911B23A1B10B2FFF7FDFA0B9816
:103CE00000284DD060420FFA80F820E05A46414645
:103CF00028460A9BFEF768FF30B106EB080211B2B6
:103D00007A1910B2FFF7E8FA5A464146684200B203
:103D10000A9BFEF759FF30B106EB080211B27A1B7D
:103D200010B2FFF7D9FA08F101000FFA80F8A045A8
:103D3000DCDB68420FFA80F820E05A4641466042D8
:103D400000B20A9BFEF740FF30B106EB080211B249
:103D50003A1B10B2FFF7C0FA5A46414620460A9B6A
:103D6000FEF732FF30B106EB080211B23A1910B279
:103D7000FFF7B2FA08F101000FFA80F8A845DCDB82
:103D8000A542FFF629AFBDE8F09F000070B50446DC
:103D90000D46E1B2F948FEF79BFC204670BD70B5B8
:103DA0000546F648FEF781FC0446204670BD70B516
:103DB00004460D4624B92946F148FEF789FC31E056
:103DC000012C04D12946EF48FEF782FC2AE0022CA0
:103DD00004D12946EC48FEF77BFC23E0032C04D1F8
:103DE0002946EA48FEF774FC1CE0042C04D129465D
:103DF000E748FEF76DFC15E0052C04D12946DF48A5
:103E0000FEF766FC0EE0062C04D12946E148FEF7D9
:103E10005FFC07E0072C04D12946DF48FEF758FC79
:103E200000E070BD00BFFCE72DE9F04107460D46FC
:103E30001646002405E0295D3846FFF7B8FF601CF0
:103E400084B2B442F7DBBDE8F08170B506460C469B
:103E5000002505E0615D3046FFF7A9FF681CC5B28B
:103E6000605D0028F6D170BD10B50246012000E06B
:103E700050430B1EA1F10101FAD110BD2DE9F04113
:103E800007460E461446002513E0601B411E0A201B
:103E9000FFF7EAFFB6FBF0F00A21B0FBF1F201FBFD
:103EA000120000F1300841463846FFF780FF681CD9
:103EB000C5B2A542E9DBBDE8F08170B50121B0488B
:103EC000FEF741FC05464FF0807040692946026DBF
:103ED000AB4890474FF080704069C16AA848884756
:103EE00000B970BD06E04FF080704069416BA44896
:103EF0008847C4B24FF080704069C16AA0488847C3
:103F00000028F0D100BFECE770B54FF08070406C36
:103F10008169A24888474FF08070406C8169A04851
:103F200088474FF08070006A816E012088474FF00B
:103F30008070006A0121426D4FF0402090474FF0A1
:103F40008070006A816E40F2014088474FF08070B7
:103F5000006A0221426D4FF040209047FDF79DFF1F
:103F600005464FF08070406960234FF4E1322946E6
:103F700044698348A0474FF080704069416E804893
:103F800088474FF0807040691021426C7C48904710
:103F90004FF08070806C0021826915209047AFF24D
:103FA000E5017748FEF7ABFB4FF08070806C01684D
:103FB000152088474FF08071896C4868804770BD34
:103FC00070B54FF08070406C81697448401C884720
:103FD0004FF08070406C81697148401C88474FF0F9
:103FE0008070006A816E4FF0011088474FF080703A
:103FF000006A0121426D6B4890474FF08070006A63
:10400000816E694888474FF08070006A0221426DD6
:1040100064489047FDF741FF05464FF080704069C6
:1040200060234FF4E132294644695648A0474FF0D7
:1040300080704069416E534888474FF080704069F6
:104040001021426C4F4890474FF08070806C1021D7
:1040500082691620904755494A48FEF750FB4FF0B9
:104060008070806C0168162088474FF08071896CE1
:104070004868804770BD70B501214348FEF763FB77
:1040800005464FF0807040692946026D3E489047D2
:104090004FF080704069C16A3B48884700B970BDE5
:1040A00006E04FF080704069416B37488847C4B2E2
:1040B0004FF080704069C16A334888470028F0D1CA
:1040C00000BFECE770B54FF08070406C81693348F9
:1040D000C01C88474FF08070406C81693048801C5C
:1040E00088474FF08070006A816E314888474FF0F2
:1040F0008070006A4021426D2E4890474FF08070DA
:10410000006A816E2C4888474FF08070006A8021D9
:10411000426D28489047FDF7C0FE05464FF080707D
:10412000406960234FF4E132294644691648A047AC
:104130004FF080704069416E134888474FF080709F
:1041400040691021426C104890474FF08070806C9D
:104150000021826931209047AFF2E5010A48FEF75D
:10416000CEFA4FF08070806C0168312088474FF0A4
:104170008071896C4868804770BD00000010014064
:1041800000C0004000D0004000E0004000F00040CF
:10419000000001400020014000300140000800F014
:1041A000001800F0005000400104010007730000F7
:1041B0000118030000700040011C030070B54FF0AF
:1041C0008070406C8169FE4888474FF08070406C79
:1041D0008169FC4888474FF08070006A816EFA4818
:1041E00088474FF08070006A4021426DF748904741
:1041F0004FF08070006A816EF54888474FF08070FC
:10420000006A8021426DF1489047FDF746FE054661
:104210004FF08070406960234FF4E13229464469D1
:10422000EC48A0474FF080704069416EE9488847EC
:104230004FF0807040691021426CE64890474FF083
:104240008070806C002182694B209047E249E148F0
:10425000FEF755FA4FF08070806C01684B2088475C
:104260004FF08071896C4868804770BD70B501213E
:10427000DA48FEF768FA05464FF080704069294633
:10428000026DD64890474FF080704069C16AD348AC
:10429000884700B970BD06E04FF080704069416BFF
:1042A000CE488847C4B24FF080704069C16ACB489D
:1042B00088470028F0D100BFECE770B54FF0807060
:1042C000406C8169BE4888474FF08070406C8169BE
:1042D000BC48401C88474FF08070006A816EC0481F
:1042E00088474FF08070006A1021426DB7489047B0
:1042F0004FF08070006A816EBA4888474FF0807036
:10430000006A2021426DB1489047FDF7C6FD054681
:104310004FF08070406960234FF4E13229464469D0
:10432000AE48A0474FF080704069416EAB48884767
:104330004FF0807040691021426CA84890474FF0C0
:104340008070806C002182694C209047AFF2E301BD
:10435000A248FEF7D4F94FF08070806C01684C20C1
:1043600088474FF08071896C4868804770BD70B590
:104370004FF08070406C81699148801C88474FF0F5
:104380008070406C81698F48801C88474FF0807036
:10439000006A816E944888474FF08070006A10214F
:1043A000426D924890474FF08070006A816E90484D
:1043B00088474FF08070006A2021426D8B489047FB
:1043C000FDF76BFD05464FF08070406960234FF4A8
:1043D000E132294644698748A0474FF08070406920
:1043E000416E844888474FF0807040691021426CCC
:1043F000804890474FF08070806C002182694D208A
:1044000090477D497B48FEF77AF94FF08070806CC9
:1044100001684D2088474FF08071896C486880475B
:1044200070BD70B54FF08070406C81696448401C6D
:1044300088474FF08070406C81696248C01C884793
:104440004FF08070006A816E6C4888474FF0807032
:10445000006A1021426D6A4890474FF08070006AF0
:10446000816E684888474FF08070006A2021426D55
:1044700063489047FDF711FD05464FF08070406995
:1044800060234FF4E132294644695F48A0474FF06A
:1044900080704069416E5C4888474FF08070406989
:1044A0001021426C584890474FF08070806C00217A
:1044B00082694E20904755495348FEF720F94FF046
:1044C0008070806C01684E2088474FF08071896C45
:1044D0004868804770BD70B501214D48FEF733F93B
:1044E00005464FF0807040692946026D4848904764
:1044F0004FF080704069C16A4548884700B970BD77
:1045000006E04FF080704069416B41488847C4B273
:104510004FF080704069C16A3D4888470028F0D15B
:1045200000BFECE770B54FF08070406C81692448A3
:10453000801C88474FF08070406C81692148001DC5
:1045400088474FF08070006A816E324888474FF08C
:104550008070006A0121426D244890474FF08070BE
:10456000006A816E2C4888474FF08070006A0221F3
:10457000426D1E489047FDF790FC05464FF0807055
:10458000406960234FF4E132294644692048A0473E
:104590004FF080704069416E1D4888474FF0807031
:1045A00040691021426C1A4890474FF08070806C2F
:1045B000002182694F209047AFF2E50114482DE0B9
:1045C000020800F0031800F001180200006000402B
:1045D000011C020000F00040D15800000000014022
:1045E000011002000114020001100400004002400A
:1045F00001140400001001400570000001100300C8
:104600000070004001140300002001400972000006
:10461000003001400100040001040400FEF76FF8BF
:104620004FF08070806C01684F2088474FF0807198
:10463000896C4868804770BD70B50121FE48FEF75F
:1046400082F805462946FC48FEF783F8FA48FEF74B
:1046500016F800B970BD03E0F748FEF71CF8C4B2C5
:10466000F548FEF70CF80028F6D100BFF2E710B5C8
:10467000F248FDF7B5F8F248FDF7B2F80120FCF773
:104680009FFB01214FF04020FCF70DFB40F2014061
:10469000FCF796FB02214FF04020FCF704FBFDF7EE
:1046A000FCFB044660234FF4E1322146E248FDF76B
:1046B00053FFE148FDF791FF1021DF48FEF73BF87B
:1046C00000211520FCF708FCAFF29301DA48FEF751
:1046D00016F81520FCF722FCFCF7B4FB10BD70B5F2
:1046E0000121D848FEF72FF805462946D548FEF7A0
:1046F00030F8D448FDF7C3FF00B970BD03E0D148DE
:10470000FDF7C9FFC4B2CF48FDF7B9FF0028F6D1C5
:1047100000BFF2E710B5C948401CFDF761F8C84872
:10472000401CFDF75DF84FF00110FCF749FB01213B
:10473000C548FCF7B8FAC548FCF742FB0221C2485D
:10474000FCF7B1FAFDF7A9FB044660234FF4E13210
:104750002146BC48FDF700FFBA48FDF73EFF102197
:10476000B848FDF7E8FF00211620FCF7B5FBAFF2D3
:104770009101B448FDF7C3FF1620FCF7CFFBFCF70F
:1047800061FB10BD70B50121B148FDF7DCFF0546A6
:104790002946AF48FDF7DDFFAD48FDF770FF00B9D2
:1047A00070BD03E0AA48FDF776FFC4B2A848FDF744
:1047B00066FF0028F6D100BFF2E710B59F48C01C85
:1047C000FDF70EF89E48801CFDF70AF8A148FCF79B
:1047D000F7FA4021A048FCF766FAA048FCF7F0FA87
:1047E00080219D48FCF75FFAFDF757FB04466023E4
:1047F0004FF4E13221469648FDF7AEFE9448FDF7AE
:10480000ECFE10219248FDF796FF00213120FCF7C5
:1048100063FBAFF28F018E48FDF771FF3120FCF78B
:104820007DFBFCF70FFB10BD10B58448801CFCF726
:10483000D7FF8348C01CFCF7D3FF8948FCF7C0FAB8
:1048400040218848FCF72FFA8748FCF7B9FA802105
:104850008448FCF728FAFDF720FB044660234FF458
:10486000165221468148FDF777FE8048FDF7B5FED8
:1048700010217E48FDF75FFF00214B20FCF72CFB49
:10488000AFF24B217948FDF73AFF4B20FCF746FB8E
:10489000FCF7D8FA10BD10B56848801CFCF7A0FFE3
:1048A0006748001DFCF79CFF7148FCF789FA10214E
:1048B0006C48FCF7F8F96F48FCF782FA2021694848
:1048C000FCF7F1F9FDF7E9FA044660234FF4E13211
:1048D00021466948FDF740FE6748FDF77EFE10213E
:1048E0006548FDF728FF00214C20FCF7F5FAAFF2F0
:1048F000B7216148FDF703FF4C20FCF70FFBFCF7E5
:10490000A1FA10BD10B54D48001DFCF769FF4C48D9
:10491000401DFCF765FF5948FCF752FA1021584832
:10492000FCF7C1F95748FCF74BFA20215448FCF733
:10493000BAF9FDF7B2FA044660234FF4E13221469A
:104940005148FDF709FE5048FDF747FE10214E483B
:10495000FDF7F1FE00214D20FCF7BEFAAFF2273142
:104960004948FDF7CCFE4D20FCF7D8FAFCF76AFA6F
:1049700010BD10B53148C01CFCF732FF3048801D17
:10498000FCF72EFF4148FCF71BFA10213248FCF7D8
:104990008AF93F48FCF714FA20212F48FCF783F9E5
:1049A000FDF77BFA044660234FF4E1322146394893
:1049B000FDF7D2FD3748FDF710FE10213548FDF711
:1049C000BAFE00214E20FCF787FAAFF2933131484E
:1049D000FDF795FE4E20FCF7A1FAFCF733FA10BD67
:1049E00010B51648001DFCF7FBFE1548C01DFCF76E
:1049F000F7FE2948FCF7E4F901212148FCF753F9B7
:104A00002648FCF7DDF902211D48FCF74CF9FDF7BB
:104A100044FA044660234FF4E13221462048FDF772
:104A20009BFD1F48FDF7D9FD10211D48FDF783FEB2
:104A300000214F2036E0000000C00040000800F0D8
:104A4000001800F000D000400050004001040100B8
:104A500000E000400118030000700040011C03004A
:104A60000118020000600040011C020000F000403C
:104A700001100200011402000000014001100400B6
:104A80000040024001140400001001400110030026
:104A9000011403000020014001000400010404008F
:104AA00000300140FCF718FAAFF273414748FDF7B8
:104AB00026FE4F20FCF732FAFCF7C4F910BD70B5A2
:104AC00001214348FDF73FFE054629464048FDF7D2
:104AD00040FE3F48FDF7D3FD00B970BD03E03C4800
:104AE000FDF7D9FDC4B23A48FDF7C9FD0028F6D15B
:104AF00000BFF2E770B501213648FDF724FE0546F8
:104B000029463448FDF725FE3248FDF7B8FD00B9C7
:104B100070BD03E02F48FDF7BEFDC4B22D48FDF780
:104B2000AEFD0028F6D100BFF2E770B501212A489A
:104B3000FDF709FE054629462748FDF70AFE2648E7
:104B4000FDF79DFD00B970BD03E02348FDF7A3FD0F
:104B5000C4B22148FDF793FD0028F6D100BFF2E76B
:104B600070B501211D48FDF7EEFD054629461B489D
:104B7000FDF7EFFD1948FDF782FD00B970BD03E0B8
:104B80001648FDF788FDC4B21448FDF778FD0028EB
:104B9000F6D100BFF2E770B501210C48FDF7D3FD57
:104BA000054629460948FDF7D4FD0848FDF767FD8D
:104BB00000B970BD03E00548FDF76DFDC4B20348C0
:104BC000FDF75DFD0028F6D100BFF2E7003001409F
:104BD00000F00040000001400010014000200140B2
:104BE00010B54FF08070406C8169504888474FF095
:104BF0008070C06B2221C2684D489047FDF74DF987
:104C00004FF47A71B0FBF1F44FF08070C06B224624
:104C1000FF21836B464898474FF08070806C016895
:104C2000232088474FF08070C06B0121C26C404840
:104C30009047404AFF213E48FDF7F8FB4FF0807156
:104C4000896C486880474FF08070C06BFF214268D4
:104C5000374890474FF08070806CA02182692320F4
:104C6000904710BD10B54FF08070406C81692F489F
:104C7000401C88474FF08070C06B2221C2682E48CC
:104C80009047FDF70AF90A21B0FBF1F44FF080706C
:104C9000C06B2246FF21836B274898474FF08070F6
:104CA000806C0168252088474FF08070C06B01211F
:104CB000C26C21489047214AFF211F48FDF7B6FBEF
:104CC0004FF08071896C486880474FF08070C06BEE
:104CD000FF214268184890474FF08070806CA021F7
:104CE00082692520904710BD10B5044694ED010A55
:104CF00084ED000A02F069FB00EE100AB8EE400AEB
:104D0000DFED0F0A80EE201A84ED011A94ED010AFE
:104D1000D4ED000A30EE600A84ED020A94ED020A36
:104D2000BCEEC00A10EE100AA08110BD000400F015
:104D3000000003401164000000100340A36D000058
:104D400000007A4410B50020FDF76BF97C48FCF7B1
:104D500047FD7C48FCF744FD7A48801FFCF740FD86
:104D600001217948FBF763FF02217748FBF75FFFDA
:104D700010217648FBF75BFF20217448FBF757FFB3
:104D80007348FCF71DF87348FCF71AF87248FCF7F3
:104D900017F87248FCF714F8022240217048FCF71B
:104DA000E7F9022280216E48FCF7E2F94FF47A42DB
:104DB00040216B48FCF7F1F94FF47A4280216848B2
:104DC000FCF7EBF9012211466548FCF742FA012293
:104DD00002216348FCF73DFA012204216048FCF7F8
:104DE00038FA012208215E48FCF733FA40215C487A
:104DF000FCF7EAF980215A48FCF7E6F910BD2DE9E5
:104E0000F04781460E461746C42E1ED008DC402EC1
:104E10000FD0412E10D0822E11D0832E23D111E03D
:104E2000C52E15D0B6F5837F15D0A6F20710D0B9E0
:104E300015E04024012516E04024022513E08024DB
:104E4000042510E0802408250DE0C02410250AE088
:104E5000C024202507E04FF48074402503E04FF480
:104E60008074802500BF00BF4FF47A5007FB00F824
:104E7000424621464846FCF790F901222946484619
:104E8000FCF7E7F921464846FCF79EF9BDE8F087B4
:104E90002DE9F0412DED028B07460E46B0EE408A1B
:104EA000C42E1ED008DC402E0FD0412E10D0822EF2
:104EB00011D0832E23D111E0C52E15D0B6F5837FF6
:104EC00015D0A6F20710D0B915E04024012516E050
:104ED0004024022513E08024042510E080240825C6
:104EE0000DE0C02410250AE0C024202507E04FF47F
:104EF0008074402503E04FF48074802500BF00BF1C
:104F000021463846FCF754F900EE100AB8EE400A84
:104F100020EE080ABCEEC00A10EE108A4246314666
:104F20003846FCF75BF9012229463846FCF791F92F
:104F300021463846FCF748F9BDEC028BBDE8F0810C
:104F4000004000F0070800F00070024000500040F0
:104F50000400070004040700041001000414010009
:104F60000080024010B501211E48FBF734FD0446C5
:104F700021461C48FBF737FD04F04000402809D1CA
:104F8000322002F047FA40211648FBF74BFD322051
:104F900002F040FA10BD10B51348FCF721FC0022C6
:104FA00040211048FBF76CFB0A23012240210D48E9
:104FB000FBF7F3FB002240210A48FBF791FBAFF21D
:104FC0005B010848FBF712FDE0211320FBF784FF8B
:104FD00040210448FBF7F3FC1320FBF79FFFFBF78E
:104FE00031FF10BD00700040030800F010B5FA4812
:104FF000FCF7F6FBF848801CFCF7F2FBF648801E35
:10500000FCF7EEFBF448401EFCF7EAFB00BFF24859
:10501000FCF769FB0028FAD000BFEF48801CFCF7C2
:1050200062FB0028F9D000BFEB48801EFCF75BFB59
:105030000028F9D000BFE848401EFCF754FB0028C8
:10504000F9D01021E548FBF77AFD2021E348FBF772
:1050500076FD2021E248FBF772FD1021E048FBF7C6
:105060006EFD0121DF48FBF76AFD0221DD48FBF7F9
:1050700066FD0821DC48FBF762FD0421DA48FBF7F6
:105080005EFD10BD70B5D948FCF7AAFBD748401C9F
:10509000FCF7A6FB3221D648FDF7C4F83221D548EB
:1050A000FDF7C0F8FCF7F9FE6421B0FBF1F0441EF7
:1050B00000232246CE48FDF776F9FCF7EEFE642188
:1050C000B0FBF1F0441E00232246CA48FDF76BF9FD
:1050D0000121C748FDF7CCF90121C648FDF7C8F901
:1050E000C54AFF21C248FDF7A1F9C44AFF21C148C2
:1050F000FDF79CF900217420FBF7EEFE00217620DD
:10510000FBF7EAFE7420FBF709FF7620FBF706FFAA
:10511000FBF798FEFF21B648FDF776F8FF21B5486A
:10512000FDF772F8B648FCF75BFBB548401CFCF78E
:1051300057FBA948001FFCF753FBA748401CFCF78E
:105140004FFBB048FBF73CFE0421AF48FBF79CFD4A
:10515000AE48FBF735FE0121AD48FBF795FD022275
:105160000421A948FBF78CFA02220121A848FBF789
:1051700087FA0A2301220421A348FBF70EFB0A2326
:1051800001221146A248FBF708FBA249A248FDF7FD
:1051900049F8A049A148FDF745F80022FF219E48A3
:1051A000FDF793F80022FF219C48FDF78EF8FBF7EE
:1051B00049FE00213320FBF78FFE00215620FBF72C
:1051C0008BFE04219448FDF753F904219348FDF721
:1051D0004FF93320FBF7A2FEFF218F48FDF714F8AB
:1051E0005620FBF79BFEFF218C48FDF70DF870BDA4
:1051F00010B52DED028BF0EE408A9FED890AC8EEC6
:10520000800AB0EE608AB5EEC08AF1EE10FA20DBBB
:10521000012211467348FBF715FC00220221714858
:10522000FBF710FC002208216F48FBF70BFC04225F
:1052300011466D48FBF706FCB0EE480A412179485B
:10524000FFF726FEB0EE480A83217648FFF720FEDE
:105250001FE0002201216348FBF7F4FB0222114604
:105260006048FBF7EFFB082211465F48FBF7EAFBBB
:10527000002204215C48FBF7E5FBB1EE480A41211E
:105280006848FFF705FEB1EE480A83216548FFF73D
:10529000FFFDBDEC028B10BD10B52DED028BF0EEC5
:1052A000408A9FED5F0AC8EE800AB0EE608AB5EED4
:1052B000C08AF1EE10FA20DB002210214848FBF7EB
:1052C000C1FB202211464648FBF7BCFB00221021FF
:1052D0004248FBF7B7FB202211464048FBF7B2FBE0
:1052E000B0EE480A40214F48FFF7D2FDB0EE480A21
:1052F00082214C48FFF7CCFD1FE0102211463848B0
:10530000FBF7A0FB002220213548FBF79BFB102276
:1053100011463248FBF796FB002220212F48FBF76D
:1053200091FBB1EE480A40213E48FFF7B1FDB1EED6
:10533000480A82213B48FFF7ABFDBDEC028B10BD54
:1053400010B52DED028BB0EE408AF0EE608A364843
:1053500080ED008A3548C0ED008A354890ED000A9E
:10536000314800F045F9334880ED000A324890EDAD
:10537000000A2E4800F03CF9304880ED000A2D4824
:1053800090ED000ADFED2E0AB4EEE00AF1EE10FA1D
:1053900004DD9FED2B0A80ED000A0DE0254890ED1D
:1053A000000ADFED280AB4EEE00AF1EE10FA03D2AB
:1053B0009FED240A80ED000A204890ED000ADFED01
:1053C000200AB4EEE00AF1EE10FA3DDD9FED1C0A72
:1053D00080ED000A46E00000050800F00070024081
:1053E000005002400070004000400240035C00F0AA
:1053F00000D0044000E00440096E0000076F000088
:10540000030400F0070801000050004007000600F8
:1054100000600240130000040030034000400340DD
:1054200000007A44008002406C0A0020940A0020A8
:1054300038000020000000203C0000200400002074
:105440000000B4420000B4C2084890ED000A5FEDCD
:10545000030AB4EEE00AF1EE10FA03D21FED070AD8
:1054600080ED000ABDEC028B10BD0000040000209E
:105470008049087070478049087070477F490870FC
:1054800070479FED7F0A7F4880ED010A9FED7C0AFF
:1054900080ED080AB2EE040A80ED070A9FED780A53
:1054A00080ED060A9FED780A80ED050A9FED740AEB
:1054B00080ED020A9FED720A80ED040AB6EE000A42
:1054C00080ED000A9FED6E0A80ED030A9FED6C0AE5
:1054D00080ED090A9FED6A0A6C4880ED010A9FED94
:1054E000680A80ED080A9FED6A0A80ED070A9FEDC1
:1054F000640A80ED060A9FED640A80ED050A9FEDBF
:10550000600A80ED020A9FED5E0A80ED040AB6EEA5
:10551000000A80ED000A9FED5A0A5A4880ED030AFE
:105520009FED570A5B4880ED010A9FED550A80ED1B
:10553000080A5248007800EE100AB8EE400A5548B2
:1055400080ED070A4C48007800EE100AB8EE400AD9
:10555000504880ED060ABAEE040A80ED050A9FED78
:10556000480A80ED020A9FED460A80ED040A9FED8D
:10557000440A80ED000A7047F0EE400AC0ED080AC8
:1055800090ED000A90ED081A30EE410A80ED010A14
:1055900090ED050A90ED011A20EE010A80ED080A4F
:1055A00090ED080A7047F0EE400AC0ED080A90ED51
:1055B000000A90ED081A30EE410A80ED010A90EDE4
:1055C000040A90ED011A30EE010A80ED040A90ED14
:1055D000050A90ED011A20EE010A90ED061AD0EDB1
:1055E000041A01EE210A80ED080A90ED080A7047BE
:1055F000F0EE400AC0ED080A90ED000A90ED081A9E
:1056000030EE410A80ED010A90ED040A90ED011A96
:1056100030EE010A80ED040A90ED050A90ED011AC2
:1056200020EE010A90ED061AD0ED041A01EE210ACF
:1056300090ED031AD0ED011A31EE211AD0ED021AC5
:10564000B0EE002A02EE611AD0ED071A01EE810ACF
:1056500090ED091A30EE010A80ED090A90ED020A78
:1056600080ED030A90ED010A80ED020A90ED090A2F
:1056700070470000140000201500002016000020D4
:10568000000000006C0A002000004842940A00203C
:1056900000002042BC0A002010B5FEF791FC10BDAE
:1056A0002DE9F04106460D4600240AE0281B411E64
:1056B0000A20FEF7D9FB315D303901FB0077601C11
:1056C000C4B2AC42F2DB3846BDE8F0812DE9F041CE
:1056D00005460C462646B00003F004FB0746282189
:1056E0000120FEF764FB224629460120FEF7C6FB97
:1056F00029210120FEF75BFB384603F0CBFABDE819
:10570000F081014800687047240000202DE9F84F1F
:1057100005460C4616464FF0000AD3460027B84609
:10572000A146A01D00900427A5F1500010283AD2F0
:10573000DFE800F018081B101F2326292C2F323910
:10574000393939354FF0340A03274FF0400B4FF009
:1057500001082AE04FF03D0A03274FF02E0B4FF0CF
:10576000010822E04FF0300A1FE04FF0370A03260D
:105770001BE04FF03A0A032617E04FF0410A14E00D
:105780004FF0450A11E04FF0490A0EE04FF04D0A84
:105790000BE04FF0510A08E04FF0550A05E06A4867
:1057A000D0F800A001E0BDE8F88F00BF032E02D1C1
:1057B00003274FF0000837B17A00644901EB4A0033
:1057C000494601F03FFEB8F1000F07D04FEA48020A
:1057D0005E4901EB4B00009901F034FE00BFE2E7A7
:1057E00010B502460B460020002103E0545C04443F
:1057F000E0B2491C9942F9D310BD7CB50546544826
:1058000001680068401C524A1060524845540078B4
:1058100055280CD010460068401E11460860084606
:105820004C49491C0268481E01F00CFE7CBD4848EA
:1058300000680B283ED30A214648FFF7D1FF0446F3
:105840004448807AA0420CD041480068401E40493C
:10585000086008463F49491C0268481E01F0F2FDF5
:10586000E4E73C4880783B49C97840EA0120ADF83C
:105870000000384800793749497940EA0120ADF8FD
:105880000200344880793349C97940EA0120ADF8F3
:1058900004003048007A2F49497A40EA0120ADF8E7
:1058A00006002C49487804226946FFF72FFF0020A4
:1058B0002749086026480068B0F5807F02D10020A3
:1058C0002349086000BFB1E710B5FEF777FC10BDB3
:1058D00070B501212048FCF736FF05464FF0807077
:1058E00040692946026D1C48904724E04FF08070C3
:1058F0004069416B18488847C4B22046FFF77DFFD6
:10590000002016E000F13701104A32F9111000EEC4
:10591000101AF8EEC00A9FED111A80EE810ADFED31
:10592000100A20EE200A0F4901EB800181ED000AE8
:10593000401C0328E6DB4FF080704069C16A0648CE
:1059400088470028D2D170BD2C000020E40B002035
:1059500028000020E40A002000F00040000000477A
:105960000000FA44100D002010B54648FBF738FF40
:10597000FAF7E8FC10BD10B504464FF44872002158
:105980002046FAF707FD10BD70B504460D46A1008C
:1059900004222846FAF7FEFC70BD2DE9F0410446CA
:1059A0000D4616461F46A10004222846FAF7F2FCCF
:1059B000A000011D04223046FAF7ECFCA00000F123
:1059C000080104223846FAF7E5FCBDE8F08170B51D
:1059D0002DED028B0446B0EE408A0D462846FFF7B7
:1059E000CAFF05EB840080ED008AA10005EB84006E
:1059F0000422FAF7E9FCBDEC028B70BD70B52DED09
:105A0000028B0446B0EE408AF0EE608A0D462846CE
:105A1000FFF7B1FF05EB840080ED008A601C05EB09
:105A20008000C0ED008AA10005EB84000822FAF78F
:105A3000CBFCBDEC028B70BD70B52DED048B044624
:105A4000B0EE408AF0EE608AB0EE419A0D462846EC
:105A5000FFF791FF05EB840080ED008A601C05EBE9
:105A60008000C0ED008AA01C05EB800080ED009A4C
:105A7000A10005EB84000C22FAF7A6FCBDEC048B18
:105A800070BD0000005800F0FE480068002848D0B3
:105A9000FD48006860B1FD480068002808DBFB484D
:105AA0000068401CF94908600120F94908602EE0AF
:105AB000F848006860B1F5480068002808DBF34842
:105AC0000068401EF14908600120F14908601EE0AD
:105AD000F148006860B1ED480068002808DBEB4839
