:020000040000FA
:10000000081000206D020000810200008302000041
:10001000850200008502000085020000000000004B
:100020000000000000000000000000008502000049
:10003000850200000000000085020000850200002B
:100040008502000085020000850200008502000094
:100050008502000085020000850200008502000084
:100060008502000085020000850200008502000074
:100070008502000085020000850200008502000064
:100080008502000085020000850200008502000054
:100090008502000085020000850200008502000044
:1000A0008502000085020000850200008502000034
:1000B0008502000085020000850200008502000024
:1000C0008502000085020000850200008502000014
:1000D0008502000085020000850200008502000004
:1000E000850200008502000000000000850200007B
:1000F00085020000850200008502000085020000E4
:1001000085020000850200008502000085020000D3
:1001100000000000000000008502000085020000D1
:1001200085020000850200008502000085020000B3
:1001300085020000850200008502000085020000A3
:1001400000000000000000000000000000000000AF
:100150008502000085020000850200008502000083
:10016000000000000000000000000000000000008F
:10017000000000000000000000000000000000007F
:10018000000000000000000000000000000000006F
:10019000000000000000000000000000000000005F
:1001A000000000000000000000000000000000004F
:1001B0008502000085020000850200008502000023
:1001C0008502000085020000850200008502000013
:1001D0008502000085020000850200008502000003
:1001E000850200008502000085020000000000007A
:1001F000000000008502000085020000850200006A
:1002000085020000850200000000000000000000E0
:1002100085020000850200008502000085020000C2
:1002200085020000850200008502000085020000B2
:1002300085020000850200008502000085020000A2
:100240008502000085020000850200008502000092
:100250008502000085020000850200008502000082
:100260008502000085020000850200004EF68850DD
:10027000CEF20000016841F47001016000F004B8A2
:10028000FEE7FEE7FEE70000DFF80CD006F098FC82
:10029000004800472D58000008100020EFF31080A0
:1002A00072B67047EFF310807047EFF3108062B6BC
:1002B000704730BF704780F311887047EFF31180AB
:1002C000704700000138FDD17047000030B502468C
:1002D000F84B1824F8480068F84D2840F84DA8421B
:1002E00001D1F84B00BF002108E053F831009042E3
:1002F00003D103EBC100406830BD491CA142F4D3D7
:100300000020F9E702F001031BB1D0F800340B43E1
:1003100002E0D0F800348B43C0F8003402F002034E
:100320001BB1D0F820340B4302E0D0F820348B43CB
:10033000C0F82034704730B5024601208840C1B271
:10034000D2F80034D2F8204403EA010008B10120B9
:1003500000E0002004EA01050DB1022500E00025BF
:10036000284330BD02F001031BB1D0F808340B4321
:1003700002E0D0F808348B43C0F8083402F00203DE
:100380001BB1D0F804340B4302E0D0F804348B43A3
:10039000C0F8043402F004031BB1D0F80C340B4352
:1003A00002E0D0F80C348B43C0F80C3402F48033F4
:1003B00023B1D0F8383543F0010303E0D0F83835E5
:1003C00023F00103C0F838357047F0B5024601202C
:1003D0008840C1B2D2F80834D2F80444D2F80C6490
:1003E000D2F8385503EA010008B1012000E00020EE
:1003F00004EA01070FB1022700E00027384306EAAC
:1004000001070FB1042700E00027384305F001077A
:10041000384310B14FF48030F0BD0020FCE7F0B558
:1004200002F001051DB1D0F800550D4302E0D0F8EF
:1004300000558D43C0F8005502F002051DB1D0F8FB
:1004400004550D4302E0D0F804558D43C0F804551F
:1004500002F004051DB1D0F808550D4302E0D0F8B4
:1004600008558D43C0F8085502F008051DB1D0F8B5
:1004700018550D4302E0D0F818558D43C0F81855B3
:1004800002F010051DB1D0F83C550D4302E0D0F844
:100490003C558D43C0F83C55002416E00125A5408D
:1004A0000D4085B1D0F8C45F67000326BE40B54358
:1004B000C0F8C45FD0F8C45F6700C2F34116BE4005
:1004C0003543C0F8C45F651CECB2082CE6DB03F0D2
:1004D00001051DB1D0F80C550D4302E0D0F80C55C4
:1004E0008D43C0F80C5503F002051DB1D0F810552E
:1004F0000D4302E0D0F810558D43C0F8105503F0BD
:1005000004051DB1D0F814550D4302E0D0F8145580
:100510008D43C0F8145503F008051DB1D0F81C55E3
:100520000D4302E0D0F81C558D43C0F81C5503F470
:1005300000751DB1D0F844550D4302E0D0F8445584
:100540008D43C0F8445503F440751DB1D0F84055B3
:100550000D4302E0D0F840558D43C0F840551BB91B
:10056000D0F828550D4302E0D0F828558D43C0F847
:100570002855F0BDF0B514461D4601268E40F1B257
:10058000D0F800650E400EB1012600E0002632468C
:10059000D0F804650E400EB1022600E0002632437A
:1005A000D0F808650E400EB1042600E00026324364
:1005B000D0F818650E400EB1082600E00026324340
:1005C000D0F83C650E400EB1102600E00026324304
:1005D000D0F8C46F4F00FE4006F0030642EA461210
:1005E0002260D0F80C650E400EB1012600E0002616
:1005F0003346D0F810650E400EB1022600E000260A
:100600003343D0F814650E400EB1042600E00026F6
:100610003343D0F81C650E400EB1082600E00026DA
:100620003343D0F840650E404EB1D0F844650E40DB
:1006300016B14FF4007601E04FF4807633432B601F
:10064000F0BDD0F810240A43C0F810247047D0F849
:1006500010248A43C0F810247047024611B1D2F822
:1006600018047047D2F81404FBE7C0F81C14704754
:1006700070B504460D462046FFF728FE064629467B
:10068000304600F031FA304600F08AFA70BD70B59D
:1006900004462046FFF71AFE0546284600F0BCFA3D
:1006A000284600F03BFA70BD0246002000EB8100B6
:1006B00010587047647C000000E00F400000FF709D
:1006C00000000A10247D0000002303EB8103C250C8
:1006D000704730B504460D46002229462046FFF7F4
:1006E00011FE0023012229462046FFF798FE30BD67
:1006F00030B504460D46022229462046FFF702FE89
:100700000823042229462046FFF789FE30BD30B574
:1007100004460D46002229462046FFF7F3FD00233C
:10072000012229462046FFF77AFE30BD30B5044647
:100730000D46022229462046FFF7E4FD0823042245
:1007400029462046FFF76BFE30BD30B504460D4606
:10075000022229462046FFF7D5FD08230422294618
:100760002046FFF75CFE30BD30B504460D46022240
:1007700029462046FFF7C6FD0823042229462046C5
:10078000FFF74DFE30BD30B504460D460222294626
:100790002046FFF7B7FD0823012229462046FFF730
:1007A0003EFE30BD30B504460D46002229462046A7
:1007B000FFF7A8FD0823012229462046FFF72FFE58
:1007C00030BD30B504460D46082301222946204697
:1007D000FFF725FE012229462046FFF793FD30BD95
:1007E00030B504460D460923012229462046FFF76D
:1007F00016FE012229462046FFF784FD30BD30B5A4
:1008000004460D46022229462046FFF77BFD0923B8
:10081000012229462046FFF702FE30BD30B50446CE
:100820000D46022229462046FFF76CFD08230122CF
:1008300029462046FFF7F3FD30BD30B504460D468E
:10084000022229462046FFF75DFD0823042229469F
:100850002046FFF7E4FD30BD30B504460D460222C8
:1008600029462046FFF74EFD08230422294620464C
:10087000FFF7D5FD30BD30B504460D4600222946B0
:100880002046FFF73FFD0023012229462046FFF7BF
:10089000C6FD30BD30B504460D460222294620462D
:1008A000FFF730FD0823012229462046FFF7B7FD58
:1008B00030BD30B504460D46022229462046FFF7DA
:1008C00021FD0823012229462046FFF7A8FD30BD5F
:1008D00030B504460D46022229462046FFF712FD98
:1008E0000A23012229462046FFF799FD30BD30B585
:1008F00004460D46022229462046FFF703FD082341
:10090000012229462046FFF78AFD30BD30B5044656
:100910000D46022229462046FFF7F4FC0823012257
:1009200029462046FFF77BFD30BD30B504460D4615
:10093000022229462046FFF7E5FC0823012229462A
:100940002046FFF76CFD30BD30B504460D46002251
:1009500029462046FFF7D6FC0023012229462046DF
:10096000FFF75DFD30BD30B504460D460222294635
:100970002046FFF7C7FC0823012229462046FFF73F
:100980004EFD30BD30B504460D46002229462046B6
:10099000FFF7B8FC4FF40273012229462046FFF707
:1009A0003EFD30BD30B504460D46002229462046A6
:1009B000FFF7A8FC4FF48473012229462046FFF775
:1009C0002EFD30BD30B504460D4602222946204694
:1009D000FFF798FC0823012229462046FFF71FFD58
:1009E00030BD30B504460D46022229462046FFF7A9
:1009F00089FC0A23012229462046FFF710FD30BD5D
:100A000030B504460D46022229462046FFF77AFCFF
:100A10000823042229462046FFF701FD30BD30B5EA
:100A200004460D46022229462046FFF76BFC0823A8
:100A3000012229462046FFF7F2FC30BD014601F5B0
:100A4000A960704710B50146C1F307401B4BDB6E30
:100A500001248440234033B1012303EB4003184CAD
:100A600054F8230003E04300154C54F82300C1F36D
:100A70000722D0F82C350F249440A34301F00F0433
:100A800094402343C0F82C3510BDD0F834250A43D8
:100A9000C0F834257047D0F834258A43C0F834258F
:100AA0007047D0F830250A43C0F830257047D0F899
:100AB00030258A43C0F830257047000000E00F4021
:100AC000E47D000000BFFEE710B5FFF7EEFB08B1C4
:100AD000012010BD0020FCE710B5FFF7DFFB08B1D7
:100AE000012010BD0020FCE730B50246B64C24685A
:100AF000B64DAC420ED0B44C2368002005E053F84C
:100B00002040B24D45F82040401C9B28F7D3AF4C05
:100B1000AD4D2C60AD4C44F8221030BDAC49AB4A11
:100B200042F820107047AB4951F82010AA4A1143EF
:100B3000A54A121D11607047A34A121D126802F4E3
:100B4000E061002006E0A34A52F820208A4200D14A
:100B500002E0401C0828F6D300BF704710B50A46D3
:100B600083089E4C54F8233019688307DC0EFF235A
:100B7000A34099438307DB0E02FA03F3194383086A
:100B8000964C54F82330196010BD01468808934AEA
:100B900052F8200000688A07D20ED040C0B27047D9
:100BA000042808D188491C31096841F48031864AFB
:100BB0001C3211602FE0052808D183491C310968D7
:100BC00041F40031804A1C32116024E0062808D12B
:100BD0007D491C31096841F480217B4A1C32116037
:100BE00019E00F2808D14FF0E021096941F0020116
:100BF0004FF0E02211610EE010280CD3A0F110019B
:100C000001F01F0201219140A0F110025209744B22
:100C100053F8222011607047042808D16A491C311A
:100C2000096821F48031684A1C3211602FE00528E0
:100C300008D165491C31096821F40031624A1C322F
:100C4000116024E0062808D15F491C31096821F4AD
:100C500080215D4A1C32116019E00F2808D14FF045
:100C6000E021096921F002014FF0E02211610EE05C
:100C700010280CD3A0F1100101F01F0201219140B6
:100C8000A0F110025209574B53F82220116070470F
:100C900010B501460020042905D14B4A1C321268C8
:100CA00002F4803028E0052905D1474A1C32126839
:100CB00002F4003020E0062905D1434A1C321268B4
:100CC00002F4802018E00F2905D14FF0E0221269CC
:100CD00002F0020010E010290ED3A1F11002520917
:100CE0003F4B53F822201268A1F1100303F01F04B8
:100CF0000123A34002EA030010BD022808D13249B3
:100D0000091F096841F000412F4A121F116024E0B9
:100D10000E2808D12C49091F096841F080512A4A40
:100D2000121F116019E00F2808D12749091F09680F
:100D300041F08061244A121F11600EE010280CD38C
:100D4000A0F1100101F01F0201219140A0F1100259
:100D50005209254B53F82220116070470E2808D104
:100D60001949091F096841F00061174A121F1160F3
:100D700019E00F2808D11449091F096841F00071D2
:100D8000114A121F11600EE010280CD3A0F11001BF
:100D900001F01F0201219140A0F110025209134BF2
:100DA00053F822201160704710B504462046FFF723
:100DB00082FA10BD10B5FFF781FA10BDA0F1100145
:100DC0000B4A11607047000008ED00E000040020AD
:100DD000C50A0000747E00000000FA05947E000041
:100DE000307F0000447F0000587F00006C7F0000CF
:100DF00000EF00E010B501440B68F94C23401343A9
:100E00000B6002F0020323B1B0230B621B014B62A3
:100E100004E08C230B6240F60C034B6210BD0144CE
:100E20000B6803F0020313B153080B6101E0531E7A
:100E30000B61704702461144086800F0020010B1CF
:100E40000869400070470869401CFBE7425842F0BF
:100E5000010242507047425822F00102425070474E
:100E600030B5044621F03F052819056805F0020554
:100E700005B1520803699B1A01F001050DB1C36168
:100E800000E0836130BD30B503460A4622F03F05DD
:100E9000E9180C6902F001050DB1C86900E0886924
:100EA000201A0D6805F0020505B1400030BD10B5EF
:100EB0000144CA620B638C6A44F001048C6210BD69
:100EC0004218926A22F0010243189A627047016048
:100ED000704741607047012A03D183680B438360E8
:100EE00002E083688B4383607047012A03D1C368A3
:100EF0000B43C36002E0C3688B43C3607047012AA1
:100F000003D1436A0B43436202E0436A8B4343626B
:100F10007047012A03D103690B43036102E00369AF
:100F20008B430361704710B502465018AD4C031B4C
:100F3000A04246D009DCAC4B184468B140281FD011
:100F4000802828D0C02868D130E0402B44D0802BA6
:100F50004DD0C02B61D155E0A4480068A44B184087
:100F6000A44B984201D11A2010BDA0480068A04BA4
:100F70001840A14B984201D11A20F5E70020F3E771
:100F80009A4800689A4B18409B4B984201D11B200D
:100F9000EAE70020E8E795480068954B1840964B33
:100FA000984201D11C20DFE70020DDE78F48006870
:100FB0008F4B1840904B984201D13B20D4E7002042
:100FC000D2E78A4800688A4B18408A4B984201D180
:100FD0009620C9E70020C7E784480068844B184082
:100FE000844B984201D19720BEE70020BCE77F48A0
:100FF00000687F4B18407F4B984201D19820B3E79F
:101000000020B1E779480068794B1840794B984245
:1010100001D19920A8E70020A6E70020A4E72DE948
:10102000F04105460E46144631462846FFF77BFF41
:10103000074621463846FFF757FD3846FFF7B0FD13
:10104000BDE8F08170B504460D4629462046FFF7FD
:101050006AFF06463046FFF7DFFD3046FFF75EFDCC
:1010600070BD014661480068614A1040614A904283
:1010700006D16248814201D1192070479A20FCE7CD
:101080005A4800685A4A10405B4A904206D15B4871
:10109000814201D11920F0E70020EEE70020ECE7C3
:1010A00070B504460D462046FFF7DBFF064629468D
:1010B0003046FFF719FD3046FFF772FD70BD70B581
:1010C00004462046FFF7CDFF05462846FFF7A4FD5E
:1010D0002846FFF723FD70BD10B543185B68134326
:1010E0004418636010BD10B543185B6893434418FF
:1010F000636010BD03461944012A01D1C8687047D6
:101100008868FCE74318DA60704742690A43426125
:10111000704742698A43426170474FF48031C16130
:1011200070470246012901D1D06970479069FCE7F8
:10113000C161704730B54418E263A1F1400400F585
:10114000006545F8143030BD10B512B9441863631A
:1011500001E04418A36310BD034612B95818406B50
:1011600070475818806BFBE710B503463AB9A1F1F8
:10117000400003F5006404EB4000406810BDA1F19D
:10118000400003F5006404EB40008068F6E730B5EA
:101190003AB9A1F1400400F5006505EB4404636031
:1011A00006E0A1F1400400F5006505EB4404A360EE
:1011B00030BDD0F8C82F40F207139A430A43C0F855
:1011C000C82F70470146D1F8C80F00F4807008B9E5
:1011D00000207047D1F8C80F40F207121040F8E71E
:1011E0000100F8FF40900240C07FFDBF00E00F40CB
:1011F0000000FF700000051000000A10008002408F
:101200002DE9F0410346002001240026002514E0CA
:1012100004EA010CBCF1000F0DD04FEA400C02FAB9
:101220000CFC4CEA06064FEA40084FF0030C0CFA9F
:1012300008FC4CEA05056400401C0828E8D3D3F8F4
:1012400028C02CEA050747EA060CC3F828C0BDE809
:10125000F0810000024600210AE0F74850F8310012
:10126000904204D3F44800EBC10040687047491C29
:101270000729F2D30020F9E7F0B50146DFF8BCC337
:10128000DCF860C1CCF38923DFF8B0C3DCF860C1BF
:10129000CCF30905DFF8A4C3DCF864C1CCF3042C5B
:1012A0000CF10106DFF894C3DCF864C10CF01F0CEC
:1012B0000CF10107B1FBF7F15A09A3EB421401FB52
:1012C00005F001FB02FC00EB5C1001FB04FC00EBF1
:1012D0009C20B0FBF6F0F0BDD8483C380068401CBC
:1012E00000027047D5480068D5490840D549884272
:1012F00006D1D24880680004400900F500607047BC
:10130000CE484038006880B2401CC002F7E7CB48A6
:101310000068CB490840CC49884209D1C7484038C9
:101320000068C0F302400A30012101FA00F0704762
:101330004FF48060FBE70146C1F30720C34A104425
:1013400000F0704040F00070C1F30722BF4B1A4418
:10135000C2F3130240EA4210CAB240EA82000068B7
:1013600008B1012070470020FCE70146C1F30720C7
:10137000B74A104400F0704040F00070C1F30722FB
:10138000B34B1A44C2F3130240EA4210CAB240EA15
:101390008200006808B1012070470020FCE710B50A
:1013A0000121C0F30722AB4B1A4402F0704242F015
:1013B0000072C0F30723A74C2344C3F3130342EA8C
:1013C0004312C3B242EA8302116010BD10B500217E
:1013D000C0F307229F4B1A4402F0704242F00072A1
:1013E000C0F307239B4C2344C3F3130342EA431285
:1013F000C3B242EA8302116010BD18B50121C0F3E7
:101400000722954B1A4402F0704242F00072C0F37A
:101410000723914C2344C3F3130342EA4312C3B29C
:1014200042EA830211600021009102E00099491C08
:10143000009100991029F9D30021C0F30722864BAF
:101440001A4402F0704242F00072C0F30723824C4B
:101450002344C3F3130342EA4312C3B242EA8302B2
:10146000116018BD10B50121C0F307227B4B1A444F
:1014700002F0704242F00072C0F30723774C23441D
:10148000C3F3130342EA4312C3B242EA8302116078
:1014900010BD10B50021C0F30722704B1A4402F0B2
:1014A000704242F00072C0F307236C4C2344C3F334
:1014B000130342EA4312C3B242EA8302116010BD31
:1014C00010B50121C0F30722654B1A4402F07042A7
:1014D00042F00072C0F30723614C2344C3F31303AB
:1014E00042EA4312C3B242EA8302116010BD10B552
:1014F0000021C0F307225A4B1A4402F0704242F016
:101500000072C0F30723564C2344C3F3130342EA8B
:101510004312C3B242EA8302116010BD10B501212B
:10152000C0F307224F4B1A4402F0704242F000729F
:10153000C0F307234B4C2344C3F3130342EA431283
:10154000C3B242EA8302116010BD10B50021C0F39E
:101550000722444B1A4402F0704242F00072C0F37A
:101560000723404C2344C3F3130342EA4312C3B29C
:1015700042EA8302116010BD30490968304A1140C7
:10158000304A91420ED130B12C49096E41F00061D0
:101590002A4A116618E02949096E21F00061274A9C
:1015A000116611E040B12549B031096841F00051A0
:1015B000224AC2F8B01007E02049B031096821F092
:1015C00000511E4AC2F8B010704710B504462146BB
:1015D0002C20FFF789FA2C20FFF7E2FA10BD10B596
:1015E0002C20FFF719FB2C20FFF798FA10BD1349A8
:1015F000496D0143114A516570471049496D814356
:101600000E4A516570470D4988657047014611B112
:101610000A48806D70470948006DFBE71249086071
:1016200070471148006870470F49083108607047DB
:101630000D480830006870470C81000000E00F4042
:101640000000FF700000051000000A1000E30F40CA
:1016500000EA0F4000E90F4000E50F4000E60F40B0
:1016600000E70F4000E80F40B4E10F40FE4908607A
:101670007047FD49091D08607047FC48FC49086037
:1016800000BFFEE710B5FEF714FE10BD10B5F84818
:10169000001D006840F00400F549091D0860FEF7D0
:1016A00008FEF348001D006820F00400F049091D01
:1016B000086010BDEF48C06D7047EE49C96D8143A9
:1016C000EC4AD1657047EB49C86770470146EA4864
:1016D000084050B101F00040E34A383A1060E64853
:1016E00081380840E34AC2F85001DF4838380160C9
:1016F00001F4007088B100BFDB483438006800F4A2
:1017000040700028F8D0D8483438006800F44070A1
:10171000B0F5807F01D0002070470120FCE7D2495E
:10172000503108607047D0485030006870472DE94C
:10173000FE4F05468A46CF480068D0490840D04948
:10174000884202D10020BDE8FE8FC5F3841605F063
:101750003800102805D1DFF82C93002700BF15268C
:1017600033E005F03800302804D147F230594FF407
:1017700000172AE005F03800382804D14FF400495A
:101780004FF4800721E005F03800D8B91A2E01DCAB
:10179000092E01DA0020D6E7BB4850F826904FF416
:1017A000401747F04077B348C06F20F01C0001900D
:1017B000072E03DB019840F010000190AD4901981D
:1017C000C86702E04FF00009002705F460500028C8
:1017D0007ED105F0380028B105F03800102801D07E
:1017E0000020B0E7C5F3026BA848FFF733FDA1491D
:1017F000C03108609F48D0F8B000A54900EA010454
:1018000044F000449B48B0300460093E0BEBCB0031
:10181000A04901EB001000EBC60040689549D1F8E3
:10182000641188420DD10BEBCB009A4901EB0010FB
:1018300050F8360040F400008B4928390968884286
:1018400002D00120009001E000200090009808B331
:101850008848B030006838438649C1F8B0000BEBC7
:10186000CB008C4901EB001000EBC60040687E49BC
:10187000243908600BEBCB00864901EB001050F8CF
:10188000360079492839096801F40001084376498E
:1018900028390860804850F82B005044401EB0FBA7
:1018A000FAF84846FFF7E8FCB0FBF8FA5046FFF7B5
:1018B000D1FC7049C03108606E48D0F8600100F476
:1018C000000068B10098012812D16A48B03000E0E9
:1018D00034E0006840F080406649C1F8B00007E09D
:1018E00061482838006840F400006249C1F860018E
:1018F0004FF40040029009E05B482038006800F097
:10190000010000B105E00298401E029002980028F4
:10191000F2DC00BF029870B15648B0300468A8F1FC
:101920000100384340F08050044344F000445148E3
:10193000C0F8B0403CE04FF0000A39E05148FFF7F2
:1019400089FC4C49C03108604A48D0F8600120F455
:1019500000004849C1F860010846D0F8B0404F483F
:10196000044044F000444348B0300460BAF1000F32
:1019700002D14FF000080AE0B9FBFAF8B8F1000F05
:1019800001D0A8F1010808F10100B9FBF0FA5046B6
:10199000FFF760FC3749C03108603648D0F8B040E6
:1019A00047EA8820044344F000443248B0300460E1
:1019B0005046C8E62DE9F04106462E48056E046FF4
:1019C00045F4006525F4800544F400640566046769
:1019D00005F0010010B306F00100F8B966F001004F
:1019E00005402448056604F0004038B104F070005A
:1019F00030280AD004F07000702806D004F00040AF
:101A000040B905F03000302804D14FF48050FEF783
:101A100059FC03E04FF40020FEF754FC25F4FE656A
:101A200006F4FE6005431E4804401D49A13106EA44
:101A30000100044306F0080044EAC0040D480566AE
:101A400004671020FEF73EFC25F4005506F4005014
:101A5000054324F4005406F4005004434020054993
:101A6000886504F000401DE088E10F400400FA059D
:101A70000CED00E000E00F40000100800000FF706E
:101A8000000005100024F400807F000040787D01F4
:101A900000FC0FE0EC7F000044810000FF0300EF3A
:101AA0008FFFFF7F18B108460467056602E0B5485E
:101AB00005660467B4480540C14306EA01000543D2
:101AC00024F0FC5406F0FC50044306F0804040B182
:101AD00045F4800524F48004AC4906EA010004437F
:101AE00001E024F0804406F4006080B94FF4004720
:101AF00006E0A448006D00F0400000B102E07F1E47
:101B0000002FF6D100BF25F4006524F400649D4841
:101B1000056604671020FEF7D5FBBDE8F08170B5BF
:101B20009848036E016F01F0004010B101F07000A1
:101B300001E003F03000202811D003DC38B1102878
:101B400015D10AE030280CD0702810D10CE0904854
:101B5000C3F3841650F826200BE08E4A09E08E4A23
:101B600007E047F2305204E04FF4004201E0002069
:101B700070BD00BF01F0004010B101F4006028B159
:101B800001F00040E0B903F40060C8B9834805687B
:101B90007C48D0F8644104F01F00401CC4F30426C4
:101BA000761C10FB06F04000B2FBF0F2C5F3090012
:101BB0005043C5F38926564300EB962243F4800335
:101BC00003F4800018B301F00040D8B101F0804068
:101BD00090B101F0004010B101F4006028B101F0B3
:101BE000004048B903F4006030B95600C1F3865094
:101BF000401CB6FBF0F20AE0C1F3C550401CB2FB3A
:101C0000F0F204E0C3F3C350401CB2FBF0F2104604
:101C1000AEE762491C39086070472DE9F04107467C
:101C20000D46584800685E4908405E49884208D120
:101C300025F0FC51781E41EAC05058491C39086013
:101C40002FE07C1E05F0700030B1102813D0302832
:101C500006D070280ED108E044F44014524E0CE037
:101C600044F4001447F2305607E044F480044FF483
:101C7000004602E000BF474E00BF00BF05F0020073
:101C800008B144F0004405F0804008B144F08044BD
:101C900042481C3804603046FFF7DCFA3949C1F885
:101CA000C800BDE8F0813749096E21F4F011014305
:101CB000344A116670473348006E00F4801008B94A
:101CC000002070472F48006E00F4F010F9E7334908
:101CD0006039096821F4706101432A4AC2F8001191
:101CE0002E495039096821F470610143C2F810117E
:101CF00070472A486038006800F4706070472149D6
:101D0000C96E00F00F0301229A4011431D4AD166AB
:101D100070471C49C96E00F00F0301229A4091439D
:101D2000184AD16670471748006F20F48040154963
:101D3000086770471348006F40F4804011490867F6
:101D400070471049886370470E48006E70470D4910
:101D5000096E01430B4A116670470A48406E70478E
:101D60000849496E8143074A516670474A1ED2B2FC
:101D700002430A4B183B1A6070470849283908602B
:101D80007047000000E00F40FEFF3FF800004040B9
:101D9000807F00000024F40000093D0060E10F4056
:101DA0000000FF700000051040787D014FF0E0203A
:101DB000006940F005004FF0E021086170474FF0E6
:101DC000E020006920F001004FF0E0210861704739
:101DD00010B5044621460F20FEF786FE4FF0E020A6
:101DE000006940F002004FF0E021086110BD10B51D
:101DF0004FF0E020006920F002004FF0E021086180
:101E00000F20FEF78BFE10BD4FF0E020006940F080
:101E100002004FF0E021086170474FF0E0200069B8
:101E200020F002004FF0E02108617047411E4FF0A2
:101E3000E022516170474FF0E0204069401C70473C
:101E40004FF0E02080697047F0B503460C46B74D6F
:101E50000C26B7480068B74F3840B74FB84201D199
:101E6000B64D082600210DE055F83100984208D102
:101E700005EBC1004268B4F57F4F00D1521C1046FB
:101E8000F0BD491CB142EFD30020F9E7C26840F22F
:101E900001130B401A43C2607047C26840F201133D
:101EA0000B409A43C2607047C26840F201139A43E4
:101EB000C2600A0E02609E4A12689E4B1A409E4BF8
:101EC0009A4211D1CAB201F4702342EA131242F4C9
:101ED0000072426001F47002C1F3072343EA122248
:101EE00042F40072826008E0CAB242F400724260BA
:101EF000C1F3072242F400728260704744F240034B
:101F0000194012B1C3680B4301E0C3688B43C3603F
:101F1000704710B5864B1B68864C2340864CA34205
:101F20000AD140F201130B4012B1046F1C4301E0CF
:101F3000046F9C43046700BF42F22003194012B1B2
:101F4000C3680B4301E0C3688B43C36010BD10B589
:101F500040F60C431940C3688B4302EA0104234353
:101F6000C36010BD40F20223194012B1C3680B4395
:101F700001E0C3688B43C3607047CBB24BB122B161
:101F8000436843F04003436003E0436823F04003A9
:101F9000436001F47F434BB122B1836843F04003B7
:101FA000836003E0836823F0400383607047C16867
:101FB00041F01001C1607047C16821F01001C1609B
:101FC0007047C0F8C81F70470146D1F8C80F704766
:101FD000CBB203B1826301F47F4303B1C2637047A4
:101FE0000246FF2901D1906B7047D06BFCE7CBB262
:101FF00003B1026401F47F4303B1426470470246B7
:10200000FF2901D1106C7047506CFCE7CBB203B1D3
:10201000826201F47F4303B1C26270470246FF2926
:1020200001D1906A7047D06AFCE7C3628262704750
:1020300030B5034600BFDA6A9C6ADD6AAA42FAD16B
:10204000002001462043114330BD0246FF2901D143
:10205000906C7047D06CFCE730B5034600BFDA6C7B
:102060009C6CDD6CAA42FAD100200146204311434A
:1020700030BDCBB203B1026301F47F4303B14263CD
:1020800070470246FF2901D1106B7047506BFCE787
:1020900043630263704730B5034600BF5A6B1C6B45
:1020A0005D6BAA42FAD1002001462043114330BDA6
:1020B0002DE9F04105460E46144631462846FFF705
:1020C000C3FE074621463846FEF70EFD3846FEF7AA
:1020D00067FDBDE8F08170B504460D4629462046EF
:1020E000FFF7B2FE06463046FEF796FD3046FEF795
:1020F00015FD70BD82690A438261704782698A4317
:1021000082617047024609B1106A7047D069FCE7E6
:102110004162704701617047016770470146086F6F
:102120007047C16670470146C86E70474C81000019
:1021300000E00F400000FF7000000A10AC810000BA
:1021400030B50246C54B0824C5480068C54D284037
:10215000C54DA84201D1C54B00BF002108E053F88E
:102160003100904203D103EBC100406830BD491CEF
:10217000A142F4D30020F9E7C26A22F086020A43A2
:10218000C26270470146C86A00F08600704741EAA3
:1021900002034363704710B5436B03F007040C6000
:1021A00003F03804146010BDC16A41F01001C1622F
:1021B000016B40F2013211430163704700BF816936
:1021C00001F008010029FAD1C16A21F01001C162B1
:1021D000016B40F20132914301637047F0B5044650
:1021E0000E4615461F462046FFF7E8FFB6EB051FD3
:1021F00005D2206B40F0200020636D0803E0206BC7
:1022000020F020002063F000B0FBF5F0401C4308F4
:102210009809606203F03F00A062E7620020A061BD
:102220002046FFF7C1FFF0BDF0B5446A856A8E0015
:10223000402707FB0457B6FBF7F61660066B06F05F
:10224000200616B1166876001660C66A06F0EE061D
:102250001E60F0BDC16A41F01001C1627047C16AE1
:1022600021F01001C162704721B1026B42F00602F9
:10227000026303E0026B42F0020202637047016BEB
:1022800021F0060101637047C16A21F0E60141F0C7
:102290006E01C162026B42F0080202637047016B7B
:1022A00021F0080101637047026B01F440631A4397
:1022B00002637047026B01F440639A430263704704
:1022C0000146086B00F4406070470146886940F29F
:1022D000071210407047026B22F440420A43026327
:1022E00070470146086B00F440407047026B22F0D3
:1022F00010020A43026370470146086B00F01000A9
:10230000704701468869012222EA10107047014691
:102310008869012222EA501070470146886900F05E
:10232000100008B9086870474FF0FF30FBE701461E
:1023300000BF886900F010000028FAD108687047D3
:102340000246906900F0200010B91160012070472A
:102350000020FCE700BF826902F02002002AFAD1C7
:102360000160704719B1C26A42F0010202E0C26A1C
:1023700022F00102C262704701468869C0F3C000C2
:10238000704770B504460D462046FFF7D9FE064655
:1023900029463046FEF7A8FB3046FEF701FC70BD2B
:1023A00070B504462046FFF7CBFE05462846FEF7EB
:1023B00033FC2846FEF7B2FB70BD826B0A43826392
:1023C0007047826B8A4382637047024609B1106C82
:1023D0007047D06BFCE741647047826C0A438264AB
:1023E0007047826C8A43826470470146486800F0F7
:1023F0000F007047002141607047C0F8C81F704748
:102400000146D1F8C80F7047D0F8A41041F400413C
:10241000C0F8A4107047D0F8A41021F40041C0F80F
:10242000A4107047C0F8A410C0F8A82070470A464E
:1024300000BF836903F08803802BFAD1C16A21F0C1
:10244000040343F08203C362026000BF836903F0A8
:102450008803802BFAD1C16270470000EC81000034
:1024600000E00F400000FF7000000A102C82000006
:1024700010B50D48FEF7F6FF80210C48FEF7A1F9D4
:10248000002280210948FEF71FF910BD10B506484B
:10249000FEF7E8FF20210548FEF793F920221146B8
:1024A0000248FEF711F910BD050800F00050024087
:1024B00010B50446012C06D1102211464FF04020E1
:1024C000FEF702F905E0002210214FF04020FEF750
:1024D000FBF810BD10B50446012C06D12022114690
:1024E0004FF04020FEF7F0F805E0002220214FF0E9
:1024F0004020FEF7E9F810BD70B5002406E0002585
:1025000000E06D1CB5F57A7FFBD3641CB4F57A7FCF
:10251000F5D3FE48FEF7A6FF10214FF04020FEF74E
:1025200050F920214FF04020FEF74BF90120FFF732
:10253000BFFF0120FFF7CEFF70BD10B50120FFF7F0
:10254000C9FF0120FFF7B4FF0020FFF7C3FF002001
:10255000FFF7AEFF10BD10B50020FFF7BBFF012055
:10256000FFF7A6FF0120FFF7B5FF10BD70B50546C8
:10257000002411E080212141294009B1012100E01E
:1025800000210846FFF7A6FF0120FFF791FF00207A
:10259000FFF78EFF601CC4B2082CEBDB0120FFF7B5
:1025A00087FF0020FFF784FF70BD10B50446FFF7DA
:1025B000C4FF7820FFF7DAFF0020FFF7D7FF20469F
:1025C000FFF7D4FFFFF7C7FF10BD70B505460E46F5
:1025D000FFF7B3FF7820FFF7C9FF4020FFF7C6FFE2
:1025E000002404E0285DFFF7C1FF601CC4B2B442C0
:1025F000F8DBFFF7B0FF70BD70B505460C4645F03F
:10260000B000FFF7D2FF102141EA1410FFF7CDFF11
:1026100004F00F00FFF7C9FF70BD10B500240BE0F8
:1026200000212046FFF7E8FFB94901EBC4108021E3
:10263000FFF7CBFF601CC4B2082CF1DB10BD0020FB
:102640000CE0002106E00022B14B03EBC0135A540A
:102650004A1CD1B28029F6DB421CD0B20828F0DB3C
:10266000704710B5FFF748FFAE20FFF79EFFD5205B
:10267000FFF79BFF8020FFF798FFA820FFF795FF4B
:102680003F20FFF792FFD320FFF78FFF0020FFF7D7
:102690008CFF4020FFF789FFA120FFF786FFC820AD
:1026A000FFF783FFDA20FFF780FF1220FFF77DFF9F
:1026B0008120FFF77AFFCF20FFF777FFD920FFF7C0
:1026C00074FFF120FFF771FFDB20FFF76EFF302072
:1026D000FFF76BFFA420FFF768FFA620FFF765FF59
:1026E0008D20FFF762FF1420FFF75FFFAF20FFF799
:1026F0005CFFFFF7A4FFFFF790FF10BD10B5024687
:10270000012000E050430B1EA1F10101FAD110BDE0
:102710002DE9F04305460C461F46079E4FF0000C7E
:1027200000216B1E34E032F91100B04201DD0120BE
:1027300000E0002032F91380B04502DD4FF00108BF
:1027400001E04FF0000840451FD034F9130034F980
:102750001180A0EB080032F91180A6EB080800FBFD
:1027600008F032F9138032F91190A8EB090890FBB8
:10277000F8F034F911804044B84206DDBCF1000F96
:1027800001D1012000E0002084460B46481C01B224
:10279000A942C8DB0CF0FF00BDE8F0832DE9F04151
:1027A0002DED0A8B80460F4614461D46404603F029
:1027B000FDFF41EC1B0B384603F0F8FF41EC1C0B0E
:1027C000B0EE4B1AF0EE6B1AB0EE4C0AF0EE6C0A5B
:1027D00004F0BEFBB0EE40AAF0EE60AA9FED4D0BF8
:1027E00053EC102B51EC1A0B03F071FF41EC180B5A
:1027F0009FED4A0B53EC102B03F0F7FE41EC190B45
:1028000003F0F2FF06B2AC4208DAA6420CDBAE429D
:102810000ADC0120BDEC0A8BBDE8F081A64201DA9A
:10282000AE4201DC0120F5E70020F3E72DE9F04797
:1028300006460D46174698462846E91705EB51719E
:10284000C9100FFA81F905EB0801481EC11700EB0A
:102850005171C910491C0FFA81FA002D07DAA9F14C
:1028600001000FFA80F9AAF101000FFA80FA4C4634
:1028700014E0002E10DB7F2E0EDC002C0CDB072C6E
:102880000ADCF1B2E0B2FFF7B7FE214901EBC41157
:1028900088193946FFF799FE601C04B25445E8DBFD
:1028A000BDE8F0872DE9F04304460D4616461F4665
:1028B000284646E022463FE0002A3BDB7F2A39DCFF
:1028C000002837DB3F2835DC4FEAE07C00EB5C7CFE
:1028D0004FEAEC0CDFF8388008EBCC1C1CF802C087
:1028E00003464FEAE07800EB58784FEAE808A0EB9F
:1028F000C8094FF0010808FA09F82CEA080C01464B
:102900004FEAE07800EB58780CE00000000800F097
:102910006C0600201F85EB51B81E09400000000026
:10292000008066404FEAE808DFF8249409EBC818F5
:1029300008F802C0511C0AB2A1199142BCDC411C2A
:1029400008B2E9198142B5DCBDE8F083002011E04E
:1029500000210BE0FE4A02EBC012525C82F0FF0243
:10296000FB4B03EBC0135A544A1CD1B28029F1DB54
:10297000421CD0B20828EBDB70472DE9F043044637
:102980000D4616461F46284638E0224631E0002A0A
:102990002DDB7F2A2BDC002829DB3F2827DC4FEAB0
:1029A000E07C00EB5C7C4FEAEC0CDFF8A48308EBE6
:1029B000CC1C1CF802C003464FEAE07800EB5878C4
:1029C0004FEAE808A0EBC8094FF0010808FA09F837
:1029D0008CEA080C01464FEAE07800EB58784FEAA1
:1029E000E808DFF86C9309EBC81808F802C0511C1E
:1029F0000AB2A1199142CADC411C08B2E91981420C
:102A0000C3DCBDE8F0832DE9FF4F80460E469146BA
:102A1000DDF834B0002500244A4631464046039B89
:102A2000FFF740FF00BF5EE0002558E008EB05001F
:102A3000002852DB08EB05007F284EDC3046F117FA
:102A400006EB5171C9100FB2F11706EB5171C910A5
:102A5000A6EBC10A002E05DA781E07B20AF10800BB
:102A60000FFA80FA3819002817DB3819072814DC08
:102A70003819B74901EBC01008EB0501405C04FBB5
:102A800009511BF8011001FA0AF108433919B04A3B
:102A900002EBC11108EB050288543819401C0028CC
:102AA0001BDB3819401C072817DC3819401CA849C3
:102AB00001EBC01008EB0501405C04FB09511BF859
:102AC0000110CAF10802114108433919491CA04AF2
:102AD00002EBC11108EB05028854681CC5B24D45D4
:102AE000A4DB601CC4B20399481EC11700EB5171EE
:102AF000012202EBE101A14296DCBDE8FF8FF8B5AF
:102B000006460F4614461D46082D0CD1A4F12000A0
:102B1000904901EB001010230822394600903046FE
:102B2000FFF771FF0FE0062D0DD1A4F1200000EB9F
:102B30004000894901EB40000823062239460090F5
:102B40003046FFF760FFF8BD2DE9F04106468846A4
:102B500015461F46002409E02A5D04FB076108B200
:102B60003B464146FFF7CBFF601CC4B2285D0028FE
:102B7000F2D1BDE8F0812DE9F047064689461746B7
:102B80001D46DDF82080002417E0281B411E0A2086
:102B9000FFF7B4FDB7FBF0F00A21B0FBF1F201FB47
:102BA000120000F1300A04FB086108B243465246A5
:102BB0004946FFF7A4FF601CC4B2AC42E5DBBDE8A8
:102BC000F0872DE9F04F80468A4615461E46DDF80F
:102BD0002490002D07DB4B462B2251464046FFF741
:102BE0008EFF2F4606E04B462D2251464046FFF70A
:102BF00086FF6F42002418E0301B411E0A20FFF7B9
:102C00007DFDB7FBF0F00A21B0FBF1F201FB1200F1
:102C100000F1300B611C01FB098108B24B465A469A
:102C20005146FFF76CFF601CC4B2B442E4DBBDE860
:102C3000F08F2DE9F04706468A4691461F46DDF89B
:102C40002080002421E0381B411E1020FFF756FD94
:102C5000B9FBF0F000F00F050A2D0ADA05F130019A
:102C6000CAB204FB086108B243465146FFF747FF6A
:102C700009E005F13701CAB204FB086108B2434616
:102C80005146FFF73CFF601CC4B2BC42DBDBBDE831
:102C9000F0872DE9F0470646894617461D46DDF8C0
:102CA0002080002414E0281B411E0220FFF726FD8F
:102CB000B7FBF0F000F0010000F1300A04FB0861FE
:102CC00008B2434652464946FFF719FF601CC4B29A
:102CD000AC42E8DBBDE8F0872DE9F04F2DED088B25
:102CE00081B005468B46B0EE408AF0EE608A16460B
:102CF0009A46129C9FED190B53EC102B51EC180BBC
:102D000003F0C2FD06D823462B2259462846FFF77A
:102D1000F6FE0BE023462D2259462846FFF7EFFE2C
:102D200051EC180B81F0004141EC180B51EC180BE1
:102D300003F079FD8046404603F049FD41EC190B54
:102D400053EC182B03F04EFC41EC180B514609E0F4
:102D50006C0600206C8200005C880000000000000F
:102D6000000000000A20FFF7C9FC0746384603F0C0
:102D70002EFD41EC1B0B53EC182B03F036FC41EC01
:102D80001A0BB0EE4A0AF0EE6A0A04F0D9F9B0EE76
:102D9000409AF0EE609A51EC190B03F044FD814625
:102DA000B9FBF7F08044291908B233464246594628
:102DB0000094FFF7E0FE711C01FB045108B22346AA
:102DC0002E225946FFF79BFEB11C01FB045108B2AD
:102DD00053464A4659460094FFF7CDFE01B0BDEC7C
:102DE000088BBDE8F08F2DE9FC47804689461646E2
:102DF00000270020019000253AE0705D01A9C85528
:102E0000781CC7B2022F31DB002700240CE0C4EB92
:102E1000C40101EB8101FE4A881801A903F030FBCF
:102E200000B90CE0601CC4B2C4EBC40101EB810129
:102E3000F74A8818F7A103F023FB0028E7D100BF69
:102E4000C4EBC40000EB8000F1490844C01C05F14C
:102E5000010A0AEBDA714910491E08EB01110090D2
:102E600008B210231A464946FFF7CDFD681CC5B2CB
:102E7000705D0028C1D1BDE8FC870FB470B5C2B049
:102E800005460E4614464AA8019002A8019A49999F
:102E900003F0C6FE00200190234602AA31462846D0
:102EA000FFF752FE42B070BC5DF814FB70B50346EC
:102EB000002B20DB7F2B1EDC00291CDB3F291ADCCA
:102EC000CC1701EB5474E410D34D05EBC414E45C4F
:102ED0000A46CD1701EB5575ED10A1EBC50601258E
:102EE000B5402C430846CD1701EB5575ED10CA4E81
:102EF00006EBC515EC5470BD70B50246002A19DB0F
:102F00007F2A17DC002915DB3F2913DCCC1701EBE6
:102F10005474E410C04D05EBC414A45CCD1701EB50
:102F20005575ED10A1EBC5060125B5402C400CB13F
:102F3000012070BD0020FCE72DE9FF4F86B0069E02
:102F4000079CDDF82080DDF824900020019000909F
:102F50004C450FD1464502DDB2464646D046354681
:102F600005E021462846FFF7A1FF681C05B245454C
:102F7000F7DD99E046450FD14C4502DDA2464C46AF
:102F8000D146274605E039463046FFF78FFF781CCB
:102F900007B24F45F7DD87E0464505DDB2464646B8
:102FA000D046A2464C46D1464C4507DD604204B2AD
:102FB000C9F100000FFA80F901200190A9EB04008B
:102FC000A8EB0601884207DDB24626465446C246B3
:102FD000C846D14601200090A8EB060000B205903B
:102FE000A9EB04000FFA80FB4FEA4B0000B20390FC
:102FF0000598ABEB0000400000B202900598C0EBD2
:103000004B0000B2049035462746019838B100982D
:1030100028B1684201B23846FFF748FF12E0019834
:1030200028B1784201B22846FFF740FF0AE0009835
:1030300020B129463846FFF739FF03E039462846D4
:10304000FFF734FF2EE0681C05B20498002805DA6B
:10305000DDE90310084400B2049006E0781C07B2D2
:1030600002990498084400B20490019838B100987D
:1030700028B1684201B23846FFF718FF12E0019804
:1030800028B1784201B22846FFF710FF0AE0009805
:1030900020B129463846FFF709FF03E039462846A4
:1030A000FFF704FF4545CEDB0AB0BDE8F08F2DE900
:1030B000F04705460E4617469846DDF820A0BAF1BF
:1030C000000F24D12C460CE031462046FFF7EEFEDF
:1030D00006EB0800401E01B22046FFF7E7FE601C29
:1030E00004B2E819A042EFDC34460BE02146284642
:1030F000FFF7DCFEE919491E08B22146FFF7D6FEAC
:10310000601C04B206EB0800A042EFDC14E02C4681
:103110000FE0B14607E049462046FFF7C7FE09F138
:1031200001000FFA80F906EB08004845F3DC601C4B
:1031300004B2E819A042ECDCBDE8F0872DE9FF4FAE
:1031400087B014461D46DDE91467DDF81C80DDF804
:103150002090DDF81C80CDF81880DDF82090CB465B
:10316000DDF81C80ADF80C80ADF80E40ADF81060B5
:10317000DDF82090ADF80490ADF80650ADF8087079
:10318000169890B92B462246DDE90701FFF7D4FED9
:103190003B463246DDE90701FFF7CEFE3B463246AD
:1031A00029462046FFF7C8FE40E0444500DAA04625
:1031B000464500DAB0464D4500DAA9464F4500DAEB
:1031C000B9460698844200DD06940698864200DDE2
:1031D00006965D4500DDAB465F4500DDBB46C24659
:1031E00021E0CDF8149010E00598534601AA03A9F8
:1031F00000900320FFF78CFA18B150460599FFF7AD
:1032000055FE0598401C00B205900598584505E00C
:10321000968A0000000000006C060020E4DD0AF140
:1032200001000FFA80FA06988245DADD0BB0BDE89E
:10323000F08F2DE9F04F07460E4691469A46C9F1A8
:10324000010B00254C46321911B27A1910B2FFF762
:103250002DFE321B11B27A1B10B2FFF727FE721936
:1032600011B23A1910B2FFF721FE721B11B23A1BCC
:1032700010B2FFF71BFEBAF1000F0FD060420FFA39
:1032800080F809E006EB080001B23846FFF70EFEB1
:1032900008F101000FFA80F8A045F3DB75E0681C27
:1032A00005B2BBF1000F05DA6800401C58440FFA64
:1032B00080FB07E0601E04B2281B4000401C5844FD
:1032C0000FFA80FB321911B27A1910B2FFF7EEFD36
:1032D000721911B23A1910B2FFF7E8FD321B11B2A0
:1032E0007A1B10B2FFF7E2FD721B11B23A1B10B24B
:1032F000FFF7DCFD321B11B27A1910B2FFF7D6FDD1
:10330000721B11B23A1910B2FFF7D0FD321911B287
:103310007A1B10B2FFF7CAFD721911B23A1B10B234
:10332000FFF7C4FDBAF1000F2FD060420FFA80F80A
:1033300011E006EB080211B27A1910B2FFF7B6FDE0
:1033400006EB080211B27A1B10B2FFF7AFFD08F1CD
:1033500001000FFA80F8A045EBDB68420FFA80F815
:1033600011E006EB080211B23A1B10B2FFF79EFD06
:1033700006EB080211B23A1910B2FFF797FD08F1F7
:1033800001000FFA80F8A845EBDBA54287DBBDE81A
:10339000F08F2DE9FF4F2DED108B87B007460E46BD
:1033A0009B46DDF864A0D94600254C46C9F10000D3
:1033B00003F0FCF941EC1E0B9FEDFA0B53EC102BC4
:1033C00003F06CF841EC1C0B0AFB0AF003F0EEF979
:1033D00041EC1D0B53EC1C2B03F007F941EC1A0BCD
:1033E00009FB09F003F0E2F941EC1B0B53EC1A2B3B
:1033F00003F054F841EC190B03F05EFA08EE900A62
:103400002498A8B160420FFA80F80FE006EB08009C
:1034100001B23846FFF74AFD06EB080001B2384614
:10342000FFF744FD08F101000FFA80F8A045EDDB3D
:10343000321911B27A1910B2FFF738FD321B11B2EE
:103440007A1B10B2FFF732FD321911B27A1B10B29B
:10345000FFF72CFD321B11B27A1910B2FFF726FDCF
:103460005CE0F5EEC08AF1EE10FA0DD809FB09F028
:103470006900C91C484300EE100AB8EEC00A30EEDD
:10348000280AF0EE408A15E009FB09F06900C91C22
:1034900048430AFB0AF16200C2F1020201FB02008A
:1034A00000EE100AB8EEC00A30EE280AF0EE408AAC
:1034B000601E04B2681C05B22498B8B160420FFACD
:1034C00080F811E006EB080211B27A1910B2FFF78A
:1034D000EDFC06EB080211B27A1B10B2FFF7E6FC16
:1034E00008F101000FFA80F8A045EBDB321911B2A8
:1034F0007A1910B2FFF7DAFC321B11B27A1B10B244
:10350000FFF7D4FC321911B27A1B10B2FFF7CEFCD0
:10351000321B11B27A1910B2FFF7C8FC204603F033
:1035200045F941EC1D0B9FED9F0B53EC102B03F065
:1035300056F841EC1B0B0AFB0AF003F037F941EC9B
:103540001C0B53EC1B2B03F050F841EC190B09FB3F
:1035500009F16A1C01FB02F003F028F941EC1A0B97
:1035600053EC192B03F078F9FFF47BAF0AFB0AF157
:1035700001FB09F101FB09F003F018F941EC1A0B0A
:103580000AFB0AF1621E514301FB02F003F00EF93F
:1035900041EC1B0B284603F009F941EC1D0B9FED94
:1035A000810B53EC102B02F079FFCDE90001284686
:1035B00003F0FCF841EC1F0B9FED7A0B53EC102B42
:1035C00002F06CFF41EC1D0B09FB09F003F0EEF873
:1035D00041EC1E0B53EC1D2B03F007F841EC1C0BC8
:1035E0009DED000B53EC102B02F0FFFF53EC1B2B57
:1035F000CDE902019DED020B51EC100B02F04EFFE4
:1036000053EC1A2BCDE904019DED040B51EC100B8A
:1036100002F0E5FF41EC190B03F04EF908EE100A39
:103620005DE0B5EEC08AF1EE10FA16D809FB09F09C
:103630006900891C41430AFB0AF06200C2F10302DF
:1036400000FB021000EE100AB8EEC00A30EE080AC5
:10365000B0EE408A681C05B20DE00AFB0AF061007A
:10366000C1F10301484300EE100AB8EEC00A30EE83
:10367000080AB0EE408A601E04B22498B8B16042D5
:103680000FFA80F811E006EB080211B27A1910B2B5
:10369000FFF70CFC06EB080211B27A1B10B2FFF721
:1036A00005FC08F101000FFA80F8A045EBDB3219A8
:1036B00011B27A1910B2FFF7F9FB321B11B27A1B63
:1036C00010B2FFF7F3FB321911B27A1B10B2FFF7F9
:1036D000EDFB321B11B27A1910B2FFF7E7FB002C99
:1036E0009FDC07B0BDEC108BBDE8FF8F2DE9F05FCC
:1036F00007460E4691469B46C9F1010A00254C46F5
:103700005A46214628460A9BFFF748F828B1321945
:1037100011B27A1910B2FFF7C9FB5A46604201B2E2
:10372000684200B20A9BFFF739F828B1321B11B288
:103730007A1B10B2FFF7BAFB5A46294620460A9B6D
:10374000FFF72CF828B1721911B23A1910B2FFF72D
:10375000ADFB5A46684201B2604200B20A9BFFF7D5
:103760001DF828B1721B11B23A1B10B2FFF79EFB75
:103770000B98B0B160420FFA80F810E05A4641460B
:1037800000200A9BFFF70AF828B106EB080001B2F7
:103790003846FFF78BFB08F101000FFA80F8A045CF
:1037A000ECDBD7E0000000000000E03F681C05B241
:1037B000BAF1000F05DA6800401C50440FFA80FA95
:1037C00007E0601E04B2281B4000401C50440FFA62
:1037D00080FA5A46214628460A9BFEF7DFFF28B1A9
:1037E000321911B27A1910B2FFF760FB5A46294616
:1037F00020460A9BFEF7D2FF28B1721911B23A197E
:1038000010B2FFF753FB5A46604201B2684200B261
:103810000A9BFEF7C3FF28B1321B11B27A1B10B20C
:10382000FFF744FB5A46684201B2604200B20A9B6D
:10383000FEF7B4FF28B1721B11B23A1B10B2FFF7AA
:1038400035FB5A46604201B228460A9BFEF7A6FFA6
:1038500028B1321B11B27A1910B2FFF727FB5A4672
:10386000684201B220460A9BFEF798FF28B1721BFE
:1038700011B23A1910B2FFF719FB5A4621466842B5
:1038800000B20A9BFEF78AFF28B1321911B27A1BE7
:1038900010B2FFF70BFB5A462946604200B20A9B62
:1038A000FEF77CFF28B1721911B23A1B10B2FFF774
:1038B000FDFA0B9800284DD060420FFA80F820E006
:1038C0005A46414628460A9BFEF768FF30B106EB90
:1038D000080211B27A1910B2FFF7E8FA5A464146C7
:1038E000684200B20A9BFEF759FF30B106EB0802AE
:1038F00011B27A1B10B2FFF7D9FA08F101000FFAE2
:1039000080F8A045DCDB68420FFA80F820E05A46D8
:103910004146604200B20A9BFEF740FF30B106EB21
:10392000080211B23A1B10B2FFF7C0FA5A464146DC
:1039300020460A9BFEF732FF30B106EB080211B2B7
:103940003A1910B2FFF7B2FA08F101000FFA80F845
:10395000A845DCDBA542FFF629AFBDE8F09F0000DB
:1039600070B504460D46E1B2F948FEF7F3FC204677
:1039700070BD70B50546F648FEF7D9FC04462046F2
:1039800070BD70B504460D4624B92946F148FEF7CE
:10399000E1FC31E0012C04D12946ED48FEF7DAFCC8
:1039A0002AE0022C04D12946EB48FEF7D3FC23E0A1
:1039B000032C04D12946E948FEF7CCFC1CE0042C7A
:1039C00004D12946E648FEF7C5FC15E0052C04D1D4
:1039D0002946E448FEF7BEFC0EE0062C04D1294639
:1039E000E148FEF7B7FC07E0072C04D12946DF4881
:1039F000FEF7B0FC00E070BD00BFFCE72DE9F04130
:103A000007460D461646002405E0295D3846FFF7B7
:103A1000B8FF601C84B2B442F7DBBDE8F08170B53A
:103A200006460C46002505E0615D3046FFF7A9FF1C
:103A3000681CC5B2605D0028F6D170BD10B50246A5
:103A4000012000E050430B1EA1F10101FAD110BD8D
:103A50002DE9F04107460E461446002513E0601B91
:103A6000411E0A20FFF7EAFFB6FBF0F00A21B0FB87
:103A7000F1F201FB120000F1300841463846FFF731
:103A800080FF681CC5B2A542E9DBBDE8F08170B5D6
:103A90000121B048FEF799FC05464FF0807040695F
:103AA0002946026DAB4890474FF080704069C16A6B
:103AB000A848884700B970BD06E04FF080704069A3
:103AC000416BA4488847C4B24FF080704069C16A16
:103AD000A04888470028F0D100BFECE770B54FF050
:103AE0008070406C8169A24888474FF08070406CBC
:103AF0008169A04888474FF08070006A816E01207C
:103B000088474FF08070006A0121426D4FF04020DD
:103B100090474FF08070006A816E40F20140884704
:103B20004FF08070006A0221426D4FF040209047B4
:103B3000FDF7F5FF05464FF08070406960234FF4B4
:103B4000E132294644698348A0474FF080704069BC
:103B5000416E804888474FF0807040691021426C68
:103B60007C4890474FF08070806C0021826915205E
:103B70009047AFF2E5017748FEF703FC4FF0807005
:103B8000806C0168152088474FF08071896C486807
:103B9000804770BD70B54FF08070406C816974488B
:103BA000401C88474FF08070406C81697148401C10
:103BB00088474FF08070006A816E4FF0011088478F
:103BC0004FF08070006A0121426D6B4890474FF0C2
:103BD0008070006A816E694888474FF08070006A83
:103BE0000221426D64489047FDF799FF05464FF06A
:103BF0008070406960234FF4E1322946446954489B
:103C0000A0474FF080704069416E514888474FF09F
:103C1000807040691021426C4D4890474FF0807091
:103C2000806C002182691620904755494848FEF76C
:103C3000A8FB4FF08070806C0168162088474FF019
:103C40008071896C4868804770BD70B50121424819
:103C5000FEF7BBFB05464FF0807040692946026DB8
:103C60003D4890474FF080704069C16A3A488847A4
:103C700000B970BD06E04FF080704069416B364876
:103C80008847C4B24FF080704069C16A32488847A3
:103C90000028F0D100BFECE770B54FF08070406CA9
:103CA00081693348C01C88474FF08070406C81693F
:103CB0003048801C88474FF08070006A816E314820
:103CC00088474FF08070006A4021426D2E4890472F
:103CD0004FF08070006A816E2C4888474FF08070EA
:103CE000006A8021426D28489047FDF718FF05467D
:103CF0004FF08070406960234FF4E13229464469F7
:103D00001548A0474FF080704069416E12488847BF
:103D10004FF0807040691021426C0F4890474FF07F
:103D20008070806C0021826931209047AFF2E501FC
:103D30000948FEF726FB4FF08070806C0168312047
:103D400088474FF08071896C4868804770BD0000DB
:103D500000D0004000C0004000E0004000F0004003
:103D600000000140001001400020014000300140EF
:103D7000000800F0001800F00050004001040100AD
:103D8000816000000118030000700040011C030066
:103D900070B50121FE48FEF718FB05464FF0807014
:103DA00040692946026DFA4890474FF0807040699B
:103DB000C16AF748884700B970BD06E04FF08070CF
:103DC0004069416BF2488847C4B24FF08070406947
:103DD000C16AEF4888470028F0D100BFECE770B512
:103DE0004FF08070406C8169EA4888474FF08070DE
:103DF000406C8169E84888474FF08070006A816EA6
:103E0000E64888474FF08070006A4021426DE448E0
:103E100090474FF08070006A816EE24888474FF00B
:103E20008070006A8021426DDD489047FDF777FE83
:103E300005464FF08070406960234FF4E132294617
:103E40004469D348A0474FF080704069416ED04824
:103E500088474FF0807040691021426CCC489047F1
:103E60004FF08070806C002182694B209047AFF248
:103E7000DF01C748FEF785FA4FF08070806C01685B
:103E80004B2088474FF08071896C4868804770BD2F
:103E900070B50121C448FEF798FA05464FF08070CE
:103EA00040692946026DC04890474FF080704069D4
:103EB000C16ABD48884700B970BD06E04FF0807008
:103EC0004069416BB8488847C4B24FF08070406980
:103ED000C16AB54888470028F0D100BFECE770B54B
:103EE0004FF08070406C8169AA4888474FF080701D
:103EF000406C8169A848401C88474FF08070006A78
:103F0000816EAA4888474FF08070006A1021426D88
:103F1000A34890474FF08070006A816EA44888479C
:103F20004FF08070006A2021426D9D489047FDF758
:103F3000F6FD05464FF08070406960234FF4E13292
:103F4000294644699848A0474FF080704069416E07
:103F5000954888474FF0807040691021426C924824
:103F600090474FF08070806C002182694C20904710
:103F7000AFF2E3018C48FEF704FA4FF08070806CDA
:103F800001684C2088474FF08071896C48688047F1
:103F900070BD70B54FF08070406C81697D48801CA9
:103FA00088474FF08070406C81697B48801C88474F
:103FB0004FF08070006A816E7E4888474FF08070B5
:103FC000006A1021426D7C4890474FF08070006A73
:103FD000816E7A4888474FF08070006A2021426DD8
:103FE00075489047FDF79BFD05464FF0807040698E
:103FF00060234FF41652294644697148A0474FF098
:1040000080704069416E6E4888474FF0807040690B
:104010001021426C6A4890474FF08070806C2021DC
:1040200082694D20904767496548FEF7AAF94FF02D
:104030008070806C01684D2088474FF08071896CDA
:104040004868804770BD70B54FF08070406C8169E2
:104050005048401C88474FF08070406C81694E4842
:10406000C01C88474FF08070006A816E56488847B0
:104070004FF08070006A1021426D544890474FF015
:104080008070006A816E524888474FF08070006AE5
:104090002021426D4D489047FDF741FD05464FF008
:1040A0008070406960234FF4613229464469494871
:1040B000A0474FF080704069416E464888474FF0F6
:1040C000807040691021426C424890474FF08070E8
:1040D000806C202182694E2090473F493D48FEF781
:1040E00050F94FF08070806C01684E2088474FF087
:1040F0008071896C4868804770BD70B50121374870
:10410000FEF763F905464FF0807040692946026D5D
:10411000324890474FF080704069C16A2F48884705
:1041200000B970BD06E04FF080704069416B2B48CC
:104130008847C4B24FF080704069C16A27488847F9
:104140000028F0D100BFECE770B54FF08070406CF4
:1041500081691048801C88474FF08070406C8169ED
:104160000D48001D88474FF08070006A816E1C4822
:1041700088474FF08070006A0121426D0E489047D9
:104180004FF08070006A816E164888472CE000006E
:1041900000F00040020800F0031800F001180200CF
:1041A00000600040011C02000000014001100200FC
:1041B0000114020001100400004002400114040038
:1041C00000100140AF6200000110030000700040C9
:1041D0000114030000200140B355000000300140ED
:1041E00001000400010404004FF08070006A022105
:1041F000426DFE489047FDF792FC05464FF08070F7
:10420000406960234FF4E13229464469F848A047E9
:104210004FF080704069416EF54888474FF08070DC
:1042200040691021426CF24890474FF08070806CDA
:10423000002182694F209047AFF24111EC48FEF710
:10424000A0F84FF08070806C01684F2088474FF0D5
:104250008071896C4868804770BD70B50121E54860
:10426000FEF7B3F805462946E248FEF7B4F8E14800
:10427000FEF747F800B970BD03E0DE48FEF74DF8E1
:10428000C4B2DC48FEF73DF80028F6D100BFF2E7E3
:1042900010B5D948FDF7E6F8D848FDF7E3F8012056
:1042A000FCF7D0FB01214FF04020FCF73EFB40F231
:1042B0000140FCF7C7FB02214FF04020FCF735FB23
:1042C000FDF72DFC044660234FF4E1322146C94836
:1042D000FDF784FFC748FDF7C2FF1021C548FEF770
:1042E0006CF800211520FCF739FCAFF29101C148B0
:1042F000FEF747F81520FCF753FCFCF7E5FB10BD73
:1043000070B50121BE48FEF760F805462946BC4855
:10431000FEF761F8BA48FDF7F4FF00B970BD03E09D
:10432000B748FDF7FAFFC4B2B548FDF7EAFF002829
:10433000F6D100BFF2E710B5AF48401CFDF792F888
:10434000AE48401CFDF78EF84FF00110FCF77AFBE9
:104350000121AC48FCF7E9FAAB48FCF773FB0221FA
:10436000A848FCF7E2FAFDF7DAFB044660234FF4B5
:10437000E1322146A248FDF731FFA148FDF76FFF6A
:1043800010219F48FEF719F800211620FCF7E6FBE4
:10439000AFF293019A48FDF7F4FF1620FCF700FCFA
:1043A000FCF792FB10BD70B501219848FEF70DF89F
:1043B000054629469548FEF70EF89448FDF7A1FFFB
:1043C00000B970BD03E09148FDF7A7FFC4B28F4864
:1043D000FDF797FF0028F6D100BFF2E710B5864839
:1043E000C01CFDF73FF88548801CFDF73BF8884866
:1043F000FCF728FB40218748FCF797FA8648FCF732
:1044000021FB80218348FCF790FAFDF788FB0446E6
:1044100060234FF4E13221467C48FDF7DFFE7B4804
:10442000FDF71DFF10217948FDF7C7FF002131205E
:10443000FCF794FBAFF291017448FDF7A2FF312025
:10444000FCF7AEFBFCF740FB10BD10B56A48801CC2
:10445000FDF708F86948C01CFDF704F86F48FCF741
:10446000F1FA40216E48FCF760FA6E48FCF7EAFA70
:1044700080216B48FCF759FAFDF751FB0446602395
:104480004FF4E13221466848FDF7A8FE6648FDF783
:10449000E6FE10216448FDF790FF00214B20FCF759
:1044A0005DFBAFF249216048FDF76BFF4B20FCF745
:1044B00077FBFCF709FB10BD10B54F48801CFCF7DB
:1044C000D1FF4E48001DFCF7CDFF5848FCF7BAFA63
:1044D00010215348FCF729FA5548FCF7B3FA20217C
:1044E0004F48FCF722FAFDF71AFB044660234FF40D
:1044F000E13221464F48FDF771FE4E48FDF7AFFE11
:1045000010214C48FDF759FF00214C20FCF726FBF9
:10451000AFF2B9214748FDF734FF4C20FCF740FBD0
:10452000FCF7D2FA10BD10B53348001DFCF79AFF16
:104530003248401DFCF796FF3F48FCF783FA1021F4
:104540002A48FCF7F2F93D48FCF77CFA202127487D
:10455000FCF7EBF9FDF7E3FA044660234FF4E13290
:1045600021463748FDF73AFE3548FDF778FE102121
:104570003348FDF722FF00214D20FCF7EFFAAFF2A0
:1045800025312F48FDF7FDFE4D20FCF709FBFCF718
:104590009BFA10BD10B51848C01CFCF763FF174804
:1045A000801DFCF75FFF2748FCF74CFA10211948E3
:1045B000FCF7BBF92448FCF745FA20211548FCF725
:1045C000B4F9FDF7ACFA044660234FF4E13221461A
:1045D0001E48FDF703FE1D48FDF741FE10211B4854
:1045E000FDF7EBFE00214E2032E0000000400240CB
:1045F0000030014000C00040000800F0001800F04A
:1046000000D00040005000400104010000E00040E4
:104610000118030000700040011C03000118020093
:1046200000600040011C020000F000400110020088
:1046300001140200000001400110040001140400F4
:10464000001001400110030001140300002001408C
:10465000FCF784FAAFF2FD316248FDF792FE4E207E
:10466000FCF79EFAFCF730FA10BD10B55E48FCF777
:10467000F9FE5E48FCF7F6FE5D48FCF7E3F9012120
:104680005C48FCF752F95C48FCF7DCF90221594818
:10469000FCF74BF9FDF743FA044660234FF4E1328F
:1046A00021465648FDF79AFD5448FDF7D8FD1021E4
:1046B0005248FDF782FE00214F20FCF74FFAAFF27F
:1046C00065414E48FDF75DFE4F20FCF769FAFCF7A7
:1046D000FBF910BD70B501214948FDF776FE05468E
:1046E00029464748FDF777FE4548FDF70AFE00B921
:1046F00070BD03E04248FDF710FEC4B24048FDF72C
:1047000000FE0028F6D100BFF2E770B501213D4858
:10471000FDF75BFE054629463A48FDF75CFE394841
:10472000FDF7EFFD00B970BD03E03648FDF7F5FD7C
:10473000C4B23448FDF7E5FD0028F6D100BFF2E72A
:1047400070B501213048FDF740FE054629462E4848
:10475000FDF741FE2C48FDF7D4FD00B970BD03E024
:104760002948FDF7DAFDC4B22748FDF7CAFD002845
:10477000F6D100BFF2E770B501211A48FDF725FE1A
:10478000054629461748FDF726FE1648FDF7B9FDF0
:1047900000B970BD03E01348FDF7BFFDC4B2114876
:1047A000FDF7AFFD0028F6D100BFF2E770B501219B
:1047B0001248FDF70AFE054629461048FDF70BFE94
:1047C0000E48FDF79EFD00B970BD03E00B48FDF7F4
:1047D000A4FDC4B20948FDF794FD0028F6D100BF3E
:1047E000F2E7000000200140040800F0071800F084
:1047F00001000400004002400104040000300140B8
:1048000000F00040000001400010014010B54FF0E2
:104810008070406C81692F4888474FF08070C06B72
:104820002221C2682C489047FDF779F96421B0FB3A
:10483000F1F44FF08070C06B2246FF21836B264855
:1048400098474FF08070806C0168232088474FF0B4
:104850008070C06B0121C26C1F4890471F4AFF2126
:104860001D48FDF725FC4FF08071896C4868804732
:104870004FF08070C06BFF214268174890474FF09F
:104880008070806C102182692320904710BD10B584
:10489000044694ED010A84ED000A01F090FD00EE5B
:1048A000100AB8EE400ADFED0E0A80EE201A84ED01
:1048B000011A94ED010AD4ED000A30EE600A84ED8D
:1048C000020A94ED020ABCEEC00A10EE100AA081A2
:1048D00010BD0000000400F000000340AD5A0000CD
:1048E00000007A4470B52DED048B4FF4B010FDF745
:1048F000DAF98848FCF7B6FD8748FCF7B3FD0221DA
:104900008648FBF7D6FF04218448FBF7D2FF844892
:10491000FCF798F88348FCF795F80222402182487A
:10492000FCF768FA022280217F48FCF763FA42F222
:10493000107240217C48FCF772FA42F2107280211A
:104940007948FCF76CFA40217748FCF773FA054682
:1049500001F03DFF41EC190B9FED740B53EC102B54
:1049600001F043FE41EC180B01F05DFF04462246C6
:1049700041216D48FCF774FA80216B48FCF75AFA24
:10498000054601F024FF41EC190B9FED680B53EC39
:10499000102B01F02AFE41EC180B01F044FF0446F5
:1049A000224682216048FCF75BFA012202215E4820
:1049B000FCF791FA012204215B48FCF78CFA4021B4
:1049C0005948FCF743FA80215748FCF73FFABDEC01
:1049D000048B70BD2DE9F04781460E461746C42E64
:1049E0001ED008DC402E0FD0412E10D0822E11D0C8
:1049F000832E23D111E0C52E15D0B6F5837F15D0B7
:104A0000A6F20710D0B915E04024012516E0402495
:104A1000022513E08024042510E0802408250DE001
:104A2000C02410250AE0C024202507E04FF480743C
:104A3000402503E04FF48074802500BF00BF3D484F
:104A4000B0FBF7F8424621464846FCF7E8F9012258
:104A500029464846FCF73FFA21464846FCF7F6F956
:104A6000BDE8F0872DE9F0412DED028B07460E469B
:104A7000B0EE408AC42E1ED008DC402E0FD0412E4E
:104A800010D0822E11D0832E23D111E0C52E15D047
:104A9000B6F5837F15D0A6F20710D0B915E04024F3
:104AA000012516E04024022513E08024042510E0AF
:104AB000802408250DE0C02410250AE0C02420250C
:104AC00007E04FF48074402503E04FF480748025A4
:104AD00000BF00BF21463846FCF7ACF900EE100AD3
:104AE000B8EE400A20EE080ABCEEC00A10EE108AAA
:104AF000424631463846FCF7B3F90122294638468A
:104B0000FCF7E9F921463846FCF7A0F9BDEC028B29
:104B1000BDE8F081004000F0070800F0007002409E
:104B200004040700040807000080024000000000A1
:104B30000000E03F404B4C0010B501212748FBF737
:104B40008CFD044621462548FBF78FFD04F040000C
:104B5000402809D1322001F057FC40211F48FBF7C3
:104B6000A3FD322001F050FC10BD10B51C48FCF72D
:104B700079FC002240211948FBF7C4FB0A230122DB
:104B800040211648FBF74BFC002240211348FBF75D
:104B9000E9FBAFF25B011148FBF76AFDE02113204E
:104BA000FBF7DCFF40210D48FBF74BFD1320FBF723
:104BB000F7FFFBF789FF10BD10B50948801DFCF712
:104BC00051FC00220F210748FBF79CFB0A2301221E
:104BD0000F210448FBF723FC10BD000000700040CB
:104BE000030800F00010064010B58F48FCF73AFCAF
:104BF0008D48C01EFCF736FC00BF8B48FCF7B5FBA8
:104C00000028FAD000BF8848C01EFCF7AEFB002881
:104C1000F9D001218548FBF7D4FD02218348FBF739
:104C2000D0FD04218148FBF7CCFD01218048FBF732
:104C3000C8FD002204217D48FBF746FD0022022129
:104C40007A48FBF741FD002201217948FBF73CFD42
:104C5000002201217548FBF737FDFFF743FE10BD29
:104C600070B504460D46B4F57A7F01DB40F2E734B7
:104C700014F57A7F00DC6F4CB5F57A7F01DB40F2EA
:104C8000E73515F57A7F00DC6A4D142C09DA14F14A
:104C9000140F06DD4FF4966241216748FFF79AFE34
:104CA00016E0002C0ADB002201216148FBF70CFD15
:104CB000224641216048FFF78DFE09E0012211469E
:104CC0005B48FBF701FD624241215B48FFF782FE32
:104CD000142D09DA15F1140F06DD4FF496628221C6
:104CE0005548FFF777FE16E0002D0ADB0022012170
:104CF0004E48FBF7E9FC2A4682214F48FFF76AFE3F
:104D000009E0012211464948FBF7DEFC6A42822194
:104D10004948FFF75FFE70BD70B50446002C1EDBEE
:104D2000002201214248FBF7CFFC642001F072FB16
:104D3000002511E0022211463C48FBF7C5FC642027
:104D400001F068FB002202213848FBF7BDFC64201B
:104D500001F060FB681C05B2A542EBDB1FE060427E
:104D600004B2012211463248FBF7AEFC642001F088
:104D700051FB002511E0022211462C48FBF7A4FC50
:104D8000642001F047FB002202212848FBF79CFC2D
:104D9000642001F03FFB681C05B2A542EBDB70BD4F
:104DA00070B50446002C1EDB002201211F48FBF7D2
:104DB0008BFC642001F02EFB002511E0042211463B
:104DC0001A48FBF781FC642001F024FB0022042137
:104DD0001648FBF779FC642001F01CFB681C05B247
:104DE000A542EBDB1FE0604204B2012211460F48EE
:104DF000FBF76AFC642001F00DFB002511E00422A2
:104E000011460A48FBF760FC642001F003FB002216
:104E100004210648FBF758FC642001F0FBFA681CEB
:104E200005B2A542EBDB70BD070800F00070024040
:104E30000040024019FCFFFF0080024085B00020C6
:104E40004AE000EB8001F74A32F82110F1B3F6494D
:104E50000988491CF44A1180BDF8001000EB80025B
:104E6000F04B33F82220114409B2ADF80010BDF820
:104E7000021000EB800203EB82025288114489B2D7
:104E8000ADF8021000EB800203EB82020199526838
:104E9000114401919DF8081000EB800203EB82029F
:104EA000127A1144C9B28DF8081000EB800203EBAE
:104EB00082020399D26811440391BDF8101000EBEF
:104EC000800203EB8202128A114400E002E009B280
:104ED000ADF81010411CC8B20C28B2DBD2490988C9
:104EE00000293AD0BDF90010CF4A128891FBF2F1A7
:104EF000CE4A1180BDF80210CB4A128891FBF2F124
:104F0000CB4A1180C84A12880199B1FBF2F1C94A13
:104F100011609DF80810C44A128891FBF2F1C64A4C
:104F20001170C14A12880399B1FBF2F1C34A1160B2
:104F3000BDF91010BC4A128891FBF2F1C04A1180F1
:104F40000021ADF80010ADF8021001918DF80810A5
:104F50000391ADF81010B44A118005B0704710B538
:104F60000446B848007804280BDAAA2C05D1B548C5
:104F70000078401CB3490870CAE00020B1490870AD
:104F8000C6E0B04800780A286FDAAE4800780328F7
:104F90006BDDAC480078001F062867D2DFE800F020
:104FA00003156D7F919E54B9A6480078401CA54911
:104FB0000870A54800782044A3490870A0E00020AC
:104FC000A0490870A049087000BF022C0DD1022032
:104FD0009E4908709B480078401C9A4908709A487E
:104FE00000782044984908708AE00D2C0DD10D20DE
:104FF0009649087093480078401C9249087092487E
:1050000000782044904908707AE00F2C0DD10F20D1
:105010008E4908708B480078401C8A4908708A487D
:1050200000782044884908706AE0102C0DD11020C7
:105030008649087083480078401C8249087082487D
:1050400000782044804908705AE0142C0FD11420B5
:105050007E4908707B480078401C7A4908707A487D
:1050600000782044784908704AE04AE047E0002090
:10507000744908707449087000BF54B971480078C9
:10508000401C704908707048007820446E490870D0
:1050900036E000206B4908706B49087000BF54B9B6
:1050A00068480078401C67490870674800782044C9
:1050B0006549087024E00020624908706249087060
:1050C00000BF634804705F480078401C5D49087069
:1050D0005D48007820445C49087011E05C48007825
:1050E00000EB04205A49087056480078401C554986
:1050F00008705548007820445349087000E000BF0C
:1051000006E0504800780A2802D100205149087072
:105110004E48007802287DD14E4800780028FAD108
:1051200048480078092875DD46480078BE2872DABC
:10513000444800780A380F2190FBF1F201FB12007D
:1051400045490870084600780F286AD2DFE800F069
:10515000081A3649889BB8D5F9F7F6F5F4F3F2004A
:105160003E48007800EB80002E4921F82040364868
:10517000007820443449087032480078401C314996
:10518000087092E13548007800EB8000254931F83D
:10519000200000EB042000B23049097801EB8101C6
:1051A000204A22F821002848007820442649087027
:1051B00024480078401C2349087076E1274800788D
:1051C00000EB8000174901EB800044801E48007806
:1051D00020441D4908701B480078401C194908707C
:1051E00063E11E48007800EB80000E4901EB80006F
:1051F000408800EB04201949097801EB8101094A34
:1052000002EB810148801048007820440E49087064
:105210000C4801E0CCE149E10078401C09490870E4
:1052200043E141E1340B0020180000202800002059
:105230002A0000203000002026000020340000203A
:105240002C0000200A0000200B0000200D00002090
:105250000E00002014000020150000200C0000208B
:10526000F948007800EB8000F84901EB80004460C9
:10527000F74800782044F6490870F6480078401C4A
:10528000F449087011E1F048007800EB8000EF4924
:1052900001EB8000406800EB0420EB49097801EB4A
:1052A0008101EA4A02EB81014860E9480078204424
:1052B000E7490870E7480078401CE6490870F4E0C8
:1052C000E148007800EB8000E04901EB8000406895
:1052D00000EB0440DC49097801EB8101DB4A02EB79
:1052E00081014860DA4800782044D9490870D948DB
:1052F0000078401CD7490870D7E0D348007800EB0D
:105300008000D24901EB8000406800EB0460CE4988
:10531000097801EB8101CD4A02EB81014860CC485C
:1053200000782044CA490870CA480078401CC9491E
:105330000870BAE095E081E063E045E027E013E023
:10534000FFE7C148007800EB8000C04901EB800016
:105350000472BF4800782044BD490870BD480078F9
:10536000401CBC490870A0E0B748007800EB800002
:10537000B64901EB8000C460B54800782044B449C8
:105380000870B4480078401CB24908708DE0AE48FF
:10539000007800EB8000AD4901EB8000C06800EBB5
:1053A0000420A949097801EB8101A84A02EB810197
:1053B000C860A74800782044A5490870A54800782F
:1053C000401CA449087070E09F48007800EB800002
:1053D0009E4901EB8000C06800EB04409A490978BF
:1053E00001EB8101994A02EB8101C860984800787D
:1053F00020449749087097480078401C95490870E8
:1054000053E09148007800EB8000904901EB800068
:10541000C06800EB04608C49097801EB81018B4A7C
:1054200002EB8101C8608A480078204488490870EE
:1054300088480078401C8749087036E08248007828
:1054400000EB8000814901EB8000048280480078F5
:1054500020447F4908707F480078401C7D490870CF
:1054600023E07948007800EB8000784901EB800068
:10547000008A00EB042000B27349097801EB810136
:10548000724A02EB81010882714800782044704919
:10549000087070480078401C6E4908706A480078AF
:1054A000401C6949087000E000BF00BF69480078EF
:1054B000BE280CD16848046066480078401C6549E5
:1054C00008706348007820446149087070E06148C2
:1054D0000078BF2810D16048006800EB04205E49C6
:1054E00008605C480078401C5A49087058480078A9
:1054F0002044574908705BE056480078C02810D116
:105500005548006800EB0440534908605148007852
:10551000401C504908704E48007820444C4908709F
:1055200046E04C480078C12810D14B48006800EB99
:1055300004604949086047480078401C45490870A4
:105540004348007820444249087031E041480078DF
:10555000C2282DD13E480078844206D1FFF76EFC68
:105560003E480088401C3D490880384800883C4936
:1055700008803648B0F9000040F6AC51884208DA9D
:105580003248008836490880084600883549088036
:1055900003E0344800883249088000202C49087014
:1055A0002C490870012030490870002026490870F5
:1055B00010BD70B501212D48FCF707FF05464FF0DF
:1055C000807040692946026D2848904709E04FF0F5
:1055D00080704069416B25488847C4B22046FFF778
:1055E000BEFC4FF080704069C16A2048884700289F
:1055F000EDD170BD10B5044621461D4800F02EFFC8
:1056000008B1012010BD0020FCE710B5C8211848E2
:1056100000F019FF00201749088010BD0146164808
:10562000164AB2F9002020F812101448B0F9000010
:10563000401C142290FBF2F302FB130000B20F4A4D
:105640001080002026E000000C000020340B002019
:105650000B0000200A000020100000202400002081
:105660002800002008000020140000200020014035
:105670006C0A002000000020380C002020000020D0
:105680000C4A32F810200C4B1B881A4412B20A4BF9
:105690001A80401C1428F3DB0748B0F900001422DC
:1056A00090FBF2F000B2044A10801046B0F90000FE
:1056B00070470000380C0020220000209FED580A9F
:1056C000584880ED010A9FED560A80ED070AB8EEB2
:1056D000000A80ED060A9FED520A80ED050ABBEE36
:1056E0000E0A80ED040A9FED4E0A80ED020A9FED3E
:1056F0004C0A80ED030A9FED4A0A80ED000A9FEDF7
:10570000480A494880ED010A9FED450A80ED070AE5
:10571000B8EE000A80ED060A9FED410A80ED050A09
:10572000BBEE0E0A80ED040A9FED3D0A80ED020AF1
:105730009FED3B0A80ED030A9FED390A80ED000AD8
:105740007047F0EE400AC0ED070A90ED000A90EDB8
:10575000071A30EE410A80ED010A90ED040A90ED3F
:10576000011A20EE010A80ED070A90ED070A704742
:10577000F0EE400AC0ED070A90ED000A90ED071A1E
:1057800030EE410A80ED010A90ED030A90ED011A16
:1057900030EE010A80ED030A90ED040A90ED011A43
:1057A00020EE010A90ED051AD0ED031A01EE210A50
:1057B00080ED070A90ED070A7047F0EE400AC0ED51
:1057C000070A90ED000A90ED071A30EE410A80EDCD
:1057D000010A90ED030A90ED011A30EE010A80ED06
:1057E000030A90ED040A90ED011A20EE010A90EDF3
:1057F000051AD0ED031A01EE210A90ED011AD0ED41
:10580000021A31EE611AD0ED061A01EE810A80ED1E
:10581000070A90ED010A80ED020A90ED070A704731
:1058200000000000600C0020800C002008B54FF044
:105830008071896F086880474FF08071896F0869AF
:105840008047FE48FCF7B6F800F0A8FDFCF710FE14
:10585000FCF71CFEFCF705FFFFF7AEF9FFF72EFF84
:10586000FEF7F1FBFEF795FBFEF794F9FFF7BCF9A5
:1058700000210846FFF7F4F9FCF7CFFEFEF7C6FF5C
:105880000AE10121EE48FAF70FFF78B90120ED494E
:105890000860ED480078401CEB4908700020EB4997
:1058A0000870EB490870EB49087034E00221E448C5
:1058B000FAF7FAFE60B9E5480078401CE349087041
:1058C0000020E1490870E2490870E249087022E0CE
:1058D0000421DB48FAF7E8FE60B9DD480078401C97
:1058E000DB4908700020D8490870D8490870D949A8
:1058F000087010E00821D248FAF7D6FE58B9D5480A
:105900000078401CD34908700020CF490870CF4967
:105910000870CF490870FCF792FE0620042300901F
:10592000CD48028800210846FDF725F9062004230A
:105930000090CA48028807210020FDF71CF90620C4
:1059400004230090C648028815210020FDF713F9B2
:10595000062004230090C34802881C210020FDF784
:105960000AF9062004230090BF48028800211E2067
:10597000FDF701F9062004230090BC4802880721A6
:105980001E20FDF7F8F8062004230090B84802888E
:105990000E211E20FDF7EFF8062004230090B548E5
:1059A000028815211E20FDF7E6F80620042300904A
:1059B000B14802881C211E20FDF7DDF806200423D3
:1059C0000090AE48028823211E20FDF7D4F806205F
:1059D00004230090AA4802882A211E20FDF7CBF854
:1059E000062004230090A748028831211E20FDF7DD
:1059F000C2F8062004230090A348028800213C201E
:105A0000FDF7B9F8062004230090A048028807217A
:105A10003C20FDF7B0F80620042300909C48028843
:105A20000E213C20FDF7A7F806200423009099489A
:105A3000028815213C20FDF79EF8062004230090E3
:105A4000954802881C213C20FDF795F80620042388
:105A500000909248028823213C20FDF78CF8062014
:105A6000042300908E4802882A213C20FDF783F809
:105A70000620042300908B48028831213C20FDF74A
:105A80007AF80620042300908748028831215A20A2
:105A9000FDF771F8FCF7C1FDF3E602468A4202DD2C
:105AA000501A80B27047881A80B2FBE710B57F4861
:105AB0000088401C7D4908804FF08070C06B012138
:105AC00002687B48904760480078E8B362480088E5
:105AD0007549088061480088764908800846008832
